S00C0000726F6D6C2E737265635E
S3150000004041EA020303439B0730B510D104680B68ED
S315000000506340136044684B686340536084688B68F0
S3150000006063409360C068CB684340D36030BD0023D3
S31500000070CD5CC45C6C40D4540133102BF8D130BD38
S315000000802DE9F04F8DB04FF001080CAC064604F890
S31500000090208D0D469146114604EB08000D229B4625
S315000000A0199F04F099FA00238DF81E30179B3046ED
S315000000B02946A3F1080A189B22468DE88800534674
S315000000C08DF81F8000F0BAFA10B14FF0FF3028E02B
S315000000D0189B07EB0A0853448DF81E008DF81F0085
S315000000E08DE80801304629462246082300F0A6FA84
S315000000F00028EAD1169B08AC02978DE80804039401
S31500000100304629464A465B4600F05AF80028DCD1BC
S3150000011020464146082204F04DFA003818BF6FF019
S3150000012000000DB0BDE8F08F2DE9F04F8DB04FF017
S31500000130010A0CAC074608AD0E469346114604F874
S3150000014020AD0D2204EB0A009946DDF85C8004F030
S3150000015043FA0022189B8DF81E208DF81F20169A50
S3150000016002938DE804010395384631465A464B46BC
S3150000017000F026F810B14FF0FF301EE00095019513
S31500000180384631462246082300F058FA0028F2D1B4
S31500000190294608221A9804F01FFA189B384600933D
S315000001A0199B31460193224643468DF81FA000F065
S315000001B045FA003818BF6FF000000DB0BDE8F08FAB
S315000001C02DE9F04589B0B3F57F4F80460F461D46B1
S315000001D0DDF840A0119E74D20BB9192300E0592313
S315000001E011460DF101000D2204ACC7F39A078DF8F4
S315000001F00030063704F0F0F9330A8DF80E30404629
S3150000020039466A4623468DF80F6011F0B7F85DB39C
S315000002109DF8103083EA15238DF810309DF81130C3
S315000002206B408DF8113055440223AA4514D01AF8B4
S31500000230010B08AA1A440133102B12F8101C80EA8D
S31500000240010102F8101CF0D12346404639462246E9
S3150000025011F094F80023E8E7190705D0404639461F
S315000002602246234611F08AF84FEA161A0025129BF9
S31500000270554503EB05110BD0204601352246FFF705
S31500000280DFFE404639462246234611F077F8EEE770
S31500000290002306F00F02934205D2E05CCD5C684075
S315000002A0E0540133F7E72AB1404639462246234651
S315000002B011F064F813982146082204F08DF9002005
S315000002C001E04FF0FF3009B0BDE8F0852DE9F04FB1
S315000002D085B005460E9C18468946924600210D2299
S315000002E01E4604F0C9F91E222046002104F0C4F976
S315000002F02F88C7F3810307F4407BBBF54070D0F12C
S31500000300000B5BEB000B022B0CBFC7F3C0130023E3
S3150000031003F0FF0203923BB1BBF1000F0CBF1823A1
S315000003201E2335F8038001E0DDF80C80039ABBF14B
S31500000330000F14BF0623002302B10233109A03F103
S315000003402001304603F1180C116003F116010F9AD3
S3150000035005EB0C03116005F10A0100F801AB06225A
S315000003600293CDF804C004F037F9029BDDF804C00F
S31500000370DA79F2719A7932725A7972721A79B2729C
S315000003805B78F37215F80C303373B9F1000F0CD1AA
S31500000390BAF1FF0F02D01AF0100F02D027F46057FF
S315000003A005E04CF28F733B4002E027F40067BBB2D6
S315000003B02370A01C1B0A291D6370122204F00CF97D
S315000003C0EB8AB9F1000F02D103F00F0300E000231E
S315000003D0237504F1160000236375BBF1000F06D0E8
S315000003E0062205F1180104F0F7F804F11C00039B3E
S315000003F07BB1B9F1000F06D180F8019008F00F0823
S3150000040080F8008005E080F800804FEA182880F820
S31500000410018005B0BDE8F08F2DE9F04192B01D4690
S3150000042004AB01930AAC074605AB0E469046029311
S3150000043006AB28469DF860109DF864200094FFF7EF
S3150000044045FF059B06AA00941D44C3EB08030193D0
S315000004500295039538463146049BFFF711FE0028A6
S3150000046014BF6FF00100002012B0BDE8F08100BF9C
S315000004702DE9F04194B01C4606AB01930CAD16462F
S3150000048007AB80460F46029308AB20469DF86810DE
S315000004909DF86C200095FFF719FF079A0095A318A1
S315000004A0B21A3444019208AA029303930494404674
S315000004B03946069BFFF738FE003818BF6FF000007C
S315000004C014B0BDE8F08100BF2DE9F0418CB00746BD
S315000004D0129C8846139E1CB104F10F052D0900E0FD
S315000004E0012529018C4204D11046A4F110013144A2
S315000004F01CE000221039641A7018A24202F10101B0
S3150000050005D010F802E00DF802E00A46F5E70CA85F
S315000005100244802002F8300C0A4600210F2A03D834
S315000005200DF802100132F9E7184669466A460124B9
S31500000530FFF786FD002108A8102204F09DF8AC42C2
S3150000054008A80CD2314604AAFFF77AFD404604AA51
S31500000550394608AB10F012FF01341036EFE7694652
S3150000056004AAFFF76DFD404604AA394608AB10F011
S3150000057005FF159A08A91498102A28BF102204F01E
S315000005802BF80CB0BDE8F081DB0070B5C8B05C0993
S31500000590054606340E460CA811461A4611F066F9B1
S315000005A020460CA904AA08AB00F00EF84C9B0CA937
S315000005B0009604AA02934D9B0195039308AB20462F
S315000005C0FFF782FF48B070BD7FB506461446084661
S315000005D0184A1D4631466B4610F0D0FE0F22002306
S315000005E01DF8021043EA4103A35412F1FF324FEA09
S315000005F0D113F5D29DF90030002B04DA20460E49BE
S315000006002246FFF71DFD0F220023A15C43EA4103AA
S31500000610AB54A35C12F1FF324FEAD313F5D294F92F
S315000006200030002B04DA284603492A46FFF708FD66
S3150000063004B070BD188A0900088A0900B3F5801F46
S315000006402DE9F04F89B082468B461C4646D8CBF33F
S315000006509A0B0DF1100811460BF1060B40461022BD
S31500000660260903F0B9FF00254746DDF84C80129BAA
S31500000670B5424FEA0519C844994418D06B4650460E
S3150000068059463A4610F07AFE484669464246FFF712
S31500000690D7FC9DF81F300133DBB28DF81F3023B92C
S315000006A09DF81E3001338DF81E300135DDE714F05C
S315000006B00F0401D1002013E06B4604AA50465946A8
S315000006C010F05CFE002319F803201DF803104A40C1
S315000006D008F803200133A342F5D1EBE74FF0FF30D2
S315000006E009B0BDE8F08F00BF70B5BCB0C4001546B8
S315000006F0684622461E4611F0B9F861096846063179
S315000007002A46334610F03AFE3CB070BD2DE9F04F54
S31500000710ADF52D7D1D4620F00803102B03D02028B3
S3150000072001D001246CE0B2F5C47FFAD812F00708B4
S31500000730F7D1C700A2F108063A460EA806AC10F09B
S31500000740D1FF29460822204603F046FF4FEAD60984
S315000007504AA8324605F1080103F03EFF05235FFA79
S3150000076089FB03FB0BF37F090637DBB20297049381
S315000007704AAB062703EBC9030393049B09F1FF3534
S315000007804FF0000A4344DBB2013305936B1CAAF118
S31500000790080A22D0059A08A8DDF80CC0E379D444EB
S315000007A02A44013D614653400822E371CDF804C056
S315000007B003F012FF02990AAB22460EA810F024FCA1
S315000007C008220AA9204603F007FFDDF804C00CA999
S315000007D00822604603F000FFD8E7013FCBEB08088C
S315000007E05FFA88F8C9D1094906A8082203F0E2FE93
S315000007F00446002895D1B6984AA9324603F0ECFE85
S3150000080020460DF52D7DBDE8F08F00BF288A090032
S315000008102DE9F04FADF5277D1E4620F00803102B7D
S31500000820144601D0202859D1B4F5C07F56D814F00B
S31500000830070753D14FEAC00A0AA8524646AD11F03F
S3150000084015F8294902A8082203F0C6FE4FEAD40883
S3150000085031465FFA88FB284622464FEA5A1A03F0C9
S31500000860BBFE06260AF1060AAC460025454523DAF4
S315000008700CEBC50904A849460822CDF804C003F0CC
S31500000880ABFE514606AB0AA802AA10F077FD082275
S3150000089008A9484603F0A0FE082202A806A903F00C
S315000008A09BFE9DF80F207B1C2B44013553408DF891
S315000008B00F30DDF804C0D9E7013E5F44FFB2D4D162
S315000008C0082202A9B09803F087FEB09B46A92246EB
S315000008D003F1080003F080FE304600E001200DF52C
S315000008E0277DBDE8F08F00BF288A090008B50A46B3
S315000008F0D0F89830D0F8880009B9203002E00129F4
S3150000090003D1403053F8200008BD0349034803F0E3
S31500000910D7FE002008BD00BFD9350A0069350A0098
S3150000092010B5D0F88840D0F89830103453F82440E9
S3150000093040F627039C4205D109490A4803F0C0FE48
S31500000940002010BDD0F8903001B932B1D3F80804B8
S3150000095020EA01010A43C3F80824D3F8080410BDAD
S31500000960CA350A00A1350A0073B5D0F890400E4684
S31500000970D4F80038D90728D41F25D4F8043893B9F9
S315000009800120C4F80008D4F800380193019BA0F0B8
S31500000990F3FDC4F80864D4F808340A200193019BD7
S315000009A0A0F0EAFD11E0013D03D00A20A0F0E4FD2D
S315000009B0E3E740F2E935D4F80438002BE0D0013DF6
S315000009C0DED00A20A0F0D8FDF5E702B070BD00BF6A
S315000009D0F8B5D0F888501646D0F8983005F1A00240
S315000009E0044653F822300F465BB1294600F09AF8C8
S315000009F020463946324600F0A9F82046294600F03E
S31500000A008DF8204639463246BDE8F84000F09EB8DB
S31500000A1010B5D0F88840D0F89830103453F82440F8
S31500000A2040F627039C4205D109490A4803F048FECF
S31500000A30002010BDD0F8903001B932B1D3F80005CE
S31500000A4020EA01010A43C3F80025D3F8000510BDCA
S31500000A50D6340A00A1350A000F2970B5049CD0F8D7
S31500000A60980013D850F8215000EB81061DB9D6F82E
S31500000A70805040F8215050F8211003B924B188580D
S31500000A8020EA03031C438C50885870BD002070BDBB
S31500000A90D0F89820D0F8883002EB830393F803133C
S31500000AA000F08EB970B5D0F88850D0F8983004466A
S31500000AB005F1100253F8222040F627039A420CD182
S31500000AC0002100F02BF8204600F00EF806462946D5
S31500000AD0204600F023F8304670BDD0F89030D3F8A9
S31500000AE0000100F01F0070BDD0F89030D3F800016F
S31500000AF0C0F30420704700BFD0F89030D3F8082424
S31500000B0002F00302012A06D1D3F8000880F00100A2
S31500000B1000F0010070470020704700BF002200F07F
S31500000B20A5B800BF012200F0A1B800BF10B5D0F8EB
S31500000B309000890802B933B150F8214024EA020234
S31500000B40134340F8213050F8210010BD2DE9F7433A
S31500000B50064688461746D0F89890D0F890401F254C
S31500000B60D4F8043801932BB1013D03D00A20A0F03C
S31500000B7003FDF5E7019B23B1019A3748374903F096
S31500000B809FFD0123C4F800380A201F25A0F0F4FCBD
S31500000B90D4F804382BB1013D03D00A20A0F0ECFCB8
S31500000BA0F6E71F2547F0030747EA0807C4F8087465
S31500000BB0D4F808340193019BD4F8043801932BB17F
S31500000BC0013D03D00A20A0F0D7FCF5E7019B23B135
S31500000BD0019A2348214903F073FD0A25D4F8003809
S31500000BE00BB3013D20D01F27D4F8043801932BB155
S31500000BF0013F03D00A20A0F0BFFCF5E7019B23B11B
S31500000C00019A1848154903F05BFD1F270023C4F815
S31500000C100038D4F80438002BE0D0013FDED00A209B
S31500000C20A0F0AAFCF5E745B9D6F888300E480B497E
S31500000C30103359F8232003F043FD012048F0010347
S31500000C40C4F80834D4F808340193019BA0F094FC4E
S31500000C5003B0BDE8F08300BFE5340A00C7340A00DC
S31500000C6003350A0021350A003E350A00D0F88C30DB
S31500000C70F0B5102B28BF10239942D0F8984028D2FF
S31500000C8004EB810354F82170D3F880C0D3F80062D6
S31500000C90D3F880520FB944F821C054F82140C0F867
S31500000CA08440D3F8C07117B90EB1C3F8C061D3F848
S31500000CB0406216B90DB1C3F8405212B1D3F84032B2
S31500000CC001E0D3F8C031C0F89030C0F88810204653
S31500000CD0F0BD0020F0BD00BF704700BF2DE9F04712
S31500000CE00AAE92460122134607460D4696E8400391
S31500000CF000F04EF8044600F00603042B08D1C0F3BA
S31500000D000323534504D1089B00F0C0029A4205D044
S31500000D102B680020043B2B60BDE8F087099A20F47D
S31500000D207F6323F00F03136010F0080307D000223F
S31500000D3038462946134600F02BF8306000E0336051
S31500000D40002604F03003302BC9F8006016D1324675
S31500000D5033463846294600F01BF8020720F47F6325
S31500000D6023F00F03C8F800300FD53846294632461F
S31500000D70334600F00DF8C9F8000006E01B094FF4F1
S31500000D80805202FA03F3C8F800302046BDE8F08727
S31500000D902DE9E04380460E4617469946404613F035
S31500000DA0ABFC356855F8040B35603FB1C307F5D584
S31500000DB00F2803D000EA07034B45EFD1BDE8E083D7
S31500000DC00846704708B560B1002907DB436802682A
S31500000DD01944914204DD034803F072FC002008BD6B
S31500000DE0012008BDE6350A0038B50D460221044645
S31500000DF0FFF7E8FF50B16368A2680220D15C1A448D
S31500000E000233527842EA01222A80636038BD00BF6D
S31500000E1038B50D4601210446FFF7D4FF30B16368AB
S31500000E20A2680120591C6160D35C2B7038BD00BFDD
S31500000E3070B504460D461646FFF7C4FF50B1636809
S31500000E40A168304619442A4603F0C6FB6368284663
S31500000E502B44636070BD00BF002301604360826065
S31500000E600120704738B50D4602210446FFF7AAFF58
S31500000E7050B16368A2680220D118D25C0233497867
S31500000E8042EA01222A80636038BD00BF2DE9F7439C
S31500000E9089460DF10601044690461D460A9EFFF757
S31500000EA0E1FF18B9244803F00BFC0FE027686068DF
S31500000EB0BDF80610874204DD381A814208DD024675
S31500000EC001E029B100221D4803F0FAFB00202FE0C3
S31500000ED020464946FFF79CFF0028E3D020464146BE
S31500000EE0FFF796FF0028DDD02DB120462946FFF7F3
S31500000EF08FFF0028D6D02EB120463146FFF788FF57
S31500000F000028CFD0BDF80630002D0CBF02250325E2
S31500000F10002E0CBF1E465E1E751B0B9BADB2A26853
S31500000F201D8063680120D1180C9A1D44116065600C
S31500000F3003B0BDE8F08300BF05360A0013360A0089
S31500000F40704700BF2DE9F04786B0002604460D46DF
S31500000F50084610220021B04603F08EFB4DF6DD5AFE
S31500000F602368984536DAC4F80480C8EB0308B8F15C
S31500000F70030F2FDD20460DF10601FFF773FF204614
S31500000F8002A9FFF76FFF94E80C00BDF808709A42BB
S31500000F90CCBFC3EB0202002297421BDCBDF8061051
S31500000FA003EB07085145A268DAD102EB030903A84F
S31500000FB039464A46FFF750FF03A80DF10A0100F033
S31500000FC027F818B1AF60C5F80C9001E085E88002FB
S31500000FD00136C5E716B12846FFF7B2FF304606B020
S31500000FE0BDE8F08730B585B00C46054608220846B0
S31500000FF0002103F041FB0023A21C0192221D029254
S31500001000621C009328462146FFF740FF05B030BD1D
S3150000101037B501AA0D4603210446FFF709FF28B19B
S315000010200F4901A8032203F0C5FA20B10D4803F0C9
S3150000103047FB002011E020460DF10301FFF7E8FE13
S315000010400028F3D09DF80330092BEFD1204629461E
S31500001050FFF708FF0028E9D0012003B030BD00BF2C
S3150000106032360A0005360A0037B50D460DF106017F
S315000010700446FFF7CDFE18B19DF806306C2B04D060
S315000010800C4803F01DFB002011E020460DF107017E
S31500001090FFF7BEFE0028F3D09DF80730022BEFD1F4
S315000010A02046294600F022F90028E9D0012003B0A5
S315000010B030BD00BF05360A0070B504460D4616461B
S315000010C0FFF7D0FE20B90B4803F0FAFA002070BDF6
S315000010D094E8090029889842CCBFC3EB00000020A1
S315000010E08842F0DBA06818440B443060636001203E
S315000010F070BD00BF05360A00704700BF38B505460B
S31500001100202208460C46002103F0B6FA95E80C00AA
S315000011109A4202DDD31A022B03DC354803F0D0FADB
S3150000112063E021462846FFF773FE2846611CFFF759
S315000011306FFE2846A11CFFF76BFE2378042B54D1C3
S3150000114063780A3B032B50D8DFE803F0020E4A27E8
S315000011502846211DFFF788FF0028DED0284604F127
S31500001160100104F1140237E02846211DFFF77AFE2C
S315000011700028D2D02846A11DFFF774FE0028CCD047
S31500001180284604F10801FFF76FFF0028C5D028465E
S3150000119004F1140104F118021EE02846211DFFF790
S315000011A061FE0028B9D02846A11DFFF731FE0028B0
S315000011B0B3D0284604F10801FFF754FE0028ACD04E
S315000011C0284604F10C01FFF74FFF0028A5D028465A
S315000011D004F1180104F11C02FFF76EFF00289CD0F1
S315000011E02046FFF789FF012038BD002038BD00BF2B
S315000011F005360A00704700BF2DE9F7434FF0000897
S3150000120006460D46084660220021C14603F034FA20
S315000012103368994545DAC6F80490C9EB0309B9F174
S31500001220010F3EDD30460DF10601FFF7F1FD3046B8
S315000012300DF10701FFF7ECFD96E80C009DF807702D
S315000012409A42CCBFC3EB02020022974229DCB46863
S3150000125003EB07091C449DF80630032B02D0DD2B57
S3150000126003D0D5E72F606C6018E0032F16DD20460B
S315000012701C49032203F09EF928B9E378102B02D10A
S31500001280AF60EC600AE020461749032203F092F9AA
S3150000129070B9E378042B0BD12F616C6108F101085A
S315000012A0B6E7B8F1000F18D02846FFF7A3FF14E001
S315000012B020460C49032203F07DF90028EED1E3789D
S315000012C0092BEBD105EBC0035A6A12B91F625C62A7
S315000012D0E4E701300828F5D1E0E7404603B0BDE871
S315000012E0F08300BF32360A00C82C0A0037B505461F
S315000012F00C4608460C22002103F0BEF928460DF1E3
S315000013000701FFF785FD20B90B4803F0D9F9002046
S3150000131010E09DF8073004F10801284603F07F022B
S315000013201B0644BF012363602270FFF771FD00288E
S31500001330EAD0012003B030BD05360A002DE9F041A0
S3150000134090460E4617460025716A51B1346A032C41
S3150000135007DD0DB10431043C38462246274403F02C
S315000013603BF901350836082DEED14046BDE8F0813F
S31500001370002318464A6A32B10A6A032A03DD03B11A
S31500001380043A104480B201330831082BF2D1704779
S31500001390002337B501AA0C460B7003210546FFF75B
S315000013A047FD28B10F4901A8032203F003F920B134
S315000013B00D4803F085F9002011E028460DF10301E0
S315000013C0FFF726FD0028F3D09DF80330102BEFD150
S315000013D028462146FFF71CFD0028E9D0012003B06E
S315000013E030BD00BF32360A0005360A00704700BF1E
S315000013F0F7B50446182208460D46002103F03CF9CD
S31500001400204601AA0321FFF713FD20B9284800262C
S3150000141003F056F949E0274901A8032203F0CAF868
S3150000142006460028F2D120466946FFF7F1FC00285F
S31500001430ECD09DF80030092BE8D162683746236866
S315000014409A422DDA62609A1A022A29DD20460DF1A7
S315000014500101FFF7DDFC20460DF10201FFF702FD59
S3150000146022686168BDF802308A42CCBFC1EB020235
S315000014700022934214DCA068CA1801449DF80100BA
S315000014800D2806D0192807D00228D8D12B6069600C
S3150000149004E0AB60E96001E02B6169610137CEE7EA
S315000014A01FB128463E46FFF7A1FF304603B0F0BD08
S315000014B005360A0032360A0038B5044602220846C6
S315000014C00D46002103F0D8F894E80C009A4213DD8B
S315000014D0D31A022B10D120462946FFF799FC18B9DA
S315000014E0064803F0EDF807E02046691CFFF790FC7C
S315000014F00028F5D0012038BD002038BD05360A0089
S31500001500F7B50546522208460C46002103F0B4F80A
S3150000151095E80C009A425CDD284606212246FFF734
S3150000152087FC18B92C4803F0CBF843E02846A11DE8
S31500001530FFF75AFC0028F5D0082128466218FFF765
S3150000154077FC0028EED0284604F11001FFF760FC76
S315000015500028E7D0217C042903D8002604F11107CE
S315000015600AE01E48042223E03A4608370821FFF71E
S315000015705FFC0028D6D00136237C28469E42F3DB4A
S3150000158001A9FFF731FC0028CCD0BDF8042041F2B8
S3150000159011039A42C6D128460DF10601FFF724FC35
S315000015A00028BFD0BDF80610202905D90C482022F6
S315000015B003F086F800200DE0284604F13102FFF71B
S315000015C037FCBDF806309842ACD10444002384F8B9
S315000015D03130012003B0F0BD05360A0036360A0068
S315000015E059360A0010B50C4678B100290ADB836823
S315000015F043B190E80C001C44944205DD0348D21A1E
S3150000160003F05EF8002010BD012010BD75360A00FB
S3150000161038B50D4601210446FFF7E4FF28B163689B
S31500001620A2680120591C6160D55438BD70B50446C6
S315000016300D461646FFF7D6FF50B16368A0683146DF
S3150000164018442A4602F0C8FF636828462B446360A4
S3150000165070BD00BF2AB10023016043608260012093
S3150000166070471046704700BF38B50D460221044644
S31500001670FFF7B8FF58B16368A2680220591C616081
S31500001680D5546368A268591C2D0A6160D55438BDCB
S3150000169038B50D4604210446FFF7A4FFB8B16368C8
S315000016A0A2680420591C6160D5546368A268591C5D
S315000016B06160290AD1546368A268591C6160290CCB
S315000016C0D1546368A268591C2D0E6160D55438BD8B
S315000016D02DE9F047099E8946BDF82C50002B0CBF1A
S315000016E002210321003618BF01261F46731919442B
S315000016F0044689B29246D0F80480FFF7B5FF494602
S315000017002046FFF785FF20465146FFF781FF27B1A8
S3150000171020469DF82010FFF77BFF26B120469DF856
S315000017202810FFF775FF25B1204629460C9AFFF7CA
S315000017307DFF6068C8EB0000BDE8F08710B586B095
S3150000174000240393089B0094049301940294234677
S31500001750FFF7BEFF06B010BD7FB50093089B01934F
S315000017609DF824300293BDF8283003930B9B049315
S315000017700123FFF7ADFF07B05DF804FB2DE9F0414B
S3150000178015460F464DF6DD51044698464668FFF766
S315000017906BFF2046A91D89B2FFF766FF03210B4A9E
S315000017A02046FFF743FF09212046FFF731FF204679
S315000017B03946FFF759FF25B1204629464246FFF72D
S315000017C035FF6068801BBDE8F08100BF32360A0035
S315000017D02DE9F041044690461E46BDF82050476864
S315000017E0FFF756FF41462046FFF73EFF20463146AB
S315000017F0FFF70EFF26B120463146069AFFF716FF81
S315000018009DF81C102046FFF703FF20462946FFF7E8
S315000018102BFF25B120462946099AFFF707FF606886
S31500001820C01BBDE8F08100BF70B504460E4604211A
S315000018304568FFF7EDFE20460C21FFF7E9FE20463E
S315000018403146FFF7E5FE6068401B70BD2DE9F047A5
S3150000185004468846042191469A469DF82460BDF8C0
S315000018602C504768FFF7D4FE0D212046FFF7D0FE27
S3150000187041462046FFF7CCFE49462046FFF7F4FED8
S3150000188051462046FFF7C4FE2046BDF82010FFF75C
S31500001890EBFE26B1204631460A9AFFF7C7FE2046E0
S315000018A02946FFF7E1FE25B1204629460C9AFFF7A7
S315000018B0BDFE6068C01BBDE8F08700BF2DE9F84398
S315000018C004468846042116469946BDF820504768C6
S315000018D0FFF79EFE0A212046FFF79AFE2046414664
S315000018E0FFF796FE26B1204631464A46FFF79EFE92
S315000018F020462946FFF7B8FE25B120462946099A13
S31500001900FFF794FE6068C01BBDE8F8832DE9F04739
S3150000191004468846042191469A469DF82060BDF803
S3150000192028504768FFF774FE0B212046FFF770FE2C
S3150000193041462046FFF76CFE49462046FFF794FED7
S3150000194020465146FFF790FE26B120463146099AB9
S31500001950FFF76CFE20462946FFF786FE25B1204696
S3150000196029460B9AFFF762FE6068C01BBDE8F08748
S31500001970F8B50D4604466C2117464668FFF748FE43
S3150000198020462946FFF744FE25B1204629463A4619
S31500001990FFF74CFE6068801BF8BD00BF70B502F013
S315000019A07F0204461E46456809B142F08002114690
S315000019B02046FFF72DFE20463146FFF729FE6068D8
S315000019C0401B70BD83682DE9F04105461BB1144BE1
S315000019D0144C1E6802E0144B144C1E68274605F191
S315000019E01408386850B141461430062202F0E2FD70
S315000019F03F6807F29477F4E703F2947423684BB1D7
S31500001A000130B042F8DB3146094802F059FE0020A9
S31500001A10BDE8F08125600120C5F89437BDE8F08166
S31500001A206007200020092000480720002409200024
S31500001A30B1360A0007B5002200920921134600F0CC
S31500001A40B1F803B05DF804FB38B505460C4611B194
S31500001A500C2905D838BD296300F0D6F86C6338BD6B
S31500001A600248BDE8384002F02BBE00BF3E370A00F0
S31500001A708368094A0949002B08BF0A4613684BB117
S31500001A80834204D1D0F8943701201360704703F2E3
S31500001A909472F3E7184670472009200024092000B5
S31500001AA0D0F8901738B500250446C0F8805721B104
S31500001AB0006816F0FDFAC4F890570023C4F888377A
S31500001AC0C4F88C3738BD00BFF8B505460C46A0F003
S31500001AD0BBFA2E6820B10768294640682246B847F7
S31500001AE030462146BDE8F84016F0E2BA70B58CB033
S31500001AF0044601A80E46154604AA2021FFF7AAFDB2
S31500001B00324601A82B460021FFF748FF20469DF8E4
S31500001B100810039AFFF72CFF0CB070BD38B50446C9
S31500001B200D4600F071F80023636320462946BDE8A0
S31500001B30384000F09BBA00BF38B50A4B0A4C054640
S31500001B40002918BF1C46206858B1294614300622C1
S31500001B5002F030FD08B9206838BD246804F2947498
S31500001B60F1E738BD2009200024092000074B10B5F5
S31500001B7019680446006800F00DF830B9044B206877
S31500001B801968BDE8104000F005B810BD2009200016
S31500001B902409200021B1814202D0D1F89417F9E737
S31500001BA008467047F7B5056B0446082D089E1BD8F6
S31500001BB00C2919D800960D4E56F82550A847636B88
S31500001BC0226B9A4210D0E26BA56823631AB113B94F
S31500001BD0204600F0C1FC3DB1236B2BB9204603B073
S31500001BE0BDE8F04000F09CBE03B0F0BD308A0900AD
S31500001BF0014B1868704700BF5C072000014B18684E
S31500001C00704700BF4C072000D0F87C1738B5044653
S31500001C1029B1006816F04CFA0023C4F87C37636AD1
S31500001C2000251A68596890681BF0CCF8A36A1A68F0
S31500001C30596890681BF0C6F8E36A1A685968906894
S31500001C401BF0C0F8656304F144006587E56325640D
S31500001C5029464FF4E56202F00FFD84F8745784F8C4
S31500001C60845738BD094B1B6823B183420CD0D3F887
S31500001C709437F9E7064B1B6823B1834204D0D3F8A7
S31500001C809437F9E71846704701207047200920006D
S31500001C902409200020B1007AD0F1010038BF0020CD
S31500001CA0704700BF38B54FF405710546006816F059
S31500001CB035FA044620B90849084802F001FD09E052
S31500001CC040F8045B05F11401062202F085FC95F844
S31500001CD03830A372204638BD9C360A00D1360A0039
S31500001CE0F8B505460E461746A0F0AEF90368FBB1F7
S31500001CF02846FFF7D7FF0446D0B1B6F5007F4FF070
S31500001D000003C360068207D90A484FF4007102F047
S31500001D10D7FC4FF400732382394604F11200228A5D
S31500001D2002F05AFC28462146BDE8F840FFF7CCBE33
S31500001D30F8BD00BF1E370A0007B5002200920A212F
S31500001D401346FFF72FFF03B05DF804FB70B504469A
S31500001D500E461546A0F078F903686BB12046FFF7EA
S31500001D60A1FF014640B1032206610575C260204607
S31500001D70BDE87040FFF7A8BE70BD00BF07B50022E2
S31500001D80009208211346FFF70DFF03B05DF804FB30
S31500001D90036C828B10B586B093420446B0F84C3083
S31500001DA029DA009300F14E03019300F154030293E4
S31500001DB0B0F860302246039300F164030493A36CE9
S31500001DC003C816F0D1F910B10F4802F079FC236C64
S31500001DD02046E16D0133236400F002FDB4F84C2087
S31500001DE082B1636A196888685968002306B0BDE83D
S31500001DF010401AF093BF2BB94F2106B0BDE8104032
S31500001E00FFF78CBE06B010BD50370A007FB5436A97
S31500001E1004461A680D46906859681AF0D3FFAA78E6
S31500001E2094F83830934206D020463C2104B0BDE8F1
S31500001E307040FFF773BE94F87437D4F878079D02A4
S31500001E40401BB0F5806FD4F87C6799BF80B2002143
S31500001E5001214FF48060354411B143F0800301E065
S31500001E6003F07F030093A37E02900193E18B039519
S31500001E702046002300F0FCFB0423636304B070BD1E
S31500001E8038B5436A04461A680D46906859681AF0D0
S31500001E9099FFAB7894F838209A4202D020463C212C
S31500001EA002E0A98821B12046BDE83840FFF736BEDA
S31500001EB0AB79190643D594F8841703F07F0399424A
S31500001EC035D12046298BEA6900F098F8224B1B6829
S31500001ED023B12046298BAA79FFF738FF2B893BB916
S31500001EE02046E18B94F8382000F0A2FB032312E091
S31500001EF0228C9A4211D3A26A116888685168174ADF
S31500001F00126822B99B024FF47A72B3FBF2F20023F5
S31500001F101AF004FF0723636303E020460121FFF75D
S31500001F20FDFD94F88437013384F8843738BDB5D382
S31500001F302046E18B00F07CFB0323636338BD20461B
S31500001F40298BEA6900F05AF80123C4F88037204645
S31500001F50BDE8384000F018BB580720002C092000C7
S31500001F6070B505460C461646A0F06EF80368BBB180
S31500001F702846FFF797FE034690B162780D2A4FF088
S31500001F80020208BFA179C260627818BF00210176FB
S31500001F900261466119462846BDE87040FFF794BDC8
S31500001FA070BD00BF70B50D46D0F87C1704461646C6
S31500001FB029B1006816F07CF80023C4F87C370023AA
S31500001FC084F87437AA0AC5F30903002B14BF134615
S31500001FD0531EC4F8785784F875372068294616F0DA
S31500001FE09DF8C4F87C0710B9C4F8780770BD31466F
S31500001FF0D4F87827BDE8704002F0EEBAF8B5184B71
S3150000200004461B680D461746D0F88C0713B108B175
S31500002010144812E0D4F88867301A854211D90BB9F2
S31500002020AB0000E02B469919C4F88817206816F013
S3150000203075F8C4F8900720B90B48BDE8F84002F0DF
S315000020403FBBD4F88C37D4F890072A461844394653
S3150000205002F0C2FAD4F88C371D44C4F88C57F8BD88
S3150000206058072000E4360A000E370A00012341878C
S31500002070C36370474B1E0B2B0CD8DFE803F00D0D26
S315000020800D0D0D0D0D060D0D0609418FFFF746BD11
S31500002090FFF77EBEFFF7D8BC704700BF4B1E30B5BA
S315000020A085B0044615460B2B66D8DFE803F06A06B2
S315000020B01B6A546A6A6A6A6A6A6AFFF7F1FC324BFB
S315000020C0B4F86C071A7884F83820511C19700090FF
S315000020D0D4F87007A37E0190E18B204600F00EFB3A
S315000020E0012347E0AB7880F83830281DFFF7D2FD92
S315000020F0014660B93B2363870090287B94F838201B
S31500002100019002910391204600F02CFB31E0298AD0
S315000021106A692046FFF7E4FD2068FFF76FFD054674
S3150000212028B1204605B0BDE8304000F0E7B9206888
S31500002130FFF75EFD034680B2E18B0090A07E194456
S3150000214001902B4694F8382002950395204600F01E
S3150000215009FB05230EE0AA7800213C2380F83820ED
S3150000216043870091807E029101900391204600F002
S315000021707FFA0823636304E005B0BDE83040FFF74B
S3150000218063BC05B030BD00BF280920004B1E10B54A
S315000021900B2B15D8DFE803F0181818181806180BBB
S315000021A0181818101146BDE81040FFF769BE3E2109
S315000021B0BDE81040FFF7B2BCBDE81040FFF7E8BD30
S315000021C0BDE81040FFF740BC10BD00BF4B1E10B568
S315000021D004460B2B2DD8DFE803F0313131310631BF
S315000021E0310C3131122720461146BDE81040FFF769
S315000021F00DBE20463E21BDE81040FFF78FBC94F887
S31500002200743794F875279A420AD1636A1A6859682E
S3150000221090681AF0D7FD2046BDE8104000F0B4B92A
S31500002220013384F8743710BD2046BDE81040FFF72F
S31500002230AFBD2046BDE81040FFF706BC10BD00BF8D
S3150000224038B54B1E044615460B2B49D8DFE803F07C
S315000022504C4C4C064C4C4C424C4C4C44436A1A6811
S31500002260596890681AF0AEFDAA7894F838309A4208
S3150000227002D020463C2102E0A98821B12046BDE8D3
S315000022803840FFF74BBCEB8863B92046A98AAA6998
S31500002290FFF7B4FE0123C4F880372046BDE8384076
S315000022A000F072B9228C9A4211D3A26A116888682A
S315000022B051680E4A126822B99B024FF47A72B3FB38
S315000022C0F2F200231AF02AFD0723636338BD204685
S315000022D00121D4E73E21D2E7BDE83840FFF758BDDB
S315000022E0BDE83840FFF7B0BB38BD00BF2C09200061
S315000022F04B1E10B504460B2B26D8DFE803F02A2A1E
S315000023002A2A062A2A0C2A2A122020461146BDE825
S315000023101040FFF77BBD20463E21BDE81040FFF789
S31500002320FDBB94F87537A3B9636A1A685968906853
S315000023301AF048FD2046BDE8104000F025B92046B9
S31500002340BDE81040FFF724BD2046BDE81040FFF76A
S315000023507BBB10BDF0B585B00446481E15461F462A
S315000023600A9E0B285AD8DFE800F05F5F5F5F065FC2
S3150000237023315F384D53636A1868596880681AF0CC
S3150000238021FDD4F8781731B12046294605B0BDE8BD
S31500002390F040FFF73BBDA07E3D230190638794F894
S315000023A03820009102910391204600F061F93BE04C
S315000023B0E56A2868696880681AF004FD204639468F
S315000023C0324605B0BDE8F040FFF7ECBD20463E21A1
S315000023D005B0BDE8F040FFF7A1BB636A1A6859680B
S315000023E090681AF0EFFCA07E00213D2363870190E0
S315000023F094F83820009102910391204600F038F9B4
S31500002400082303E0D4F8783773B1022363630BE043
S31500002410204605B0BDE8F040FFF7BABC204605B03F
S31500002420BDE8F040FFF710BB05B0F0BD4B1E0B2B0F
S3150000243070B5044616461ED8012240F6DF6502FA3C
S3150000244003F31D40E5B9DD050DD4980613D5A36A3F
S315000024501868596880681AF0B5FC20463146BDE810
S315000024607040FFF70DBDC18B90F8382000F0E0F802
S315000024700323636370BD2046BDE87040FFF7E4BAEE
S3150000248070BD00BF2DE9FF414D1E0B2D0446984639
S315000024900A9F29D80126AE4040F6BF5535404DBBB0
S315000024A0B30512D476061FD5C56A286869688068A0
S315000024B01AF088FC204641463A46FFF773FD20464F
S315000024C004B0BDE8F04100F019B83D23438790F809
S315000024D038200095817E029501910395294600F0EA
S315000024E041F90823636305E0204604B0BDE8F041E6
S315000024F0FFF7AABA04B0BDE8F08100BF30B585B0D9
S31500002500D0F878570446B5F5806F4FF0000204D82E
S31500002510D0F87C07ADB213460BE00E4B80F874275B
S315000025201B8823B1C18B15461944104602E0184694
S315000025301D4619460093A37E0390019394F8382014
S3150000254002952046002300F00DF90223636305B0CF
S3150000255030BD00BF5407200010B504469FF074FD3F
S3150000256003687BB12046FFF79DFB014650B104236B
S31500002570C360638F03820023E3632046BDE81040F7
S31500002580FFF7A2BA10BD00BF10B50446FFF73CFB2B
S31500002590002161632046BDE81040FFF767BD00BF1C
S315000025A02DE9F04786B00446DDF838A004F14E0563
S315000025B0002004F154062064A164A4F84C201946B6
S315000025C006222846DDF83C90DDF84080119F02F097
S315000025D003F851460622304601F0FEFFB4F84C30AF
S315000025E0C4F85C908DE8680004971FFA88F303939B
S315000025F094E803002246A36C15F0B6FD10B10B4813
S3150000260002F05EF82046E16D00F0EAF8B4F84C20DE
S315000026104AB1636A196888685968002306B0BDE83C
S31500002620F0471AF07BBB06B0BDE8F08750370A00CA
S31500002630F0B500F16405044689B00E4605A81746B4
S315000026404FF4E1612A46FFF705F8394605A8FFF77A
S31500002650EBF80C2204F11403206601920290A18982
S315000026600093039520463246FFF79AFF09B0F0BD66
S315000026702DE9F04395B0044606A80F4604F164061A
S3150000268090460CAA202199469DF87050FEF7E2FF6D
S315000026909DF8742006A87F21FFF728FA324609A87C
S315000026A04FF4E161FEF7D6FF0023089800939DF8EA
S315000026B01C30029001931F98BDF87830049009A849
S315000026C0039341464A462B46FFF7C0F8206604F1BD
S315000026D01403009315F0800F4FF00D03019304F1DE
S315000026E00E030290A1890396204614BF3A460022A3
S315000026F0FFF756FF15B0BDE8F08300BFF0B593B005
S31500002700044604A81D460E4617460AAA2021FEF7CF
S31500002710A1FF2A4604A8002104F16405FFF7E6F9A3
S315000027202A4607A84FF4E161FEF794FFBDF8603032
S3150000273007A89DF814200093199B39460193069B20
S31500002740FFF7BCF80A2204F11403206601920290F6
S31500002750A1890093039520463246FFF721FF13B067
S31500002760F0BD00BF2DE9F04192B0044604A80E4624
S3150000277004F1640517460AAA20219846FEF76AFF67
S315000027809DF8642004A87F21FFF7B0F92A4607A820
S315000027904FF4E161FEF75EFF9DF814300698009352
S315000027A00190BDF868301B980293039007A839463C
S315000027B04246BDF86030FFF7A9F8206604F114031D
S315000027C000930B23019304F10E030290A189039554
S315000027D020463246FFF7E4FE12B0BDE8F08100BFA6
S315000027E038B504460D469FF02FFC0368C3B120465A
S315000027F0FFF758FA034698B101220561C260226EBE
S31500002800426194F8741794F875278A4218BF41F00C
S315000028108002027619462046BDE83840FFF754B9D3
S3150000282038BD00BF2DE9F74388464FF4F361814672
S3150000283017461E4615F072FC04460025002859D09E
S3150000284029464FF4F36201F017FF314604F11400F4
S315000028500622A560C4F80090C4F80480A78101F0A0
S31500002860BBFE4FF4FA63E3834FF6FF73A576A583A9
S3150000287023842046FFF7FCF82046FFF7A3F808B9A3
S315000028801E4813E094E8030004F10E0215F014FC50
S31500002890002802DA1A4801F013FF20681949224677
S315000028A0194B1BF00DFA606258B9184801F008FF81
S315000028B02046FFF7DDF82068214615F0F9FB0020D9
S315000028C019E0206812492246124B1BF0F9F9A06262
S315000028D00028EAD0206810492246104B1BF0F0F978
S315000028E0E0620028E1D00021009120460A460B460E
S315000028F0FFF758F9204603B0BDE8F08377370A00A2
S3150000290090370A007D1D0000AB370A00B9370A0070
S31500002910351A0000D1370A00391D0000E4370A00D5
S3150000292010B5044620B9264801F0CAFE204610BD5F
S31500002930436A1A68596890681AF044FAA36A1A68D2
S31500002940596890681AF03EFAE36A1A6859689068FE
S315000029501AF038FA636A1A68596890681AF0AEFA7B
S31500002960606A0FF0F3FBA36A1A68596890681AF058
S31500002970A5FAA06A0FF0EAFBE36A1A68596890683C
S315000029801AF09CFAE06A0FF0E1FB2046FFF770F8B8
S31500002990D4F8701711B1206815F08AFBD4F87C17AB
S315000029A011B1206815F084FBD4F8901711B1206896
S315000029B015F07EFB2068214615F07AFB012010BD3C
S315000029C064370A00F8B51546044620B90F4801F0E9
S315000029D077FE2046F8BD0E4A1068174610B9D4F89F
S315000029E0806756B1D4F88C278A4206DC2A601846DE
S315000029F0D4F8901701F0F0FD01E000232B603B684E
S31500002A0013B12046FFF74CF80120F8BD64370A00E1
S31500002A105807200010B5044620B9074801F050FEBB
S31500002A20204610BD054B1B6813B9D0F8800708B1C6
S31500002A30D4F88C0710BD00BF64370A005807200081
S31500002A40014B1860704700BF500720003C292DE954
S31500002A50F0478EB0814616461C4602D04B2916D04A
S31500002A6072E01846FFF782F8B36805461BB1052BDE
S31500002A706AD10C2400E00B242846FFF7F3F800285F
S31500002A8062D00022009228462146134641E058882B
S31500002A9040BA80B202F098FF169F04F110028046F9
S31500002AA003A8103F3946FEF7D7F900284CD003A8F3
S31500002AB006A9FEF723FB002846D09DF819300A3BED
S31500002AC0032B41D8DFE803F0020B0508012103249C
S31500002AD007E00121052404E00021062401E000218D
S31500002AE0042406F1180A5046FFF726F8054698B161
S31500002AF09DF819300A2B02D1FFF712FF0CE0284689
S31500002B0006A93A46FFF72CFA284606AA21460023CC
S31500002B100093FFF747F817E09DF819300A2B01D00C
S31500002B200C2B11D10A4B1B680BB90A480AE0484620
S31500002B3096F82F1042465346FFF774FE05460028C6
S31500002B40DDD1054801F0BCFD0EB0BDE8F08700BF41
S31500002B5050072000F7370A001E380A0010B5044651
S31500002B6020B9044801F0ACFD204610BD41600120AB
S31500002B7010BD00BF64370A0010B5044620B90748E7
S31500002B8001F09EFD204610BD036B23B94FF47A7306
S31500002B905943890A0184012010BD00BF64370A0029
S31500002BA010B5044620B9054801F08AFD204610BD3F
S31500002BB0036B03B98183012010BD00BF64370A008F
S31500002BC0F8B50D461746044620B9114801F078FDC0
S31500002BD02046F8BD066BC6B9D0F8701721B100685B
S31500002BE015F066FAC4F87067C4F86C572068294671
S31500002BF015F094FAC4F8700710B9C4F86C0704E02D
S31500002C003946D4F86C2701F0E7FC0120F8BD00BF77
S31500002C1064370A0070B50E461546044620B90948C1
S31500002C2001F04EFD204670BDFFF71CF848B1236B3E
S31500002C3033B9204631462A46FFF7B4F9012070BD64
S31500002C40002070BD64370A0010B5044620B9054857
S31500002C5001F036FD204610BD036B03B9C183012088
S31500002C6010BD00BF64370A0013B50022044620B920
S31500002C70064801F025FD204605E000920221134694
S31500002C80FEF790FF012002B010BD00BF64370A00B6
S31500002C9038B504460D469FF0D7F90560446001201B
S31500002CA038BD00BF08B59FF0CFF90021082201F01A
S31500002CB0E3FC012008BD00BF2DE9F04F8DB0814631
S31500002CC0A1F104080C4601F17C0A1E469DF85870D5
S31500002CD0049258F8045F002D39D0049A2AB3EA7B8F
S31500002CE005F1100195F80EB008A801F075FC062252
S31500002CF005F1080106A801F06FFCE87A297A6A7ADC
S31500002D00AB7A0090287B0190687B0290414801F0E5
S31500002D10D7FC012306AA2D684846019308ABCDF8D7
S31500002D2000B0214600F08AF9D5E72FB16B68179AF3
S31500002D30D31AB3F5167FD2D83EB1304605F1080155
S31500002D40062201F037FC0028C9D02D68C3E7D0451C
S31500002D50BFD1D4F88080AA46B8F1000F56D0049BA4
S31500002D600BB1CFB106E067B1D8F80430179AD31A81
S31500002D70022B06D9D8F80430179AD31A022B0DD88D
S31500002D800AE0002E3ED0304608F10801062201F086
S31500002D9011FC0028E5D035E0002300E00123DBB27A
S31500002DA00593D8F80030BAF1000F02D1C4F880308C
S31500002DB001E0CAF80030179B08F1100B06220093B9
S31500002DC020465946012300F08DF9059A72B168B97B
S31500002DD098F80E30179A009301230193029208F196
S31500002DE00802484621465B4600F0B0F840460FF020
S31500002DF0ADF9BAF1000F02D1D4F88080ACE7DAF869
S31500002E000080A9E7C246D8F80080A5E70DB0BDE866
S31500002E10F08F00BF26430A007FB50DF10F03009324
S31500002E2004AA05AB00F074FA50B99DF80F30012BD7
S31500002E3006D1049B1878083818BF6FF0000001E02F
S31500002E404FF0FF3007B05DF804FB00BFCA6830B52D
S31500002E5087B01C461378DB0702D44FF0FF301DE025
S31500002E600DF10F0304AA009305AB00F051FA0028F8
S31500002E70F3D19DF80F30112BEFD105990729ECDD21
S31500002E80049A9578D37843EA0523442BE5D129297A
S31500002E90E3DD137A022BE0D12432226007B030BD85
S31500002EA010B586B0CC680DF10E0300930DF10D033D
S31500002EB0019304AA05AB00F0E5F910B14FF0FF3419
S31500002EC03AE0204602F02CFB30B1BDF80E3040F659
S31500002ED00602934208D117E019482146062201F05E
S31500002EE069FB0028F1D0E9E748F2DD629342E5D1BB
S31500002EF0059B3F2B0DDD049B9A793A2ADED193F888
S31500002F002830882B05D0D9E71C21042218230E204F
S31500002F1003E04021102230230820059C8C42CDDBA3
S31500002F2004990844194401F045FB04460028C5D11C
S31500002F300448054901F0C4FB204606B010BD00BF99
S31500002F407A92090079380A0039380A002DE9F84FD3
S31500002F509DF828800E46B8F1040F93461C469DF84E
S31500002F602C9011D11A785978987841EA0205DB78C5
S31500002F7005431D4359D00A4010401840FF2854D03D
S31500002F80474603F01F0A27E0B8F1060F4DD15A78DD
S31500002F9093F80FA01B781343A2781343E2781343E8
S31500002FA02279134362791343A2791343E2791343D7
S31500002FB0227A1343627A1343A27A1343E27A1343C3
S31500002FC0227B1343627B1343A27B13435AEA030318
S31500002FD02BD010270AF01F0A07F114000FF0AAF8E9
S31500002FE0054630B359460830062201F0F5FA0C9B27
S31500002FF005F1100085F80E806B60EF7321463A46A6
S3150000300001F0EAFAB9F1000F09D00FFA8AFA56F878
S315000030102A302B6046F82A500020BDE8F88FD6F8F3
S3150000302080302B60C6F88050F6E74FF0FF30BDE8E1
S31500003030F88F6FF01A00BDE8F88F00BF2DE9F74F43
S315000030409DF830609A46042E9DF834300D46019264
S31500003050009305D19AF803C0B1460CF01F0B07E0A8
S31500003060062E35D19AF80FC04FF010090CF01F0B41
S31500003070009B13B155F82B4001E0D5F880404FF086
S3150000308000081CB3A27BB2421DD1514604F11000C8
S315000030904A4601F08FFAB0B9019904F108000622F8
S315000030A001F088FA074670B92368B8F1000F07D116
S315000030B0009A12B145F82B300DE0C5F880300AE0D1
S315000030C0C8F8003007E0A0462468DAE7274605E09E
S315000030D04FF0FF3702E020460FF038F8384603B0CD
S315000030E0BDE8F08F042AF8B50E46154604D1CA7815
S315000030F02F4602F01F0207E0062A01D00020F8BD85
S31500003100CA7B102702F01F0213B150F8224006E0D6
S31500003110D0F8804003E0A37BAB4203D02468002CA8
S31500003120F9D1EBE7314604F110003A4601F042FAD4
S315000031300028F3D1069B20466360F8BD062200F105
S315000031408A030846194601F047BA00BF062200F175
S3150000315084030846194601F03FBA00BF06228A30AA
S3150000316001F03ABA0622843001F036BA02312DE96E
S31500003170F0471FFA81F8414692469946BDF82070FD
S3150000318004F008FC054630B91B4940F24A221B48A8
S3150000319001F096FA2CE0C468038A5146A61CC66064
S315000031A0023B038204F10800062201F015FA4946A3
S315000031B03046062201F010FA9DF824304FEA17290E
S315000031C07BB14FEA182304F11000A37384F80F8033
S315000031D00B49062201F000FA84F81690E7751623CB
S315000031E003E00E2384F80E90E7730A9A1E441660D5
S315000031F02846BDE8F08700BF56380A00B0380A00F6
S31500003200548A0900F0B585B000250A9EADF806502F
S31500003210B8B12C46475B0235102D3C44FAD100204C
S315000032200D5A023010282C44FAD1002103918DF852
S315000032300F300B4602A9595A0233082B0C44F9D118
S3150000324000E004463346B018C11A012903D933F801
S31500003250021B0C44F8E75308D20706D516F81330BC
S315000032608DF80630BDF806301C44A3B203EB1444B7
S3150000327004EB1444E04380B205B0F0BD08460EF0FE
S3150000328065BF00BF2DE9F0410D8A17460D2D984602
S31500003290CC6803DC4FF0FF30BDE8F081227B637B16
S315000032A043EA0223B3F5C06F03DB002604F10C01E9
S315000032B00CE0152DEEDD154804F10E01062201F095
S315000032C079F90028E6D1012604F1140108784B7833
S315000032D043EA0020B0F5014F0AD16219881D9042D9
S315000032E001F10403D6D808794A79194642EA002042
S315000032F0069B02313960611A0D44C8F800501880E7
S31500003300079B00201E70BDE8F08100BF548A0900AB
S31500003310F0B587B01E460DF10E0300930DF10D03B7
S31500003320174604AA019305ABFFF7ACFF002836D178
S31500003330BDF80E30B3F5006F31D1059D132D2EDD8E
S3150000334004990A781309042B29D14C8802F00F023C
S3150000335064BAA4B2AC424FEA820201DA059400E0F4
S315000033601DDC132A059C01D9A24206DD00940E49F4
S3150000337014230E4801F0A4F911E0CB885BBAC3F31D
S315000033800D0323B108490A4801F09AF907E04D7A7E
S315000033900C9B1144A21A396032601D7001E04FF097
S315000033A0FF3007B0F0BD00BFC6380A00F8580A0063
S315000033B093380A0090200EF0BDBE00BF10B501295B
S315000033C00ADD0478437894424FEAC30301D1994257
S315000033D003DA1844C91AF2E7002010BD38B5438A4B
S315000033E0044603F00303012B0AD1036AB3B120306C
S315000033F000F088F800210422054601F03DF903E0BB
S3150000340080680EF08FFE054645B1A389E289013337
S315000034109BB29A42A38105D2E38103E0238A002569
S3150000342001332382284638BD10B50446084681B1CB
S31500003430638A03F00303012B04D104F1200000F09A
S3150000344055F801E00EF082FEA3890020013BA3811E
S3150000345010BD6FF0010010BD38B505460C46084694
S315000034601422002101F008F9AB682046A360AB895D
S315000034702946E381EB89082223822B8A638201F0A5
S31500003480BFF90023E3716B8A002003F00303012BCD
S3150000349004BFAB8AA38138BD2DE9F84316680389BA
S315000034A004469E420F4690461BDB00254FF024093A
S315000034B06389AB420FD9206809FB0500438A590787
S315000034C006D5721C04D03946013E1437FFF7C4FFF7
S315000034D00135ADB2ECE723890020C8F80030BDE81D
S315000034E0F8836FF00D00BDE8F88300BF38B50546D8
S315000034F00C4608460422002101F0BEF82B68236022
S315000035002C6038BD03680BB11A6802601846704714
S315000035102DE9F8430F46904699460446B0B1037A22
S31500003520BBB10068B8B1866800233546237295E8BA
S31500003530050039469047B8F1000F02D04846394693
S31500003540C047AD68B542F2D1012323720020BDE821
S31500003550F8836FF00F00BDE8F88300BFF8B5164694
S31500003560027A05460F464368AAB1D868FFF736FFC8
S31500003570044698B100210C2201F07EF8286884E800
S31500003580C00010B9A4602C60F8BD8368A360846095
S315000035902C600020F8BD6FF00F00F8BD6FF01A0028
S315000035A0F8BD00BF38B50C4605468068FFF716FF24
S315000035B0206050B100210C2201F05EF82368012240
S315000035C01A72236800205D6038BD6FF01A0038BD9E
S315000035D0036870B593E850001B7A0546E3B17CB1E9
S315000035E0A1688C4205D12146F0680024FFF71CFF34
S315000035F006E08B68F068A360FFF716FFA468EEE7A5
S315000036000C222868002101F037F8B0682968FFF716
S315000036100BFF2C60002070BD6FF00F0070BD00BF67
S31500003620F8B51746027A04460D4690E848005AB3A4
S3150000363013B96FF01D0014E09A689342F9D15A68E5
S315000036408A4224D11A68BA4221D1F0681946FFF796
S31500003650EBFE00202060F8BD99684A68AA4203D0B4
S315000036600B46002BF8D10EE00A68BA42F8D1226860
S31500003670F0688A428A6808BF23609A60FFF7D4FE22
S3150000368000210846ECE7F8BD6FF00F00F8BD6FF0BB
S315000036901D00F8BD00221346FFF73ABFFFF738BFFB
S315000036A011B1042902D8704700F074B8014801F03E
S315000036B007B800BF3E370A0038B50D46002104465C
S315000036C00A4600680B4617F0F7FA3DB163691A68B7
S315000036D05968906800232A4619F020FB05232362C7
S315000036E038BD00BF2DE9F8430568044628460E4656
S315000036F017F0F2F92B68074693F87031D4F800807A
S31500003700CBB1D5F8B4079EF067FCA0B19FB1B4F871
S315000037100890D5F8B40739469EF04EFC228940EA57
S3150000372009000E2A8CBF4FF4404200221FFA80F98E
S3150000373042EA090208E023890E2B8CBF4FF440426F
S31500003740002243F480531A4340460121334617F0C2
S31500003750B3FA3EB163691A68596890680023324625
S3150000376019F0DCFA04232362BDE8F883C36910B5B7
S31500003770052B04460AD8042908D8054A52F82330EE
S315000037809847236AE2699A4218BFE36110BD00BFF9
S31500003790608A0900002110B504460A460B460068F7
S315000037A017F08AFA63691A685968906819F00AFB73
S315000037B000236362236210BD2DE9F84305680446C1
S315000037C028460E4617F088F92B68074693F870319D
S315000037D0D4F80080CBB1D5F8B4079EF0FDFBA0B1BC
S315000037E09FB1B4F80890D5F8B40739469EF0E4FBCB
S315000037F0228940EA09000E2A8CBF4FF4404200227B
S315000038001FFA80F942EA090208E023890E2B8CBFD1
S315000038104FF44042002243F480531A4301213346B9
S31500003820404617F049FA63691A6859689068002398
S31500003830324619F073FA02232362BDE8F88300BF0B
S315000038400421FFF793BF00BF08B50EF081FC0323E8
S31500003850B0FBF3F202FB1300431C6420584380B212
S3150000386008BD00BF30B587B0044600210A460B46A6
S31500003870006817F021FA2269218B4FF0FF3300937D
S315000038800131019389B215682183029500250395BC
S315000038900495127B20680592012217F041F9012355
S315000038A0236207B030BD00BF30B587B004460022A2
S315000038B013460221006817F0FFF92269218B4FF0A9
S315000038C0FF3300930131019389B215682183029574
S315000038D0157A206803955268049200220592012207
S315000038E017F01EF9636A013363620323236207B08C
S315000038F030BD00BF034631B1032907D9042902D1DF
S315000039004189FFF7EFBE1846FFF7CABE704700BFF2
S31500003910034651B103290BD9042906D1818909B17E
S31500003920FFF7CABE4189FFF7DDBE1846FFF7B8BEEE
S31500003930704700BF4B1E032B0AD8DFE803F00202D4
S315000039400B0B012901D1FFF7AFBF4189FFF7CABEB3
S31500003950FFF7A6BE704700BF032908D0042902D08E
S31500003960012902D17047FFF79FBFFFF799BE704745
S315000039704B1E10B50446032B0BD8DFE803F00E0EE2
S31500003980020EFFF761FF01462046BDE81040FFF733
S3150000399013BFBDE81040FFF783BE10BD4B1E10B528
S315000039A00446032B12D8DFE803F015150215436A07
S315000039B0DB0603D1BDE81040FFF754BFFFF744FF15
S315000039C001462046BDE81040FFF7F6BEBDE81040B0
S315000039D0FFF766BE10BD00BF08B59EF045FB4389E4
S315000039E013B140680EF0B2FB00F014F8002008BDD9
S315000039F0F8B517461D4604460E469EF035FB03688D
S31500003A002360037B3370037A3B70426800202A6090
S31500003A10F8BD00BF08B59EF027FB4FF0FF320260ED
S31500003A2003220272024A034642600020588108BD02
S31500003A305A8A09002DE9F0411D460E469046074672
S31500003A409EF012FB04463846FFF7C6FF6800266064
S31500003A5084F80C80257260810EF064FB606048B9C2
S31500003A600849094800F02CFEFFF7D4FF6FF01A0052
S31500003A70BDE8F0810699628900F0AEFD0020BDE840
S31500003A80F08100BFD6380A00F14D0A0070B50E4627
S31500003A9005469EF0E1FA04460021282200F0ECFDDE
S31500003AA0256026819EF0E0FA2061211D206817F02E
S31500003AB027F8002802DA0E4800F002FE20680D49B9
S31500003AC022460D4B1AF0FCF80546606148B90B48D2
S31500003AD000F0F6FD20462946282200F0CDFD2846B6
S31500003AE070BD20460021FFF741FE204670BD00BF95
S31500003AF0EE380A00413800000A390A00B9370A00D0
S31500003B0038B50446002520B90D4800F0D9FD2046F9
S31500003B1038BD436945601A685968906819F052F9CA
S31500003B2063691A685968906819F0C8F960690EF0F7
S31500003B300DFB20462946282200F09EFD012038BDB7
S31500003B4064370A004068704710B5044620B9054836
S31500003B5000F0B6FD204610BD0021FFF707FE01204C
S31500003B6010BD00BF64370A0010B5044620B90548E9
S31500003B7000F0A6FD204610BD0121FFF7F7FD01204C
S31500003B8010BD00BF64370A0010B5044620B90648C8
S31500003B9000F096FD204610BD418182810221FFF78B
S31500003BA0E5FD012010BD00BF64370A000C2A14BFD2
S31500003BB0042222225BBA30B59BB214468A420DD249
S31500003BC0055B9D420DD005196D886DBAADB2043501
S31500003BD0ADB22C442A44A4B292B2EFE74FF0FF30C4
S31500003BE030BD204630BD00BFEC2910B51DD990F878
S31500003BF0EC30632B19D190F8ED30822B15D190F86B
S31500003C00EE30532B11D190F8EF30632B0DD1F0230A
S31500003C108B420AD2C45CFF2C07D0944208D0C41849
S31500003C206478023423449BB2F2E74FF0FF3010BDB4
S31500003C30184610BD2DE9F04385B01E469DF8343078
S31500003C4081460C460C9F002B38D0084601231146AE
S31500003C502278FFF7ABFF451C30D023189B88B3F5BD
S31500003C60807F02D100F10C0504E0B3F5407F25D139
S31500003C7000F1080504EB050802A84146062200F0FB
S31500003C80ABFCBDF80A30728831885A40BDF808305E
S31500003C904B401A43B188BDF80C304B4013439BB2DE
S31500003CA063B93B7806228DF8083002AB009209EB27
S31500003CB00200414600F046F93B786355002005B006
S31500003CC0BDE8F0832DE9F04786B01D469DF83C30EF
S31500003CD082460C4690460E9F002B6AD00B78012B2D
S31500003CE067D1062201F11C06314602A800F074FCD9
S31500003CF0BDF80A306A8829885A40BDF808304B401A
S31500003D001A43A988BDF80C304B4013439BB263B9E4
S31500003D103B7806228DF8083002AB00920AEB0200CF
S31500003D20314600F00FF93B782377414620463D2285
S31500003D30FFF75AFFB0F1FF3F80463AD023189B7831
S31500003D40012B36D10622C61C04EB060902A84946F9
S31500003D5000F042FCBDF80A306A8829885A40BDF84E
S31500003D6008304B401A43A988BDF80C304B4013432A
S31500003D709BB2F3B93B78F0078DF8083009D50522D8
S31500003D8008F102060DF1110002A9A35D8DF81030AD
S31500003D9002E0062204A802A900F01EFC062204ABDB
S31500003DA000920AEB0200A11900F0CCF83B7889F8E2
S31500003DB00030002006B0BDE8F08700BF2DE9F043D3
S31500003DC085B01F469DF8343081460C460C9D002B6D
S31500003DD038D10846012311462278FFF7E7FE421C38
S31500003DE030D023189B88B3F5807F02D100F10C06F2
S31500003DF004E0B3F5407F25D100F1080604EB060880
S31500003E0002A84146062200F0E7FBBDF80A306A88A0
S31500003E1029885A40BDF808304B401A43A988BDF896
S31500003E200C304B4013439BB263B93B7806228DF8A6
S31500003E30083002AB009209EB0200414600F082F81E
S31500003E403B78A355002005B0BDE8F0832DE9F04787
S31500003E5086B01F469DF83C3082460C4690460E9D25
S31500003E60002B6AD10B78022B67D1062201F11C06C2
S31500003E70314602A800F0B0FBBDF80A306A882988EE
S31500003E805A40BDF808304B401A43A988BDF80C309B
S31500003E904B4013439BB263B93B7806228DF808303A
S31500003EA002AB00920AEB0200314600F04BF83B7879
S31500003EB02377414620463D22FFF796FEB0F1FF3FAD
S31500003EC080463AD023189B78012B36D10622C61C91
S31500003ED004EB060902A8494600F07EFBBDF80A304D
S31500003EE06A8829885A40BDF808304B401A43A98889
S31500003EF0BDF80C304B4013439BB2F3B93B788DF8B9
S31500003F000830F30709D5052208F102060DF1110064
S31500003F1002A9A35D8DF8103002E0062204A802A9CA
S31500003F2000F05AFB062204AB00920AEB0200A1192C
S31500003F3000F008F83B7889F80030002006B0BDE8AC
S31500003F40F08700BF70B50578447814EB05242CD0B3
S31500003F50E44302328D1CA4B21144A9420DD015F8D7
S31500003F60026C023515F8032C02EB0622A41A002C6B
S31500003F70DCBF04F1FF34A4B2EFE704999A1C0231C6
S31500003F800B4493420CD012F8025C023212F8031C66
S31500003F9001EB05210C44E10344BF0134A4B2F0E770
S31500003FA0E443A4B244702312037070BD73B5054692
S31500003FB00E461446D3B1062205F10801684600F004
S31500003FC00BFBBDF8022023786188208851408DF8CC
S31500003FD00030BDF8002042401143A088BDF80420FF
S31500003FE042400A4392B2EAB92B721BE0C388B3F58A
S31500003FF0007F17D1062205F11201684600F0ECFA9F
S31500004000BDF80230628821885A40BDF800304B4026
S315000040101A43A188BDF804304B4013439BB20BB939
S315000040203378AB74002002B070BD00BFF0B5044613
S31500004030442C0846069F11469DF81C601A469DF8BA
S315000040402050059B18D008D8432C23D105970696F7
S315000040500795BDE8F040FFF735BE40F2222C6445D7
S3150000406011D00CF1010C644514D1059706960795FD
S31500004070BDE8F040FFF7DEBD059706960795BDE85B
S31500004080F040FFF7E3BE059706960795BDE8F040BA
S31500004090FFF794BE0020F0BD2DE9F3418C8916464A
S315000040A064BA9846A4B240F2C653A4F116020D466D
S315000040B092B29A42089F13D81C4B0E3106221868FA
S315000040C09B8800906846ADF8043000F073FA10B192
S315000040D04FF0FF3026E0AC8A162164BAA4B200E0A5
S315000040E00E21B4F5014F04D1EC89043189B264BACA
S315000040F0A4B2B8F1000F01D0A8F800106FB148F6CD
S315000041008E039C4207D026339C4204D01333E11A17
S315000041104B424B4100E001233B7016B13480002036
S3150000412000E0304602B0BDE8F08100BFCC2C0A00AA
S31500004130F0B587B00B780546852B0C460C9E9DF88E
S31500004140347005D10B7A012B61D101F10A055CE0CF
S31500004150862B0DD10B7C032B11BF01F110054D7C75
S31500004160023501EBC5052B78012B50D102354CE009
S31500004170872B14D1002102A8102200F07DFA10220C
S3150000418002A805F1080100F015FA00283FD0237EA9
S31500004190012B14BF002504F11A059FB937E0882BBF
S315000041A007D1182A33D00B7E022B30D101F11A0524
S315000041B02BE0892B2BD191F82830022B27D101F146
S315000041C02A0522E01DB3294602A8062200F004FAB9
S315000041D0337872888DF80830BDF80A3031885A4035
S315000041E0BDF808304B401A43B188BDF80C304B403F
S315000041F013439BB25BB9062202AB0092A01C294670
S31500004200FFF7A0FE33782B7001E0002FDBD10020F2
S3150000421007B0F0BD70B586B01B780A9C1B0965888F
S31500004220042B6DBAADB202D1A5F1430303E0062B10
S3150000423007D1A5F222239BB2012B8CBF00230123B9
S3150000424000E0002303F0FF06ABB1A38804F10806E3
S3150000425000965BBA02959BB2083B9BB201930B9BFF
S3150000426003939DF8303004939DF83430059323462C
S315000042700E9CA04700E0304606B070BD2DE9F04325
S31500004280ADF5097D1F4608AE8146884610460021D9
S3150000429015461022002400F0EFF9002110223846BE
S315000042A000F0EAF9304600214FF4007200F0E4F91C
S315000042B0444505DA19F8043006F814300134F7E7F6
S315000042C001A80BF0D3FB4FEA081201A831460BF008
S315000042D0E5FB284601A90BF0B3FB01A80BF0C6FBD2
S315000042E0294601A880220BF0D9FB384601A90BF01C
S315000042F0A7FB0DF5097DBDE8F08300BF2DE9F04170
S31500004300AEB0044602A80F4608AD00211646152297
S315000043104FF0070800F0B0F9214602A81022002449
S3150000432000F05AF908FB04F102A800F05BF82855E2
S315000043300134182CF6D1002439460822684600F0CC
S315000043404BF929190EA8002202F044FF69460EA86F
S3150000435002F03EFE301908346946082200F03CF9A6
S31500004360182CE9D12EB0BDE8F08100BF70B59AB027
S315000043700D460646684614460BF0C4FE68463146AE
S315000043802A460BF0D1FE204669460BF071FE1AB0A4
S3150000439070BD00BF10F0010322D00B68C3EB5003C1
S315000043A023F000431F2B08D80120116800FA03F3FD
S315000043B00B4215D10B4313607047B3F1804F0FD2F8
S315000043C0173B1F2B8EBF00201068D840106008686E
S315000043D003440B601368012043F400031360704725
S315000043E000207047082391FBF3F301F00701C21880
S315000043F0C05C5278C1F1080102EB002080B208418E
S3150000440000F0FE00704700BF10B570B1446940F27D
S315000044108243302CCCBF1C464FF460749DF034F9B7
S3150000442028B19DF029F9241A01E04FF46074204662
S3150000443010BD00BF2DE9F74F90468246A8F5006BE8
S31500004440084600240E4699460C9D9DF838700FF0DC
S31500004450EFFC0D9B9C421AD07369352B0FD1B369C3
S315000044605B0028D504EB0903009300230193304633
S3150000447051465A4600F02AF825F8140005E004EBE8
S31500004480090338F8133025F814300134E1E7A7B1F1
S315000044902A884FF6FF739A4204D10A490A4800F067
S315000044A00FF908E028466100FF2201F095F89F38D1
S315000044B018BF012002E0012000E0384603B0BDE845
S315000044C0F08F00BF64390A0032390A0033F0005118
S315000044D008B50BD10299B3F1005F4FEA4101C2F86A
S315000044E0941104BFBDF80C10C2F8981143F00041B6
S315000044F0C2F890114FF47A7111F1FF310AD3D2F854
S3150000450090010028F8DB29B906491A46064800F04A
S31500004510D7F804E01BB9D2F8980180B208BD4FF66F
S31500004520FF7008BD58390A0016390A0043691F2B67
S3150000453002DC01F5805070478369034813F0804F11
S3150000454008BF0020704700BF00080018F0B585B00E
S3150000455005460A9E0127B2FBF3FC00AC0B9803FB51
S315000045601C223C44825C3846013704F8012C624622
S31500004570002AF0D10EB1864204DC013C00AA0DF1FE
S31500004580FF3309E0301A20443023844202D004F875
S31500004590013BFAE73046F0E79C4209D08D4204F130
S315000045A0FF3405F101059CBF627805F8012CF3E79D
S315000045B005B0F0BD002330B5934208D0C55CCC5C95
S315000045C0A54206D303F10103F6D9012030BD002030
S315000045D030BD4FF0FF3030BD032A30B504D980EA34
S315000045E0010313F0030302D0044600231AE04C42F1
S315000045F004F00304151BA34203D0CA5CC254013362
S31500004600F9E7C41819440022AB1A032B03D98B58B7
S31500004610A3500432F8E705F0030225F003052C4405
S315000046202944E2E7934203D0CD5CE5540133F9E730
S3150000463030BD00BF8318994230B502D28B1898421C
S3150000464003D3BDE83040FFF7C7BF81420BD25342C8
S31500004650541E0519214419442B441AB18C5C9C54F0
S31500004660013AFAE730BD06D90023934203D0CC5C69
S31500004670C4540133F9E730BD072A30B501D98307A1
S3150000468001D0024416E029B1CCB244EA042444EA3B
S31500004690044400E00C46034643F8044BD51A05448F
S315000046A0032DF9D8131F02F0030223F0030304338A
S315000046B01844E6E7904202D000F8011BFAE730BD45
S315000046C00FB4F0B5C3B048AC01AD54F8047B9CF010
S315000046D063FF4FF47A73B0FBF3F2064603FB1263F3
S315000046E00E49284600F02AF8C0F5807106460131C9
S315000046F0234628183A46009400F0F6F806440024AB
S31500004700B44204DA285D01349DF09EF8F8E730469D
S3150000471043B0BDE8F04004B0704700BF85310A00E1
S315000047200CB407B504AB53F8042B019300F0DCF886
S3150000473003B05DF804EB02B0704700BF0EB403B5DA
S3150000474003AA52F8041B019200F0E4F902B05DF8E6
S3150000475004EB03B0704700BFC9B2024610F8013B34
S315000047608B4203D0002BF8D118467047104670478D
S31500004770013910B511F8013F044633B110F8012B89
S315000047801AB19A4208D3F5D909E0227812B133B1A9
S31500004790002010BD002BFBD04FF0FF3010BD0120D4
S315000047A010BD00BF0023CA5CC2540133002AFAD1EF
S315000047B0704700BF0023C25C0AB10133FBE718460D
S315000047C0704700BF0023F0B5CC5CD51AC7184CB1B2
S315000047D0C65C3EB1934209D0A6420BD303F1010356
S315000047E0F2D90AE015B13B7813B134B10020F0BD1F
S315000047F0002CFBD04FF0FF30F0BD0120F0BD00BF14
S3150000480010B5024404460346934205D011F8010B45
S3150000481003F8010B0028F7D118460021D21AFFF73A
S315000048202BFF204610BD00BF0022C9B210B50346BB
S3150000483010F8014B8C4218BF13460CB11A46F6E726
S31500004840184610BDF0B5274E047803460130355D95
S31500004850DFF890C005F0200505F0FF07002DF3D125
S315000048602B2C01D1034605E02D2C08BF034614BFAF
S315000048700027012762B91A78302A15D15A7802F032
S31500004880DF02582A07BF10220233082201330CE048
S31500004890102A0AD11878302807D1587800F0DF009E
S315000048A0582802D1023300E00A2200201E460133B6
S315000048B034781CF8045015F0440F02D17FB1404201
S315000048C00DE015F0040F01D0303C03E0AD074CBFFE
S315000048D0573C373C9442F1D202FB0040E6E701B177
S315000048E00E60F0BD9A8A09002DE9F74F0139451887
S315000048F0411E4FF0000A80468D4238BF4FF0FF350B
S3150000490004465746DFF808921178002900F0EE8039
S31500004910252906D0AC4202F1010298BF217001346C
S31500004920F2E7517823290ABF4FF0010A0132023219
S3150000493011782D2901D0302900D1013200211078BB
S315000049401646013258B319F800C00CF0040C0CF0EE
S31500004950FF0BBCF1000F09D030380144107819F86C
S315000049600000400744BF0A204143E8E72E2816D13D
S3150000497032465F460A205278013682B1DFF890B19E
S315000049801BF802C01CF0040F09D0303A17447278A5
S3150000499019F80220520748BF47433246EBE7327800
S315000049A06C2A08BF01363078692850D00AD85828B2
S315000049B06DD001D8502809E0632800F08380642870
S315000049C045D089E0732815D00FD8702840F0848030
S315000049D01A6803F1040B4B494B4B502814BF084689
S315000049E0184608230093019068E0752842D078287D
S315000049F04DD071E0454A03F1040B1B68002B08BF3C
S31500004A001346581E07B909B1234613E010F8012FC3
S31500004A10002A68D0AC4204F1010498BF04F8012CC6
S31500004A20F4E710F8012F3AB1AB4201F1FF3198BF1C
S31500004A301A7001330029F4D15C182022A34252D007
S31500004A40AB4203F1010398BF03F8012CF6E71A689D
S31500004A5003F1040B002A07DAAC4204F101049CBFFF
S31500004A602D2304F8013C5242274B00910193204626
S31500004A70294607E0244A03F1040B009101922046DF
S31500004A8029461A680A23FFF761FD04442BE0BAF1B0
S31500004A90000F06D02246302002F8020B30786070F4
S31500004AA014461A6803F1040B96F800E01648154BF5
S31500004AB0BEF1580F08BF03468DE80A002046294676
S31500004AC01023E0E7AC4203F1040B1B6804F1010478
S31500004AD098BF04F8013C06E0AC4204F1010498BF1B
S31500004AE004F8010C9B465B46721C0DE7AC4295BF71
S31500004AF0C8EB0400C8EB05002170297003B0BDE8BF
S31500004B00F08F00BF788A0900898A09007E310A0081
S31500004B109A8A090010B50C466FF0004113462246EA
S31500004B20BDE81040FFF7E0BE164B10B51B6823B377
S31500004B305A6822B3DC681CB3A168013A5A60D9608E
S31500004B4031B92AB121881048C1F30B01FFF7B8FD2E
S31500004B5021686FF3173121600B0E6FF30713E370B3
S31500004B60C1F30B010023A36011B90848FFF7A8FDA4
S31500004B70E37843F01003E37002E01C4600E01446BD
S31500004B80204610BD3009200073390A00AF390A00EB
S31500004B9000210A2200F0B8BA4260C260016081605A
S31500004BA0704700BF002330B5044618468B4207D035
S31500004BB0E25C1AB1551E01302A40FAE70133F5E7E7
S31500004BC030BD00BF0EB417B505AB044653F8042B31
S31500004BD003C80193FFF788FE411C02D06368984220
S31500004BE002DB0023636004E01B1A6360236803444E
S31500004BF0236003B0BDE8104003B07047002213B530
S31500004C0001920F4A034612680C46BAB110B109B1B7
S31500004C10884205D1194622460A48FFF751FD0DE0A4
S31500004C20126890420AD8914208D800F03FF901A9CB
S31500004C3000F05CFA036864F31733036002B010BD3A
S31500004C4030092000243A0A0070B5A0F580450346D5
S31500004C500C460846054E1146054AB5F5C04F98BFA5
S31500004C603246FFF75DFD204670BD00BF2F9D0A004E
S31500004C70DDE00A0010B512F1FF3205D3845C8B5CCF
S31500004C809C42F8D0E01A10BD002010BD38B503468E
S31500004C900C4641B138B145780846194602352A46D0
S31500004CA02C44FFF799FC204638BD00BF10B50B46D3
S31500004CB048B1012A07DD44780234A24203DBBDE88D
S31500004CC01040FFF7E3BF184610BD00BF37B50D46CD
S31500004CD000241022013401A900F016FA2B1903F85A
S31500004CE0010C019B581C1B780BB1062CF1D1A31F9C
S31500004CF05842584103B030BD70B50A4600230B4CEC
S31500004D003A25C65C03323609A65D02F8036CC65C1A
S31500004D100133062B02F8015C06F00F06A65D02F8C9
S31500004D20026CEED100234B74084670BD413D0A006B
S31500004D302DE9F341089D019117461E46044608B920
S31500004D40002025E00129FBDD437802339942F7DB99
S31500004D5005F1020822786378DD2A07D0204601A9EA
S31500004D6000F064F904460028F4D1E9E79845F5DA3D
S31500004D703946A01C0322FFF71DFC0028EED135B1F1
S31500004D803146601D2A46FFF715FC0028E6D120466D
S31500004D9002B0BDE8F08100BF012B2DE9F04F87B0CE
S31500004DA082460D4616469B464FF0000841DD002A16
S31500004DB041D01446474682F80080002D37D00AEBD2
S31500004DC008035AF808905968B9F1000F08D1102164
S31500004DD002A82B461A4A4D46FFF7A2FC02A902E09A
S31500004DE019EA050F19D008460191FFF7E3FC25EAF9
S31500004DF0090507448146019905B10137BB450FDD19
S31500004E00204609F101024C44FFF7FAFC2DB1204679
S31500004E1002210C4AFFF784FC044408F10808CCE799
S31500004E202DB120460221084AFFF77AFC0444A01B54
S31500004E3002E0404600E0104607B0BDE8F08F00BF34
S31500004E405E3A0A006F3A0A00A35D0A00144A38B5B2
S31500004E501368044615460BB35A681B6801889A42C4
S31500004E6006D11048C1F30B01BDE83840FFF728BC56
S31500004E70C1F30B0189B211B90B48FFF721FC2B686E
S31500004E80DA68A2605A68DC6001325A6023686FF300
S31500004E90173323601B0E6FF30713E37038BD00BF93
S31500004EA030092000D2390A00043A0A0050B1064BF4
S31500004EB01B681A68904204D89B680C2202FB0030DB
S31500004EC070470020704700BF30092000018910B5E7
S31500004ED0082917D8DFE801F00D05050505050505C4
S31500004EE00900032A0BDD002010BD43899A42FADA35
S31500004EF005E03BB1002AF6D06FF00E0010BD6FF052
S31500004F000D0010BD6FF0160010BD00BF1FB50C469A
S31500004F1041780378009181780191C278102102923C
S31500004F202046034AFFF7FCFB204604B010BD00BF35
S31500004F30523A0A002DE9F0410288054600249442BF
S31500004F4030D205EB8407FB6853B35842184000F093
S31500004F505DFAC0F11F0808EB441405EB8406F069FE
S31500004F6000F040FAFB68B0F1010EDEF1000050EBF4
S31500004F700E0000FA08F883EA0803FB60F3695F4253
S31500004F801F40384600F042FAAB88C0F11F00013BD3
S31500004F90AB80F36900EB44105F40F761BDE8F08138
S31500004FA00134CCE74FF0FF30BDE8F081838801F093
S31500004FB01F0270B5013B4E098380044600EB860351
S31500004FC006F01F0601200D469040DA69AD0A5040F2
S31500004FD0D86100F007FA04EB8504D0F1010038BF70
S31500004FE00020E36800FA06F67340E36070BD00BF78
S31500004FF083884A0970B5013300EB820401F01F066D
S31500005000838002F01F020123890AE56903FA06F686
S3150000501000EB81003543E561C16893401943C160E7
S3150000502070BD00BFB0F90400704700BF0A6810B534
S31500005030012A01DC002010BD4478A31C9A42F9DB4A
S3150000504020446FF001031B1B02301344012B0B603D
S31500005050F0DD427802329342ECDB10BD10B5012937
S315000050600DDD03784478934202D1631C8B4207DB43
S31500005070A31C18446FF001031B1B1944EFE7002023
S3150000508010BD00BF10B51C46FFF7E8FF08B90020A9
S3150000509010BD4378A342FADB10BD00BFF8B50F463A
S315000050A00E490024002818BF014625460C4816461E
S315000050B0FFF706FBB5420CDA0A480134795DFFF7C3
S315000050C0FFFA102C03D108480024FFF7F9FA01353E
S315000050D0F0E70548BDE8F840FFF7F2BAE21A0B0020
S315000050E0773A0A00713A0A005B690A0038B50D463C
S315000050F001240368C3F30B3323B118460134FFF7C9
S31500005100D5FEF6E72C6038BDF0B5304F047803467F
S3150000511001303D5DDFF8B4C005F0200505F0FF065F
S31500005120002DF3D12B2C08BF034605D02D2C08BF2C
S31500005130034614BF0026012662B91A78302A15D113
S315000051405A7802F0DF02582A07BF102202330822DB
S3150000515001330CE0102A0AD11878302807D1587884
S3150000516000F0DF00582802D1023300E00A220020B6
S315000051701D4601332C781CF8047017F0440F02D139
S31500005180F6B140421CE017F0040F01D0303C03E0BA
S31500005190BF074CBF573C373C9442F1D202FB004458
S315000051A084420BD256B971B12B4601351A781CF8D8
S315000051B0022012F0440FF7D10B6004E02046D7E737
S315000051C019B10D60F0BD4FF0FF30F0BD9A8A0900AD
S315000051D0F0B585B0012B06461C460291039219D9FB
S315000051E000254FF0FF37029B03997BB1B7FBF4F222
S315000051F002A803FB02556243009103A95242B2FB87
S31500005200F4FE04FB1E2200F007F8ECE7B1FBF4F411
S315000052102544356005B0F0BD2DE9F74F1D0C9BB256
S31500005220140C92B203FB02F963436A43019329F01B
S3150000523000464FEA03480C9B28F000474FEA024C11
S315000052404FEAD37B2CF0004A37440BEBD97927F091
S31500005250004609EBD87808EBDC7C56440CEBD77794
S3150000526026F0004A07EBD67623F00047BA44019FA2
S31500005270120C06EBDA762AF0004A02EB174316F018
S31500005280010F05FB04340CBF4FF0000C4FF0004C2F
S3150000529004EB56064CEA0A0306600B6003B0BDE851
S315000052A0F08F00BF38B515461C4663B1FF2A0AD8F1
S315000052B001B942B9207065701DB12A46A01CFFF7DE
S315000052C08BF902352C44204638BD00BFFF2A70B545
S315000052D0049E1D4606D8941CB44203DCBDE870400B
S315000052E0FFF7E0BF284670BD2DE9F04117461E4680
S315000052F00C4600EB0108B442C4EB080507D3284668
S3150000530039463246FFF75EFA20B1013CF3E700204A
S31500005310BDE8F0812846BDE8F08100BF2DE9F041E7
S3150000532088B00AB10023137000231C464DF80340D1
S315000053300433202BFAD1012711F8013B08AD5C0993
S3150000534003F01F0605EB840407FA06F654F8205C02
S31500005350354344F8205C002BEED1016801250C464C
S315000053600DF1200811F8013B5E0903F01F0708EB59
S31500005370860605FA07F756F8206C374204D0002B4C
S31500005380EDD12546012610E0202BE8D0F9E74F099C
S315000053900DF1200801F01F0C08EB870706FA0CFC3C
S315000053A057F8207C1CEA070F05D129782B460135D2
S315000053B00029ECD105E002B111700022013303F897
S315000053C0012C03609C4214BF2046002008B0BDE8B3
S315000053D0F08100BF002310B101334008FBE7C3F1A1
S315000053E020007047084BC2B282B0995CC0F3072216
S315000053F09A5C0A44C0F30741000E595C185C0A44E3
S31500005400104402B0704700BF9A8B0900FFF7E2BF55
S3150000541008B500F039F828B100210A46BDE8084071
S31500005420FFF772BE08BD00BF37B5154600F02CF871
S3150000543080B100240BE0002201A9FFF765FEAC4213
S3150000544009D00198013403782C2B08BF013003786A
S31500005450002BF0D1002003B030BD00BF13B500F023
S3150000546013F870B10024037853B1002201A9FFF7A5
S315000054704BFE0198013403782C2B08BF0130F2E76C
S31500005480204602B010BD00BF70B504460D4609B9EE
S31500005490002070BD0846FFF78DF906460028F7D0B4
S315000054A094B1237883B1204629463246FFF782F825
S315000054B028B9A35D3D2B02D10136A01970BD14F8A1
S315000054C0013B002BFBD1EBE72846BDE870400BF013
S315000054D003BA00BFCB0801F00701012202FA01F16D
S315000054E0C25C22EA0101C154704700BF028910B5AF
S315000054F04AB10368013A1C6859680C601C6861600F
S315000055000281184610BD104610BD00BF03684860F2
S315000055100B6001600B685960038901330381704792
S3150000552008B504490622FFF745F8D0F1010038BF57
S31500005530002008BD7492090008B504490622FFF749
S3150000554039F8D0F1010038BF002008BD809209006B
S31500005550044B1B78012B02D1002000707047FFF727
S3150000556057BF00BFBC072000044B1B78012B02D19C
S31500005570002000707047FFF757BF00BFBC07200030
S31500005580044B1B78012B02D1002000707047FFF7F7
S3150000559065BF00BFBC072000044B1B78012B02D15E
S315000055A0002000707047FFF76FBF00BFBC072000E8
S315000055B003460144074810B58B4208D213F8014B45
S315000055C05440E4B250F8244084EA1222F4E710462C
S315000055D010BD00BF748D090003460144054810B58F
S315000055E08B4204D013F8014B6240825CF8E7104608
S315000055F010BD00BF74910900CB0801F00701C05C23
S31500005600084100F0010080F001007047012201F01E
S315000056100703C90802FA03F3405C1840704700BF4D
S315000056202DE9F84333EA230628BF4FF48056174B7B
S315000056300C46DDF820801968994644B152B1238A98
S315000056409A4207D3D21AA38B51F82340F5E7204696
S31500005650BDE8F8830025AEB1278AE168BF1ABE42CD
S3150000566038BF3746404611443A46B844FEF7B4FFC1
S31500005670A38BD9F80020F61B52F823403D440CB109
S315000056800022E8E72846BDE8F88300BF8C07200023
S31500005690212928D98389082B0BD1837B1909042951
S315000056A001D1C37B19E0062919D11B01C17BDBB2ED
S315000056B011E0812B17D1252915D9038A082B12D180
S315000056C0837C1909042901D1C37C06E0062906D189
S315000056D01B01C17CDBB243EA11139B0800E00023E7
S315000056E01370012070470020704700BF044B1A68F2
S315000056F08B8B52F823300BB11946F9E708467047F1
S315000057008C0720002DE9F047A0B089469046014657
S3150000571020B1027812B11948FEF7D2FF0026802583
S315000057206C466F46464520D016F00F0A07D1204634
S315000057302946134A3346FEF7F3FF04442D1A002D7B
S3150000574008DD204629460F4A19F80630FEF7E8FF1D
S3150000575004442D1ABAF10F0F05D10B48694680256E
S31500005760FEF7AEFF6C460136DCE7BC4203D00648C6
S315000057706946FEF7A5FF20B0BDE8F087633A0A0048
S31500005780683A0A00713A0A0026B80A002DE9F04183
S3150000579016468E4205460F461A462CD30C46FB0883
S315000057A0F208D11A01291DD9FF210133D7004FEA8A
S315000057B0C30808F1FF38934202D2E9540133FAE7ED
S315000057C0444505D821460134284600F019F8F7E784
S315000057D0B74205D839460137284600F011F8F7E7F1
S315000057E0BDE8F08121460134284600F009F8B442AC
S315000057F0F8D9BDE8F0810024FFF7C8FF2746CEE7B9
S31500005800CB0801F00701012202FA01F1C25C114343
S31500005810C1547047C0F3C220072802D0024B185C5F
S3150000582070470020704700BFAA9209000A23143867
S31500005830B0FBF3F0C0B270470023064A995C884279
S3150000584001D1184670470133062BF7D14FF0FF30D0
S31500005850704700BFA492090010B504460846FFF73A
S31500005860E5FF201AC0B210BD10B51446FFF7F4FFCD
S3150000587000EB8400C0B210BD38B50D461146144683
S31500005880FFF7EAFF281A830708D11423B4FBF3F4C1
S315000058908008A04228BF4FF0FF3038BD4FF0FF30E0
S315000058A038BD00BF052802D8024B185C704700209F
S315000058B0704700BFA49209002DE9F0470E288CBF5F
S315000058C04FF440494FF00009B1F5C05F49EA0109BC
S315000058D080461FFA89F917D0B1F5005F18D0B1F5E7
S315000058E0205F19D0B1F5605F08D031F4006305D0B0
S315000058F0B1F5805F02D00020BDE8F08749EA0808CC
S315000059001FFA88F0BDE8F0870C26114C282706E020
S315000059100626104C502702E002260F4CA0272546EB
S31500005920AA46013541469AF800003A46FFF7A4FF19
S31500005930002808DB9AF8008049EA080949EA0020AD
S3150000594080B2BDE8F0872B1BB342E9DBD3E700BF8B
S3150000595098920900A49209009692090041F2CE237A
S31500005960994203D1431E0D2B03D909E0C82802D959
S3150000597006E00E2807D00523584300EB5100704778
S315000059804FF0FF30704740F6B41070472DE9F041F4
S3150000599006460F460024DFF82C8034F808503543BD
S315000059A06FEAC5456FEAD545ADB2284600F00CF85A
S315000059B0874203D00234082CEFD1FF252846BDE8E4
S315000059C0F08100BF8692090038B500F46053B3F544
S315000059D0605F044605D010F4405F02D0B3F5805FE7
S315000059E001D1E0B238BDB3F5405FC0F3022505D161
S315000059F0074B00F00F045021185D03E0FFF70AFF84
S31500005A000146E0B22A46BDE83840FFF72DBF00BF89
S31500005A10A492090000F46053B3F5605F10B5044624
S31500005A200DD010F4405F0AD0B3F5805F07D0FFF7C2
S31500005A30CBFF40F4805004F440440443A4B2204613
S31500005A4010BD00BF2DE9F0410646084617468846B8
S31500005A50FFF7F2FE04463846FFF7EEFE621C0546E7
S31500005A6002D1FF20BDE8F081431CFAD04046314602
S31500005A705022FFF701FF002809DA38463146502246
S31500005A80FFF7FAFE0028ECDB23462C461D466FEA9C
S31500005A9004546FEA145444EA051444EA002080B220
S31500005AA0BDE8F08110F4404200F460530CD1B3F528
S31500005AB0605F28D010F4405F25D0B3F5805F22D018
S31500005AC0B3F5C05F3BD12BE0B2F5404F37D1B3F50C
S31500005AD0405F08D100F00F03052B30D8C0F3031345
S31500005AE0052B27D92BE0B3F5605FC2B229D010F49D
S31500005AF0005F00F4405103D0B1F5005F1FD107E00D
S31500005B00E02A1CD831B910F4E06F18D10020704794
S31500005B10E02A14D8B3F5805FF5D0B3F5C05F04D1A1
S31500005B2000F4E060B0F5807F08E000F42053B3F5A0
S31500005B30005FEBD100F4E060B0F5407FE6DD0120C8
S31500005B407047E02ADFD9FAE773B504460D46FFF73A
S31500005B50A9FF00285ED114F4404307D12F4BE6B2CB
S31500005B602F4A0E2E8CBF16461E460BE0B3F5404F4D
S31500005B7007D12A4BE6B22B4A0E2E94BF16461E4676
S31500005B8000E0264E2046FFF71FFF034604F460524E
S31500005B90B2F5805F07D1009014212846224A334689
S31500005BA0FEF7BEFD20E0B2F5405F1FD0D0121F49C0
S31500005BB0B2F5C05F51F820100ED11D4A04F47C5492
S31500005BC01C492846B4F5C85F14BF0C4614468DE838
S31500005BD018001421184A04E0019128461421174A96
S31500005BE000933346FEF79CFD284614E0284604F051
S31500005BF00F02052AC4F3031496BF11490021895CDC
S31500005C00052C8EBF00220E4A125D8DE80600142177
S31500005C100C4AE7E7002002B070BD00BFE21A0B0095
S31500005C20513D0A00543D0A00573D0A00B49209004E
S31500005C3040CB0A007A680A005C3D0A00633D0A0010
S31500005C40A49209006B3D0A0038B505460C46FFF7DD
S31500005C507BFF28B920461421024A2B46FEF760FD39
S31500005C60204638BD7A3D0A0000F46053B3F5405F24
S31500005C7010B5044602D0B3F5205F01D100F034F828
S31500005C8000F46053B3F5005F0DD1084CC3B200F4C5
S31500005C90E060B0F5007F32BF043B0433A0F500702E
S31500005CA018430443A4B2204610BD00BF00D8FFFF2E
S31500005CB000F46053B3F5005F12D0B3F5405F03D133
S31500005CC000F00F00FFF7EEBDB3F5205F0AD1C3B2B7
S31500005CD0C0F30220032894BFA3F1080003F10800D3
S31500005CE0C0B27047FF20704700F46053B3F5005F01
S31500005CF010B5044622D0B3F5405F0AD100F00F007C
S31500005D0004F4E06444F46044FFF7CCFD204384B21D
S31500005D1014E0B3F5205F10D100F4E064C3B2B4F52B
S31500005D20806F32BF083B0833A4F580641C436FEADA
S31500005D30C4446FEAD444A4B200E0FF24204610BD58
S31500005D4000F46053B3F5405F03D1C0F30310FFF7CF
S31500005D50A9BDB3F5205F0AD1C3B2C0F30220032860
S31500005D6094BF03F10800A3F10800C0B27047FF20FA
S31500005D70704700BF10B50446FFF794FE002868D1AF
S31500005D8014F4404104F46053E2B212D1B3F5605FFB
S31500005D9005D014F4405F02D0B3F5805F02D1013A1A
S31500005DA00D2A04E0B3F5C05F53D1033A082A50D850
S31500005DB051E0B1F5404F4CD1B3F5405F0ED12A4BBF
S31500005DC0C4F3031204F00F049A5C1B5D03F1100187
S31500005DD08A4240DC103293423BDD3CE0B3F5605F23
S31500005DE002D014F4405F02D10023204C15E0B3F535
S31500005DF0805FF9D0B3F5C05F22D0B3F5005F2CD039
S31500005E00B3F5205F25D12BE0DD298CBF00210231BF
S31500005E108A4211D001330C2B07D0195D022994BF99
S31500005E200020881E8242EFD106E0A52A13D002F098
S31500005E30F302222A0DD10EE00C218B4209D20AE090
S31500005E400C210A480023C45CA242F6D001338B42DF
S31500005E50F9D3002010BD012010BD06210248F1E74C
S31500005E6002210348EEE700BFA492090098920900B8
S31500005E709692090030B585B00324039002910398E9
S31500005E800299DD22FFF7EAF8054648B1092303A97E
S31500005E90019302AA0094044B00F06EF80028EED09D
S31500005EA0284605B030BD00BF32360A00F0B585B0D1
S31500005EB015461E4603900291032703980299DD2298
S31500005EC0FFF7CCF80446D0B1022303A9019302AA36
S31500005ED000970C4B00F050F80028EED061780231A4
S31500005EE0052905D9A379AB4202D1B31C994206D044
S31500005EF0039B0B440393029B591A0291DCE720464D
S31500005F0005B0F0BDD62C0A0030B585B00324039049
S31500005F10029103980299DD22FFF7A0F8054648B1E1
S31500005F20012303A9019302AA0094044B00F024F86C
S31500005F300028EED0284605B030BD00BFD62C0A009A
S31500005F4030B585B003240390029103980299DD22AF
S31500005F50FFF784F8054648B1042303A9019302AA72
S31500005F600094044B00F008F80028EED0284605B04F
S31500005F7030BD00BFD62C0A00F8B5069D17464278FC
S31500005F80044695420E460ADB6378002002331C4421
S31500005F9033681A1B3B6813443B603460F8BD1946EE
S31500005FA002302A46FEF706FB0028EDD125449DF86F
S31500005FB01C30AA789A42E7D10120F8BD30B50329F2
S31500005FC00FDD8478C378057843EA042344780433E4
S31500005FD044EA0524944201D18B4203DD1844C91AD0
S31500005FE0EDE7002030BD00BF70B50C461146032218
S31500005FF005461E46FEF7DEFAA8B9EB78013B042BF0
S3150000600026D8DFE803F0070325050B00022307E087
S31500006010042305E0E6B10120208070BDC6B103234C
S315000060202380012070BD28460A490322FEF7C2FAE2
S3150000603070B96EB1EB780833092B05D00A2B05D061
S31500006040082B06D10723EBE70823E9E70923E7E74F
S31500006050002070BDD22C0A0070B50C461646314998
S3150000606003220546FEF7A6FAC0B9EB78062B57D8E9
S31500006070DFE803F04C0406080B0E110040234CE049
S3150000608080234AE044F2400347E04FF4814344E072
S315000060904FF4805341E04FF400433EE02846224946
S315000060A00322FEF787FA20B9EB78012B39D140227B
S315000060B030E028461D490322FEF77CFA30B9EB781A
S315000060C07BBB0EB9102328E0082326E02846184992
S315000060D00322FEF76FFA60B9EB78012B03D015D3D4
S315000060E0022B03D070BD4FF4806213E04FF40063BF
S315000060F013E028460F490322FEF75CFA80B9EB78D5
S31500006100012B06D002D3022B06D070BD01202060E1
S3150000611070BD0222226001E004232360012070BDCD
S31500006120002070BDDA2C0A0032360A00D22C0A0092
S31500006130DE2C0A00D62C0A0038B503220C461A4972
S315000061400546FEF737FA18B9EB78022B2AD816E07F
S31500006150284616490322FEF72DFAEB7818B9012BCB
S315000061601CD0206018E00B2B14D8DFE803F00608DB
S315000061700B130D0813131313130F002308E001204C
S31500006180206038BD022303E0042301E04FF480734E
S31500006190236001E0002038BD012038BD18464FF4C9
S315000061A08072226038BD00BFD22C0A00DE2C0A00A5
S315000061B049F2D0130340181C18BF0120704700BFD6
S315000061C010F00F0018BF0120704700BF20F4804078
S315000061D040280ED080280CD010280AD0B0F5807F39
S315000061E007D0B0F5805F04D0B0F50043584258415F
S315000061F070470120704700BF431E012B08D90828AD
S3150000620006D0B0F1040CDCF1000050EB0C00704736
S31500006210012070470138C0B20A2803D8024B33F870
S3150000622010007047002070472E3E0A002DE9F04FFF
S3150000623087B01B4E03AC82468946306871689B4620
S31500006240337A119D03C4904603A82370129FFEF76C
S31500006250B1FA024603A92846FEF7BEF903A8FEF7DF
S31500006260A9FA0446514628180622FEF7B5F949460A
S31500006270A01D28440622FEF7AFF90023019304F17E
S315000062800C03404659462A46009701F083FA1098B7
S3150000629039461022FEF7A0F907B0BDE8F08F00BF1F
S315000062A09D3D0A002DE9F04FBFB02F4C04AD90463E
S315000062B0834604F110028A4699464B9E2F46206873
S315000062C0083454F8041C2B46944203C31D46F6D1E9
S315000062D02068A2881860A3791EACAA80AB715946C3
S315000062E052460623002000F047F8014606222046C3
S315000062F0FEF772F9594652460623012000F03CF893
S315000063000146A01D0622FEF767F9494642462023AC
S31500006310002000F031F8014604F10C002022FEF7BF
S315000063205BF9202349464246012000F025F8014644
S3150000633004F12C002022FEF74FF93846FEF73AFA10
S3150000634000940AAC4C220346019249993A460294BB
S315000063500396489801F0F6F94A9821463246FEF728
S315000063603BF93FB0BDE8F08FC73D0A001346014A2E
S31500006370FFF73ABEDA2C0A0070B500249C420DD015
S315000063800D5D165DB54201D10134F7E718B1AE4295
S3150000639088BF114602E0AE4238BF1146084670BDBE
S315000063A02DE9F043B9B0254C07462068904699463A
S315000063B0A288A379029002A88DF80E300E46439D5E
S315000063C0ADF80C20FEF7F6F9024602A918A8FEF76A
S315000063D003F902A8FEF7EEF9044618A84946204438
S315000063E02022FEF7F9F8414618AB202204F12000DE
S315000063F01844FEF7F1F8394618AB062204F14000BE
S315000064001844FEF7E9F8314618AB062204F14600B7
S31500006410184404AEFEF7E0F8409818AA419904F132
S315000064204C030096019501F01DFA429831462A4622
S31500006430FEF7D2F839B0BDE8F08300BFC03D0A00D0
S315000064402DE9F043BBB017463A4A3B4E81461068E9
S315000064509846938802903068B288ADF80C30B379CC
S31500006460049002A80D46429C8DF81630ADF8142013
S31500006470FEF7A0F9024602A91AA8FEF7ADF802A88F
S31500006480FEF798F949463AAB2A46461C184400F8E6
S31500006490805C1AA83044FEF79FF870193AAB0344A3
S315000064A0C51C414603F8807C1AAB03443F0A5F7063
S315000064B03AAB1844224600F87E4C1AA828442544D4
S315000064C0FEF78AF843991AA8284406AC0622FEF776
S315000064D083F830231AAA0193AB1D4498459900947A
S315000064E001F0C0F9214620224698FEF775F804A867
S315000064F0FEF760F9024604A91AA8FEF76DF804A88B
S31500006500FEF758F905461AA8284404F1200110227E
S31500006510FEF762F822461AA8002305F1100101F0E1
S31500006520DBF9479821461022FEF756F83BB0BDE846
S31500006530F08300BFA63D0A00AC3D0A002DE9F047F6
S31500006540BAB0374C07469A462068A388354C029065
S3150000655020689146ADF80C30A288A37906AC049069
S3150000656002A88DF816300E46ADF81420FEF722F973
S31500006570024602A94FF020081AA8FEF72DF802A835
S31500006580FEF718F905461AA8394628440622FEF7EA
S3150000659023F831461AAB0622A81D1844FEF71CF84C
S315000065A0484605F10C0351461AAA0094CDF804801A
S315000065B001F058F9214642464398FEF70DF804A823
S315000065C0FEF7F8F8024604A91AA8FEF705F804A88B
S315000065D0FEF7F0F805461AA8429928441022FDF75E
S315000065E0FBFF39461AAB062205F110001844FDF7E9
S315000065F0F3FF31461AAB062205F116001844FDF7E3
S31500006600EBFF22461AA8002305F11C0101F064F9EC
S31500006610449821461022FDF7DFFF3AB0BDE8F08727
S31500006620B33D0A00B93D0A002DE9F04F87B01A4E76
S3150000663003AC82468946306871689B46337A119D61
S3150000664003C4904603A82370129FFEF7B3F80246D0
S3150000665003A92846FDF7C0FF03A8FEF7ABF80446DA
S31500006660514628180622FDF7B7FF4946A01D2844C3
S315000066700622FDF7B1FF284604F10C0142465B46AF
S3150000668000970AF0D9FA109839461022FDF7A4FFB0
S3150000669007B0BDE8F08F00BF9D3D0A002DE9F04F21
S315000066A0BFB02F4C04AD9046834604F110028A46D3
S315000066B099464B9E2F462068083454F8041C2B46F6
S315000066C0944203C31D46F6D12068A2881860A379B8
S315000066D01EACAA80AB715946524606230020FFF72E
S315000066E04BFE014606222046FDF776FF59465246E6
S315000066F006230120FFF740FE0146A01D0622FDF7F6
S315000067006BFF4946424620230020FFF735FE01462F
S3150000671004F10C002022FDF75FFF20234946424684
S315000067200120FFF729FE014604F12C002022FDF787
S3150000673053FF3846FEF73EF800940AAC4C22034657
S31500006740019249993A460294039648980AF0D2F97A
S315000067504A9821463246FDF73FFF3FB0BDE8F08F2D
S31500006760C73D0A002DE9F04FD7B04C4D03ACDDF81C
S3150000677080A180460F469B46286869682B7A0EAD35
S3150000678003C49146237016AC202351465A46002076
S31500006790629EFFF7F1FD01460EA82022FDF71CFFC1
S315000067A03F480EA92022FEF7ADFF202351465A4648
S315000067B00120DFF804A1FFF7DFFD01462022204675
S315000067C0FDF70AFF214637482022FEF79BFF364891
S315000067D01EA94022FEF796FF20230EA8402106AAF6
S315000067E001F07AF8202206A93048FEF78BFF03A8AD
S315000067F0FDF7E0FF024603A90EA8FDF7EDFE03A88C
S31500006800FDF7D8FF02460EA92948FEF77BFF03A82D
S31500006810FDF7D0FF04460544062341463A460020CC
S31500006820FFF7AAFD014606222846FDF7D5FE50468B
S315000068302946A51D0622FEF765FF41460EAB1D44FF
S315000068403A4606230120FFF797FD01460622284611
S31500006850FDF7C2FE504629462EAD0622FEF752FF30
S3150000686049460EAB062204F10C0018441234FDF71B
S31500006870B3FE22460EA90F48FEF744FF234606A89C
S3150000688020210EAA8DE8600000F0ECFF61982946F1
S315000068903246FDF7A1FE57B0BDE8F08F243E0A0050
S315000068A0DE3D0A00EA3D0A00F63D0A00FC3D0A000C
S315000068B0063E0A0099A30A000E3E0A00F0B500F152
S315000068C05F05044699B00F461646294610226846CB
S315000068D0FDF782FE002110222846FDF7CDFE204658
S315000068E004AB3946324600F00DF940B1694604A8BA
S315000068F01022FDF75FFED0F1010038BF002019B06D
S31500006900F0BD00BF1346014AFFF76EBBD62C0A0046
S3150000691010B5BDE8104000F001B800BF2DE9F34105
S3150000692001F003010129044690461D46099F0A9E6F
S3150000693015D042D390F85D6000F15F0390F85E20B9
S31500006940002D08BF1D4600951020414642EA06224A
S31500006950F9F7DCFED0F1010038BF002030E010224C
S3150000696004F12D013846FDF737FE414607F11000C8
S315000069701022FDF731FE3846202132460AF0F8FA99
S3150000698008984FF4807132460AF014FB15B1E77887
S31500006990237903E094F85D7094F85E3043EA0727A4
S315000069A05F342046394632460AF004FB3DB128469C
S315000069B021463A46FDF710FE01E0002000E00120E6
S315000069C002B0BDE8F08100BF2DE9F34101F00301FB
S315000069D0012904461746099E0A9D01D029D265E081
S315000069E01BB190F80380037903E090F85D8090F87E
S315000069F05E30304604F12D01102243EA0828FDF7E7
S31500006A00EBFD394606F110001022FDF7E5FD304694
S31500006A102A4620210AF0ACFA08982A464FF48071DB
S31500006A200AF0C8FA414604F15F002A460AF0C2FAA3
S31500006A303AE090F85D2090F85E3043EA02239DB27A
S31500006A400F2D0CD8C218DD2102F1600082F85F100C
S31500006A500021C3F10F021025FDF70EFE14E06A07B0
S31500006A6012D0C21825F00705DD21ADB282F85F10FD
S31500006A705A1C184402F0070200210835C2F1080228
S31500006A806030ADB2FDF7F8FD102004F15F0300930E
S31500006A9039462A46F9F7BCFE40B90835ADB284F846
S31500006AA05E502B0A84F85D30012000E0002002B021
S31500006AB0BDE8F081012200F001B800BF7FB51446A1
S31500006AC003250390029103980299DD22FEF7C6FA88
S31500006AD0064640B1009503A9019402AA034BFFF7AD
S31500006AE04BFA0028EFD0304604B070BDDA2C0A000D
S31500006AF00139002905DB435CFF2B03F101024254F7
S31500006B00F6D0704737B50C46057C417C022C41EA2D
S31500006B10052101F1040109D0032C0ED0012C13D15B
S31500006B2000930E30102300F0ADFD04E000930E300C
S31500006B3010230AF081F8012007E000930E3010239D
S31500006B400193F9F721FDF6E7002003B030BD00BF41
S31500006B502DE9FF4102F10804064604AD00688846A7
S31500006B601F4645F8040D34F8082C72B154F8040C8D
S31500006B70083434F80E3C41468DE88100284600F082
S31500006B800BF80028EFD0012000E01046039B33608D
S31500006B9004B0BDE8F08100BF2DE9F8430D46D0F8FA
S31500006BA000800646BDF82410184691461F4600F0A0
S31500006BB021F82A880446904207DD21460C48FDF755
S31500006BC07FFD6FF01700BDE8F883A8F8009008F184
S31500006BD00400A8F8027008993A46FDF7FDFC3368F0
S31500006BE00020234433602B881C1B2C80BDE8F883CF
S31500006BF0443E0A00CB0703D5073020F00300704758
S31500006C00043070472DE9F04188B00646884617469D
S31500006C1068460021102200241D46FDF72DFD18F8B8
S31500006C20040024F0010308A914F0010F0B4404F139
S31500006C3001040CBF0022082233F8201C00FA02F2DD
S31500006C40102C42EA010223F8202CE8D1287804AC63
S31500006C506978AA7801EB0021002389B242EA07226B
S31500006C60DFF87CC03DF8037079400F0AC9B23CF8E2
S31500006C7017703CF811107FBA4F40BFB282EA070185
S31500006C8019530233102B01D03A46EBE7BDF800202A
S31500006C900023D10B41EA4202E118023B13F10E0F29
S31500006CA0CF8917FA82F292B2CA81F2D130706B782C
S31500006CB07370AB78B370032323F0010208A90A446A
S31500006CC013F0010F32F8101C0CBF0022082241FA03
S31500006CD002F2F2540133102BEED108B0BDE8F08178
S31500006CE0D4920900826A2DE9F0410E4612F00301A2
S31500006CF0074625D00B4600240133F818032B80F8ED
S31500006D002B4003EB0200C1EB0000F5DD97F82D8068
S31500006D1097F82C304FEA084848EA036897F82F306E
S31500006D20B86248EA030897F82E30D7E9084538468E
S31500006D3048EA032800F030F8E8FB0045C7E90845B3
S31500006D40D7E908454FF0FF3204EA020000230F247A
S31500006D5005EA0301A5FB0445001B61EB05016FF085
S31500006D600E044D42CF1704FB0757A1FB0445241818
S31500006D703D4445F10005012D08BF102C02EA04022E
S31500006D8000D30F3A130E3370130C7370130AB370DB
S31500006D90F270BDE8F08100BF7FB5856A0446013D0B
S31500006DA0C5F38106B6B92D11314610226846FDF7A6
S31500006DB063FC2B0A8DF80E3010202B0C8DF80F502B
S31500006DC08DF80D302D0E21466A4623188DF80C508D
S31500006DD0F9F78AFCB60006F1100323442644997895
S31500006DE05A78090241EA0241DA78307C41EA020324
S31500006DF043EA006004B070BD10B510220446FDF7EA
S31500006E00EBFB00230022C4E908230023A36210BD84
S31500006E102DE9F843836A0646884603F003031746BE
S31500006E20002F2ADD18F8011B0133F218013F032B4E
S31500006E3082F82B10B26A02F10102B26202DC002F64
S31500006E40F0D11AE096F82D9096F82C304FEA0949C1
S31500006E5049EA036996F82F30D6E9084549EA030955
S31500006E6096F82E30304649EA0329FFF795FFE9FBED
S31500006E7000450023C6E90845D2E7BDE8F88300BF10
S31500006E802DE9F0438FB081468846174618462949B2
S31500006E9008221C46169EFDF78DFB054650B120467E
S31500006EA025490822FDF786FB002814BF00256FF050
S31500006EB000053BE0331202A849468DF800308DF8F4
S31500006EC00160FFF799FF414602A80622FFF7A0FFDF
S31500006ED0394602A80622FFF79BFF694602A802224E
S31500006EE0FFF796FF214602A80822FFF791FF04222A
S31500006EF002A804F10C01FFF78BFFA6F1100202A80D
S31500006F0004F11001FFF784FF02A801A9FFF7EAFECA
S31500006F10042204F1080001A9FDF74CFB28B11798DB
S31500006F2001A90422FDF758FB00E0012528460FB011
S31500006F30BDE8F083DC940900D49409002DE9F047FC
S31500006F408EB0864602A8179E199C89463719714647
S31500006F5010379A463B0A8DF800309046189D8DF8FA
S31500006F600170FFF749FF494602A80622FFF750FFC6
S31500006F70414602A80622FFF74BFF694602A80222F5
S31500006F80FFF746FF114902A80822FFF741FF5146C5
S31500006F9002A80422FFF73CFF169902A83246FFF723
S31500006FA037FF2DB124B1294602A82246FFF730FF4C
S31500006FB002A801A9FFF796FE1A9801A90422FDF777
S31500006FC00BFB01200EB0BDE8F08700BFDC94090082
S31500006FD04B782DE9F0410E78CA781B0443EA066324
S31500006FE04C7913430A7924048E7844EA0264CA79F8
S31500006FF08D7943EA0623144344EA052484EA1316EA
S31500007000002706F00F36744083EA061684EA164215
S3150000701092B2544086EA024282EA940505F033357C
S315000070206A4084EA850582EA152303F0FF135A4075
S3150000703085EA03234FEAF37383EA020404F0AA34D1
S3150000704062405C404FEAF272614B0668023745685F
S31500007050103086EA3416654006F03F0C102F05F016
S315000070603F0808F5E0780CF5C07C53F8288053F803
S315000070702CC088EA0C0CC6F3052808F5807853F86E
S3150000708028808CEA080CC6F30548C6F3056608F1A5
S31500007090800853F8288053F826608CEA080C8CEA9E
S315000070A0060CC5F3052606F5A07653F826608CEA8D
S315000070B0060CC5F30546C5F3056506F1C00605F1E0
S315000070C0400553F826608CEA060C53F825608CEAD6
S315000070D0060550F8046C82EA050282EA060650F8B4
S315000070E0085C06F03F0C0CF5E07C85EA321553F897
S315000070F02CC084EA0C0C05F03F0404F5C07453F868
S3150000710024408CEA040CC6F3052404F5A07453F855
S3150000711024408CEA040CC6F30544C6F3056604F164
S31500007120C00406F1400653F8244053F826608CEA62
S31500007130040484EA0604C5F3052606F5807653F8AA
S31500007140266084EA0604C5F30546C5F3056506F11F
S31500007150800653F8266053F8255084EA060484EA2C
S3150000716005047FF472AF4FEA740484EA020000F06B
S31500007170AA30424044404FEA720284EA122303F0E6
S31500007180FF135C4082EA032284EA920303F033335E
S315000071905C4082EA830383EA144080B2434084EA77
S315000071A0004083EA101202F00F32534080EA0212C6
S315000071B0CA70100E0870100C4870100A1A0E0A7168
S315000071C01A0C4A711A0A88708A71CB71BDE8F0816F
S315000071D0E49409002DE9F0419EB0904600233E4F0D
S315000071E03E4DDA5D3D4E013AD41002F007020C5DC9
S315000071F055F82220144202AA0CBF002401249C54F4
S315000072000133382BEDD105460024354F00210822E5
S315000072106846FDF731FAC4F10F03B8F1000F08BF55
S315000072202346304AD15C0023A1F11C0C5A181B2BB3
S31500007230CCBF38201C2082421EA8A8BF0CEB03023C
S31500007240024412F8700C10AAD0540133382BEDD139
S3150000725000230620D95D1EAA114411F8392C6AB103
S3150000726093FBF0F11EAA0A4400FB113156F821C027
S3150000727012F8781C41EAAC0102F8781C0133302B75
S31500007280E8D19DF8023001349DF8002008351B0432
S3150000729043EA02639DF80620102C43EA02039DF898
S315000072A0042043EA022345F8083C9DF803309DF884
S315000072B001204FEA034343EA02639DF8072043EAAD
S315000072C002039DF8052043EA022345F8043C9DD1BC
S315000072D01EB0BDE8F08100BF049D0900E49C0900D2
S315000072E03C9D09006C9D09002DE9F04F85B01C46B8
S315000072F0A2F58373012B83468A4615460E9EDDF85A
S315000073003C90DDF840809DF844700BD8204610492B
S315000073100622FDF757FA28B9204605B0BDE8F04F1A
S315000073200AF08ABD584651469AF0FEFE58B1836966
S315000073302946CDF80090CDF80480029722469F6931
S315000073403346B84701E04FF0FF3005B0BDE8F08F97
S31500007350D4310A002DE9F341044615460E4601B123
S315000073602AB93D4B1B68DD0771D53C486CE0876B3D
S3150000737027BBC26B002A55D1002B53D0A1632946E7
S31500007380206C40F8221001329A4201F1340141F892
S31500007390106CF5D1636C00271F60314B22651B68AA
S315000073A0E5632146756200971D686068226833466A
S315000073B0A847E060002842D038464AE08F4231D1E3
S315000073C0C36B93422ED0016DD0F84C804B1E9E00AD
S315000073D03046434506DA626C52F800C00430BCF110
S315000073E0FF3F01D1321D02E00133F2E70131414591
S315000073F006DA206C104404320668002EF6D10560C9
S31500007400626C42F82310E26C934208DB1249096869
S31500007410CC071CD513491448FDF752F917E06F62E3
S31500007420184616E00C4B1B68D80710D50096019538
S315000074300C493A46E36B0D48FDF742F907E0064B67
S315000074401B68D90703D50A480649FDF739F94FF0F5
S31500007450FF3002B0BDE8F08140072000DB310A00B2
S3150000746080072000C6320A00F7310A0023320A00DC
S3150000747056320A0008B5034BC0681B689B689847DC
S3150000748008BD00BF80072000F7B516461F469AF0D4
S315000074904BFE60B18369DC6A64B19DF82830099DB2
S315000074A00193009531463A46089BA04703E06FF0EA
S315000074B0010000E0204603B0F0BD00BF38B5054628
S315000074C000242B6D9C4208DA2B6C53F82400836948
S315000074D05B68984728B90134F3E70020012385F853
S315000074E04A3038BDF8B504461E46C76C0025BD4275
S315000074F015DA236C53F8250003EB850C904201D175
S31500007500E26314E048B9CCF80020636C516253F88A
S315000075102620236C43F8220009E00135E7E7064BF5
S315000075201B68DF0703D505480549FDF7C9F8636CF5
S3150000753043F82650F8BD00BF400720006F320A000E
S3150000754090310A0000290BDBC36C994208DA436CC0
S3150000755053F821305A1C03D0026C52F823007047AE
S3150000756000207047F8B5064617460D46F9B1C36BBD
S3150000757099421ED00124F36C9C4205DA304621461E
S31500007580FFF7E0FF854203D1F36C9C4202DA0BE081
S315000075900134F0E7094B1B68D9070CD508492A4680
S315000075A00848FDF78DF806E0FC762046F8BD08464B
S315000075B0F8BD0020F8BD4FF0FF30F8BD40072000B1
S315000075C0B6320A00AE310A0073B50446164601B15A
S315000075D02AB9264B1B68D80744D5254809E0826B93
S315000075E05AB9C36B002B32D1204B1B68D90739D54A
S315000075F020482149FDF764F834E08A4227D1C36B5D
S31500007600B34224D00025E36C9D4216DA2046294673
S31500007610FFF798FF86420ED1636C226C53F8251053
S31500007620002342F82130626C4FF0FF3142F82510FA
S315000076302846736218E00135E5E70C4B1B68DA074C
S3150000764010D50D4932460D48FDF73AF80AE0074BCA
S315000076501B68DB0706D58DE8420009480649E36B3F
S31500007660FDF72EF84FF0FF3002B070BD4007200046
S31500007670DB310A0086320A009F310A009D320A0079
S3150000768023320A002DE9F047C0B0402B82468946D6
S3150000769017461C46DDF820810DDD26A808F032FDD0
S315000076A0394626A822466F4608F03EFD102426A934
S315000076B0684608F0DDFC002104AE412215AD3046D7
S315000076C0FCF7DAFF002141222846FCF7D5FF2246C7
S315000076D039463046FCF780FF2246284639460024C4
S315000076E0FCF77AFF335D83F0360333552B5D83F069
S315000076F05C032B550134402CF4D126A808F002FD7A
S31500007700314626A8224608F00FFD4A4626A85146CD
S3150000771008F00AFD404626A908F0AAFC26A808F0AB
S31500007720F1FC294626A8224608F0FEFC414626A87A
S31500007730102208F0F9FC404626A908F099FC40B052
S31500007740BDE8F0872DE9F041A2B08046299E0F469C
S315000077509D197F2D1C4617DC23B1114602A81A4637
S31500007760FCF73AFF289902A832462044FCF734FF7A
S315000077702A9B02AA404600932B9B394601932B462F
S3150000778000F070F8002001E04FF0FF3022B0BDE8B5
S31500007790F08100BF2DE9F04FCDB0402983460C465D
S315000077A092469946569FDDF85C810DDD30A80BF0B8
S315000077B0CBF8594630A82246EB460BF0EDF82024CC
S315000077C030A968460BF038F8002110AE402220ADF3
S315000077D03046FCF751FF002140222846FCF74CFFBB
S315000077E0224659463046FCF7F7FE224628465946B9
S315000077F00024FCF7F1FE335D83F0360333552B5D31
S3150000780083F05C032B550134402CF4D130A80BF0E7
S315000078109BF8314630A822460BF0BEF84A4630A8FF
S3150000782051460BF0B9F8384630A90BF005F830A8E8
S315000078300BF08AF8294630A822460BF0ADF83946F7
S3150000784030A820220BF0A8F8384630A90AF0F4FF39
S31500007850B8F1000F02D02023C8F800304DB0BDE8C3
S31500007860F08F00BF2DE9F04FABB007460DF12A00AF
S31500007870359D884611461A461C46FCF7ADFE202368
S315000078802AAAEE0004F1040922441F35002402F856
S315000078907E6C361202F87D6C02AE95FBF3FBA246B7
S315000078A0349D5C4514DA3846013441460AAA23124F
S315000078B08DF829308DE840044B468DF82840FFF7B7
S315000078C069FF2846203531462022FCF785FEE8E789
S315000078D02BB0BDE8F08F00BF70B59CB00D460646D4
S315000078E0684614460BF030F831462A4668460BF0D7
S315000078F053F8204669460AF09FFF1CB070BD00BFD2
S3150000790010B504460846114699F09EFE18B1636804
S315000079101A6801321A6010BD10B50446084699F07F
S315000079209BFE18B163681A6801321A6010BD00BF69
S3150000793038B504460D4622B1836813B1C0680022EB
S315000079409847094B18682B464BB1DA781AB9626822
S315000079501168013911609B8B50F82330F4E72846F3
S31500007960BDE8384099F080BE8C072000084B30B542
S315000079701D680B464BB1DA781AB9426814680134AF
S3150000798014609B8B55F82330F4E7084630BD00BFE2
S315000079908C07200010B500220C46FFF7B1FF88B90E
S315000079A0094B1B6873B11A7862B1DA89944209D817
S315000079B018469AF0F1FB08B1044B00E0044B1A6834
S315000079C001321A6010BD00BF400920008407200064
S315000079D088072000084B30B51D680B464BB1DA7896
S315000079E01AB942681468013C14609B8B55F8233021
S315000079F0F4E7084630BD00BF8C072000074B70B582
S31500007A001D6800F02BF8044600F022F803462946CC
S31500007A1022460348BDE87040FCF752BE900720009E
S31500007A20D3320A00074B10B504461868FDF782FAF0
S31500007A30054B1B68984203D2044B1B6843F8204051
S31500007A4080B210BD98072000900720008C07200008
S31500007A50014B1868704700BF94072000014B186857
S31500007A60FDF7E0BA98072000024B1A6801321A6047
S31500007A70704700BF94072000044B00201B6843F8A2
S31500007A802100034B1868FDF7B3BA00BF8C0720002E
S31500007A909807200070B5856904461DB12B68696892
S31500007AA0984718E0867C013EA37C9D420FDA238925
S31500007AB05BB1637C13B93346013E00E02B4604EB11
S31500007AC0C3032046DA69196A90470135ECE7637CFF
S31500007AD083F001036374002070BD00BF03893BB1CE
S31500007AE04368DA6942600022DA610289013A02815A
S31500007AF01846704770B504460546002601230374F0
S31500007B00E37C08359E4205DA6B6B01362046A96B8D
S31500007B109847F5E70020207470BD00BF4368CB612D
S31500007B200389416001330381704700BF0A46034958
S31500007B3003460868194600F075B800BF38092000EA
S31500007B40114B10B51968044631B10B7823B10F4BB0
S31500007B502246186800F066F80D4B196831B10B78AB
S31500007B6023B10A4B2246186800F05CF8094B1968E5
S31500007B7041B10B7833B1054B22461868BDE8104079
S31500007B8000F050B810BD00BF4009200038092000A1
S31500007B903C092000340920004166826600207047B7
S31500007BA038B545898489A54208D08478CC70428945
S31500007BB001324281FFF7B2FF002038BD6FF01C0092
S31500007BC038BD00BF887C002310B583420BDA01EB79
S31500007BD0C304E469A24204D101EBC3031C338B61E5
S31500007BE001E00133F1E78869002814BF00206FF037
S31500007BF0000010BD00208861704700BF10B5837C6F
S31500007C00042B07D000EBC3040133E16122628374C5
S31500007C10002010BD4FF0FF3010BD00BF017570474A
S31500007C20007D70472DE9F84380460C468D8902B1E8
S31500007C30AD10B4F80A90002606EB0903AB4215DA3C
S31500007C404046E1896278FFF75BFE074680B1204631
S31500007C5001363946FFF7A4FF0028EDD040463946E5
S31500007C6000224FF0FF35FFF763FE03E0002501E039
S31500007C706FF01A05A37C23B1237C13B92046FFF7C6
S31500007C8009FF2846BDE8F88310B50446FFF746FF0E
S31500007C90237D43B9A37C33B1237C23B92046BDE8B9
S31500007CA01040FFF7F7BE10BD4165826500207047A2
S31500007CB008B5436E0BB1816E984708BD70B59568DF
S31500007CC0FDB10C244C430834031906591EB15C68F7
S31500007CD02D88E58300E00551D468158A5C601C890F
S31500007CE02C441C81C388148A2344C38043888B4256
S31500007CF04FF00003BCBFC9B241809360D3601382CA
S31500007D00D38070BD012070472DE9F7431F46CB880D
S31500007D1080460D4691460A9E6BB100242B889C42F4
S31500007D2009DA2246013400970196404629464B4619
S31500007D3000F048F8F2E703B0BDE8F083F8B50C268A
S31500007D40174606FB01F20C46002108320546FCF7F1
S31500007D5093FC0023BAB22C80AA80A34204DA06FB65
S31500007D60035101334A82F8E70120F8BD0022F0B53D
S31500007D701346448801250C2605FA03F70F4203D063
S31500007D8006FB03073F8A3A440133A342F4DD10465B
S31500007D90F0BD00BFC38830B593B1428800230C24E0
S31500007DA0934203DA04FB0305AD6815B119B10B6004
S31500007DB001E00133F4E70C2202FB0303D86830BD6F
S31500007DC0184630BD2DE9F74F9A460C235A43002634
S31500007DD0814602F108080D4601EB080451F8082017
S31500007DE0224FB346002A39D00C9B53B92168511A49
S31500007DF04B424B41D18B93B1386850F8211021602A
S31500007E0015E0104601920D990C9B9847019A00289F
S31500007E10ECD1D08B3968164651F82020E2E7386855
S31500007E2050F8211009B1098800E01946F183A2F83B
S31500007E301EB01146484652460193FFF779FD228946
S31500007E40019B013A2281EA88013AEA800BB1226855
S31500007E50C8E7F18B3A6852F82120C3E755F8083095
S31500007E6003B9626003B0BDE8F08F00BF8C07200045
S31500007E70936870B50BB30C244C43D66808340319C9
S31500007E80055905B12D88F583956805515C680CB9CF
S31500007E90D4685C601C89158A2C441C81C388148AAA
S31500007EA02344C38043888B424FF00003BCBFC9B252
S31500007EB041809360D3601382D38070BD38B5044689
S31500007EC00D460CF035F820460CF016FC2846BDE8A9
S31500007ED0384000F00DB800BF30BF704708B50CF051
S31500007EE00BFC024B01221A6008BD00BF004030188F
S31500007EF0BFF36F8F53EC0E2FBFF36F8F1EEE321F43
S31500007F0041F002010EEE321FBFF36F8F121843F1DC
S31500007F10000343EC2E2FBFF36F8F1EEE323F23F08C
S31500007F2002030EEE323FBFF36F8F704710B5044663
S31500007F300CF0E2FB01462046BDE8104099F0BCBCBF
S31500007F400CF096B90AF002B9C0F8E010C1F8E000EA
S31500007F50704700BF80F8E41000207047B0F8463044
S31500007F602DE9F04104460E469046ABB1B0F84850B4
S31500007F70B0F84A70BD420CD0E36C53F8251009B135
S31500007F804046B047B4F846300135013B1D40ADB21E
S31500007F90F0E70020BDE8F0814FF0FF30BDE8F0814A
S31500007FA010B5816BD0F8CC300C694968D0F89020B8
S31500007FB01C401940891AA21A19401340C1F30F1127
S31500007FC0C3F30F13CB1AB0F86C10481E184010BD3F
S31500007FD0D0F8C000704700BF80F8B51080F8B62012
S31500007FE0704700BF0023C36003614361704700BF51
S31500007FF038B5044620B91048FCF762FB204638BD68
S31500008000836823EA01051543EB0711D590F8323052
S3150000801013B100219AF028F9636B1A6842F40061E3
S315000080201960636B196809054CBF1A6025F00105D4
S31500008030A560284638BD00BFAA3E0A0070B590F874
S31500008040B43004460E46154623B901290CBF826694
S31500008050C0F8902094F832301BB1204600219AF0E7
S3150000806003F9D4F8A420D4F8A83012B115F0404F83
S315000080700BD1012E154403D1626B9560626B02E051
S31500008080A26B9560A26BD36070BDA90F25F0404529
S31500008090012E2A444FEA014105D1606B8260626B72
S315000080A0D360636B04E0A06B8260A26BD360A36BAA
S315000080B01A6822F440321143196070BD10B5C36BC3
S315000080C0044623B1B0F86000181A99F05DFA236CE3
S315000080D023B1B4F88800181A99F056FAE06C08B182
S315000080E00AF034F8606F08B10AF030F8606D08B134
S315000080F00AF02CF8E06F08B10AF028F82046BDE82F
S3150000810010400AF023B800BF90F8323010B504468C
S3150000811013B100219AF0A8F8636B1A6842F00402C2
S315000081201A6010BD38B504460D4608460749FCF7E7
S315000081301FFB08B9201D38BD28460549FCF718FB6A
S3150000814010B904F1D80038BD002038BD983E0A00A9
S31500008150A13E0A008268836B22F08002826059B1D8
S31500008160196841F4804119601B6813F4804309D0F3
S3150000817042F08002826003E01A6822F480421A60AC
S315000081800120704718467047B1F5807F29D007D87F
S3150000819001291DD019D302291DD003291ED07047ED
S315000081A040F20313994225D007D840F201139942B1
S315000081B01AD0B1F5817F1AD0704740F20513994263
S315000081C01BD0B1F5837F1BD0704780F8B72070476E
S315000081D080F8B820704780F8B920704780F8B6203C
S315000081E0704780F8BA20704780F8BB20704780F847
S315000081F0B520704780F8D620704780F8DC2070479D
S3150000820080F8DD20704700BF0346B0F86C0030B53B
S3150000821008B9002030BD9A6B451ED3F8901014693A
S31500008220D3F8CC201440611A1140B3F86E20C1F384
S315000082300F11A3F8D0108A42EBD05C6F54F82200DD
S3150000824018B901322A4092B2F5E730BDB0F846308F
S3150000825010B504460BB9002010BD90F8323013B1AA
S3150000826000219AF001F8636BA26E1969D4F8C43044
S3150000827019408A1A1A40B4F84830C2F30F12A4F80B
S31500008280D2209342E7D0E16C51F8230030B9B4F81C
S315000082904610013301390B409BB2F2E710BD00BF17
S315000082A02DE9F0410E46B0F846100446174609B9C6
S315000082B031604EE0012B4FF00001D6F80080B0F897
S315000082C0D250316002D1B0F84A3023E090F8323013
S315000082D00BB199F0C9FF626BD4F8C4101369D4F8D6
S315000082E0C8005269D4F868C00B400240CCEB0303C7
S315000082F0CCEB02000B400140C3F30F13C1F30F1187
S315000083008B42A4F8D23005D0B4F846300139013B8F
S315000083100B409BB20DB100200EE0B4F84A209A4201
S31500008320F9D216E0E26C52F8252042B9B4F846209C
S315000083300135013A1540ADB29D42F3D101E0404509
S3150000834003DB30600020BDE8F08147F820200130D3
S31500008350ECE74FF0FF30BDE8F08100BFC0F8BC107D
S3150000836000207047D0F8A0300B80B0F8943013800E
S31500008370704700BFB0F86C20B0F87010B0F86E30DF
S31500008380013AC81A10407047B0F86C3010B5044670
S31500008390002B42D0D0F8BC205AB112784AB1B0F8BE
S315000083A07010013BB0F86E208A1A134201D000F01B
S315000083B035F8B4F86C20002394F8DC10A4F8D0301B
S315000083C0A4F87030A4F86E30531EC4F8D83041B10A
S315000083D0D4F89C105B08994294BFC4F89C10C4F86A
S315000083E09C30206C00211201FCF746F994F8B43059
S315000083F02BB920460221D4F88020FFF71FFE204625
S3150000840099F012FF94F8B4303BB12046D4F880209E
S315000084100221BDE81040FFF711BE10BD38B5044675
S31500008420D0F8BC0058B103784BB1FFF7F9FB05460D
S3150000843030B9D4F8BC000121FFF7F0FB00E00125BC
S3150000844094F8DD30012B00D138BD0121204699F08A
S31500008450F3FE014620B1A06A0022FFF769FAF4E7AD
S3150000846035B9D4F8BC002946BDE83840FFF7D6BB7D
S3150000847038BD00BF10B50446002936D090F832301A
S3150000848013B1002199F0F0FE636B5B6913F0704F36
S3150000849001D0012010BDE06A0BF042FD40F62D032D
S315000084A0984220D1E06A0BF049FD03281BD9636B83
S315000084B0D4F8C4201969A36E1140CB1A1340B4F83E
S315000084C04610B4F84A00B4F848200139C3F30F1334
S315000084D0821A114203D0B4F8D4209A42D9D0A4F813
S315000084E0D230A4F8D430002010BD836B5B6913F042
S315000084F0704F0CBF0020012010BD00BFB0F8462011
S31500008500B0F84A10B0F84830013AC81A104070471F
S3150000851000234360704700BFB0F84820B0F84A30E7
S3150000852010B59A42044611D090F8323013B10021AA
S3150000853099F09AFE636B5868B4F84830C0F30F1090
S31500008540C01AB4F84630013B184010BD002010BDDB
S3150000855010B590F83230044613B1002199F084FE2C
S31500008560636BD4F8C4201969A36E1140CB1A13406B
S31500008570B4F84A001B09B4F84620A4F8D2309BB2DE
S31500008580C01A013A104010BDB0F8463010B5591E59
S31500008590B0F84A40B0F84820A21A0A409B1A013B9C
S315000085A0436010BD012938B5044620D190F8323019
S315000085B013B1002199F058FE636BB4F84600B4F885
S315000085C04A50B4F8482001381969AA1AD4F8C430B8
S315000085D01042A26E03EA0101C2EB010202EA0303A2
S315000085E014BF00200120C3F30F13E16C17E0836B67
S315000085F0B4F870501969B4F86E20D0F8CC30B0F8E1
S315000086006C00AA1A194001381042D4F8902014BF01
S31500008610002001208A1A1340C3F30F13616F51F82B
S31500008620233000280CBF1846002038BD836B18681D
S31500008630421C14BF00F0010000207047B0F86C30F7
S3150000864053B1836B1A695B685A40D0F8CC301A4232
S3150000865014BF0020012070470120704738B5B0F8DC
S315000086606C300546A3B1836B40F2E93400221A60F0
S31500008670AB6B186910F0704005D0013C03D00A209E
S3150000868098F07AFFF4E7D0F1010038BF002038BD3A
S31500008690012038BD836B186900F07040B0F140537B
S315000086A058425841704700BF10B590F83230044622
S315000086B013B1002199F0D8FD636B1868431C14BFF1
S315000086C000F00100002010BDB0F8463010B5044699
S315000086D053B190F8323013B1002199F0C5FD636BA8
S315000086E01A6842F012021A6010BD00BF38B5B0F821
S315000086F046300446E3B190F8323013B1002199F0C8
S31500008700B3FD40F2E935636B1A6912F0504F02F07F
S31500008710704104D11A6822F010021A6038BDB1F116
S31500008720405FF7D0013DF5D00A2098F025FFEAE733
S3150000873038BD00BFB0F8463070B504460BB901200D
S3150000874070BD90F8323013B1012199F08DFD636B45
S315000087501A6912F0704FF2D040F2E93502221A601F
S31500008760636B1A6912F0504F02F0704104D1002277
S315000087701A6040F2E9350DE0B1F1405FF7D0013DF6
S31500008780F5D00A2098F0F8FEEAE7013D08D00A2065
S3150000879098F0F2FE636B1E6916F07046F5D10CE098
S315000087A0E3691B68DA0704D5064807493246FBF732
S315000087B087FF4FF4967098F0DFFED6F1010038BFC0
S315000087C0002070BD083F0A00303F0A00B0F846306E
S315000087D010B5044653B190F8323013B1002199F028
S315000087E043FD636B1A6822F002021A6010BD00BFD7
S315000087F02DE9F04F85B090F83230044613B10021D0
S3150000880099F032FD2046FFF779FE636BA16E5A6937
S31500008810D4F8C830B4F846501A40521A1340B4F887
S3150000882048201B0900911FFA83F8C2EB0806691E4F
S315000088300E40281A864201930BD3E3691B68DA07B8
S315000088406FD5394804F1200105B0BDE8F04FFBF7BC
S3150000885037BFB4F84A308FB21FFA87FC013A029349
S31500008860013B0CEA03030A400392039A934243D066
S31500008870D4F83CB01A0103EB06095BF8020007EADC
S315000088800909894520F0805A4FEA091008BF4AF0C5
S31500008890805A4BF800A0D4F83CA00AEB020B8244A5
S315000088A0DBF804B0CAF804B0D4F83CA00AEB000B1D
S315000088B09244DAF808A0CBF808A0D4F83CA05044BB
S315000088C09244DAF80CA0C0F80CA0E06B00EB020AA8
S315000088D01648CAF80800E06B02441448D060E26CFF
S315000088E052F8230042F82900E26C002042F82300E7
S315000088F0013B03EA0C03B8E70298019B06443740A4
S31500008900A4F84830C8EB070319406D1AA4F84A705A
S31500008910013D6560BFF35F8F0099636B01EB07173D
S315000089205F6005B0BDE8F08FCB3E0A00EFBEADDE5E
S3150000893010B590F83230044613B1002199F094FC3A
S31500008940636B186900F07040B0F1405460426041BA
S3150000895010BD00BFB0F8463010B5044653B190F8CC
S31500008960323013B1002199F07FFC636B1A6842F034
S3150000897002021A6010BD00BF10B590F832300446EE
S3150000898013B1002199F070FCB4F8463023B1636B43
S315000089901868C0F3400010BD012010BDB0F8463085
S315000089A010B5044693B190F8323013B1002199F016
S315000089B05BFC636B186810F0020008D0186900F0C1
S315000089C07040B0F100546042604110BD012010BDFE
S315000089D02DE9F04385B0994690F832300F460021D4
S315000089E0044616460391B0F84A500BB199F03CFC88
S315000089F0B4F8463005F10108B4F84820013B03EA13
S31500008A00080191422DD0002E3DD09D4214BF4FF05B
S31500008A1060434FF07043039303AB8DE84800E16B6E
S31500008A203A462B46204699F0F7FBE36C43F825704F
S31500008A30B4F84630591E01EA080292B2A4F84A2058
S31500008A40B9F1000F04D0A56E606B05EB0215456009
S31500008A50B4F84800121A11405B1A0020013B63600B
S31500008A6012E0E3691B68DD0705D5094804F120011A
S31500008A70084AFBF725FE0023636063694FF0FF3069
S31500008A800133636100E0304605B0BDE8F08300BF06
S31500008A90EF3E0A00873E0A0080EA104080EA102076
S31500008AA080EA101080EA900080EA500000F0010091
S31500008AB0704700BF13B5002400940194022122469A
S31500008AC0234605F01BFD204602B010BD37B5002435
S31500008AD00546806801F054F8284600940194012167
S31500008AE02246234605F00AFD204603B030BD00BFEE
S31500008AF0B0F90C200346002A04DB006A10B1996C19
S31500008B0002F0CCBE704700BF2DE9F04186B00446A6
S31500008B100D46466812B3114606F090F9002D49D06D
S31500008B20D6F8340103A92A4673F064FAD6F834015C
S31500008B3003A973F077FA074620461FB1394606F0B7
S31500008B407DF9F3E72946012200F014FD009720463F
S31500008B5008212A463B4600F0AFFF2BE00029DFD173
S31500008B60D6F8B8325F59FFB1D6F8340103A93A46B0
S31500008B7073F040FAD6F8340103A973F053FA80462D
S31500008B802046B8F1000F03D0414606F057F9F1E749
S31500008B903946012200F0EEFCCDF80080204608217F
S31500008BA03A46434600F088FF0435202DD8D1A06808
S31500008BB001F014FB06B0BDE8F08100BF2DE9F041DD
S31500008BC0C7898846BA4241D813B1BC1AA4B200E09C
S31500008BD01C460026B5B2954212D296421DD004EB31
S31500008BE0050CBC450EDA016901EB0C1CBCF804C08F
S31500008BF01CF4804F02D00135ADB203E00136E9E73F
S31500008C0096420AD023B1013CA4B2002CE1D11DE06A
S31500008C102C44A4B2BC42DCD318E04FF6FF739C424E
S31500008C2014D00023934203EB0405ADB20BD20669C0
S31500008C3006EB0516B78847F48047B78028F8135027
S31500008C4001339BB2EEE70020BDE8F0816FF01A0019
S31500008C50BDE8F0812DE9F04701F0400A0F465FFAC2
S31500008C608AFA1146164699461A4653468046FFF733
S31500008C70A5FF044670B1002509E0404606EB450114
S31500008C8001225346FFF79AFF044628B901354D45A0
S31500008C90F3D10CB9002406E02DB1404639463246E0
S31500008CA02B4600F003F82046BDE8F0872DE9F04793
S31500008CB000248046994615464FF6FF76A2464C4557
S31500008CC012D035F8022BB2420CD01201D8F810108F
S31500008CD08B588F1813B1384602F038FDA7F804A058
S31500008CE025F8026C0134EAE7BDE8F0872DE9F84F74
S31500008CF00369064603EB011114468F8807F0020745
S31500008D00BFB27FB18D6815B147692F4400E02F4689
S31500008D107A8D4FF6FF70824207D003EB0211D1F82D
S31500008D20089004E0B9463D4601E04FF000098B8803
S31500008D309B0608D5D1F80890D9F80C5015B177697B
S31500008D402F4400E02F46A0464FF0000A4FF6FF7B67
S31500008D50A8F81CB0A8F824B04DB107EB0A033046BA
S31500008D609988A8F81C1006F007FCA8F82400A8F8B3
S31500008D7008B00AF1020ABAF1080F08F10208A8F8C9
S31500008D800EB04FF6FF73E3D1A380E380B9F1000F75
S31500008D901ED0B369304609EB0308B8F80210A1806B
S31500008DA006F0EAFB7368E0801B6893F8B9307BB184
S31500008DB02B7C6BB9B8F804103046218106F0DCFB39
S31500008DC0B8F8061020826181304606F0D5FB608235
S31500008DD0C4F80090A56197F82C3084F82C30BDE8D3
S31500008DE0F88F00BF2DE9F04786B00E46044618B14D
S31500008DF021B147690F4402E0074600E00F46FB89B0
S31500008E005A0732D50025A846DFF86C90DFF86CA02B
S31500008E1007EB85031B69F3B10293A4230393F3685D
S31500008E2000210593CDF800800B46CDF80480CDF8DF
S31500008E3010802046032201F0F1FE034658B1626815
S31500008E400B4812681169002D14BF4A46524600921B
S31500008E50084AFBF735FC0135022DD9D120463146AB
S31500008E6006B0BDE8F04700F089B806B0BDE8F08767
S31500008E70713F0A003E3F0A006B3F0A00623F0A004C
S31500008E80890712D5D0F84C0618B122B143691344AC
S31500008E9002E0034600E01346D98921F0100141F0B3
S31500008EA02001D9811146FFF79DBF704738B5154699
S31500008EB018B121B144690C4402E0044600E00C46B6
S31500008EC0E389580719D503F03003102B15D105F1A6
S31500008ED09C00FCF731FB002814BF0420002004444A
S31500008EE0206920B9A42009F025F948B12061294656
S31500008EF0A422FBF771FB002038BD6FF02E0038BDB1
S31500008F006FF01A0038BD00BF38B5059B15460446FC
S31500008F1018B122B142692A4401E00246FFE70C2952
S31500008F2002D00D290CD038BDD3892046294623F01E
S31500008F30200343F01003D381BDE8384000F01EB88B
S31500008F4062680B49D2F878042A465AF04BFE03466B
S31500008F5068B16268074812681169074AFBF7B0FBF7
S31500008F6060682A460221BDE83840FFF789BF38BD50
S31500008F70818E0000973F0A00533F0A0010B518B1D2
S31500008F8021B144690C4402E0044600E00C46E38942
S31500008F905B070BD5206918B109F0D8F800232361C7
S31500008FA0606918B109F0D2F80023636110BD00BFF3
S31500008FB038B518B121B144690C4402E0044600E01A
S31500008FC00C46E389C3F380050AB115B138BD1DB956
S31500008FD038BD43F0040304E0FFF7D0FFE38923F034
S31500008FE00403E38138BD00BF18B119B143691944C0
S31500008FF000E00146C889C0F380007047F8B50E4608
S31500009000054618B121B144690C4402E0044600E06B
S315000090100C46E389221D28466FEA434300216FEA86
S315000090205343E3810423FFF741FEFF23628B23763C
S3150000903003F57F439A421F4606D0284604F11A02DA
S3150000904000210123FFF732FEA38BBB4206D0284640
S3150000905004F11C0200210123FFF728FEE3895A07C9
S3150000906003D528463146FFF789FF2846314600F0EA
S3150000907047F9204600213022BDE8F840FBF7FCBA4C
S315000090802DE9F04F8FB00E46054618B121B144695F
S315000090900C4402E0044600E00C46336D2360FF23D7
S315000090A02373326D84F82C306FF03C03C2F3C00298
S315000090B0E281236200224FF6FF7384F82820A38002
S315000090C0ADF81C30E380ADF81E302381ADF82030BA
S315000090D06381ADF8223023766383A383638545B12C
S315000090E06B68D3F8BC32B3420CBF4FF01008904601
S315000090F000E0A846B37913B948F0200801E048F427
S315000091000268284607AA41460423FFF7A3FD07463F
S31500009110002840F0EA8081460DF11A0A3AF802BFAB
S315000091205FFA89FC4FF6FF739B4558D0142209A8B5
S315000091300021CDF814C0FBF79FFAB279ADF824B040
S31500009140CDF82C80DDF814C012B948F0040204E012
S31500009150227B624502D148F002020B92327C1AB998
S315000091600B9A42F082020B92284609A98DF831C06B
S3150000917006AA02F0B5FA074680B16B6896F9442054
S315000091801B6800905B4819695B4BFBF799FA284608
S31500009190002152460123FFF789FD20E004EB490236
S315000091A0A2F804B00B9AE389296912F0020F14BFE2
S315000091B004220022DB0701EB0B1104D4002A14BFA2
S315000091C00622022203E0002A14BF862282228DE8AC
S315000091D04400002202922846069B06F0E7F909F1B0
S315000091E00109B9F1040F99D16B681A6892F85F20EA
S315000091F0002A7AD0F279002A77D196F8069007AA43
S31500009200D3F8BC32B9F1000F14BF4FF404694FF024
S315000092104009B3420CBF1023002349EA030928463C
S3150000922049460223FFF716FD00285ED180460DF160
S315000092301A0A3AF802BF08F1040C4FF6FF735FFAF8
S315000092408CFC9B454CD0142209A80021CDF814C0F3
S31500009250FBF712FAB279ADF824B0CDF82C90DDF810
S3150000926014C02AB1227E624505D149F0020201E00E
S3150000927049F004020B92284609A98DF831C006AAC6
S3150000928002F02EFA8446B8B16B6896F944201B6842
S3150000929000901A481969184BCDF814C0FBF710FA5C
S315000092A02846002152460123FFF700FDDDF814C0D1
S315000092B0002F08BF674613E004EB48022846A2F8D1
S315000092C01AB00B9A2969069B12F0020F14BF862268
S315000092D082228DE8441001EB0B11624606F066F916
S315000092E008F10108B8F1020FA3D138460FB0BDE866
S315000092F0F08F00BFDC3F0A00B8400A00FF3F0A00BB
S31500009300F7B5041E0D46636807D041B1D3F8BC22F9
S3150000931066698A420E4403D15FE0264600E00E46A7
S315000093201B6893F84430002B57D1AB79002B54D1EE
S315000093302B7C002B51D096F82C30FF2B04D0A06844
S3150000934006F12C0101F0D8FBB6F90E30002B01DA3C
S31500009350002207E005F170073846FCF7EDF8002813
S31500009360F6D118E06068D0F8B8329B585BB19979AD
S3150000937049B9197A39B1197C29B19D4203D0D0F87F
S31500009380BC12994229D10432202AEBD10321009143
S31500009390022200231FE03946A06801F08BFBFF285C
S315000093A0014686F82C000BD163680D481B6895F9B9
S315000093B0442019690B4B03B0BDE8F040FBF780B9B8
S315000093C03A4648F20603606825F07EFB0321022236
S315000093D000911346606820F04DFC03B0F0BD00BF5D
S315000093E027400A00C73F0A007FB50A460C6D0646AD
S315000093F010B145690D4400E005462B689C421DD01E
S3150000940003B18CB9736801A9D3F8340172F0F2FD87
S31500009410736801A9D3F8340172F004FE014618B14D
S31500009420304605F00BFDF3E7EA892B682C6022F045
S315000094300102C4F3C0041443EC811C46204604B068
S3150000944070BD00BFFFF7DABD70B58B7904460E46D6
S31500009450002B51D14368D3F8BC228A421A6805D141
S3150000946092F9481011B98189090747D492F8442026
S315000094702AB963681B6893F948506DB92BE03146E9
S31500009480D3F86C0154F0FCFDC5B22946A06800F083
S3150000949071FB0028EDD032E0A068002119220123DB
S315000094A001F03EFB01221346A068192101F038FBAA
S315000094B063683146D3F8800164F04AFE05462946C2
S315000094C0A06800F057FB90B10122A0682946134618
S315000094D001F026FB13E0A068294619222B4601F06D
S315000094E01FFBA068192101222B4601F019FB6369B5
S315000094F01E4496F82C5002E0FF2500E03E25284643
S3150000950070BD00BF18B119B14369194400E00146A6
S315000095100868704738B50C46054618B119B1406958
S31500009520084401E000E0084600213022FBF7A4F8D9
S3150000953028462146BDE83840FFF7A2BDF8B51746D4
S31500009540054618B121B146690E4402E0064600E020
S315000095500E46002406EB44039988631EDBB2012BFA
S3150000956003D8A86B3A4601F0B1FF0134042CF1D1BF
S315000095700020F8BD2DE9F04F8BB006460C4690460C
S315000095807AB10022134600F0DBF950B1736894F902
S3150000959044201B68009066481969664BFBF790F8F3
S315000095A001E01EB124B17569254402E0354600E0AC
S315000095B02546002705EB4703FAB2B3F804904FF6A9
S315000095C0FF73994569D0D6F810A005A94FEA091985
S315000095D00AEB090B5AF80900039202F085F9216D8E
S315000095E0E889C1F3C001BBF804E020F001000143A3
S315000095F0039A89B2E98111F0010F0CBF0020802087
S315000096002EF0800E4EEA0001ABF80410297B079875
S315000096109142227C20F00200079007D1A17911B96E
S31500009620E16D01B112B140F002000790079912B93D
S3150000963041F0820101E021F080010791079921F4B0
S31500009640805107912AB9E26D012A04BF41F4805185
S31500009650079107995AF8090002F0D2F89BF80C1006
S31500009660D9B1A3792BB9237C1BB1E36D0BB1D80714
S3150000967002D5B8F1000F06D000225AF809001346A9
S3150000968002F034FC09E05AF8093030468DE808014A
S315000096900A212246434604F031FF0137042F89D1BF
S315000096A0B8F1000F10D0304621463A46012300F0AB
S315000096B047F948B1736894F944201B6800901C4828
S315000096C019691C4BFAF7FCFF00274FF6FF7AEB19D6
S315000096D0B3F81A80D04521D0D6F8109005A94FEAE4
S315000096E0081809EB080B59F8080002F0FDF89BF87A
S315000096F00C1029B1002259F80800134602F0F6FBB7
S31500009700227C079B12B943F0800301E023F080031B
S31500009710079359F80800079902F072F80237042FE8
S31500009720D5D1EB8923F03003EB810BB0BDE8F08F88
S3150000973082400A00D0400A0010B518B121B1436931
S315000097400B4402E0034600E00B464FF6FF745C85CF
S3150000975028B121B14468D4F8BC428C4216D0CC88DA
S31500009760A4B9D1F88040640510D44468246894F8FC
S3150000977042401CB1D1F88440042C07D00AB11288AB
S315000097805A850022BDE81040FFF7F4BE10BD00BFA9
S3150000979018B119B14369194400E00146887B00F00D
S315000097A00100704737B5F9B10A68EAB110B14469EA
S315000097B0144400E00446E38913F0080F0B7902D045
S315000097C093B9042501E07BB103250023009301939F
S315000097D0294604F093FE032DE38902D143F00803E2
S315000097E001E023F00803E38103B030BD012A02D073
S315000097F0022A02D07047FFF7F7BDFFF781BD00BF11
S3150000980070B50446056A19B34069081820D0032AC2
S3150000981010D80E7C56B16668D6F8BC628E4205D06A
S31500009820CE6D1EB1897909B95208013200EB4200AA
S31500009830828806E0111FC9B2012909D800EB42004F
S31500009840428A4FF6FF718A4202D0216912018D5871
S315000098502846194602F048F8284670BDF0B587B08C
S315000098600D46044618B121B143690B4402E0034694
S3150000987000E00B469AB10422204629460DEB02036E
S31500009880FFF7BEFF9DF8100000283AD1204601AB35
S3150000989029460522FFF7B4FF9DF8100031E093F842
S315000098A0280070BB95F84430072B09D861685BB275
S315000098B0D1F8B81251F8233013B167691F4400E09C
S315000098C017460026731EDBB2012B0ED90136F6B2FF
S315000098D0042EF7D1204601AB29460022FFF790FF60
S315000098E09DF8100087F828000BE0204601AB2946BA
S315000098F03246FFF785FF9DF8100087F828000028FC
S31500009900E4D007B0F0BD00BF70B505460C461E4654
S3150000991000F008F80246214628463346BDE8704066
S31500009920FFF76EBF0B6D43B138B14369C91804D058
S315000099300AB1087E7047087B7047FF20704700BF5A
S31500009940F0B589B00E461546044680B179B1426934
S315000099508A180CD033B12B1FDBB2012B07D8177E28
S31500009960157607E0032D02D8177B157302E06FF01A
S3150000997001003FE02A4603AB20463146FFF740FF91
S31500009980BDF80C304FF6FF72934202D0E2899A423C
S315000099900BD86268184811680193009596F944201F
S315000099A00969164BFAF78CFE23E02269059902EB4A
S315000099B0031341F002019A8842F004029A8001F0F2
S315000099C01FFFAF4215D0FF2F13D0314603AB3A46E7
S315000099D02046FFF715FFBDF80C202369059903EB18
S315000099E0021321F002019A8822F004029A8001F003
S315000099F007FF002009B0F0BD4A400A00E0400A0017
S31500009A002DE9F8430B1F022B074688461646DDF85C
S31500009A10209044D84568D5F8CC0240B97B682148E7
S31500009A201B68214A1969BDE8F843FAF749BE45F0B3
S31500009A302DFF04460028F1D0D9F8082012F49072C0
S31500009A4006D04388D6F8B09043F00403438001E083
S31500009A5009F10209B8F1050F08D0B8F1060F07D0D1
S31500009A600AB1332300E0322363600CE03123FBE7C5
S31500009A70112363603846314605F020FC18B163882F
S31500009A8043F0020363802846314622464B461EF0C9
S31500009A9023FE28462146BDE8F84320F0CBBBBDE8AF
S31500009AA0F88300BF15410A00FE400A000138082865
S31500009AB08CBF0020012070472DE9F0478CB004468A
S31500009AC008460E4615469846DDF850A0FFF7EEFF0D
S31500009AD000284BD0404607AF394601F005FFBDF8D8
S31500009AE01C104FF6FF73994204D02DB9204605F09D
S31500009AF08BFE0546002D39D063681B6893F9483004
S31500009B00C3B9204631462A4643468DE88004FFF70E
S31500009B1077FF002102A81422FAF7AEFDE06902A938
S31500009B20029603940495CDF81480CDF818A0F9F7A1
S31500009B30B1FD1BE0099B9B06E3D5062EE1D14FF054
S31500009B4000096368D3F8B83253F8092042B1D379D3
S31500009B5033B18DE88004204606214346FFF750FFC7
S31500009B6009F10409B9F1200FEBD1CAE70CB0BDE841
S31500009B70F08700BF8079884294BF0020012070479B
S31500009B80036810B504463021586939F029FD236869
S31500009B904000A4F854003421586939F021FD3223DD
S31500009BA0A4F85C3023684000D3F800221B68002A22
S31500009BB0B8BF8022A4F85A00B8BFA4F8582093F87A
S31500009BC0CC3013B18023A4F8683010BD2DE9F04FD6
S31500009BD08FB01F464FF6FF73ADF806300368044694
S31500009BE01B68154693F82430002B00F0028190F88C
S31500009BF06A30DE0701D400F0F1FA94F86A3023F0F7
S31500009C00100384F86A30E379EA7B9A4200F2F18025
S31500009C10236802AA2988D3F84C06FFF767F8AA68D2
S31500009C2012F0100F02F020031AD0697BADF806106F
S31500009C3093B1100504D5089BDB6D0BB1FE230CE038
S31500009C4002F0A002A02A04D1089BDB6D0BB1DB0752
S31500009C50F4D52B7B022BF1D00B46E26F5354C8E0B0
S31500009C6093B1160508D402F0A002A02A0CD1089BD5
S31500009C70DB6D4BB1D80707D420460121002200F046
S31500009C8053FEADF80600B4E0204602AA29460DF1BF
S31500009C90060300F0F3FDBDF806204FF6FF739A4267
S31500009CA040F09480089A137C0BB9012617E02368CC
S31500009CB0D3F8BC129142F8D091790029F5D11B68EE
S31500009CC093F842301BB1D2F88430042BEDD0D3790F
S31500009CD0002BEAD1D2F880305905E6D40326314666
S31500009CE002AA204600F020FE4FF6FF739842014676
S31500009CF0ADF806007DD02B7B022B27D194F86A3075
S31500009D0003F04403042B09D1B4F85C20431E33440A
S31500009D109BB29A428CBF002301230DE0721E0244BF
S31500009D20032A08D9B4F85C3004339BB29A4234BF94
S31500009D300023012300E0012343B1029B2046324663
S31500009D40103300F0A7FE4FF6FF7350E0E36F13F8F1
S31500009D5001B023681B6893F8B930002B36D0089BF6
S31500009D6093F81080B8F1000F30D1204610315A46D2
S31500009D7089B24FF6FF7A00F037FE5045814606D18C
S31500009D80029B2046BDF806101033324619E0BDF896
S31500009D90061020465A46203189B200F025FE50456D
S31500009DA0814613D1029B2046BDF806101033324679
S31500009DB000F070FEBDF80610204601221031434621
S31500009DC089B200F067FEADF8069012E0AA6802F4C8
S31500009DD00263202BBDF8063002D16A7B134406E0ED
S31500009DE0D20506D56A7B5208013203EB0213ADF8A1
S31500009DF00630BDF806303B800FB0BDE8F08F00BFDF
S31500009E002DE9F0438FB0044615460F46002900F0B1
S31500009E10A4800E884FF6FF739E4200F09B80C36FAE
S31500009E2013F80680936813F0100903D03146012217
S31500009E30002381E002682988D2F84C0602AAFEF7C0
S31500009E4055FFAA6812F0200002F4006115D029B16E
S31500009E5012F0100318D0089BDB6D93B902F0A00333
S31500009E60A02B05D1089BDB6D13B113F001030BD0BA
S31500009E702B7B022B01D1D30605D449B118B9AB1CF3
S31500009E8002E04B4600E0002320463146012253E023
S31500009E90204602AA314600F0B5FD00285AD02046D9
S31500009EA002AA29460DF1060300F0E8FCBDF80620DB
S31500009EB0A3889A424ED22946089A029B204600F071
S31500009EC09DFC089A0346117C09B9012217E0216816
S31500009ED0D1F8BC529542F8D090790028F5D109689E
S31500009EE091F8421019B1D2F884100429EDD0D17935
S31500009EF00029EAD1D2F880205205E6D40322204672
S31500009F00BDF8061000F0C6FD23681B6893F8B9304B
S31500009F10A3B1089B1D7C8DB9BDF806102046012211
S31500009F2010312B4689B200F0B5FDBDF8061020466B
S31500009F30012220312B4689B200F0ACFDA379033310
S31500009F40434507DBB4F85410206801EB48010022B2
S31500009F5023F0A6FB4FF6FF733B800FB0BDE8F083FE
S31500009F604FF6FF73994211D072B1137B022B04D0C6
S31500009F700B2B0BD1B0F8680001E0B0F8580088420E
S31500009F8094BF00200120704710467047002070479C
S31500009F902DE9F04F93B01D46838804468B428A46CE
S31500009FA0039240F21681C36F13F801B0BBF1FE0FA6
S31500009FB000F0BA80837903335B45C0F20A81BBF1B6
S31500009FC0030F08D90068ABF10407FFB2394624F045
S31500009FD075FD804602E04FF00008FF27236806AAB9
S31500009FE02988D3F84C06FEF781FE204606AA2946A4
S31500009FF00DF116030C9E00F041FC95F80C90B9F19A
S3150000A000040F02D1AB68DA0201D495F80E90B4F8C9
S3150000A01054104FEA4B0B5944206820F0E5FCAB681E
S3150000A02013F0800F03F020013FD02268126892F8E7
S3150000A030422022B11EB1D6F88420042A35D039B97F
S3150000A04013F0600F15D103F4C073B3F5C07F10D0C1
S3150000A050BDF8163020F4FB7020F0010009F0070966
S3150000A0605B0149EA000003F4F87340EA030292B286
S3150000A07019E06B7B5A0806D0012A69D14FF00B0E06
S3150000A0804FF4C05103E04FF0090E4FF4C0616FEA80
S3150000A090C14203FA0EF36FEAD24220EA02021940E5
S3150000A0A00A4342EA493292B237E020F47F6009F06F
S3150000A0B0070320F00F001843BDF816305B0103F4C8
S3150000A0C07F63184380B282B2F9B1337C2BB3216827
S3150000A0D0D1F8BC32B34220D0B379F3B90B6893F808
S3150000A0E042301BB1D6F88430042B16D0F379A3B9CD
S3150000A0F0D6F880305B0510D44FEA093922F4E042E5
S3150000A10009F4E04942EA090207E02B7B0B2B04D154
S3150000A1106A7BD20002F008020243B4F854102068A9
S3150000A120594423F0BDFA02E00026B046FF27204638
S3150000A130297B00F007FA0246002845D00399038AD6
S3150000A1408DE822002046514600F070F9814601E074
S3150000A1506FF01609FF2F13D0B9F1000F04D11E4B73
S3150000A16048EA03031FFA83F829463246069B20462F
S3150000A17000F044FB024639462068434624F0A4FC1E
S3150000A180B9F1000F25D12368D3F84C0605F0CEFAB5
S3150000A190034694F86A2020B190071AD442F00202CE
S3150000A1A003E0910715D522F0020284F86A20032203
S3150000A1B0009200214FF4804220688B4214BF134660
S3150000A1C00B461FF057FD04E0FF2F18BF6FF016096E
S3150000A1D0CAD113B0BDE8F08F0480FFFF37B504463F
S3150000A1E0002800F091800368002B00F08D80D3F8E2
S3150000A1F04C36002B00F0888090F86A3003F010038C
S3150000A20003F0FF01002B7FD18279806F0732D208DD
S3150000A210FAF732FA0122134620463F2100F080FC6D
S3150000A2200122134620463E2100F07AFC23681B6873
S3150000A23093F80C2142B193F80B312BB10122204641
S3150000A2403D21134600F06CFC94F851202AB12046BB
S3150000A25094F85010012300F063FC236820461B6825
S3150000A26093F948504DB100211922012300F058FC02
S3150000A270012220461921134608E0294619222B46B9
S3150000A28000F04EFC2046192101222B4600F048FC26
S3150000A2900022FF21A3889A4203DAE36F9954013220
S3150000A2A0F8E7002120680A465B01002521F04AFEF6
S3150000A2B0A3790333AB420ADBB4F85410206801EBF0
S3150000A2C0450101350022EDB223F0EAF9F0E7002559
S3150000A2D0A379AB4207D9294601352046EDB20022C3
S3150000A2E000F0A8FAF4E70323002100934FF480421C
S3150000A2F00B4620681FF0BEFC94F86A3023F0020378
S3150000A30043F0110384F86A3003B030BD2DE9F743FA
S3150000A310054600244FF0140995F870309C4220DA67
S3150000A32009FB04F7D5F86C8008EB0706B3688BB118
S3150000A3309B687BB1284606F10C019847034648B155
S3150000A3402A6818F807101268074800911169074A29
S3150000A350FAF7B6F90021301D10220134FAF78CF90C
S3150000A360DAE703B0BDE8F0833C410A006E410A001B
S3150000A37073B50E4604461546104600211022FAF71C
S3150000A3807BF9731E0A2B40D8DFE803F0060F062080
S3150000A39020200606063F2F00002202238DE80C002F
S3150000A3A02046294632461D4B2DE094F86A3000229D
S3150000A3B0204613F0040F0CBF4FF49C734FF49E73AA
S3150000A3C08DE80C0029460222154B1CE094F86A30F1
S3150000A3D00022204613F0040F0CBF022306238DE84B
S3150000A3E00C00294632460F4B0DE094F86A300022E5
S3150000A3F0204613F0040F0CBF822300238DE80C00C7
S3150000A40029460B22084B00F0B7F86B68002B0CBFEF
S3150000A4106FF01600002002B070BD00BF7C9E0900E0
S3150000A420709E0900589E0900649E09002DE9F04FB0
S3150000A43093B000240AAF8346904699462546A24625
S3150000A4400791B9F1000F6DD0002C6BD119F0010FF7
S3150000A45061D0009509AB019402941C9839462022DC
S3150000A46001F036FA00285CD1099BD80705D55A1C9D
S3150000A470099212AA134403F8204C1D9AD8F8083002
S3150000A4800292099ACDF800A00492CDF804A0039791
S3150000A49058465E68D8F80C10079A2B46B04710F15C
S3150000A4A0170F38D000283CD1022D08BF012632D123
S3150000A4B0DBF800301B681B6AD3F8D4309E422ADAD8
S3150000A4C002238DE848041C9809AB3946202201F086
S3150000A4D0FFF910F1170F1BD0E0B9099BD90705D575
S3150000A4E05A1C099212AA134403F8200C1D9AD8F894
S3150000A4F008300292099A8DE8400404920397584660
S3150000A500D3F804C0D8F80C10079A0223E04708B91C
S3150000A5100136CDE704460135102D4FEA590990D191
S3150000A52000E00446204613B0BDE8F08F0139C9B2F9
S3150000A5300A2902D8024B585C70470020704700BFBA
S3150000A54063410A00F0B5002290F870601427B24209
S3150000A5500EDA07FB02F4C56E2B192C5D8C4205D171
S3150000A5609C681CB11C790CB11C8A1CB90132EEE73F
S3150000A5700020F0BD1846F0BD38B50C4611461D4604
S3150000A580FFF7D4FF30B1049B6560A360BDF81430BB
S3150000A5902070A38138BD00BFF8B51F46012F1146B4
S3150000A5A00446069E9DF81C50099A0A9B02D0022F6B
S3150000A5B005D01FE0490189B200F020F818E0062B0B
S3150000A5C013D1ADB9B0F85E00A0B1B4F860708F4297
S3150000A5D010D90F2E0EDC03FB0606602000FB01617E
S3150000A5E0206889B21AF0D6F902E06FF00100F8BDD2
S3150000A5F00020F8BD6FF01600F8BD00BF2DE9F74347
S3150000A60023F0030805681C460746434628460E46BF
S3150000A61091461AF0B5F9A30716D509EB04020234E0
S3150000A620284612F8023C06EB08018DF8043012F8B1
S3150000A630013C01AA8DF8053000238DF807308DF80E
S3150000A640063004231AF09CF9FB799C4205D2284671
S3150000A650311900221B1B21F075FC03B0BDE8F08305
S3150000A66038B51D46012D11460446079A089B02D0AF
S3150000A670072D05D010E0490189B2FFF7BFFF09E0B9
S3150000A680B0F86800884207D949012068103189B2BC
S3150000A6901AF076F9002038BD6FF0160038BD00BFFD
S3150000A6A02DE9F04108A91546023B0446069A9DF895
S3150000A6B01C80C2C9062B00F28F80DFE803F06D29EB
S3150000A6C00C168D8D04006D012046A9B232463B461C
S3150000A6D0FFF794FF7DE0B4F85830AB427CD98B6825
S3150000A6E06D0113F4086F09D00AE0B4F85830AB4294
S3150000A6F072D98B686D0113F4086F01D0183500E02C
S3150000A70010352068A9B232463B461AF039F960E0A6
S3150000A71094F86A3003F04403042B06D1B4F85C00C5
S3150000A720A8428CBF002001200BE0032D08D9B4F805
S3150000A7305C00043080B2854234BF0020012000E076
S3150000A7400120002848D1B8F1000F47D1042B4FF063
S3150000A7500E0318BF043D5D43B4F85A203B1F206822
S3150000A760ADB215443246ADB229461AF013F9B37AA2
S3150000A77005F10A01F27A89B2206843EA022222F040
S3150000A7808FFF727B05F10C01337B89B2206843EAA7
S3150000A790022222F085FF1CE0062F16D1B8F1000F29
S3150000A7A017D1B4F85E30BBB1B4F86010A94213D922
S3150000A7B00F2A11DC602101FB053107FB021120681D
S3150000A7C032463B461AF0E6F803E06FF00100BDE8BA
S3150000A7D0F0810020BDE8F0816FF01600BDE8F08141
S3150000A7E0012B08B507D15201069B91B2059AFFF7D6
S3150000A7F005FF002008BD6FF0160008BDF8B58C1CDB
S3150000A8000746204615461E46FAF796FE30B116B1A3
S3150000A81006F110040BE005F1700408E03B681B68C4
S3150000A82093F948301BB1AB790BB905F17604204694
S3150000A830F8BD00BF2DE9F041044600680D46437F90
S3150000A8401646CBB124F03AF907462946A06FFAF727
S3150000A850DDFE20B16FEA47436FEA534301E0C7F3D9
S3150000A8600E039BB21A0407D536B120682946324634
S3150000A870BDE8F04124F028B9BDE8F08170B5D5886F
S3150000A8804FF6FF74A5424DD18C6814F0100606D021
S3150000A890600747D5497B02EB4102958C42E014F0F4
S3150000A8A0800F0ED031462C4602EB4100008AA042B2
S3150000A8B003D0CD4300EB05152FE001310429F3D178
S3150000A8C030E0260508D514F0600FE1D104F4C0701D
S3150000A8D0B0F5C07F26D1DBE791690C7C14B3006824
S3150000A8E0D0F8BC428C421DD08C79DCB9006890F857
S3150000A8F0420018B1D1F88400042813D0C87988B969
S3150000A900D1F8801011F480610CD14FF6FF7402EB80
S3150000A9104100808CA04202D0451AADB202E001315E
S3150000A9200429F4D11D8070BD2DE9F0410546D2F110
S3150000A930010038BF00200E4618B1AC88641AA4B2D4
S3150000A94000E004241FFA86F800218BB2434502D3A7
S3150000A950B14219D129E0B14227D003EB040CAF88EC
S3150000A9601FFA8CFC67450FD9EF6F17F80C7095F836
S3150000A97006C00CF1030CBC4502DB01339BB203E0BD
S3150000A980FE2FFAD00131E0E718B1013CA4B2032C46
S3150000A99003E01C44AB88A4B2A34294BF0023012366
S3150000A9A0002BD1D14FF6FF741AE04FF6FF739C428D
S3150000A9B0F8D058B92B681168D3F84C0604F0A2F900
S3150000A9C0AB798342EED90430C0B200E0FE2000230A
S3150000A9D0B34205D2EA6F1A4401339BB21055F7E72A
S3150000A9E02046BDE8F08100BF83888B4206D9C36F3D
S3150000A9F0585CFF2802D15A54084670474FF6FF703C
S3150000AA00704700BF936970B51D7CD48845B18C42F0
S3150000AA1006D19E7926B90668D6F8BC629E4236D023
S3150000AA204FF6FF76B44201D0A1422ED105B300689D
S3150000AA30D0F8BC429C421BD09C79CCB9006890F8F7
S3150000AA40420018B1D3F88400042811D0D87978B917
S3150000AA50D3F8803013F480630AD14FF6FF74D01810
S3150000AA60808CA04201D081420FD10233082BF6D14F
S3150000AA7000234FF6FF74D018008AA04201D081420D
S3150000AA8003D10233082BF6D101E0002070BD01206E
S3150000AA9070BD00BF70B50023FF26934208D0CC18C6
S3150000AAA08588A4B2A54203D9C56F01332E55F4E7B4
S3150000AAB070BD00BF70B505460E460024AB79A342B3
S3150000AAC004D9A86F2146FAF7A1FD20B9AB79A342B4
S3150000AAD004D8FF240DE00134E4B2EFE70122284652
S3150000AAE02146134600F01CF8284621463246FFF759
S3150000AAF0A1FE204670BD00BF38B50C4683790978A3
S3150000AB0005468B420AD90023012200F009F828469F
S3150000AB1021780022FFF78EFEFF23237038BD00BF89
S3150000AB200A44F8B5D6B205460C461F46B4420AD2C8
S3150000AB30A86F214617B1FAF763FE01E0FAF7CAFCDF
S3150000AB400134E4B2F2E7F8BD2DE9F04788B0456874
S3150000AB50DDF8409080460E462846494614461F4674
S3150000AB603AF0BCFE82463CB1032F05D9214607A820
S3150000AB700422F9F731FD01E000230793B72E12D026
S3150000AB800CDC2D2E46D100210091019102940397F1
S3150000AB900491CDF81490404603220FE0EB2E11D01D
S3150000ABA0EC2E1ED036E0404607AB0021042200936F
S3150000ABB00192029103910491CDF814900B4600F096
S3150000ABC02DF818E0032F22D9D5F84C06514600225D
S3150000ABD0FEF7A8FEC4B1079BC21A53425341236035
S3150000ABE018E0032F13D9D5F84C0651469DF81C20C2
S3150000ABF00023FEF7A5FE70B100F13503352B0AD808
S3150000AC002B68C3F8800006E06FF00100F4E76FF0F0
S3150000AC100D00F1E7002008B0BDE8F0872DE9F04F00
S3150000AC20B7B046680546459930469346DDF8049127
S3150000AC30DDF80881439F3AF051FE044618B16B696E
S3150000AC4000EB030A00E08246B9F1030F05D94099EB
S3150000AC5002A80422F9F7C0FC01E000220292ABF13F
S3150000AC60030BBBF1090F00F2F081DFE81BF02900AE
S3150000AC70A601EE010A001800D401EE01DB01E10194
S3150000AC80E601A079002840F0E081032F40F2E6813A
S3150000AC90BAF80E30C3F38003C8F800305DE2A67937
S3150000ACA0002E40F0D281B9F1030F40F2D781029A0B
S3150000ACB028460032214618BF0122FEF779F9A6E19F
S3150000ACC0A32F40F2488141460DA8A422F9F784FC3F
S3150000ACD09DF8D0309DF83470D9070FD400210DF1BE
S3150000ACE00C0A50461422F9F7C7FC4FF6FF7334A836
S3150000ACF0ADF80C30FAF720FC40B11CE034A8FAF7A6
S3150000AD000FFC0028EAD16FF0140680E1A37973B333
S3150000AD10BDF8D230B4F87220B4F870105A40BDF8BD
S3150000AD20D0304B401A43B4F87410BDF8D4304B40C1
S3150000AD3013439BB2EBB93A46534628462146FEF7E3
S3150000AD405FFDBDF80C204FF6FF739A4281469B4685
S3150000AD5005D128463946524604F074FD8146BDF8B1
S3150000AD600C305B4500F0B2809DF8197002E0994600
S3150000AD7000E08146336893F85F30002B40D03B1FDC
S3150000AD80DBB2012B3CD8BDF80C204FF6FF739A427C
S3150000AD9000F09C800E9B484613B10D210FAA02E0DD
S3150000ADA09DF818101A4601F0A1F80646002840F052
S3150000ADB02E810E9B002B00F02A81309A08A8BDF840
S3150000ADC0C460130C92B243EA0643082100F0BEFDAC
S3150000ADD0A37908A90246009348467F2301F0F2F8BA
S3150000ADE02A9B06469A0703D4A379002B00F00F810D
S3150000ADF0284621469DF819200123FEF7A1FDDAE039
S3150000AE000E9B002B43D1059B9B0603D5032F5DD8D4
S3150000AE10484639E00DF1D0084046FAF781FB034673
S3150000AE20C0B1D6F8340108A9224671F0E3F8D6F885
S3150000AE30340108A971F0F6F80746284627B1002123
S3150000AE403A46FDF761FEF2E721463A463E46FDF7F1
S3150000AE505BFEDCE021462846424604F035FB01460F
S3150000AE6000287BD06B681B6893F8B9300BB90023B8
S3150000AE7004E02A9B5806FAD54FF48073002200920C
S3150000AE8028463A4604F058F800F032FE93E02A9B32
S3150000AE9034AA2146284613F0400F0CBF00234FF476
S3150000AEA080738DE808043B4604F0BCFABDF80C102C
S3150000AEB04FF6FF73994281460BD16B688E481B682B
S3150000AEC08E4A19696FF00703F9F7FAFB6FF0070668
S3150000AED09DE0299B0B2B1CD1059B13F0600F18D10D
S3150000AEE003F4C073B3F5C07F13D0284604F0F2FC18
S3150000AEF008B1AB6918444188BDF80C308B4208D0C4
S3150000AF000022284604F09EFC4946524602F016FEF0
S3150000AF108146299B2BBB0E9B0D2B0AD003D8052BF4
S3150000AF200CD1012308E0102B05D0202B06D10223DB
S3150000AF3002E0032300E00423299312E06A686FF01D
S3150000AF4017066F48126800936FF0170311696B4A72
S3150000AF50F9F7B6FB5BE06FF0010658E06FF01D06EF
S3150000AF6055E0A37913B9E36D002B7AD148460FAAB1
S3150000AF709DF8A4100E9B00F0B9FF0646002846D1A6
S3150000AF80299B8DF818309DF81930BB4273D12E9B42
S3150000AF90002B79D0082108A8BDF8C420309B00F00A
S3150000AFA0D5FC002308A90246009348467F2301F0FA
S3150000AFB009F8002868D0064629E0B9F1030F47D9F9
S3150000AFC09DF8082003AB28462146FEF719FCBDF87C
S3150000AFD00C204FF6FF739A4205D1284603AABDF806
S3150000AFE0081004F02FFCBDF80C204FF6FF739A42B0
S3150000AFF031D00123009341463A46002300F090FCED
S3150000B000061E06D1404631463A46F9F735FB30462C
S3150000B010A3E005DA22E0336893F8CC30C8F80030B4
S3150000B02000209AE0A86B00F093FAC8F80000F7E752
S3150000B030A86B029900F0D8FA8FE0009728462146BF
S3150000B040409A434600F0AAF887E06FF0160084E0C5
S3150000B0506FF0010081E06FF007007EE06FF00D00F9
S3150000B0607BE028460DAA2146FDF720FF00287FF445
S3150000B0707DAF0026CBE74846394600F0FDFB0028A9
S3150000B08099D18DF8197082E7059B99062AD52A9AD7
S3150000B09092070BD4A2794AB9227C3AB1DB0621D5B4
S3150000B0A09DF8183003F0FD03012B1BD1284608AB91
S3150000B0B021460022FEF728FC2A9B9F0706D49DF80E
S3150000B0C02C30D3F1010338BF002300E001234BB13C
S3150000B0D0284621469DF819200023FEF731FC00285A
S3150000B0E07FF469AF4846514600F0FEFB227C059B83
S3150000B0F042B123F0800507E099410A008E410A001B
S3150000B100C2410A0043F080052A9A25F4401112F044
S3150000B110300F07D0D50648BF41F48011900648BFCE
S3150000B12041F400119DF818203AB19A0605D5E26D52
S3150000B1300AB1A2790AB941F00401994202D04846FF
S3150000B14000F05EFBBDF80C200D9B934291D040466B
S3150000B15051460222F9F740FA59E737B0BDE8F08FB9
S3150000B16001290DD040F2051399420BD0B1F5827F2B
S3150000B1700AD040F20313994208BF032309D104E021
S3150000B180002302E0012300E00223034800EB031042
S3150000B19070470020704700BFB89E09002DE9F04FA8
S3150000B1A087B08246109C0591204617461D4606F03C
S3150000B1B0C1FF064600285AD039462246F9F70CFA4E
S3150000B1C037783119012F049154D1224628462C197B
S3150000B1D000214FF00008F9F74FFA2F700394341D41
S3150000B1E00427F378984540DA049A231D9A4202D23E
S3150000B1F06FF0170346E06278237894F803B043EAC9
S3150000B2000223A2781946504642EA0B2B0293FFF717
S3150000B210A7FF029B1FFA8BF978B3D0F808C0BCF1E0
S3150000B220000F2AD082884A45E2D8C2884A45DFD331
S3150000B23005EB0709039909F10402914220D3EB5368
S3150000B24000914B46504605992246E0470346C8B949
S3150000B250B9F802300BF1040B5C4408F10108043321
S3150000B2601F44EB780133EB70BBE700230AE06FF075
S3150000B2701A030CE06FF0240304E06FF0160301E0FC
S3150000B2806FF00D033046029306F060FF029B1846EE
S3150000B29007B0BDE8F08F00BF10B503F108021C46E9
S3150000B2A0029B93420AD30022FEF7D8FA20710423A8
S3150000B2B0002063806071A071E07110BD6FF00D0019
S3150000B2C010BD00BF10B586B01C4603F10802089BEE
S3150000B2D093420DD3002201ABFEF716FB9DF8133007
S3150000B2E000200422628023716071A071E07101E088
S3150000B2F06FF00D0006B010BD10B503F108021C4634
S3150000B300029B93420CD304F04FF904236380030A93
S3150000B31020716371030C000EE071A371002010BD53
S3150000B3206FF00D0010BD00BF10B503F108021C46FA
S3150000B330029B93420AD30022FEF7F4FA20710423FB
S3150000B340002063806071A071E07110BD6FF00D0088
S3150000B35010BD00BFF8B596785378360446EA032642
S3150000B360137857791E43D378D1E9004546EA036638
S3150000B37013798C46002043EA072140EA060241EA97
S3150000B380E673AB4208BFA24210D314F17F0645F123
S3150000B39000079F4208BF964209D3111B0CF1080013
S3150000B3A0FAF734F9003018BF0120F8BD0120F8BDC6
S3150000B3B02DE9F04F85B096785378360446EA032691
S3150000B3C01378D1E900451E43D37814F17F0092F833
S3150000B3D005C0177946EA03664FF0000247EA0C23D8
S3150000B3E042EA060843EAE6798A4645F100014945FC
S3150000B3F008BF4045CDE9008959D2B8F17F0849F127
S3150000B400FF39494508BF404508D211460AF10800F0
S3150000B41010224446F9F730F94D4646E042460AF115
S3150000B420080B4B46121B63EB050314F1800645F12E
S3150000B4300007B6EB080667EB090744464D4606EBE0
S3150000B440020856EA07093BD0C6EB080358461946D8
S3150000B4500393FAF7DBF838B116F1FF3647F1FF37F9
S3150000B460013445F10005ECE74FF000084FF0000904
S3150000B470B94508BFB0450AD2039958464144FAF780
S3150000B480C5F820B158464146FAF7BAF903E05846DE
S3150000B4904146FAF71FF818F1010849F10009B9F118
S3150000B4A0000F08BFB8F1800FE2D1CAE90045009E3F
S3150000B4B00AF10800311B05B0BDE8F04FFAF7A0B954
S3150000B4C0584600211022F9F7D7F8EEE7F8B50389B8
S3150000B4D005468B420E46144634D943681BB1012BF0
S3150000B4E008BF012400E01C46EF6857F82600031C3D
S3150000B4F018BF0123A34201D10020F8BD34B90028AA
S3150000B500FAD006F023FE47F82640F5E72B68182008
S3150000B5101B681B6AD3F8D430584306F00BFE47F875
S3150000B520260090B12B6800211B6801221B6AD3F804
S3150000B530D4400023A14200F11800DDDA40E90623D9
S3150000B5400131F7E76FF00700F8BD6FF01A00F8BD9C
S3150000B55040687047F8B50C46C6680988069D56F8D7
S3150000B5602160079F6EB9A16818463A4621F48031DA
S3150000B570A160294600F036F9D0F1010038BF00205D
S3150000B580F8BD182101FB02612A46BDE8F840FFF725
S3150000B590E1BE00BF38B5038904468B4220D9C36893
S3150000B5A053F821500DB9002038BD036818221B68D6
S3150000B5B000211B6A2846D3F8D4305A43F9F75CF8C1
S3150000B5C0236800211B6801221B6AD3F8D4000023DC
S3150000B5D0814205F11805E6DA45E906230131F7E768
S3150000B5E06FF0070038BD00BF4B1C012B01D90129A4
S3150000B5F002D14160002070476FF01C00704700BF09
S3150000B60010B50988C46854F821403CB1182101FBE3
S3150000B61002411A46BDE81040FFF7CABE10BD00BF82
S3150000B6200023064910B55C5CCA18844203D008336F
S3150000B630902BF8D10022104610BD00BF4C9F090088
S3150000B64070B50598069E20B101280CBF0E2000207B
S3150000B65021E00D88ACB214F00C0F0ED1D6B1B08833
S3150000B66000F00300022815D12DB2002D12DA14F0D5
S3150000B670800F0CBF18201C200DE004F4407004F06D
S3150000B680FC04B0F5407F0CBF1E201820882C02D188
S3150000B690023000E0182001441960049B101A18605B
S3150000B6A070BD00BFC268009B12F4004F827C07D0B9
S3150000B6B0197D41EA02121A75027F52005A757047C7
S3150000B6C0598802F0070221F47F6121F007010A433D
S3150000B6D0818B090101F47F610A435A80704700BFDC
S3150000B6E02DE9F8430E46904604F012F98146307B68
S3150000B6F0FFF796FF0746E8B1282006F01BFD044633
S3150000B700D8B1054645F8049B0FCE0FC533682046D1
S3150000B7102B60E36843F4004343F00103E3604FF614
S3150000B720FF73A3837B689847054648B1204606F019
S3150000B7300DFD04E06FF0160501E06FF01A05002418
S3150000B740C8F800402846BDE8F88300BF73B5046812
S3150000B750002213460646217C2046002500F0C6FB43
S3150000B76023680B21009401952A46D3F84C062B46F4
S3150000B77002F0C4FE3560236A1B680BB12046984769
S3150000B780204606F0E3FC002002B070BDF0B585B09F
S3150000B79006460A9D0C46062D94461F460FD10BB150
S3150000B7A004233B60BCF1030F14D9F36800201A0A86
S3150000B7B0237062701A0C1B0EA270E3700FE0046A0D
S3150000B7C0646854B100950B9D01959DF83050029523
S3150000B7D0A04704E06FF00D0001E06FF0160005B021
S3150000B7E0F0BD00BF10B542B1013A845C8B5C9C424F
S3150000B7F001D3F8D901E0012010BD002010BD00BF23
S3150000B80007B50E4AC3680A400D4919400A439A42D1
S3150000B81010D0C2605A4022F0804222F4A0424AB1BF
S3150000B82003680022009001920A21D3F84C061346C1
S3150000B83002F064FE03B05DF804FB00BF8E56304094
S3150000B84071A9CFBF10B503464FF6FF74C068A14279
S3150000B85020F40270D86006D040F00804DC6012B113
S3150000B86040F40270D8609C8B99831B68D3F84C0611
S3150000B870FDF73EF9204610BD03290BD8C36813F027
S3150000B880600207D103F4C073B3F5C07F02D04174E0
S3150000B890104670476FF01600704700BF38B5054672
S3150000B8A00C4608460C220021F8F7E6FEAB8B256015
S3150000B8B004352381656038BD30B585B00124002587
S3150000B8C08DE830000294FFF761FF05B030BD00BF80
S3150000B8D030B59DF814500595BDE83040FFF756BFCA
S3150000B8E080697047808B704738B50C4668B103682D
S3150000B8F05BB1D3F84C3643B1036A33B179B1051D58
S3150000B9000FCD0FC42B68236038BD44B120460021FB
S3150000B9101422F8F7B1FE4FF6FF732380637338BD28
S3150000B92030B587B000240594046A646854B1019365
S3150000B9309DF828300225029305AB0095A04708B96B
S3150000B940059801E00598404207B030BD0529F8B5D5
S3150000B95004460F4616461D460FD900213A46F8F70B
S3150000B9608BFE2B0A2670A570360AE3702B0C2D0E63
S3150000B9706670237165710620F8BD0020F8BD00BF12
S3150000B9802DE9F04786B0904602680C4612680023FF
S3150000B990117F05460593027C21B1C1688E0701D54A
S3150000B9A012B103E0002A5AD1002760E0E66805A933
S3150000B9B0228A378820468DE80A00029304AB314676
S3150000B9C007F0FC0AFFF73CFE07F07C03082B08D0C3
S3150000B9D017F00C0F0CD13379D80702D5BAF1B00F96
S3150000B9E006D1059B47F4804737802A7D934239DB91
S3150000B9F0C7F38109B9F1000F07D1BAF1B00F04D02E
S3150000BA00236AC84643F0005323622B6A5F69002FFE
S3150000BA102BD0059B28468DE8080121463246049B1B
S3150000BA20B847074618BBEB68190702D5B8F1000FEF
S3150000BA300CD1B9F1000F02D13279D207B4D4DB02AE
S3150000BA40B2D4228A6B7D1344238210E0CDF80080A5
S3150000BA50284621463246049BFFF724FE07E06FF096
S3150000BA602E0704E06FF00D0701E06FF01607384669
S3150000BA7006B0BDE8F08700BF2DE9F04387B09846D1
S3150000BA8003680D461B6800211B7F044691460491FE
S3150000BA90059113B1C3689F0703D4237C13BB002011
S3150000BAA022E0036A9E695EB1EE6805AB009301234E
S3150000BAB0019304AB02912A8A28463146FFF7C0FD5E
S3150000BAC0236A9F69002FEAD0059BCDF808808DE890
S3150000BAD00802204629463246049BB84710F1170F44
S3150000BAE002D1DCE76FF02E0007B0BDE8F08300BF9F
S3150000BAF00022017C134600F0F9B900BF2DE9F04F92
S3150000BB0089B0CF6805AB904600250A8A04468DE8C1
S3150000BB102801084604AB0E4639460595FFF790FD09
S3150000BB20B7F8009009F0FC01882907D1049B13F8A7
S3150000BB3001AC13F8023C43EA0A2A00E0AA4625684B
S3150000BB4009F4804B2B681B7F002B00F03D81E368D6
S3150000BB50580740F13981BBF1000F07D119F00C0FDE
S3150000BB6040F035813A79D20740F1318194F814C01A
S3150000BB70607D059A60448242C0F22C81B8F81000BC
S3150000BB8010F0080F0DD094F810C0BCF10B0F08D1BF
S3150000BB9095F881552DB1DD0644BF20F00800A8F8C0
S3150000BBA01000B8F81000000719D519F00C0F16D1BF
S3150000BBB0B02914D1217C01F0FD0101290FD1DD0648
S3150000BBC00DD42046049902F033FA0546002840F0C9
S3150000BBD08280B8F8103023F01803A8F81030E16816
S3150000BBE0080703D5B8F810301A0705D4326A48F2A8
S3150000BBF0400313405BBBE5E0DB0640F1E280012336
S3150000BC006FF02F02706985040DD5B6F8580050B153
S3150000BC1033B1207C022801D00B2804D1880502D438
S3150000BC206FF0340557E08DF81830236A0792DD6807
S3150000BC306DB1059B2046009306AB019331463A460B
S3150000BC40049BA847054610F1170F14D101E06FF0C9
S3150000BC50160523681B68D3F8A430D3F814210132E3
S3150000BC60C3F814213A79D10715D5D3F8DC2101326E
S3150000BC70C3F8DC210FE0B8F8103010F1300F06D011
S3150000BC8010F1320F43F00802A8F8102003D143F058
S3150000BC901803A8F81030E368DA021AD419F00C0F6A
S3150000BCA002D13B79DB0714D41AF0800F06D0236843
S3150000BCB031465868F9F71AFD014600E03146236817
S3150000BCC0627D5868022396F037FA336A43F40043DC
S3150000BCD03362002D63D02268BBF1000F3AD013689F
S3150000BCE0D3F8A430D3F8F4100131C3F8F41039793D
S3150000BCF0C80704D5D3F8BC110131C3F8BC1115F13E
S3150000BD00300F14D006DC15F1350F0AD015F1320FBD
S3150000BD100DD019E015F1180F13D015F10E0F10D034
S3150000BD2012E08DE850001721D2F84C0604E08DE8A9
S3150000BD3050001121D2F84C060022134602F0DEFB19
S3150000BD404BE0196E013119668DE850001021D2F8CA
S3150000BD504C06F1E7049B211DCDF800A00193059B3D
S3150000BD6002933B46D2F84C06326B03F0EDFA08B16B
S3150000BD70002532E023681B68D3F8A430DA6E01325E
S3150000BD80DA66D3F824210132C3F824213A79D1079F
S3150000BD9023D5D3F8EC210132C3F8EC211DE023684A
S3150000BDA01B68D3F8A430D3F81C210132C3F81C2138
S3150000BDB03A79D207DCD5D3F8E4210132C3F8E4217D
S3150000BDC00BE0012300221DE76FF02E0583E76FF0DD
S3150000BDD0160580E76FF00D057DE7284609B0BDE83A
S3150000BDE0F08F00BF03682DE9F04188B01B684FF063
S3150000BDF000081B7F04460E461546CDF81480002B1E
S3150000BE0062D0C3685F075FD5CF6805AB0A8A009327
S3150000BE100123019304AB084602953946FFF710FC4F
S3150000BE20E26812F4007306D0237C022B12BF43464D
S3150000BE306B8AC3F3C0030022DBB28DF81830079279
S3150000BE402BB16B8ADD0644BF6FF031030793236A7B
S3150000BE501D69002D46D0059B2046009306AB019335
S3150000BE6031463A46049BA847054688B923681B68AD
S3150000BE70D3F8A430D3F81C210132C3F81C213A7838
S3150000BE80D4072FD5D3F8E4210132C3F8E42129E001
S3150000BE9010F1180F10D009DC10F1320F16D12368FB
S3150000BEA012218DE85000D3F84C0615E010F1170F5B
S3150000BEB017D010F10E0F09D123681B68D3F8A430F0
S3150000BEC01A6E01321A660DE06FF02E0523681021F6
S3150000BED08DE85000D3F84C060022134602F00EFB04
S3150000BEE000E00025284608B0BDE8F0812DE9F341C1
S3150000BEF01E4603680446D3F84C060D46904603F0EA
S3150000BF0011FA10B96FF0160059E0A2884FF6FF73C8
S3150000BF109A42F7D0237C002E08BF0025AB4204D1FD
S3150000BF20236A9D68002D30D138E02846FFF778FB5C
S3150000BF3007460028E6D0236AD3F808C0BCF1000FF4
S3150000BF4006D0002101238DE80A0020460A46E04774
S3150000BF5023680022009401920A21D3F84C06134666
S3150000BF6002F0CCFA236A1B680BB120469847236877
S3150000BF7025742946D3F84C0603F042FCA0747B686E
S3150000BF80204698470028CBD019E0002300930123D0
S3150000BF900193204641463246A84768B923680025E2
S3150000BFA08DE83000A561D3F84C060A212A462B46B7
S3150000BFB002F0A4FA284602E010F1170FEED002B004
S3150000BFC0BDE8F08137B59DF818502DB9C46814F056
S3150000BFD0400F18BF002300E00023046AA46824B1C0
S3150000BFE08DE828000223A04701E06FF0160003B099
S3150000BFF030BD00BF128812F00C0F08D1086BA8B133
S3150000C000806881050FD440F38070C0B2704702F09B
S3150000C010FC02882A09D1C268D20206D413F8020C9F
S3150000C02000F00F007047102070470020704700BFD7
S3150000C03010B50446406A08B106F088F80020206270
S3150000C0406062E0742075607510BD00BF70B504466F
S3150000C05008460499059D01299DF8186002D0022919
S3150000C0600DD02DE00BB1E17C1960E37C9A4202D23F
S3150000C0706FF00D0070BD616A1A4606311CE00BB107
S3150000C08006211960052AF3D9E3685B0601D5616AC2
S3150000C09011E00EB1A5B906E023681B681B6AD3F848
S3150000C0A0D4309D420CDA616A2EB9E37C062202FB8B
S3150000C0B00535294411440622F8F78EFA002070BD92
S3150000C0C06FF0160070BD00BFF0B5BFB00446154650
S3150000C0D01F46FFF78FFF616AE27C0646063102A81B
S3150000C0E0D20005F0C3FB449A02A800233A448DE827
S3150000C0F04800E17C521B2B46F4F78EF9002814BF4A
S3150000C1006FF02F0000203FB0F0BD00BF2DE9F04FCB
S3150000C11085B0B2F800C00446CCF381078A461546BE
S3150000C1201E46D0F82490E7B992F804B01BF0010F30
S3150000C13017D0D1F830B0BBF1000F00F0CD80DBF89E
S3150000C14008B01BF4007F08D00E9EBB4600960F9EDB
S3150000C150019600F033FB06465EE01BF0804F00F0D0
S3150000C160BB80237C0D2B00F0B780A3F11102D2B265
S3150000C170022A40F2B180F278920604D4053BDBB283
S3150000C180012B00F2A6804FB923681B681B6AD3F8FF
S3150000C190D43003F1FF3B5FFA8BFB0EE00CF0FC0C96
S3150000C1A0BCF1880F11BF4FF0000B16F801BC16F852
S3150000C1B0023C43EA0B2B0BF0070B20460DF1080857
S3150000C1C04146324600F090F894F813E006222146E4
S3150000C1D012FB0BEE51F8040BCE4401920EF106034E
S3150000C1E0CDF800805A46D0F84C0603F0F9F900283D
S3150000C1F038D10F9A13780BB156680DE0237C042BC7
S3150000C20001D00F2B68D10E9B204600935146334632
S3150000C2102A46FFF759FF0646EEB9E368D8030ED45F
S3150000C22017B92B79D9075AD4E37C02A9062212FB47
S3150000C2300B3B09EB0B001044F8F7CEF94FE0214613
S3150000C240062251F8043B00925A46D3F84C0602AB3C
S3150000C25003F0B4FA43E016F1330F05D016F1300FB0
S3150000C26014D024E06FF0320623681B68D3F8A4309C
S3150000C270D3F808210132C3F808212A79D2072ED52E
S3150000C280D3F8D0210132C3F8D02128E023681B68F7
S3150000C290D3F8A430D3F804210132C3F804212A7953
S3150000C2A0D70704D5D3F8CC210132C3F8CC212368B3
S3150000C2B01B68D3F8A430D3F80C210132C3F80C2143
S3150000C2C02A79D5070BD5D3F8D4210132C3F8D42166
S3150000C2D005E06FF00206EAE76FF01606E7E730467C
S3150000C2E005B0BDE8F08F00BF037C053BDBB2012B38
S3150000C2F013780B7053784B7008D913798B70537978
S3150000C300CB7093790B71D3794B71704793788B709F
S3150000C310D37803F00F03CB70704700BF037C053B57
S3150000C320DBB2012B0B7813704B7853700FD90023B7
S3150000C3309370437C9B0143F02003D3708B78137179
S3150000C340CB7853710B7993714B79D37170478B7896
S3150000C3509370437C9B01DBB2D370C97801F00F0167
S3150000C3600B43D370704700BF2DE9F84F0A9E044671
S3150000C3707F2E0F4615469DF82CB002D006F1010A15
S3150000C38005E0026800261268126AD2F8D4A0012BD2
S3150000C39007D0022B40F087804FF0060909FB06F90B
S3150000C3A050E0E27C666A954206F1060607D025B99A
S3150000C3B030462946F8F760F933E095426FD31FB946
S3150000C3C06FF00100BDE8F88F30463946F8F7F2F80D
S3150000C3D038B3E168606A11F040011ABF00210722F4
S3150000C3E01622F8F749F92368A188D3F84C0603F01A
S3150000C3F071FA30B14368580503D5E36843F48013F6
S3150000C400E360237C0D2B07D0113BDBB2022B03D953
S3150000C410E36843F48033E36030463946E27CF8F75C
S3150000C420DBF80020BDE8F88FE36859060DD5D4F88F
S3150000C43024801DBB404629460622F8F71DF9013621
S3150000C44009F106095645EFDBEBE7BBF1000F01D01A
S3150000C4504EBB06E023681B681B6AD3F8D4309E42A5
S3150000C46021DA636ABBF1000F01D09846E1E794F840
S3150000C4701380C844984408F10608DAE7002F9FD0D5
S3150000C480052D05D8404600210622F8F7F5F800E00C
S3150000C4900625404639462A46F8F79EF8CFE76FF05C
S3150000C4A01700BDE8F88F6FF01600BDE8F88F00BFE3
S3150000C4B02DE9F041BEB015468846C27C416A044665
S3150000C4C002A81E460631D20005F0D0F941462A469A
S3150000C4D033462046E77CFFF78DFD449A002332441D
S3150000C4E00093019002A83946521B2B46F3F7C0FF72
S3150000C4F0002814BF6FF0300000203EB0BDE8F08188
S3150000C5002DE9F14F148805468A4614F00C0F904623
S3150000C5109B46DDF828900B9F07D11479E40704D5D4
S3150000C52001B0BDE8F04F00F0C1B92B7C6C6A053B49
S3150000C530DBB2012B1BD92378FF2B0ED16378FF2B9F
S3150000C5400BD1A378FF2B08D1E378FF2B05D12379F4
S3150000C550FF2B02D16379FF2B4ED00026A35D01335A
S3150000C560DBB2A355FBB90136062EF7D11BE0A27844
S3150000C5706378120442EA032223781A43E37842EAF4
S3150000C5800362214B9A4205D9204600210622F8F77C
S3150000C59073F808E00026A35D0133DBB2A35513B997
S3150000C5A00136062EF7D128465A462146FFF7B6FE33
S3150000C5B0E868020710D57FB110F4004604D1594649
S3150000C5C007F116002A7D03E0214607F12600062220
S3150000C5D0F8F702F8002014E02B7C042B01D00F2B77
S3150000C5E00DD1CDF828902846514642465B4601B00B
S3150000C5F0BDE8F04FFFF75CBF6FF0070001E06FF09A
S3150000C600160001B0BDE8F08FFCFFFF0F10B5037CEC
S3150000C6100446043B0F2B28D8DFE803F00818182738
S3150000C6202727272727080D1212120D121023C3746D
S3150000C630082303750FE010230822C37402750AE06D
S3150000C6402023C37408230375102304E01023C37446
S3150000C6500423037508236375104BE07C2362E368AB
S3150000C66013F0400F07D006300EE00023036243624A
S3150000C6706FF0160010BD2368821D06201B681B6A1A
S3150000C680D3F8D43000FB032005F054FD0028606287
S3150000C6900CBF6FF01A00002010BD00BFDC9F090020
S3150000C6A02DE9F04186B00D461C4605F10A0831F821
S3150000C6B0043B06460DF10600174623F46053062296
S3150000C6C09BB28DF804301B0A8DF80530F7F784FF0E
S3150000C6D0414603A80622F7F77FFF06220DF1120056
S3150000C6E005F11001F7F778FF337C123BDBB2012B23
S3150000C6F00ED8414638460622F7F76EFF06210E9BF6
S3150000C70001395A5C7B1ADA720029F8D10C2301E050
S3150000C7100CB1002323600C9801A91422F7F75CFFE3
S3150000C72006B0BDE8F08100BF2DE9F041A3F1140485
S3150000C73005468AB0002605A81427904621461422ED
S3150000C740F7F74AFF2846414632463346009401979A
S3150000C7500296FFF7A5FF6A7D109B31469B1A03EBF5
S3150000C760070804EB0800F7F787FF697D11986A6AE6
S3150000C7708DE80300EB7C063220464144F3F704FFC4
S3150000C78020460DEB07013A46F7F726FF30460AB07A
S3150000C790BDE8F08170B5047C049E0D2C059D01D08A
S3150000C7A0112C07D1049605F10A040594BDE87040E2
S3150000C7B0FFF7BABF6FF0160070BD00BF2DE9F04F4E
S3150000C7C089B09B46037C04460D2B02910392139E6F
S3150000C7D003D0113BDBB2022B02D8637D0A3300E0A3
S3150000C7E000231299D4F824A0994252DBCA1A0BEB03
S3150000C7F002051BF802204C2A48D16A78023B9A426D
S3150000C80047D1AB78EA7843EA0222637C9A4243D165
S3150000C810214605F104094FF0060851F8043B0022B1
S3150000C820CDF80090CDF80480D3F84C06534602F0BC
S3150000C830D7FE002833D133780BB1746831E0667DBA
S3150000C84005F10A07394604A83246F7F7C5FE129ADB
S3150000C85020468DE824000299039A5B46FFF79AFF6B
S3150000C8600446F0B9384604A93246F7F7A3FE38B1B4
S3150000C870384604A932466FF02F04F7F7ADFE10E0F4
S3150000C880504649464246F7F7A7FE0AE06FF03304E2
S3150000C89007E06FF0170404E06FF0070401E06FF0A3
S3150000C8A03204204609B0BDE8F08F00BF2DE9F347FA
S3150000C8B01E46037C04460D2B894692460A9F03D0EA
S3150000C8C0113BDBB2022B04D894F8158008F10A0854
S3150000C8D001E04FF00008F5194C23616AF355A8F101
S3150000C8E002036B70637C0020AB70E8700B5C013355
S3150000C8F0DBB20B5413B901300628F7D10622281DE6
S3150000C900F7F76AFE002105F10A00627DF7F7B4FE2B
S3150000C910E3681B0701D50B9B7BB94744009701953C
S3150000C9202046494652463346FFF734FF30B9CAEB34
S3150000C93006063744A9F8107000E0002002B0BDE8F2
S3150000C940F08700BF2DE9F04788B09046C2680446DC
S3150000C95050021E46DDF8409001D4002066E0B9F191
S3150000C960070F3DDD656A08F1060ACDF8009002AFB3
S3150000C9700197284641465246FAF782FA58BBE368C1
S3150000C980990625D52368657CA188D3F84C0685F0E1
S3150000C990010502F039FF236801462A46D3F84C0602
S3150000C9A003ABFCF72DFF9DF81830044603F0FD039A
S3150000C9B0012B0DD1059B5A020AD5456A4146CDF891
S3150000C9C000900197284652463346FAF759FA10B9AD
S3150000C9D06FF031002AE00130BFD0B9F10B0F09DC4E
S3150000C9E023686FF017001B68D3F8A4301A6E013263
S3150000C9F01A661BE0707B337B000440EA0360F37B1E
S3150000CA001843B37B40EA032098F80030DB0747BFA2
S3150000CA1005F1200105F1240205F1180105F11C02BA
S3150000CA20F7F7B8FC002898D16FF0320008B0BDE8DF
S3150000CA30F08700BF2DE9F04788B01646C2680D465C
S3150000CA40540254D50268476A981ED2F80490109A88
S3150000CA50294B911C7A691B6802327A6112BA0792D5
S3150000CA60AA8B53F8224014B1E368228A01E02346D8
S3150000CA702246039206F1060A52460DF118088DE881
S3150000CA800B00CDF8108007AB31463846FAF756FA58
S3150000CA902B6A2A8AEC6813F0080F0CBF12230A23AC
S3150000CAA0E41A13442B8231460622EC602046F7F73F
S3150000CAB093FD0622A01D5146F7F78EFD29464846EE
S3150000CAC095F05AFB0D490E3840BAA08104F10E00CC
S3150000CAD00822F7F781FD414604F116000422F7F714
S3150000CAE07BFD042204F11A0007A9F7F775FD002063
S3150000CAF008B0BDE8F08700BF8C072000B4100A001C
S3150000CB00044A0023C37403754375026243621846E0
S3150000CB10704700BFFC9F090010B50446406A08B183
S3150000CB2005F014FB002020626062E07420756075D9
S3150000CB3010BD00BF2DE9F04186B00D460C990746A1
S3150000CB40446A481E0D9E9DF83880072800F28780AB
S3150000CB50DFE800F004194535358585100BB1202135
S3150000CB6019601F2A02D86FF00D007AE02846214688
S3150000CB70202270E00BB1102119600F2AF3D9284644
S3150000CB802146102267E00BB106211960052AEAD971
S3150000CB90B8F1000F04D0002E61D104F158010BE06A
S3150000CBA03B681B681B6AD3F8D4309E4257DA0621CD
S3150000CBB001FB064404F15E01284606224BE00BB158
S3150000CBC008201860072ACED90429284608BF04F190
S3150000CBD010014FF0080218BF04F118013BE00BB139
S3150000CBE00E2119600D2ABED9B8F1000F03D02846D0
S3150000CBF004F120011EE094F846309E4203D12846F7
S3150000CC0004F13C0116E03B68B988D3F84C0602F003
S3150000CC10FBFD03466FF007001BB3062203A902FBC8
S3150000CC20064238465E328DE80401224600F052F88C
S3150000CC30284603A90A22F7F7CFFC05F10A00B8F146
S3150000CC40000F02D004F15A0104E0062101FB06445C
S3150000CC5004F160010422F7F7BFFC002001E06FF049
S3150000CC60160006B0BDE8F08130B50C6BE1688D7931
S3150000CC7035B1D4F8EC502DB16468E40602D40AE06C
S3150000CC800C7C44B90068006890F8AC0030B1D1F86B
S3150000CC908010090402D51BB1183202E0002BFBD02C
S3150000CCA0103291785378090441EA03211378194325
S3150000CCB0D37841EA0361039B1960937951791B0488
S3150000CCC043EA01231179D2790B4343EA0262049BBA
S3150000CCD01A6030BD2DE9F0411E469DF81C300F4606
S3150000CCE09046069D13B106F1760406E0841D2046A3
S3150000CCF0F8F722FC08B106F170042B79EA781B04D8
S3150000CD0043EA0223AA786D79134338464146224600
S3150000CD1043EA0563BDE8F04108F00EBEF0B585B004
S3150000CD20057B04460F4616462DB12A4602A804F195
S3150000CD300801F7F751FC5A2204A86B1C0544DBB224
S3150000CD4005F8082C0022072B06D804A8591C034412
S3150000CD5003F8082CCBB2F6E70822231D94E803005B
S3150000CD60019300940DEB020308F07EFF2368204632
S3150000CD703B606368002133601022F7F77DFC05B045
S3150000CD80F0BD00BF70B504460E46154600211022C0
S3150000CD90F7F772FC2660656070BD00BF2DE9F341B0
S3150000CDA0044616460D4600293AD0002A38D0077B9D
S3150000CDB0D31907F10800032B06D82044F7F70CFC1B
S3150000CDC0237B1E4426732BE0C7F1040704F10408F5
S3150000CDD03A46F61B20443D4404F10807F7F7FCFBEE
S3150000CDE03B468DE8100194E80300042208F03CFF5E
S3150000CDF006F0030336F00306237308D02B468DE8AE
S3150000CE00100194E803003246354408F02DFF227BDA
S3150000CE1032B13846294602B0BDE8F041F7F7DCBB2F
S3150000CE2002B0BDE8F08100BF2DE9F04FCDB01E463F
S3150000CE3013880746039113F00C0F9146456A00F0DC
S3150000CE40D380F278920640F1D280014603F0FC03CB
S3150000CE50882B05AC12BF4FF0000816F8018C16F8A7
S3150000CE60023C4FF0060B08BF43EA0828B37808F0E7
S3150000CE7007080BFB08FA2370337851F8042B63700C
S3150000CE803379A3707379E370B3792371F37963719E
S3150000CE9005EB0A038DE81008D2F84C065E334246CD
S3150000CEA002F09EFB002877D1FF2305F1520085F89A
S3150000CEB0473021465A46F7F78FFBFB6803F0A0037D
S3150000CEC0A02B20D02279E378120442EA0322A37829
S3150000CED01A43637942EA036205EB0A0360339978E1
S3150000CEE05878090441EA002105EB0A00DB7890F83E
S3150000CEF06000014341EA03639A4204DC11D095F8CD
S3150000CF00463043450DD0039A05F148013846136B68
S3150000CF100022019200942A46DB68FFF7DBFE85F8C3
S3150000CF204780579A137813B1506870BB61E095F843
S3150000CF30473007A894F801E0FF2B237818BF05F1C6
S3150000CF404802294608BF05F13C0243EA0E2308F0D1
S3150000CF50A1FD102107A80BAA04F00AF8569B0BAAFC
S3150000CF60397D7018591A04F025F8397D569A7018CB
S3150000CF70511A4FF0FF32F8F71BFB1F4B984201D1B5
S3150000CF80002036E06FF02F001BE010F1330F05D0C4
S3150000CF9010F1300F15D02CE06FF032003B681B68A3
S3150000CFA0D3F8A430D3F800210132C3F8002199F850
S3150000CFB00420D6071DD5D3F8C8210132C3F8C821ED
S3150000CFC017E03B681B68D3F8A430D3F82021013260
S3150000CFD0C3F8202199F80420D5070AD5D3F8E8210B
S3150000CFE00132C3F8E82104E06FF0160001E06FF0AB
S3150000CFF002004DB0BDE8F08FE320BBDE2DE9F04F17
S3150000D0009BB01446249F0646072F89469846259AC4
S3150000D010456A40F3E080137823B15068002840F059
S3150000D020C38080E0083F0DF1500B08EB070292F831
S3150000D03002A092F801E04FEA0A4A4AEA0E2A18F8D4
S3150000D04007E092F805C04AEA0E0A92F803E04AEAB7
S3150000D0500E6A92F806E04FEA0E4E4EEA0C2E92F851
S3150000D06004C0D2794EEA0C0E0DF14C0C4EEA026267
S3150000D070CDF800C01192CDF804B02A46CDF840C0D4
S3150000D080FFF7F2FD139916A8149AFFF77BFE2146C7
S3150000D09016A80C22FFF782FED9F814301AA904222A
S3150000D0A016A803F0070341F8143DFFF777FE414643
S3150000D0B016A83A46FFF772FEDDF840C016A85A4693
S3150000D0C06146FFF72BFE1399149A514502D1119B25
S3150000D0D09A4228D0E07933681D68A3790090207AB7
S3150000D0E00190607A0290A07A0390E07A049020780A
S3150000D0F0059060780690A0780790E07808902079EF
S3150000D100099060790D920A90119AB0880F920B904F
S3150000D1100C91CDF838A032482969324AF7F7D0FA8F
S3150000D1206FF0310043E0336808225868494603230C
S3150000D130062495F001F895F84720F368FF2A08BF02
S3150000D14095F8462013F4803F05F1520307D104FBFE
S3150000D1500250194622465E30F7F73EFA07E031469E
S3150000D16051F8040B0094D0F84C0602F027FB95F812
S3150000D1704730FF2B2DD085F8463005F148010A22AD
S3150000D18005F13C000024F7F727FA3368009601946E
S3150000D1900A21D3F84C062246234601F0AFF9FF23B5
S3150000D1A085F84730204618E010F1320F15D1336864
S3150000D1B01B68D3F8A430D3F8F8200132C3F8F8205E
S3150000D1C02278D40709D5D3F8C0210132C3F8C0218B
S3150000D1D003E0002001E06FF00D001BB0BDE8F08F0A
S3150000D1E047420A00DF420A002DE9F04F89B099460E
S3150000D1F0C36805460F4613F040049246129E9DF8FA
S3150000D2004C8040F0AC800268A988D2F84C0602F047
S3150000D210FBFA0590002800F09C807F2E02D006F1D4
S3150000D220010B05E02A68264613681B6AD3F8D4B0BA
S3150000D230B9F1020F6C6A38D0B9F1080F1AD0B9F1FA
S3150000D240010F40F08C80BAF11F0F16D917B96FF095
S3150000D2500100ECE02B6806221B6800211B6A2046B1
S3150000D260D3F8D4305A435E32F7F706FA20463946E9
S3150000D270202217E0BAF10F0F0FD8BAF1000F6BD1C9
S3150000D2802B6806221B6820461B6A5146D3F8D43009
S3150000D2905A435E32F7F7F0F964E0002FD7D0204604
S3150000D2A039461022F7F798F95CE0B8F1000F04D080
S3150000D2B0002E54D104F158010AE02B681B681B6A42
S3150000D2C0D3F8D4309E424ADA062101FB06415E318C
S3150000D2D0062206A8F7F780F9BAF1000F16D1062341
S3150000D2E003FB0643374603F15E0A5F456EDAB8F183
S3150000D2F0000F02D004F1580000E05046002101372B
S3150000D30006220AF1060AF7F7B7F9EEE7002F9ED0D4
S3150000D310BAF1050F9BD94FF0060C0CFB064C3346B1
S3150000D3200CF15E0C5B4551DAB8F1000F02D004F146
S3150000D330580000E06046394606220493CDF80CC03A
S3150000D340F7F74AF9049BDDF80CC001330CF1060C23
S3150000D350E8E76FF007006AE06FF0170067E06FF02C
S3150000D360160064E001274FF0010804F1580300930A
S3150000D37004F12001CDF8048028462246059BFFF7DC
S3150000D380A9FC7FB1062304F13C0103FB06432846B2
S3150000D39022465E33009300230193059BFFF79AFC18
S3150000D3A084F84660B9F1020F0ED1B8F1000F00D132
S3150000D3B057B12B680024009501940A21D3F84C0636
S3150000D3C02246234601F09AF8002030E0B8F1000F1B
S3150000D3D002D004F1580303E0062303FB06435E3341
S3150000D3E09DF81C709DF81B203F0447EA02279DF814
S3150000D3F01A20D97817431A799DF81D00120442EABB
S3150000D400012299785B790A4347EA006742EA036397
S3150000D410FF1A18BF0127B8F1000F14BFB8464FF026
S3150000D420000818BF0027B8F1000FAAD09BE709B083
S3150000D430BDE8F08F2DE9F04FCBB0B2F8009006466C
S3150000D4408A4619F00C0F1D46559F03D11379D8074C
S3150000D45000F1F480746AA36D591C06D1B4F85C20FF
S3150000D46003F580339A4200F0EC800023E11891F82E
S3150000D47058200132D2B281F8582012B90133062B56
S3150000D480F4D194F8598094F8583053EA082817D103
S3150000D490DAF8303004F15802009204F1200101223A
S3150000D4A0019230462246DB68FFF714FC33680A21F6
S3150000D4B08DE840014246D3F84C06434601F01EF87B
S3150000D4C094F859302B7094F8593003F05F0343F009
S3150000D4D020036B7094F85830AB70737C9B0143F05B
S3150000D4E02003EB7094F85A302B7194F85B306B7113
S3150000D4F094F85C30AB7194F85D30EB7194F8383089
S3150000D500D4F82CB0C3F10808B8F1000F30DDBBF138
S3150000D510000F0CD019F4806F09D0327D5499521A3D
S3150000D5205A449045A8BF9046B8F1000F20DD3268F6
S3150000D530514650680393F8F7D9F850458146039B46
S3150000D54002D15498284403E0008AD9F80C201044EC
S3150000D550424603F130012144F7F73EF894F838309B
S3150000D560434484F83830B9F810304344A9F81030F1
S3150000D570F3681A0734D59FB313F4007105D0DBF1B5
S3150000D580010B38BF4FF0000B00E08B461B045FFA1F
S3150000D5908BF109D507F11C0207F1260079B17B88CA
S3150000D5A043F400537B800AE007F1160207F12000DE
S3150000D5B029B13B886FEA43436FEA53433B8000231C
S3150000D5C0E118098CD1540233D6180A2B4FEA1121DF
S3150000D5D006F8011CF4D129460322F6F7FDFF2BE0DD
S3150000D5E0549B05A894F8597004F12002984494F8C5
S3150000D5F05830214643EA072308F04CFA317D4FF0B4
S3150000D600FF326818C1EB0801F7F7D2FFC04304A93F
S3150000D6100490042205EB080008F10408F6F7DCFF85
S3150000D620102105A809AA03F0A3FC317D09AA6818F0
S3150000D630C1EB080103F0BEFC002004E06FF0160009
S3150000D64001E06FF007004BB0BDE8F08F2DE9F04721
S3150000D6508AB0446A139E0D4692469946E66236B9EA
S3150000D660C668B60503D5082384F838304CE0012394
S3150000D6700DF10C08294604AF2246CDF8008001972B
S3150000D680234EFFF7F1FA039906A8049AFFF77AFBEF
S3150000D690514606A80C22FFF781FB9DF850300AA9D7
S3150000D6A0042206A841F8143DFFF778FB494606A870
S3150000D6B0129AFFF773FBAA8B06A8336853F8225019
S3150000D6C025B1E9682A8AFFF769FBF4E73A4641463D
S3150000D6D0FFF724FB039B84F838501A0A84F830308D
S3150000D6E084F831201A0C1B0E84F83330049B84F81E
S3150000D6F032201A0A84F8343084F835201A0C1B0EAE
S3150000D70084F8362084F8373000200AB0BDE8F08768
S3150000D7108C072000102310B5C37408230375042357
S3150000D72043750C4B04460362036806201B681B6A9C
S3150000D730D3F8D43058435E3004F0FCFCE36800288C
S3150000D740606243F48033E3600CBF6FF01A00002080
S3150000D75010BD00BF1CA0090010B50446406A08B100
S3150000D76004F0F4FC002020626062E07420756075AD
S3150000D77010BD00BF38B5049D0446022D0846616AF7
S3150000D7800ED0072D1AD0012D23D10BB1E57C1D60DB
S3150000D790E37C9A4228BF1A4617D26FF00D0038BDB7
S3150000D7A00BB110241C600F2AF7D9059B8BB99DF885
S3150000D7B018300BB1203107E0303105E00BB11024F1
S3150000D7C01C600F2AE9D910311022F6F705FF002058
S3150000D7D038BD6FF0160038BD70B50C46064601F12F
S3150000D7E03000154600211022F6F746FF2346002298
S3150000D7F036215C20102A03F1020305D083F82E108F
S3150000D800023283F82F00F5E7AB7963B92B7C3BB97D
S3150000D8100622B01D05F17601F7F72CFA002802DB87
S3150000D820372384F8303070BD2DE9F74F1F46138833
S3150000D8300446884613F00C0F1646DDF834B0456AE8
S3150000D84002D11379DB076BD4214605F1300A102289
S3150000D85007F1020951F8043B0192CDF8009000222D
S3150000D860D3F84C06534601F0BBFE00285BD1337952
S3150000D870D80707D495F83020BB789A4202D06FF0CB
S3150000D8802F0052E09BF8003023B1DBF8040000289B
S3150000D8904BD11DE00C9A05F1100128463A44921B23
S3150000D8A0334607F003FF0028E9D16B6C01336B6444
S3150000D8B033F07C430CD12246D8F8301052F8060BD0
S3150000D8C0F22500930195D0F8D801C96883F0E4FFEA
S3150000D8D0504649461022F6F77FFE237C0B2B1BD1C0
S3150000D8E0E26812F4801219D02368627C0025009544
S3150000D8F082F00102D3F84C06D8F830102B4601F01E
S3150000D9001BFB2B4629462A46FEF7F0FAE368284613
S3150000D91023F48013E36008E0002006E0104604E0EC
S3150000D9206FF0160001E06FF0320003B0BDE8F08F33
S3150000D9302DE9F0479A46C36816465A0604460F462E
S3150000D9409DF8249053D40368A188D3F84C0601F0BF
S3150000D9505BFFBAF1010F8046656A03D0BAF1020F88
S3150000D96024D044E0E27C02F110039E4208D02EB996
S3150000D970284631464822F6F77FFE35E09E423AD3E6
S3150000D980002F3CD039462846F6F726FEE17C05F105
S3150000D990100010223944F6F71FFE2046294642465B
S3150000D9A000F032F82046294642460BE0089BF3B9C0
S3150000D9B05EB9204629464246B9F1000F02D000F072
S3150000D9C023F811E0FFF708FF0EE0C7B10F2E16D9B6
S3150000D9D0B9F1000F02D005F1200001E005F1300099
S3150000D9E039461022F6F7F8FD0020BDE8F0876FF003
S3150000D9F01600BDE8F0876FF01700BDE8F0876FF0FE
S3150000DA000100BDE8F08700BF70B50C46064601F17F
S3150000DA102000154600211022F6F72EFE234600228E
S3150000DA2036215C20102A03F1020303D099770232D3
S3150000DA30D877F7E7AB794BB92B7C53B90622B01DE3
S3150000DA4005F17601F7F716F9002802DA372384F88C
S3150000DA50203070BD2DE9F8431E461388074614464C
S3150000DA6013F00C0FDDF8248002D11379D9074BD4BB
S3150000DA707D6A0023E91891F820200132D2B281F89C
S3150000DA80202012B90133102BF4D1237913F00103AE
S3150000DA9011D07B7C05F120091022B01C33700023C5
S3150000DAA073704946F6F798FDFB681A070DD41CE01B
S3150000DAB00133102BEDD0E91891F820200132D2B2B3
S3150000DAC081F82020002AF3D0E3E7B8F1000F0CD04C
S3150000DAD013F4004402D00020BDE8F883494608F15B
S3150000DAE016001022F6F778FDF5E7089A05F1100101
S3150000DAF028463244121B234607F082FE0028EAD04D
S3150000DB006FF03000BDE8F8836FF01600BDE8F883CB
S3150000DB10102310B5C3744375074B122204460275D1
S3150000DB200362482004F006FB002860620CBF6FF019
S3150000DB301A00002010BD00BF3CA009002DE9F043EB
S3150000DB408BB0064680468C4691460FCE6D4664469F
S3150000DB500FC50FCE47460FC596E8030085E80300BC
S3150000DB600FCC0FC70FCC0FC76F4694E8030086E8AB
S3150000DB7003000FCF66460FC60FCF0FC6B8F80430A6
S3150000DB80BCF8042095E8030084E80300A8F8042004
S3150000DB90ACF80430BCF81C20B8F81C30A8F81C20DF
S3150000DBA0ACF81C30D8F800301B689B6A3C33C8F8C8
S3150000DBB01830D8F80C3023F48013C8F80C30DCF891
S3150000DBC00C3043F48013CCF80C30B9F1000F06D0BA
S3150000DBD04C460CF104050FCD0FC42B68236060463C
S3150000DBE00BB0BDE8F08300BF10B50446406A08B12B
S3150000DBF004F0ACFA002020626062E0742075607563
S3150000DC0010BD00BF38B5049D0446012D0846616A63
S3150000DC1002D0022D09D019E00BB1E57C1D60E37C32
S3150000DC209A420ED26FF00D0038BD9DF818506DB1B6
S3150000DC30059D5DB90BB1257D1D60237D9A42F1D30B
S3150000DC4010311A46F6F7C8FC002038BD6FF01600F2
S3150000DC5038BD00BFC3B2C0F30720C218D2B28A4291
S3150000DC6010B521D9FF2804D1022B1FD98A1C934253
S3150000DC7009E0012B08D1012806D902224C1E94FB8B
S3150000DC80F2F2013290420FDD490803220231C3F15C
S3150000DC90FF04914206DB934201D1A04204D0013237
S3150000DCA0D2B2F6E7002010BD012010BD012BEBD14A
S3150000DCB0E3E700BF2DE9F041C6B016464D9A04468B
S3150000DCC011781D464C9F19B15068002834D14EE09A
S3150000DCD0C268D0F82480D20209D532886846414607
S3150000DCE0C2F30122F8F78EFF684610210DE01946AF
S3150000DCF003226846F6F770FC41460DF10300E27C0C
S3150000DD00F6F76AFCE17C6846033105AA03F030F9B0
S3150000DD10217D05AA6818791A03F04CF9217D4FF088
S3150000DD20FF326818791AF7F743FC124B984208BF7E
S3150000DD3000201CD06FF02F0023681B68D3F8A43096
S3150000DD40D3F818210132C3F81821D3F8142101326F
S3150000DD50C3F814213279D40709D5D3F8E02101326A
S3150000DD60C3F8E021D3F8DC210132C3F8DC2146B048
S3150000DD70BDE8F081E320BBDE012B2DE9F041069FD3
S3150000DD80044688461646456A02D0022B6ED084E0C9
S3150000DD90C27C964207D026B928463146F6F76CFC77
S3150000DDA061E0964271D3B8F1000F72D000212822AB
S3150000DDB02846F6F761FCE27C28464146F6F70CFC5D
S3150000DDC02A460023217D01398B4213DA216808682F
S3150000DDD00E69017F11B1B6F85A1604E0806A99B24D
S3150000DDE0084400EB012189B2023311740232090A98
S3150000DDF0D173E7E7294400230B742368A188D3F87D
S3150000DE004C0601F067FD18B1C668F26D02BB07E06B
S3150000DE102368A188D3F84C0601F0F6FC064617E005
S3150000DE2023683146D3F84C061346FBF76DFD037C99
S3150000DE30227C07469A420BD1427C637C9A4207D0E9
S3150000DE40606A2946E27CF6F7B5FB08B97B7C637409
S3150000DE50306DE36810F0200023F48003E36022D0E5
S3150000DE6043F48003E3600020BDE8F0819DF81C3098
S3150000DE709BB197B9027D964213D805F11000F6F7CB
S3150000DE80ABFB237D1D44EF73EDE76FF01700BDE894
S3150000DE90F0816FF00100BDE8F0816FF01600BDE87B
S3150000DEA0F0816FF00E00BDE8F08100BF2DE9F0476C
S3150000DEB0C8B01E46C3680446456AD8029246DDF8D5
S3150000DEC04081DDF844910AD50023E9180A7C013225
S3150000DED0D2B20A74CAB90133042BF6D115E0AF7C6D
S3150000DEE06B7C3F0447EA03272B7C1F43E17C013709
S3150000DEF027F07F473846FFF7ADFE0028F6D13B0AEC
S3150000DF002F743F0C6B74AF74E874304605F1100142
S3150000DF100322F6F761FB637C9B01F370E368190744
S3150000DF200BD5B9F1000F08D01A043FD4314609F1D8
S3150000DF301600227DF6F750FB38E0217D4FF0FF32C8
S3150000DF407018C1EB0801F7F733FBC04301A9019034
S3150000DF50042206EB080008F10408F6F73DFBE36827
S3150000DF60DB020BD5BAF8002002A82946C2F301222B
S3150000DF703346F8F747FE102102A80DE0314602A805
S3150000DF800322F6F729FB29460DF10B00E27CF6F792
S3150000DF9023FBE17C02A8033107AA02F0E9FF217DF9
S3150000DFA007AA7018C1EB080103F004F8002048B076
S3150000DFB0BDE8F08710B5037C0446013B082B32D838
S3150000DFC0DFE803F00531073131310A121A00052363
S3150000DFD000E00D23E37417E0032303741023C374D6
S3150000DFE0C36843F480130EE0032303741023C37441
S3150000DFF0C36843F4401306E0032303740D23C3747C
S3150000E000C36843F40013E360042323756375074B69
S3150000E0102820236204F08EF8002860620CBF6FF09F
S3150000E0201A00002010BD6FF0010010BD5CA00900B1
S3150000E030F0B5CDB003681646CA78D3F84C060D463F
S3150000E0409209D3F8BC1206ABFBF7DAFB9DF8243035
S3150000E050044603F0FD03012B19D1476A01A829469E
S3150000E0600322F6F7B9FA39460DF10700E27CF6F716
S3150000E070B3FAE17C01A80BAA033102F079FF217DF6
S3150000E0800BAA6818711A02F095FF002001E06FF0E4
S3150000E0902F004DB0F0BD00BF2DE9F3410E884FF6BD
S3150000E0A0FF78464505460C46ADF8068030D0076930
S3150000E0B03601B9192CD08B88DB0729D5BB593BB360
S3150000E0C0224601F0ABFA18B3BE590DF10603A86853
S3150000E0D031462246FBF77AFDBDF80670474517D054
S3150000E0E039462246A868FBF73BFF024639463046CA
S3150000E0F0FDF7A8FBEB6A304621460133EB62FDF7DC
S3150000E100F3FBA868BDF8061032462346FBF740FF2E
S3150000E110BDF806004FF6FF73C01A18BF012002B003
S3150000E120BDE8F0812DE9F04389B0158807692D0116
S3150000E13007EB0508044698F80C308946164613B1D5
S3150000E140836A013B8362B3681B072DD5E36A78595E
S3150000E150013BE362FDF7C6FB324608A921F8160D1E
S3150000E160A068FBF74DFE78594FF6FF710022002597
S3150000E170FDF768FBE389AB4216D933882269AB42C7
S3150000E1800FD02B01D1180CD08988CF0709D5D058CC
S3150000E19038B103A9FDF7A8FB204603A9FFF77CFFCA
S3150000E1A010B90135ADB2E5E7002520462A464B46B3
S3150000E1B000950321FBF780FC404629461022F6F71E
S3150000E1C05BFA09B0BDE8F0832DE9F04385B08946D6
S3150000E1D011884FF6FF7399420446154600F01581E3
S3150000E1E0D0F810800E0108EB0607127B3B7B33B993
S3150000E1F0002A00F00A81836A0133836206E02AB9A5
S3150000E200836A013B8362806BFDF760F93B7BFBB160
S3150000E2102A7B9A421CD0AB681B0719D5E36A58F8CB
S3150000E2200600013BE362FDF75DFB2A4604A921F8DF
S3150000E230020DA068FBF7E4FD4FF6FF7158F80600E3
S3150000E2400022FDF7FFFA58F806002946FDF74CFBB9
S3150000E250204639462A4601F0E1F9F0B1A0680DF1F1
S3150000E2600E0349462A46FBF7B1FCBDF80E604FF691
S3150000E270FF739E4216D031462A46A068FBF770FE11
S3150000E280024631464846FDF7DDFA48462946FDF77F
S3150000E2902BFBE36A0133E36204E04846FDF722FB09
S3150000E2A0ADF80E00BDF80E104FF6FF73994204D07C
S3150000E2B0A0684A462B46FBF76BFEAB68DE0611D517
S3150000E2C02B7B03F0FD03012B3B7B03F0FD0304D105
S3150000E2D0012B07D0636A013303E0012B02D1636A85
S3150000E2E0013B6362BB88980630D5D7F80880D8F81A
S3150000E2F00C60D8F83020D6F8B0305B8E03F440437B
S3150000E300B3F540414B424B419A4208D0606808F150
S3150000E3101002314694F028FC08B18046B8602A7B8A
S3150000E3203B7B934203D02046414601F02DFA6368B9
S3150000E3304146D3F8E00180F0ADFB98F82330DA06C9
S3150000E34005D5404629466DF0A5FE00E0BE682B7B4C
S3150000E3503B73B379002B32D1D6F880305B0502D4FB
S3150000E360BB8898072BD52B7B4BB330461BF088FF19
S3150000E370012386F860302B7B804613F0060F0CD005
S3150000E3806068D0F8BC22B24207D1026892F85D20DC
S3150000E3901AB1D6F8B01088F02DFF60683146012218
S3150000E3A038F0DCFAB8F1000F09D130461BF068FFEF
S3150000E3B028B1D6F8C0303046197A1DF08FFEAB680A
S3150000E3C019050FD513F0600F04D103F4C073B3F52C
S3150000E3D0C07F07D16068036893F85F3013B1314698
S3150000E3E089F092FABB8829885A06A06B5DBF43F074
S3150000E3F04003BB8001260226FDF7CCF800220092DE
S3150000E400204631464B46FBF757FB05B0BDE8F08387
S3150000E4102DE9F04786B088460446FBF773F8D8F82E
S3150000E42050308246984265D04FF00009E3894B454B
S3150000E4305BD926694FEA0915771951D0BB88D807E9
S3150000E4404ED5705900284BD013F0020FBB6808BF99
S3150000E450DB68434502D0DB79002B41D0D8F8503039
S3150000E4608AEA030319072ED501A9FDF73DFA039B96
S3150000E4701A0713D5E36A7059013BE362FDF732FAD6
S3150000E480ADF802000DF10201A06801AAFBF7B8FC85
S3150000E49070594FF6FF710022FDF7D4F9D8F85030C5
S3150000E4A0B988705913F0080F0CBF0022802221F0A2
S3150000E4B0800141EA020301A9BB80FDF715FA204657
S3150000E4C001A9FFF7E9FD3A7B2046D8F8501001F084
S3150000E4D079F9024620B97059397B1346FDF706FDD6
S3150000E4E009F101091FFA89F9A0E7204641460122F0
S3150000E4F0FBF77CF906B0BDE8F08700BF2DE9F043D5
S3150000E5009DB0894616461D46249FDDF89480044634
S3150000E510002800F05E8103687A4A934240F05981F0
S3150000E5204368002B00F05581B0F90C30002BC0F287
S3150000E530508138460AA9FDF7D7F909F1FF33162BA2
S3150000E54000F24781DFE813F01700390077008800F2
S3150000E55045014501720045014501A3009D00A90042
S3150000E560A9004501E000B200C000C900D80045017D
S3150000E5703C0145014201A389D80540F12A81A068E2
S3150000E58023F44073A3810025FBF728FEE389AB4201
S3150000E59040F21F8122692B01D1180BD08988C90747
S3150000E5A008D5D05830B114A9FDF79EF9204614A914
S3150000E5B0FFF772FD0135ADB2E8E7A78907F480776A
S3150000E5C0BFB2002F40F00581E389BB4224D92669FA
S3150000E5D03D0173191DD09B88DA071AD57059C0B151
S3150000E5E014A9FDF781F9169B1B0712D5E36A70592A
S3150000E5F0013BE362FDF776F9ADF83C000FA9A06890
S3150000E60014AAFBF7FDFB70594FF6FF710022FDF7C8
S3150000E61019F90137BFB2D7E7A068FBF7DFFD002382
S3150000E6202363A38943F48073A381D2E02046314655
S3150000E630FFF7EEFECDE063681B6893F839301BB137
S3150000E640D6F88030DD0704D4204631460022FAF79A
S3150000E65091FF236B013312E0A38998050DD46368FB
S3150000E6601B6893F839301BB1D6F88030D90704D42B
S3150000E670204631460022FAF77DFF236B013B2363D8
S3150000E680A7E020460AAA3946FFF74CFDA1E020463E
S3150000E6900AAA3946FFF798FD9BE08DE880012046DF
S3150000E6A0494632462B46FAF72FFC92E09DF8343065
S3150000E6B02BB92046D8F83010424600F0FBFFCDF8C3
S3150000E6C000802046042103E020460521CDF8008085
S3150000E6D000223B46FBF7F0F97BE09DF83430022B35
S3150000E6E005D120460AAB41463A4600F07FFDCDF8FB
S3150000E6F0008020460621EBE7204631462A4600F0F8
S3150000E7005FFD66E06D6B730026B120463146002240
S3150000E710FAF730FF002D5CD095F82330DA0603D4E3
S3150000E7202046294600F08AFBEE68002E51D0337C45
S3150000E730002B4ED1F36D012B4BD163681B6893F808
S3150000E74042301BB1D6F88430042B42D06B68204689
S3150000E750314643F000536B600FAB0022FBF750F8D5
S3150000E7609DF84830002B34D0202214A909ABFDF7C0
S3150000E770A3F8024600282CD11346009029462046CD
S3150000E78000F0DAFB9DF8481014AA099BFDF7AEFBD2
S3150000E790F8B1636896F944201B680090297C0E48FE
S3150000E7A00191697C0291A97C0391E97C0491297D00
S3150000E7B00591697D06911969084BF5F781FF08E017
S3150000E7C0204631460222FBF711F802E0636B013363
S3150000E7D063631DB0BDE8F083F6420A00EC420A000E
S3150000E7E070B5044E0E41F40703D4BDE87040FFF740
S3150000E7F085BE70BD794F57008B682DE9F74F1C0712
S3150000E80005460E467FD40B7CD80716D401F11007B7
S3150000E8103846F6F791FE044678B968680368DB6AFD
S3150000E820012B0CD9336BF16813F1FF333A4618BF4D
S3150000E830012394F099F9044601E025B10024AF695B
S3150000E84037443CB900E02F462846F16800220024F0
S3150000E850FAF772FF79884FF6FF78414506D074B90A
S3150000E8602846BA1C21460123FAF720FA4FF002097E
S3150000E87007F104084FF6FF7A4FF0000B16E000236D
S3150000E88000932846224600F017FAA7F80280EDE723
S3150000E8908CB92846214642460123FAF707FA09F1C0
S3150000E8A0FF3908F1020819F0FF090ED0B8F8001078
S3150000E8B05145EDD1F3E7CDF800B0284622460023B6
S3150000E8C000F0FAF9A8F800A0E9E7B9894FF6FF7851
S3150000E8D0414511D03CB9284607F10C0221460123D7
S3150000E8E0FAF7E4F908E0CDF80090284622464B46B0
S3150000E8F000F0E2F9A7F80C802846314603B0BDE8DF
S3150000E900F04F00F05FBA03B0BDE8F08F8B682DE9D9
S3150000E910F04F93B00E461907044600F1C98110B1B5
S3150000E9208569354400E00546337CD6F80C80DA0765
S3150000E93000F1B98106F110073846F6F7FDFD00280B
S3150000E94040F0B18160680368DB6A012B40F2AB815D
S3150000E950336B414613F1FF3318BF01233A4694F057
S3150000E96003F9002800F09F81A3692A46C31805937E
S3150000E97003F1100153F8040B8B4242F8040BF9D152
S3150000E98069884FF6FF77B94231D020460DF1340938
S3150000E99032460123CDF8009000F08EF9414620461C
S3150000E9A04A46FAF7C9FEA988B94206D00023009361
S3150000E9B020463246012300F07FF9E9884FF6FF73BF
S3150000E9C0994206D00023009320463246012300F0E8
S3150000E9D073F9A9894FF6FF73994200F06981002304
S3150000E9E0009320463246012300F066F960E14FF0BD
S3150000E9F0010920464146FAF7CBFE4FF6FF73AB738B
S3150000EA006B80D8F85020AB81AB8012F4807FEB800E
S3150000EA10636806901B6814BF4FF0020B4FF0010BA2
S3150000EA2093F8B9703FB198F810301BB980270BF1F5
S3150000EA30020B00E00027337CDB0700F1398106F189
S3150000EA40100A5046F6F778FD002840F03181D8F8D4
S3150000EA505030002B00F02C8198F806300BB147F4AB
S3150000EA60006739460AAA20465B46FAF7F3F80146DC
S3150000EA70002840F01D81BDF828300DA8142204930B
S3150000EA80F5F7FAFD049BDAF80000BAF80420ADF8B1
S3150000EA903430CDF83600ADF83A20B9F1000F02D186
S3150000EAA047F0060203E047F4806242F006020F9246
S3150000EAB00DA900228DF8412009AA20460493FCF7EF
S3150000EAC00FFE8446049B30B120460AAA39465B46AF
S3150000EAD0FAF7ECF8ECE006982169002814BFA422A6
S3150000EAE024226B8001EB03118DE80410099B62461A
S3150000EAF020460296CDF810C000F058FD20460DAA1B
S3150000EB004146FAF719FED8F85030DDF810C013F474
S3150000EB10807F41D061460DA81422BDF82AB0F5F7D2
S3150000EB20ABFDDAF80000BAF80430ADF834B0CDF831
S3150000EB303600ADF83A30B9F1000F02D147F00403C0
S3150000EB4003E047F4806343F004030F9309AA01230B
S3150000EB500DA920468DF841300493FCF7C1FD02460D
S3150000EB60049B30B120460DF12A020021FAF79EF8E7
S3150000EB7010E006982169002814BFA0232023A5F8D9
S3150000EB800CB0204600930192029601EB0B11099BF3
S3150000EB9000F00CFD022300E001236268126892F87F
S3150000EBA0B920002A72D098F8101000296ED15A1C8C
S3150000EBB00DA84FEA430812AB43440792142233F8D8
S3150000EBC020BCF5F759FDDAF80000BAF80430ADF8C4
S3150000EBD034B0CDF83600ADF83A30B9F1000F02D1B5
S3150000EBE047F4827703E047F4A06747F004070F97DE
S3150000EBF009AA01270DA920468DF84170FCF770FD82
S3150000EC00024638B120460AAA002142443B46FAF79A
S3150000EC104DF810E006982169002814BFB023302370
S3150000EC20A5F804B0204600930192029601EB0B1161
S3150000EC30099B00F0BBFC079A12AB20460DA94FEAD0
S3150000EC40420B09AA5B4433F8207C0223ADF83470EA
S3150000EC508DF84130FCF744FD024638B120460AAA39
S3150000EC6000215A440123FAF721F80FE0069821699A
S3150000EC70002814BFB0233023EF8020460093019272
S3150000EC80029601EB0711099B00F090FCB9F1000F09
S3150000EC900ED0059B05F1100255F8041B954243F86A
S3150000ECA0041BF9D104E04FF00009CDF81490A0E65A
S3150000ECB0002013B0BDE8F08F2DE9F04387B006467B
S3150000ECC00E9C9046994604B901AC0D013269214665
S3150000ECD057593846FCF708FEA168B9F1000F02D073
S3150000ECE041F4806101E021F48061A1603846A168A9
S3150000ECF0FCF786FD33691D44C5F8088007B0BDE8FA
S3150000ED00F08300BF2DE9F84301F11009CD680446F0
S3150000ED10AB793BB94268126892F948201AB105F1FD
S3150000ED20760900E010B1A7690F4400E0074697F89E
S3150000ED300E80B8F1FF0F06D00122A06841461346A7
S3150000ED40FBF7EEFE39E02A7C2AB96368D3F8BC22C9
S3150000ED50AA4215D109E0002BF7D120462946FAF739
S3150000ED6073FBFF28064616D1EFE7AA7942B9EA6D8A
S3150000ED7032B92A6DD20720D41B6893F82831E3B143
S3150000ED80A0684946FBF796FEFF28064615D03B8845
S3150000ED9043F001033B8031466068B0461FF08EFEAB
S3150000EDA0074B10F4004F08BF0020034331469BB2C7
S3150000EDB060684A461FF088FEBE734046BDE8F88389
S3150000EDC00480FFFF38B50B46054618B121B18469AA
S3150000EDD00C4402E0044600E00C46A17BFF2916D055
S3150000EDE0DB68DB7923B1A86801220023FBF798FED4
S3150000EDF02388D90702D4FF23A37338BDA86804F17A
S3150000EE000E01FBF779FE238823F00103238038BD2A
S3150000EE10FFF7F2BC38B50C46054618B119B1806942
S3150000EE20084401E000E0084600211022F5F724FC22
S3150000EE3028462146BDE83840FFF768BD38B5054687
S3150000EE400C46FFF7D9FC28462146BDE83840FFF7B7
S3150000EE505DBD00BF70B588B00C680546A3681E0787
S3150000EE604DD4237CD8074AD404F11000F6F764FB8E
S3150000EE700246002843D1E66803AB009328461346B2
S3150000EE80214600F059F89DF818309BB194F82330CC
S3150000EE9003F0100303F0FF0163B9F36D012B09D9E9
S3150000EEA00A460B46FDF722F8B2791AB928463146CA
S3150000EEB0FAF760FBBDF80C204FF6FF739A4201D1BA
S3150000EEC0002218E0F36D002BFAD094F8233099074E
S3150000EED0F6D5A86BFCF73CFB01280BD06B681B68CA
S3150000EEE093F8FA30002BEBD020B9A86B4FF0FF3126
S3150000EEF0FCF77AFB01222846214600F009F908B002
S3150000EF0070BD00BF38B505460C4611B96FF01D003F
S3150000EF1038BD8B681A07F9D40B7CDB07F6D401F1F0
S3150000EF201000F6F709FB0028F0D128462146FFF726
S3150000EF30E9FEFF28EAD038BD2DE9F04F87B0044638
S3150000EF40109D0F461646994605B901ADBB681A07CE
S3150000EF5000F1AA803B7CDB0700F1A68007F11000D8
S3150000EF60F6F7EAFA002840F09F801CB1A36907EB88
S3150000EF70030800E0A04619F4907359D1B8F802903E
S3150000EF804FF6FF73994500F08F80002C00F08C80BF
S3150000EF90E3894B4540F28880D4F810A04FEA09195E
S3150000EFA029465AF80900FCF79FFC6B7BB3423CD01C
S3150000EFB02B7B0B2B33D1D5F808B01BF4801F2ED03A
S3150000EFC0B8F80C70D4F810803F015AF8099058F838
S3150000EFD00700FCF785FC8246294658F80700FCF72F
S3150000EFE083FC2B7B0B2B5FD1BAF1000F04D0636837
S3150000EFF01B689B6A9A4505DB6B7BB34254D158F874
S3150000F000074056E000210A460B4658F80700FCF771
S3150000F0106DFF48462BF48011FCF7F2FB44E0FB68D9
S3150000F0201B6DDF0740D5032E3ED15AF8094040E05C
S3150000F030B3F5807F15D1032E36D84FF6FF7206F052
S3150000F040FE064644B38893422ED06CB3E2899A42B8
S3150000F0502AD91E0124692946A059FCF745FCA45962
S3150000F06027E0F9682CB121B16368D3F8BC328B4232
S3150000F0701AD0CB88C3B9D1F88030580514D4636848
S3150000F0801B6893F842301BB1D1F88430042B0BD0A7
S3150000F09019F0200F08D0032E06D8204632462B46FC
S3150000F0A0FAF7AEFB044604E0246A29462046FCF73C
S3150000F0B01BFC204607B0BDE8F08F00BFF7B507463A
S3150000F0C01C460D46D1B1866C7EB1716805F1100003
S3150000F0D006220231F5F76EFA38B93768ACB17568B1
S3150000F0E00FCD0FC42B6823600FE000223846009432
S3150000F0F029461346FFF720FF074606E011462A4633
S3150000F10003B0BDE8F040FAF7FFBB384603B0F0BDE8
S3150000F11070B504461546084609B3CE68B37923B9D7
S3150000F120337C002B08BF002500E0002514B1A3693D
S3150000F130184400E0204641884FF6FF73994207D0F5
S3150000F14034B1E3898B4203D9A06B2A46FCF7BEF99A
S3150000F150204631462A46BDE87040FAF7EFB970BD41
S3150000F1602DE9F04385B08F790C469046456827BB5C
S3150000F1704FF00E0901F17006009601F17603019336
S3150000F180CDF80890334628461CF0B6FA2846414684
S3150000F1901BF044FE404613216CF0CAFE2846CDF80B
S3150000F1A00090019721463A4633462DF093FA2046C1
S3150000F1B005B0BDE8F04314F0B9BF05B0BDE8F08373
S3150000F1C030B518B121B143690B4402E0034600E0B3
S3150000F1D00B46446825685C6AAB6A9C4205DA8B7903
S3150000F1E01BB9BDE83040FFF7BBBF30BDF7B51E46C3
S3150000F1F09B681746DA02054657D40369318803EB44
S3150000F20001118C88A30602D58B68DC6804E004F043
S3150000F2100204A4B224B18C6814B16969214400E0E7
S3150000F22021466B680A6A1B68986A821A3C2A086239
S3150000F23029DC3C3048623C2194F944201C4800916A
S3150000F24019691C4BF5F73CFAA379A3B96A68E1681A
S3150000F2501368C96893F8AC303BB194F94430043173
S3150000F2600093154B5068012203E000930431506867
S3150000F2700122F8F749FD002300932846092122467A
S3150000F2803B46FAF719FC6B681B68D3F8A420D2F842
S3150000F290FC300133C2F8FC30B36813F4907F04D01D
S3150000F2A0D2F8C4310133C2F8C43103B0F0BD00BF97
S3150000F2B056430A0044430A00B59302000B7C6BB127
S3150000F2C010B14369194400E001464368486A1B6867
S3150000F2D09B6A9842D4BF00200120704718467047A9
S3150000F2E013B50C4618B121B143690B4402E003463D
S3150000F2F000E00B46217C99B141685AB10A680921A0
S3150000F300926A1A623C325A62002300932246FAF746
S3150000F310D3FB05E00A68596A926A9142C8BF5A62ED
S3150000F32002B010BD0123026C03FA01F1114214BFB1
S3150000F33000200120704700BF0123426C03FA01F14F
S3150000F34001EA0200C0B270472DE9F041D5681046C7
S3150000F3502A6D8846079F002A59D095F85820002A1A
S3150000F36055D01A88B3F816C002F44073B3F5407F3F
S3150000F3700CBFEC6D446B12F00C0F0FD183689F0528
S3150000F38045D52B7A002B42D002F0FC02C02A02D1CE
S3150000F3900020BDE8F081A02A39D1F9E702F07C0609
S3150000F3A0082EF5D11CF00F0F0FD1089B072BEFDDB0
S3150000F3B01A4839463246F5F7FDF8B8B118483946C5
S3150000F3C03246F5F7F7F888B1E2E7BDF818302CF0C9
S3150000F3D00F0C03F00703543330F8133023F00F03F8
S3150000F3E09BB29C4502D143681E0713D534F008032F
S3150000F3F00DD0102C0BD0B4F5806F08D0B4F5006F8B
S3150000F40005D098F80C3013B12B7C002BC0D101200D
S3150000F410BDE8F08183689806BAD5E7E7BC100A0014
S3150000F420E22C0A002DE9F04389B00446119D0F46EF
S3150000F43016469846DDF8409005B903AD3378D907EE
S3150000F44003D5FB793BB9394608E03046F6F774F840
S3150000F4500028F6D108E06368D3F8BC12204642467D
S3150000F4602B46FAF7CDF929E03946204632460123E4
S3150000F47000F02AF8074628B9266A29463046FCF7DE
S3150000F48033FA1CE042464B46009520463946FFF7C4
S3150000F49053FD2B884FF6FF729342064603D014B1F4
S3150000F4A0E2899A420BD820463946FFF7C7FC0095F9
S3150000F4B02046394642464B46FFF73EFD0646304655
S3150000F4C009B0BDE8F08300BF2DE9F84380460C463D
S3150000F4D0994646681546002A43D01378DA0740D481
S3150000F4E02846F6F729F800283BD1237A4BB1D4F801
S3150000F4F0B0305F8E07F44047B7F540435F425F4147
S3150000F50001E0F36A5F68304621462A463B4693F09F
S3150000F5102BFB50BBD8F804301B68DB6A012B20D9C3
S3150000F520D7F1010338BF0023304621462A4693F01F
S3150000F5301BFBD0B9B9F1000F10D0304621462A4640
S3150000F5403B466DF043FB80B9D8F8043008481B6889
S3150000F55094F944201969074BF5F7B2F80020BDE885
S3150000F560F883B9F1000FEFD1F8E7BDE8F88300BFE3
S3150000F570A5430A0099430A004FF6FF7399420ED03D
S3150000F58078B1C2898A420CD902690901501808D09B
S3150000F5908088C00705D5505818B1FCF7A3B90846AE
S3150000F5A070471846704700BFC089704730B5BDF830
S3150000F5B00C400A73049A44F480450B6014F0020F61
S3150000F5C0059C45F001058D8008BF22468A60002211
S3150000F5D0039304920A211346BDE83040FEF78EBF1E
S3150000F5E02DE9F0418E680746069D16F4805F1846A1
S3150000F5F0079C10D1F60304D5B86BBDE8F041FBF7C4
S3150000F600A9BF29462246FCF7EDF8D0F1010038BF24
S3150000F6100020BDE8F0810020BDE8F081838970B547
S3150000F620DB0506460D46144601D5002070BD0029AF
S3150000F630FBD08B88D907F8D52B68002BF5D0002A8C
S3150000F640F3D093681A07F0D4217B0029EDD0FFF799
S3150000F65073FE0028E9D1A37B002BE6D0AA88130607
S3150000F660E3D4A368D802E0D413F0060FDDD0590620
S3150000F670DBD4900712D5A96808790028D5D0C879B7
S3150000F6800028D2D1897949B9217B0229CDD0D90662
S3150000F69004D4637B013BDBB2012BC6D8930607D5A6
S3150000F6A0AB680BB1B269134422889B899A42BCD0DD
S3150000F6B0012070BD2DE9F04385B00C46002932D0FB
S3150000F6C0D368D0F804801B79CD68DB072BD4AB79DF
S3150000F6D04BB3D1F8EC3033B3EB6D23B34A6812F079
S3150000F6E0200720D14FF0020901F11006224605F14C
S3150000F6F076030093019329463346CDF80890404699
S3150000F7001BF0FAFF204610216CF012FC3346CDF8B0
S3150000F71000900197404629463A462CF0DBFF636885
S3150000F72043F02003636005B0BDE8F083416870B51F
S3150000F730D1F8BC32DA6D2AB11B7C13BB013A5042B8
S3150000F740504170BD0C6894F8365015B193F8596065
S3150000F750AEB9866AC26A964213D11DB1D1F8DC21D0
S3150000F7609A5C72B994F837200AB99B7913B1036B86
S3150000F770012B06D8406A003018BF012070BD104624
S3150000F78070BD002070BD00BF013A0F2A12D8DFE815
S3150000F79002F0080A080C0C0C080808110E11110CCE
S3150000F7A00C0C012307E0022305E0042303E04FF4D9
S3150000F7B0807300E000238B63704700BF806BFBF70C
S3150000F7C01FBF00BF132A0BD8DFE802F0180C0F0C7E
S3150000F7D01212120C0C0C0A150A1212121212121222
S3150000F7E00020704701F001007047C1F340007047E8
S3150000F7F0C1F380007047C1F30020704701207047B5
S3150000F8008068FAF793BE00BF4FF6FF73994210B5B2
S3150000F81014D0B0B1C3898B4210D9046909016318A9
S3150000F8200ED09A8812F001000BD0605848B19006AD
S3150000F83002D59B68D86810BD986810BD002010BD21
S3150000F840184610BD4FF6FF73994210B5046A0DD0E5
S3150000F850C3898B420AD900690B01C11806D0898871
S3150000F860C90703D5C358002B18BF1C4620461146AE
S3150000F870FCF73AF8204610BD2DE9F341064614463A
S3150000F8809846056A0F46E9B1E2B11378DB0709D558
S3150000F890304608F040023946FAF744F8FF28034696
S3150000F8A010D005E01046F5F747FE0028F0D10346D4
S3150000F8B000220192CDF80080304639462246FFF7F5
S3150000F8C0B1FD054628460899FCF70EF8284602B011
S3150000F8D0BDE8F0814FF6FF73994210B513D0A8B179
S3150000F8E0C3898B420FD90469090163180DD09A8820
S3150000F8F012F001000AD0605840B102F0200080B238
S3150000F90020B1986810BD002010BD184610BD00BF7C
S3150000F91030B10368034A934201D140687047002022
S3150000F920704700BF6D6B73008B692DE9F74301F1DA
S3150000F9303C071A8A064613070C460ED5836CC2F39B
S3150000F94086121989914208D193E82040BEE80F003B
S3150000F9500FC7DEF800303B6021E06369626B196B0C
S3150000F960D1F80C90002A46D08A6B6368D50593F8C7
S3150000F970038004D593F8008008F0010801E04FEAFF
S3150000F980981894F82C30002B3CD10097304642460C
S3150000F990FFF7D2FA94F848300546002B44D0A56309
S3150000F9A028466169A269FCF7A9F80746002842D1F2
S3150000F9B094F82C3033B9B16C0B68AB4202D02846B0
S3150000F9C0FBF76CFF636B002B35D094F84830002BA7
S3150000F9D031D094F84C3062681A44626094F84D2035
S3150000F9E01344A268D21AA2602269D31A23616369FA
S3150000F9F01B8AE3601FE0304613460097FFF79CFA28
S3150000FA000546CCE773681B6893F8B93063B199F87B
S3150000FA1010304BB9D9F85C30012B05D90097304628
S3150000FA2042464FF48073E9E73046494642463B4634
S3150000FA30F9F7E6FEE4E7384603B0BDE8F08300BF19
S3150000FA4070B506460D46084600210A4600F026F81F
S3150000FA500023F118EC5800228C540132042A4FEA94
S3150000FA601424F9D10433102BF3D170BD094B036074
S3150000FA7003F188334360084B8360A3F18833C36086
S3150000FA8000231946C2180133082B1174FAD100233A
S3150000FA908361704701234567FEDCBA98836930B5F8
S3150000FAA091B00446002B5CD1134610302BB105787B
S3150000FAB02B4400F8013B1B0AF8E7B2F5007F03D19F
S3150000FAC0204600F051F84CE04BD8D00802F007026F
S3150000FAD0CD5C0DF8035001338342F9D90021431C54
S3150000FAE0402B03D00DF803100133F9E70123C2F1CF
S3150000FAF00702372803FA02F210AB0344D2B2C2F16E
S3150000FB00000113F8405C42EA050201EA020203F82A
S3150000FB10402C10D80023E11800AA1A440133097CAE
S3150000FB20082B82F83810F6D12046694600F01CF8FA
S3150000FB300123A36115E02046694600F015F800236D
S3150000FB401A460DF803200133382BFAD10023E118A9
S3150000FB5000AA1A440133097C082B82F83810F6D122
S3150000FB60E2E711B030BD00BF2DE9F04F91B00023A0
S3150000FB70CA18CC5C557804EB05249578D27804EB4A
S3150000FB80054404EB02624DF803200433402BEFD109
S3150000FB9043688468C168009E026821EA030504EA96
S3150000FBA0030132440D431544C768019A4FEA75753F
S3150000FBB005EA03013A4424EA05070F431744029A6B
S3150000FBC04FEA776707EA0501224423EA07040C4354
S3150000FBD01444039A4FEA745425EA040C04EA070114
S3150000FBE01A444CEA01011144049A4FEA713127EA9A
S3150000FBF0010C154401EA04024CEA02022A44059D5E
S3150000FC004FEA727224EA020C2F4402EA01054CEA1A
S3150000FC1005053D44069F4FEA756521EA050C3C44FF
S3150000FC2005EA02074CEA07072744079C4FEA77577D
S3150000FC3022EA070C214407EA05044CEA040421449D
S3150000FC40DDF820904FEA713125EA010C01EA07043C
S3150000FC504A444CEA04041444099A4FEA747427EAA5
S3150000FC60040C154404EA01024CEA02021544DDF8CC
S3150000FC7028C04FEA756521EA050805EA04026744CB
S3150000FC8048EA02023A440B9F4FEA725224EA0208FB
S3150000FC90394402EA050748EA07073944DDF83080A7
S3150000FCA04FEA713101EA020725EA010A44444AEAA9
S3150000FCB0070AA2440D9C4FEA7A7A22EA0A072544EB
S3150000FCC00AEA01043C4325440E9F4FEA756521EA82
S3150000FCD0050B05EA0A043A444BEA040414440F9A55
S3150000FCE04FEA745404EA050B11442AEA040242EA74
S3150000FCF00B021144DC4A4FEA71313244924444EA21
S3150000FD0005020A4042EA0B02049F5244DFF858A358
S3150000FD104FEA7272BA4441EA040B02EA0B0B5544ED
S3150000FD2001EA040A4BEA0A0A5544DFF83CA34FEA03
S3150000FD30F565CA4442EA010B05EA0B0B544402EA94
S3150000FD40010A4BEA0A0A5444DFF81CA34FEAF454AA
S3150000FD50C24445EA020B04EA0B0B514405EA020AC7
S3150000FD604BEA0A0A019F5144DFF8FCA24FEAF1412F
S3150000FD70BA4444EA050B01EA0B0B524404EA050AAD
S3150000FD804BEA0A0A059F5244DFF8DCA24FEA727278
S3150000FD90BA4441EA040B02EA0B0B554401EA040A91
S3150000FDA04BEA0A0A099F5544DFF8BCA24FEAF565FB
S3150000FDB0BA4442EA010B05EA0B0B544402EA010A73
S3150000FDC04BEA0A0A0D9F5444DFF89CA24FEAF4540A
S3150000FDD0BA4445EA020B04EA0B0B514405EA020A4F
S3150000FDE04BEA0A0A029F5144DFF87CA24FEAF1412E
S3150000FDF0BA4444EA050B01EA0B0B524404EA050A2D
S3150000FE004BEA0A0A069F5244DFF85CA24FEA727276
S3150000FE10BA4441EA040B02EA0B0B554401EA040A10
S3150000FE204BEA0A0A5544DFF840A24FEAF565E24478
S3150000FE3042EA010B05EA0B0B544402EA010A4BEABB
S3150000FE400A0A0E9F5444DFF820A24FEAF454BA443B
S3150000FE5045EA020B04EA0B0B514405EA020A4BEA97
S3150000FE600A0A039F5144DFF800A24FEAF141BA445F
S3150000FE7044EA050B01EA0B0B524404EA050A4BEA75
S3150000FE800A0A079F5244DFF8E0A14FEA7272BA44A9
S3150000FE9041EA040B02EA0B0B554401EA040A4BEA59
S3150000FEA00A0A0B9F5544DFF8C0A14FEAF565BA442C
S3150000FEB042EA010B05EA0B0B544402EA010A4BEA3B
S3150000FEC00A0A0F9F5444DFF8A0A14FEAF454BA443B
S3150000FED045EA020B04EA0B0B514405EA020A4BEA17
S3150000FEE00A0A5144DFF884A14FEAF141B24484EA98
S3150000FEF0050B8BEA010B52445A44DFF870A14FEA16
S3150000FF007272CA4481EA040989EA02095544049EC8
S3150000FF104D44DFF858914FEAF555B14482EA010A9B
S3150000FF208AEA050A4C445444DFF840914FEA745477
S3150000FF30C14485EA020888EA04084944029F41440C
S3150000FF40DFF828814FEA7141B84484EA050989EA55
S3150000FF50010942444A44DFF814814FEA7272E044D0
S3150000FF6081EA040C8CEA020C4544069E6544DFF8DF
S3150000FF70FCC04FEAF555B44482EA010888EA050850
S3150000FF8064440E9F4444DFF8E4C04FEA7454BC4412
S3150000FF9085EA020767406144019E3944334F4FEAC0
S3150000FFA07141374484EA050C8CEA010C3A44099EF7
S3150000FFB062442E4F4FEA7272374481EA040C8CEA8F
S3150000FFC0020C3D44059E6544284F4FEAF5553744DB
S3150000FFD082EA010888EA05083C440D9E4444234F02
S3150000FFE04FEA7454374485EA020888EA040839441B
S3150000FFF0039E41441D4F4FEA7141374484EA050C84
S315000100008CEA010C3A440B9E6244184F4FEA727215
S31500010010374481EA040C8CEA020C3D44079E654490
S31500010020124F4FEAF555374482EA010C8CEA050C6A
S315000100303C440F9E64440D4F4FEA7454374485EA9D
S31500010040020C39448CEA040C076861443A440260A4
S3150001005003EB71438668C16826440D44436086609C
S31500010060C56011B0BDE8F08F9979825AA1EBD96EBE
S3150001007030B591B00A684B680E92C2F3C502372AB1
S315000100800C46D4BFC2F13802C2F1780205460846D1
S315000100901B490F9300F048F823460022997E04334A
S315000100A0D87D090441EA0061187D0143587D41EA82
S315000100B000214DF802100432382AEFD1694604F1C5
S315000100C0080000F06BF82346002299680432102AD2
S315000100D003F104034FEA112083F8541083F8550005
S315000100E04FEA11404FEA116183F8560083F8571021
S315000100F0EBD1284604F15801F4F76EFA11B030BD80
S315000101007CA00900002343600360054B836003F173
S315000101108833C360034B0361A3F18833436170479E
S3150001012001234567FEDCBA98F0B591B00D4601682A
S31500010130044601EBC2008842C1F3C50302D26168DD
S3150001014001316160616804F10807AE1801EB527173
S3150001015020606160B5421FD015F8012B591C40295A
S3150001016023441A7616D1234600219A7E0433D87D7C
S31500010170120442EA0062187D0243587D42EA0022D7
S315000101804DF8012004314029EFD16946384600F087
S3150001019005F800210B46DDE711B0F0BD2DE9F04F62
S315000101A08FB00A68D94E456887680368C4681644E3
S315000101B002921E4424EA050207EA050313431E447C
S315000101C04A68D34CC36805EB7666144403921C4413
S315000101D027EA060206EA050313438D681C44CD4B44
S315000101E006EB34542B443B44476804EA0602049563
S315000101F027EA040515431D44CA68C74B04EBF535C8
S31500010200134405923B4405EA040226EA05073A43EC
S315000102101A440B6905EBB2220693069FBF4B3B447A
S315000102201E4424EA020702EA05033B4333444E69AE
S3150001023002EB73630796079FB94E3E44344425EAA1
S31500010240030703EA02063E4326448C6903EB36564E
S315000102500894089FB34C3C44254422EA060706EA63
S3150001026003043C432C44CD6906EBF4340195019F0C
S31500010270AD4D23EA040C3D442A4404EA06054CEA42
S3150001028005051544A94F0A6A04EBB52526EA050CAE
S315000102900992174405EA04023B444CEA02021A4455
S315000102A0A34F4B6A05EB726224EA020C0A931F44C0
S315000102B002EA05033E444CEA030333448E6A02EB29
S315000102C033530B96A6F5244C03EA0206ACF14F0C08
S315000102D0644425EA030C4CEA060CCF6AA444954C07
S315000102E003EBFC3C3C44254422EA0C090CEA0304DA
S315000102F049EA04090C97A9448F4C0D6B0CEBB929FB
S315000103002C4423EA0906224409EA0C043443144422
S315000103104A6B09EB74640D920D9E884A039F324421
S3150001032013442CEA040604EA090232431A448E6B8A
S31500010330834B04EB32526FEA0208334408EA090A96
S315000103409C4402EA04034AEA03036344C96BDFF8E7
S3150001035010A202EBF3336FEA030C8A440CEA040B96
S31500010360D14403EA020A4BEA0A0AD144DFF8F4A1AE
S3150001037003EBB929BA44544403EA080809EA020A14
S315000103804AEA0808089F4444DFF8DC8109EBF46473
S31500010390B844904409EA0C0C04EA030242EA0C024E
S315000103A00C9F4244DFF8C4C104EBF252BC4402EA9A
S315000103B00908634424EA090C48EA0C0C029F6344C9
S315000103C0DFF8ACC102EBB343BC4403EA0408E144E1
S315000103D022EA040C48EA0C0C079FE144DFF89481F9
S315000103E003EB3939B84423EA020C444409EA02080A
S315000103F048EA0C080B9FA044524C09EBF8683C44B0
S3150001040008EA030C224429EA03044CEA04041444CE
S315000104104D4A08EBF4540A44134404EA090C28EA49
S3150001042009024CEA020C9C44069A484B04EBBC4C6C
S31500010430134499440CEA080224EA080313430A9F69
S315000104409944434B0CEB39393B4409EA040298447D
S315000104502CEA0403134343443E4A09EBF363324453
S3150001046003EA0C08144429EA0C0248EA0202059F31
S315000104701444394A03EBF4543A4404EA090894440F
S3150001048023EA090248EA0202099F9444334A04EB2B
S31500010490BC4C3A440CEA0308914424EA030248EAB4
S315000104A002020D9F4A44DFF8D0800CEB3232B84489
S315000104B002EA040943442CEA040849EA0808049FAD
S315000104C04344DFF8B88002EBF363B84403EA0C094E
S315000104D0444422EA0C0849EA0808019F4444DFF82B
S315000104E0A08003EBF454B84404EA0209C44423EAA5
S315000104F0020849EA0808C444DFF8888004EBBC4CCA
S31500010500A8440CEA030942443EE000BF78A46AD736
S3150001051056B7C7E8DB702024EECEBDC1AF0F7CF520
S315000105202AC68747134630A8019546FDD8988069A3
S31500010530AFF7448BBED75C892211906B937198FDFE
S315000105408E4379A65314440281E6A1D8C8FBD3E7AA
S31500010550E6CDE121D60737C3870DD5F4ED145A450B
S315000105602108B44962251EF640B340C0515A5E26A1
S31500010570AAC7B6E95D102FD605E9E3A9F8A3EFFCF2
S31500010580D9026F678A4C2A8D24EA0308079F49EA34
S3150001059008084244A7F5B82A8CEA0408AAF2BE6AFA
S315000105A00CEB323288EA02089A44099FC244AC4BEA
S315000105B002EB3A7A3B4482EA0C0888EA0A081C44B0
S315000105C00C9F4444A74B0AEB74543B448AEA020845
S315000105D088EA04089C44C444A34B04EB3C4C3344D2
S315000105E084EA0A0B8BEA0C0B1A44039F5A449F4B6D
S315000105F00CEB72223B448CEA040888EA02089A440E
S31500010600069FC2449A4B02EB3A7A3B4482EA0C08B3
S3150001061088EA0A081C44019F4444964B0AEB745429
S315000106208AEA02083B4488EA040863440B9F434470
S31500010630DFF894C204EB334384EA0A08BC4488EA2F
S31500010640030894440D9FC4448B4A03EB7C2C3A4423
S3150001065083EA040888EA0C089244029FC244874A46
S315000106600CEB3A7A3A448CEA030888EA0A081444FD
S31500010670059F4444824A0AEB74543A448AEA0C08B8
S31500010680134488EA0408089A98447E4B04EB3848D8
S31500010690134484EA0A0989EA08099C44CC440A9B62
S315000106A0794A08EB7C2C1A4488EA040383EA0C0392
S315000106B052441A44754B0CEB32722B448CEA0809EE
S315000106C089EA02091C444C44714B02EB74540B44F5
S315000106D082EA0C0989EA04099844049FC8446D4BCF
S315000106E004EB384884EA02093B4489EA0809634471
S315000106F04B44029FDFF8D4C108EB7323BC4463EA81
S315000107000409624489EA08094A44019FDFF8C0C125
S3150001071003EBB262BC4462EA08075F4064443C44AE
S315000107205D4F02EBB454374464EA0306564047442E
S315000107303744DFF8A0C1079E04EB7747B44463440E
S3150001074067EA020C8CEA040C6344544E07EBF3236C
S315000107502E4463EA04057D4032442A44059E504DE9
S3150001076003EBB262354462EA07065E402C44344428
S315000107700B9E02EBB454A6F5801564EA0306A5F6B2
S31500010780833556402F443744464D039E04EB774745
S31500010790354467EA020C8CEA040C2B446344099E37
S315000107A0414D07EBF323354463EA040C8CEA070C4D
S315000107B02A4462443D4E03EBB2620E4462EA0701EB
S315000107C0594034440C44089D394902EBB454294438
S315000107D064EA03055540394429440D9E354D04EB21
S315000107E07141354461EA020666402B443344069F53
S315000107F0314D01EBF3233D4463EA04064E402A449E
S3150001080032442E4D0C9E03EBB262354462EA010777
S315000108105F402C443C442A4D049F02EBB4543D44B2
S3150001082064EA030656402944314407680A9E254D69
S3150001083004EB7141354461EA02063A4402606640BE
S3150001084042682B4433440A4402EBF3234360826833
S31500010850C36811441C448160C4600FB0BDE8F08FC9
S3150001086081F6718722619D6D0C38E5FD44EABEA4CF
S31500010870A9CFDE4B604BBBF6C67E9B28FA27A1EAC1
S315000108808530EFD4051D880439D0D4D9E599DBE646
S31500010890F87CA21F6556ACC4A72394ABC3595B650C
S315000108A092CC0C8FD15D84854F7EA86FE0E62CFE3D
S315000108B0144301A3A111084E827E53F735F23ABDC6
S315000108C0BBD2D72A91D386EB70BCBFBE442229F492
S315000108D097FF2A4339A093FC044B1B78012B02D1C5
S315000108E000200070704700F023B800BFBC0720004D
S315000108F0F8B5044610460F461646F3F75BFF054664
S31500010900BC4213D2207880B1204631462A46F3F7FD
S3150001091051FE28B9635D3D2B02D101356019F8BD41
S3150001092014F8013B002BFBD1EAE7F8BD0020F8BD26
S3150001093070B50646F3F73EFF0D4B05461C68A4B19C
S315000109400F2DE36802DDE08DA16806E0EA1D34F8AB
S31500010950120005F1080234F81210184419443246FF
S31500010960FFF7C6FF10B92468E9E7204670BD00BF4E
S31500010970440920007FB543690446022B0D462DDC50
S3150001098014225E1E02FB0606026D183642B940307D
S31500010990013D8DE858000FC800F080F8012323655A
S315000109A0236D00965A19B2F5805FC8BFC3F580550D
S315000109B02A462346206C616C00F048F8236D1D44DD
S315000109C0B5F5805F25650CD160690023236501308B
S315000109D002286061CCBF0020012003E04FF0FF3008
S315000109E000E0012004B070BD034610B55C69022C1D
S315000109F008DD282A06DC084603F11801F3F7ECFDA9
S31500010A00002010BD4FF0FF3010BD00BFF8B5044601
S31500010A1008460D4617461E46F3F7CCFE072802D8B0
