S00C0000726F6D6C2E737265635E
S3250000004041EA020303439B0730B510D104680B686340136044684B686340536084688B6833
S3250000006063409360C068CB684340D36030BD0023CD5CC45C6C40D4540133102BF8D130BD81
S325000000802DE9F04F8DB04FF001080CAC064604F8208D0D469146114604EB08000D229B464B
S325000000A0199F04F07BF800238DF81E30179B30462946A3F1080A189B22468DE88800534637
S325000000C08DF81F8000F0BAFA10B14FF0FF3028E0189B07EB0A0853448DF81E008DF81F0086
S325000000E08DE80801304629462246082300F0A6FA0028EAD1169B08AC02978DE8080403947B
S32500000100304629464A465B4600F05AF80028DCD120464146082204F02FF8003818BF6FF00C
S3250000012000000DB0BDE8F08F2DE9F04F8DB04FF0010A0CAC074608AD0E469346114604F8C2
S3250000014020AD0D2204EB0A009946DDF85C8004F025F80022189B8DF81E208DF81F20169AF7
S3250000016002938DE804010395384631465A464B4600F026F810B14FF0FF301EE00095019546
S32500000180384631462246082300F058FA0028F2D1294608221A9804F001F8189B38460093A8
S325000001A0199B31460193224643468DF81FA000F045FA003818BF6FF000000DB0BDE8F08FC7
S325000001C02DE9F04589B0B3F57F4F80460F461D46DDF840A0119E74D20BB9192300E059239B
S325000001E011460DF101000D2204ACC7F39A078DF80030063703F0D2FF330A8DF80E3040462D
S3250000020039466A4623468DF80F6010F0E5F95DB39DF8103083EA15238DF810309DF8113049
S325000002206B408DF8113055440223AA4514D01AF8010B08AA1A440133102B12F8101C80EA79
S32500000240010102F8101CF0D1234640463946224610F0C2F90023E8E7190705D04046394632
S325000002602246234610F0B8F94FEA161A0025129B554503EB05110BD0204601352246FFF748
S32500000280DFFE404639462246234610F0A5F9EEE7002306F00F02934205D2E05CCD5C68404F
S325000002A0E0540133F7E72AB1404639462246234610F092F913982146082203F06FFF0020F9
S325000002C001E04FF0FF3009B0BDE8F0852DE9F04F85B005460E9C18468946924600210D2222
S325000002E01E4603F0ABFF1E222046002103F0A6FF2F88C7F3810307F4407BBBF54070D0F1CC
S32500000300000B5BEB000B022B0CBFC7F3C013002303F0FF0203923BB1BBF1000F0CBF18239D
S325000003201E2335F8038001E0DDF80C80039ABBF1000F14BF0623002302B10233109A03F187
S325000003402001304603F1180C116003F116010F9A05EB0C03116005F10A0100F801AB062286
S325000003600293CDF804C003F019FF029BDDF804C0DA79F2719A7932725A7972721A79B2723D
S325000003805B78F37215F80C303373B9F1000F0CD1BAF1FF0F02D01AF0100F02D027F4605742
S325000003A005E04CF28F733B4002E027F40067BBB22370A01C1B0A291D6370122203F0EEFE26
S325000003C0EB8AB9F1000F02D103F00F0300E00023237504F1160000236375BBF1000F06D0DF
S325000003E0062205F1180103F0D9FE04F11C00039B7BB1B9F1000F06D180F8019008F00F0873
S3250000040080F8008005E080F800804FEA182880F8018005B0BDE8F08F2DE9F04192B01D46CA
S3250000042004AB01930AAC074605AB0E469046029306AB28469DF860109DF864200094FFF73A
S3250000044045FF059B06AA00941D44C3EB080301930295039538463146049BFFF711FE0028D0
S3250000046014BF6FF00100002012B0BDE8F08100BF2DE9F04194B01C4606AB01930CAD164645
S3250000048007AB80460F46029308AB20469DF868109DF86C200095FFF719FF079A0095A31819
S325000004A0B21A3444019208AA02930393049440463946069BFFF738FE003818BF6FF00000AA
S325000004C014B0BDE8F08100BF2DE9F0418CB00746129C8846139E1CB104F10F052D0900E094
S325000004E0012529018C4204D11046A4F1100131441CE000221039641A7018A24202F101014C
S3250000050005D010F802E00DF802E00A46F5E70CA80244802002F8300C0A4600210F2A03D8AE
S325000005200DF802100132F9E7184669466A460124FFF786FD002108A8102203F07FFEAC42CF
S3250000054008A80CD2314604AAFFF77AFD404604AA394608AB10F040F801341036EFE76946D7
S3250000056004AAFFF76DFD404604AA394608AB10F033F8159A08A91498102A28BF102203F084
S325000005800DFE0CB0BDE8F081DB0070B5C8B05C09054606340E460CA811461A4610F094FAC9
S325000005A020460CA904AA08AB00F00EF84C9B0CA9009604AA02934D9B0195039308AB204621
S325000005C0FFF782FF48B070BD7FB5064614460846184A1D4631466B460FF0FEFF0F22002314
S325000005E01DF8021043EA4103A35412F1FF324FEAD113F5D29DF90030002B04DA20460E49C2
S325000006002246FFF71DFD0F220023A15C43EA4103AB54A35C12F1FF324FEAD313F5D294F9F5
S325000006200030002B04DA284603492A46FFF708FD04B070BDDC530800CC530800B3F5801FD0
S325000006402DE9F04F89B082468B461C4646D8CBF39A0B0DF1100811460BF1060B4046102258
S32500000660260903F09BFD00254746DDF84C80129BB5424FEA0519C844994418D06B46504654
S3250000068059463A460FF0A8FF484669464246FFF7D7FC9DF81F300133DBB28DF81F3023B9AC
S325000006A09DF81E3001338DF81E300135DDE714F00F0401D1002013E06B4604AA50465946C0
S325000006C00FF08AFF002319F803201DF803104A4008F803200133A342F5D1EBE74FF0FF3041
S325000006E009B0BDE8F08F00BF70B5BCB0C4001546684622461E4610F0E7F9610968460631FF
S325000007002A4633460FF068FF3CB070BD2DE9F04FADF52D7D1D4620F00803102B03D02028F6
S3250000072001D001246CE0B2F5C47FFAD812F00708F7D1C700A2F108063A460EA806AC10F08C
S32500000740FFF829460822204603F028FD4FEAD6094AA8324605F1080103F020FD05235FFA73
S3250000076089FB03FB0BF37F090637DBB2029704934AAB062703EBC9030393049B09F1FF3532
S325000007804FF0000A4344DBB2013305936B1CAAF1080A22D0059A08A8DDF80CC0E379D444A0
S325000007A02A44013D614653400822E371CDF804C003F0F4FC02990AAB22460EA80FF052FDA7
S325000007C008220AA9204603F0E9FCDDF804C00CA90822604603F0E2FCD8E7013FCBEB080844
S325000007E05FFA88F8C9D1094906A8082203F0C4FC0446002895D1B6984AA9324603F0CEFC55
S3250000080020460DF52D7DBDE8F08F00BFEC5308002DE9F04FADF5277D1E4620F00803102B41
S32500000820144601D0202859D1B4F5C07F56D814F0070753D14FEAC00A0AA8524646AD10F089
S3250000084043F9294902A8082203F0A8FC4FEAD40831465FFA88FB284622464FEA5A1A03F09B
S325000008609DFC06260AF1060AAC460025454523DA0CEBC50904A849460822CDF804C003F05E
S325000008808DFC514606AB0AA802AA0FF0A5FE082208A9484603F082FC082202A806A903F031
S325000008A07DFC9DF80F207B1C2B44013553408DF80F30DDF804C0D9E7013E5F44FFB2D4D1D1
S325000008C0082202A9B09803F069FCB09B46A9224603F1080003F062FC304600E001200DF535
S325000008E0277DBDE8F08F00BFEC53080008B50A46D0F89830D0F8880009B9203002E0012919
S3250000090003D1403053F8200008BD0349034803F0B9FC002008BD00BFABF908004AF9080083
S3250000092010B5D0F88840D0F89830103453F8244040F627039C4205D109490A4803F0A2FC90
S32500000940002010BDD0F8903001B932B1D3F8080420EA01010A43C3F80824D3F8080410BDC4
S32500000960B7F8080082F9080073B5D0F890400E46D4F80038D90728D41F25D4F8043893B9AB
S325000009800120C4F80008D4F800380193019B8CF0C3FEC4F80864D4F808340A200193019B71
S325000009A08CF0BAFE11E0013D03D00A208CF0B4FEE3E740F2E935D4F80438002BE0D0013D68
S325000009C0DED00A208CF0A8FEF5E702B070BD00BFF8B5D0F888501646D0F8983005F1A002CC
S325000009E0044653F822300F465BB1294600F09AF820463946324600F0A9F82046294600F005
S32500000A008DF8204639463246BDE8F84000F09EB810B5D0F88840D0F89830103453F82440F3
S32500000A2040F627039C4205D109490A4803F02AFC002010BDD0F8903001B932B1D3F80005FD
S32500000A4020EA01010A43C3F80025D3F8000510BDA8F8080082F908000F2970B5049CD0F8CA
S32500000A60980013D850F8215000EB81061DB9D6F8805040F8215050F8211003B924B18858BB
S32500000A8020EA03031C438C50885870BD002070BDD0F89820D0F8883002EB830393F8031397
S32500000AA000F08EB970B5D0F88850D0F89830044605F1100253F8222040F627039A420CD1AC
S32500000AC0002100F02BF8204600F00EF806462946204600F023F8304670BDD0F89030D3F85E
S32500000AE0000100F01F0070BDD0F89030D3F80001C0F30420704700BFD0F89030D3F8082493
S32500000B0002F00302012A06D1D3F8000880F0010000F0010070470020704700BF002200F042
S32500000B20A5B800BF012200F0A1B800BF10B5D0F89000890802B933B150F8214024EA020260
S32500000B40134340F8213050F8210010BD2DE9F743064688461746D0F89890D0F890401F25E7
S32500000B60D4F8043801932BB1013D03D00A208CF0D3FDF5E7019B23B1019A3748374903F097
S32500000B8081FB0123C4F800380A201F258CF0C4FDD4F804382BB1013D03D00A208CF0BCFDBC
S32500000BA0F6E71F2547F0030747EA0807C4F80874D4F808340193019BD4F8043801932BB1A5
S32500000BC0013D03D00A208CF0A7FDF5E7019B23B1019A2348214903F055FB0A25D4F8003882
S32500000BE00BB3013D20D01F27D4F8043801932BB1013F03D00A208CF08FFDF5E7019B23B1B4
S32500000C00019A1848154903F03DFB1F270023C4F80038D4F80438002BE0D0013FDED00A20F2
S32500000C208CF07AFDF5E745B9D6F888300E480B49103359F8232003F025FB012048F001036A
S32500000C40C4F80834D4F808340193019B8CF064FD03B0BDE8F08300BFC6F80800B8F9080078
S32500000C60E4F8080002F908001FF90800D0F88C30F0B5102B28BF10239942D0F8984028D274
S32500000C8004EB810354F82170D3F880C0D3F80062D3F880520FB944F821C054F82140C0F8DF
S32500000CA08440D3F8C07117B90EB1C3F8C061D3F8406216B90DB1C3F8405212B1D3F84032BC
S32500000CC001E0D3F8C031C0F89030C0F888102046F0BD0020F0BD00BF704700BF2DE9F04747
S32500000CE00AAE92460122134607460D4696E8400300F04EF8044600F00603042B08D1C0F34D
S32500000D000323534504D1089B00F0C0029A4205D02B680020043B2B60BDE8F087099A20F4E4
S32500000D207F6323F00F03136010F0080307D0002238462946134600F02BF8306000E03360D3
S32500000D40002604F03003302BC9F8006016D1324633463846294600F01BF8020720F47F63FD
S32500000D6023F00F03C8F800300FD5384629463246334600F00DF8C9F8000006E01B094FF493
S32500000D80805202FA03F3C8F800302046BDE8F0872DE9E04380460E4617469946404612F000
S32500000DA0EDFE356855F8040B35603FB1C307F5D50F2803D000EA07034B45EFD1BDE8E083DA
S32500000DC00846704708B560B1002907DB436802681944914204DD034803F054FA002008BD98
S32500000DE0012008BDC7F9080038B50D4602210446FFF7E8FF50B16368A2680220D15C1A4432
S32500000E000233527842EA01222A80636038BD00BF38B50D4601210446FFF7D4FF30B163683C
S32500000E20A2680120591C6160D35C2B7038BD00BF70B504460D461646FFF7C4FF50B163682A
S32500000E40A168304619442A4603F0A8F9636828462B44636070BD00BF00230160436082604C
S32500000E600120704738B50D4602210446FFF7AAFF50B16368A2680220D118D25C0233497843
S32500000E8042EA01222A80636038BD00BF2DE9F74389460DF10601044690461D460A9EFFF797
S32500000EA0E1FF18B9244803F0EDF90FE027686068BDF80610874204DD381A814208DD024639
S32500000EC001E029B100221D4803F0DCF900202FE020464946FFF79CFF0028E3D02046414685
S32500000EE0FFF796FF0028DDD02DB120462946FFF78FFF0028D6D02EB120463146FFF788FF4E
S32500000F000028CFD0BDF80630002D0CBF02250325002E0CBF1E465E1E751B0B9BADB2A2685A
S32500000F201D8063680120D1180C9A1D441160656003B0BDE8F08300BFE6F90800F4F9080096
S32500000F40704700BF2DE9F04786B0002604460D46084610220021B04603F070F94DF6DD5A62
S32500000F602368984536DAC4F80480C8EB0308B8F1030F2FDD20460DF10601FFF773FF2046F5
S32500000F8002A9FFF76FFF94E80C00BDF808709A42CCBFC3EB0202002297421BDCBDF80610B1
S32500000FA003EB07085145A268DAD102EB030903A839464A46FFF750FF03A80DF10A0100F047
S32500000FC027F818B1AF60C5F80C9001E085E880020136C5E716B12846FFF7B2FF304606B000
S32500000FE0BDE8F08730B585B00C46054608220846002103F023F90023A21C0192221D029229
S32500001000621C009328462146FFF740FF05B030BD37B501AA0D4603210446FFF709FF28B1DE
S325000010200F4901A8032203F0A7F820B10D4803F029F9002011E020460DF10301FFF7E8FE62
S325000010400028F3D09DF80330092BEFD120462946FFF708FF0028E9D0012003B030BD00BFB0
S3250000106013FA0800E6F9080037B50D460DF106010446FFF7CDFE18B19DF806306C2B04D020
S325000010800C4803F0FFF8002011E020460DF10701FFF7BEFE0028F3D09DF80730022BEFD139
S325000010A0204629468CF098FA0028E9D0012003B030BD00BFE6F9080070B504460D461646E1
S325000010C0FFF7D0FE20B90B4803F0DCF8002070BD94E8090029889842CCBFC3EB000000209D
S325000010E08842F0DBA06818440B4430606360012070BD00BFE6F90800704700BF38B50546AD
S32500001100202208460C46002103F098F895E80C009A4202DDD31A022B03DC354803F0B2F8EC
S3250000112063E021462846FFF773FE2846611CFFF76FFE2846A11CFFF76BFE2378042B54D163
S3250000114063780A3B032B50D8DFE803F0020E4A272846211DFFF788FF0028DED0284604F176
S32500001160100104F1140237E02846211DFFF77AFE0028D2D02846A11DFFF774FE0028CCD0FA
S32500001180284604F10801FFF76FFF0028C5D0284604F1140104F118021EE02846211DFFF795
S325000011A061FE0028B9D02846A11DFFF731FE0028B3D0284604F10801FFF754FE0028ACD0C5
S325000011C0284604F10C01FFF74FFF0028A5D0284604F1180104F11C02FFF76EFF00289CD032
S325000011E02046FFF789FF012038BD002038BD00BFE6F90800704700BFF7B504461822084640
S325000012000D46002103F01AF8204601AA0321FFF70FFE20B92848002603F034F849E02749F0
S3250000122001A8032202F0A8FF06460028F2D120466946FFF7EDFD0028ECD09DF80030092B38
S32500001240E8D16268374623689A422DDA62609A1A022A29DD20460DF10101FFF7D9FD2046DA
S325000012600DF10201FFF7FEFD22686168BDF802308A42CCBFC1EB02020022934214DCA06846
S32500001280CA1801449DF801000D2806D0192807D00228D8D12B60696004E0AB60E96001E028
S325000012A02B6169610137CEE71FB128463E46FFF7A1FF304603B0F0BDE6F9080013FA0800BB
S325000012C038B50446022208460D46002102F0B6FF94E80C009A4213DDD31A022B10D120468F
S325000012E02946FFF795FD18B9064802F0CBFF07E02046691CFFF78CFD0028F5D0012038BDC2
S32500001300002038BDE6F90800F7B50546522208460C46002102F092FF95E80C009A425CDD7E
S32500001320284606212246FFF783FD18B92C4802F0A9FF43E02846A11DFFF756FD0028F5D0D0
S32500001340082128466218FFF773FD0028EED0284604F11001FFF75CFD0028E7D0217C0429BE
S3250000136003D8002604F111070AE01E48042223E03A4608370821FFF75BFD0028D6D00136A5
S32500001380237C28469E42F3DB01A9FFF72DFD0028CCD0BDF8042041F211039A42C6D12846FD
S325000013A00DF10601FFF720FD0028BFD0BDF80610202905D90C48202202F064FF00200DE06E
S325000013C0284604F13102FFF733FDBDF806309842ACD10444002384F83130012003B0F0BD40
S325000013E0E6F9080017FA08003AFA080010B50C4678B100290ADB836843B190E80C001C449A
S32500001400944205DD0348D21A02F03CFF002010BD012010BD56FA080038B50D4601210446CB
S32500001420FFF7E4FF28B16368A2680120591C6160D55438BD70B504460D461646FFF7D6FFC1
S3250000144050B16368A068314618442A4602F0A6FE636828462B44636070BD00BF2AB1002384
S32500001460016043608260012070471046704700BF38B50D4602210446FFF7B8FF58B16368AE
S32500001480A2680220591C6160D5546368A268591C2D0A6160D55438BD38B50D4604210446AC
S325000014A0FFF7A4FFB8B16368A2680420591C6160D5546368A268591C6160290AD15463689E
S325000014C0A268591C6160290CD1546368A268591C2D0E6160D55438BD2DE9F047099E894645
S325000014E0BDF82C50002B0CBF02210321003618BF01261F4673191944044689B29246D0F8D1
S325000015000480FFF7B5FF49462046FFF785FF20465146FFF781FF27B120469DF82010FFF7BC
S325000015207BFF26B120469DF82810FFF775FF25B1204629460C9AFFF77DFF6068C8EB000079
S32500001540BDE8F08710B586B000240393089B00940493019402942346FFF7BEFF06B010BD1C
S325000015607FB50093089B01939DF824300293BDF8283003930B9B04930123FFF7ADFF07B08C
S325000015805DF804FB2DE9F04115460F464DF6DD51044698464668FFF76BFF2046A91D89B2EC
S325000015A0FFF766FF03210B4A2046FFF743FF09212046FFF731FF20463946FFF759FF25B1F4
S325000015C0204629464246FFF735FF6068801BBDE8F08100BF13FA08002DE9F04104469046CA
S325000015E01E46BDF820504768FFF756FF41462046FFF73EFF20463146FFF70EFF26B1204625
S325000016003146069AFFF716FF9DF81C102046FFF703FF20462946FFF72BFF25B120462946E3
S32500001620099AFFF707FF6068C01BBDE8F08100BF70B504460E4604214568FFF7EDFE2046B1
S325000016400C21FFF7E9FE20463146FFF7E5FE6068401B70BD2DE9F047044688460421914613
S325000016609A469DF82460BDF82C504768FFF7D4FE0D212046FFF7D0FE41462046FFF7CCFEBE
S3250000168049462046FFF7F4FE51462046FFF7C4FE2046BDF82010FFF7EBFE26B120463146D4
S325000016A00A9AFFF7C7FE20462946FFF7E1FE25B1204629460C9AFFF7BDFE6068C01BBDE8D1
S325000016C0F08700BF2DE9F84304468846042116469946BDF820504768FFF79EFE0A2120460E
S325000016E0FFF79AFE20464146FFF796FE26B1204631464A46FFF79EFE20462946FFF7B8FE88
S3250000170025B120462946099AFFF794FE6068C01BBDE8F8832DE9F0470446884604219146C9
S325000017209A469DF82060BDF828504768FFF774FE0B212046FFF770FE41462046FFF76CFE27
S3250000174049462046FFF794FE20465146FFF790FE26B120463146099AFFF76CFE20462946F9
S32500001760FFF786FE25B1204629460B9AFFF762FE6068C01BBDE8F08783682DE9F041054607
S325000017801BB1144B144C1E6802E0144B144C1E68274605F11408386850B1414614300622F8
S325000017A002F0EAFC3F6807F29477F4E703F2947423684BB10130B042F8DB3146094802F091
S325000017C061FD0020BDE8F08125600120C5F89437BDE8F0819C072000700920008407200024
S325000017E07409200092FA080007B5002200920921134600F0B3F803B05DF804FB38B50546E5
S325000018000C4611B10C2905D838BD296300F0D8F86C6338BD0248BDE8384002F033BD00BF8F
S325000018201FFB08008368094A0949002B08BF0A4613684BB1834204D1D0F894370120136076
S32500001840704703F29472F3E7184670477009200074092000D0F8901738B500250446C0F828
S32500001860805721B1006815F013FEC4F890570023C4F88837C4F88C3738BD00BF73B5024657
S325000018800C468CF061FF156820B10668114640682246B0472846214602B0BDE8704015F019
S325000018A0F7BD00BF70B58CB0044601A80E46154604AA2021FFF7D2FD324601A82B46002145
S325000018C08BF0B2FE20469DF80810039A8BF0A4FE0CB070BD38B504460D4600F071F800231B
S325000018E0636320462946BDE8384000F09BBA00BF38B50A4B0A4C0546002918BF1C46206859
S3250000190058B129461430062202F036FC08B9206838BD246804F29474F1E738BD700920008B
S3250000192074092000074A08B511680346006800F00DF830B91868044B1968BDE8084000F0C1
S3250000194005B808BD700920007409200021B1814202D0D1F89417F9E708467047F7B5056BED
S325000019600446082D089E1BD80C2919D800960D4E56F82550A847636B226B9A4210D0E26B1C
S32500001980A56823631AB113B9204600F0C3FC3DB1236B2BB9204603B0BDE8F04000F09EBE68
S325000019A003B0F0BDF4530800014B1868704700BF98072000014B1868704700BF8807200080
S325000019C0D0F87C1738B5044629B1006815F060FD0023C4F87C37636A00251A68596890680C
S325000019E08BF0CAFFA36A1A68596890688BF0C4FFE36A1A68596890688BF0BEFF656304F19A
S32500001A0044006587E563256429464FF4E56202F015FC84F8745784F8845738BD094B1B6859
S32500001A2023B183420CD0D3F89437F9E7064B1B6823B1834204D0D3F89437F9E718467047E9
S32500001A4001207047700920007409200020B1007AD0F1010038BF0020704700BF38B54FF4A8
S32500001A6005710546006815F049FD044620B90849084802F007FC09E040F8045B05F11401A8
S32500001A80062202F08BFB95F83830A372204638BD7DFA0800B2FA0800F8B505460E4617465F
S32500001AA08CF052FE0368FBB12846FFF7D7FF0446D0B1B6F5007F4FF00003C360068207D941
S32500001AC00A484FF4007102F0DDFB4FF400732382394604F11200228A02F060FB2846214681
S32500001AE0BDE8F840FFF7CABEF8BD00BFFFFA080007B5002200920A211346FFF72FFF03B045
S32500001B005DF804FB70B504460E4615468CF01CFE03686BB12046FFF7A1FF014640B10322D7
S32500001B2006610575C2602046BDE87040FFF7A6BE70BD00BF07B50022009208211346FFF7B3
S32500001B400DFF03B05DF804FB036C828B10B586B093420446B0F84C3029DA009300F14E03DA
S32500001B60019300F154030293B0F860302246039300F164030493A36C03C815F0E5FC10B148
S32500001B800F4802F07FFB236C2046E16D0133236400F004FDB4F84C2082B1636A1968886804
S32500001BA05968002306B0BDE810408BF0D5BE2BB94F2106B0BDE81040FFF78CBE06B010BDC0
S32500001BC031FB08007FB5436A04461A680D46906859688BF0D1FEAA7894F83830934206D007
S32500001BE020463C2104B0BDE87040FFF773BE94F87437D4F878079D02401BB0F5806FD4F810
S32500001C007C6799BF80B2002101214FF48060354411B143F0800301E003F07F030093A37EF0
S32500001C2002900193E18B03952046002300F0FEFB0423636304B070BD38B5436A04461A68CE
S32500001C400D46906859688BF097FEAB7894F838209A4202D020463C2102E0A98821B120469F
S32500001C60BDE83840FFF736BEAB79190643D594F8841703F07F03994235D12046298BEA6912
S32500001C8000F098F8224B1B6823B12046298BAA79FFF738FF2B893BB92046E18B94F8382032
S32500001CA000F0A4FB032312E0228C9A4211D3A26A116888685168174A126822B99B024FF445
S32500001CC07A72B3FBF2F200238BF046FE0723636303E020460121FFF7FDFD94F884370133D8
S32500001CE084F8843738BDB5D32046E18B00F07EFB0323636338BD2046298BEA6900F05AF85F
S32500001D000123C4F880372046BDE8384000F01ABB940720007C09200070B505460C46164660
S32500001D208CF012FD0368BBB12846FFF797FE034690B162780D2A4FF0020208BFA179C26061
S32500001D40627818BF002101760261466119462846BDE87040FFF792BD70BD00BF70B50D465F
S32500001D60D0F87C170446164629B1006815F090FB0023C4F87C37002384F87437AA0AC5F342
S32500001D800903002B14BF1346531EC4F8785784F875372068294615F0B1FBC4F87C0710B906
S32500001DA0C4F8780770BD3146D4F87827BDE8704002F0F4B9F8B5184B04461B680D46174652
S32500001DC0D0F88C0713B108B1144812E0D4F88867301A854211D90BB9AB0000E02B469919AF
S32500001DE0C4F88817206815F089FBC4F8900720B90B48BDE8F84002F045BAD4F88C37D4F8C9
S32500001E0090072A461844394602F0C8F9D4F88C371D44C4F88C57F8BD94072000C5FA080061
S32500001E20EFFA080001234187C36370474B1E0B2B0CD8DFE803F00D0D0D0D0D0D0D060D0D2A
S32500001E400609418FFFF746BDFFF77EBEFFF7D6BC704700BF4B1E30B587B004460B2B68D82F
S32500001E60DFE803F06D061C6D566D6D6D6D6D6D6D2046FFF7EFFC334BB4F86C071A7884F863
S32500001E803820511C19700090D4F87007A37E0190E18B204600F010FB012348E09378101D18
S32500001EA084F83830FFF7D2FD014668B93B230090638794F83850127B0290019203902A466A
S32500001EC0204600F02DFB31E0118A20465269FFF7E3FD2068FFF76EFD054628B1204607B0B1
S32500001EE0BDE8304000F0E8B92068FFF75DFD034680B2E18B0090A07E194401902B4694F8DE
S32500001F00382002950395204600F00AFB05230EE09278A07E00213C23019084F838206387CC
S32500001F20009102910391204600F080FA0823636305E0204607B0BDE83040FFF75FBC07B043
S32500001F4030BD00BF780920004B1E10B50B2B15D8DFE803F0181818181806180B181818102A
S32500001F601146BDE81040FFF767BE3E21BDE81040FFF7B0BCBDE81040FFF7E6BDBDE81040BB
S32500001F80FFF73CBC10BD00BF4B1E10B504460B2B2DD8DFE803F0313131310631310C3131BA
S32500001FA0122720461146BDE81040FFF70BBE20463E21BDE81040FFF78DBC94F8743794F8B5
S32500001FC075279A420AD1636A1A68596890688BF0D3FC2046BDE8104000F0B4B9013384F8EE
S32500001FE0743710BD2046BDE81040FFF7ADBD2046BDE81040FFF702BC10BD00BF38B54B1EB7
S32500002000044615460B2B49D8DFE803F04C4C4C064C4C4C424C4C4C44436A1A6859689068E4
S325000020208BF0AAFCAA7894F838309A4202D020463C2102E0A98821B12046BDE83840FFF794
S3250000204049BCEB8863B92046A98AAA69FFF7B2FE0123C4F880372046BDE8384000F072B95F
S32500002060228C9A4211D3A26A1168886851680E4A126822B99B024FF47A72B3FBF2F2002390
S325000020808BF06AFC0723636338BD20460121D4E73E21D2E7BDE83840FFF756BDBDE83840D6
S325000020A0FFF7ACBB38BD00BF7C0920004B1E10B504460B2B26D8DFE803F02A2A2A2A062A26
S325000020C02A0C2A2A122020461146BDE81040FFF779BD20463E21BDE81040FFF7FBBB94F86E
S325000020E07537A3B9636A1A68596890688BF044FC2046BDE8104000F025B92046BDE810408B
S32500002100FFF722BD2046BDE81040FFF777BB10BDF0B585B00446481E15461F460A9E0B286F
S325000021205AD8DFE800F05F5F5F5F065F23315F384D53636A1868596880688BF01DFCD4F8EE
S32500002140781731B12046294605B0BDE8F040FFF739BDA07E3D230190638794F8382000914F
S3250000216002910391204600F061F93BE0E56A2868696880688BF000FC20463946324605B046
S32500002180BDE8F040FFF7EABD20463E2105B0BDE8F040FFF79FBB636A1A68596890688BF0A5
S325000021A0EBFBA07E00213D236387019094F83820009102910391204600F038F9082303E0E8
S325000021C0D4F8783773B1022363630BE0204605B0BDE8F040FFF7B8BC204605B0BDE8F0403A
S325000021E0FFF70CBB05B0F0BD4B1E0B2B70B5044616461ED8012240F6DF6502FA03F31D406E
S32500002200E5B9DD050DD4980613D5A36A1868596880688BF0B1FB20463146BDE87040FFF74C
S325000022200BBDC18B90F8382000F0E0F80323636370BD2046BDE87040FFF7E0BA70BD00BF8C
S325000022402DE9FF414D1E0B2D044698460A9F29D80126AE4040F6BF5535404DBBB30512D433
S3250000226076061FD5C56A2868696880688BF084FB204641463A46FFF771FD204604B0BDE8E6
S32500002280F04100F019B83D23438790F838200095817E029501910395294600F041F9082323
S325000022A0636305E0204604B0BDE8F041FFF7A6BA04B0BDE8F08100BF30B585B0D0F87857ED
S325000022C00446B5F5806F4FF0000204D8D0F87C07ADB213460BE00E4B80F874271B8823B127
S325000022E0C18B15461944104602E018461D4619460093A37E0390019394F8382002952046C0
S32500002300002300F00DF90223636305B030BD00BF9007200010B504468CF016FA03687BB169
S325000023202046FFF79BFB014650B10423C360638F03820023E3632046BDE81040FFF79EBA8A
S3250000234010BD00BF10B50446FFF73AFB002161632046BDE81040FFF765BD00BF2DE9F0474D
S3250000236086B00446DDF838A004F14E05002004F154062064A164A4F84C20194606222846ED
S32500002380DDF83C90DDF84080119F01F007FF51460622304601F002FFB4F84C30C4F85C9063
S325000023A08DE8680004971FFA88F3039394E803002246A36C15F0C8F810B10B4801F062FF54
S325000023C02046E16D00F0EAF8B4F84C204AB1636A196888685968002306B0BDE8F0478BF02F
S325000023E0BBBA06B0BDE8F08731FB0800F0B500F16405044689B00E4605A817464FF4E161F7
S325000024002A46FFF72BF8394605A8FFF711F90C2204F11403206601920290A18900930395C7
S3250000242020463246FFF79AFF09B0F0BD2DE9F04395B0044606A80F4604F1640690460CAAFD
S32500002440202199469DF87050FFF708F89DF8742006A87F21FFF726FA324609A84FF4E161D0
S32500002460FEF7FCFF0023089800939DF81C30029001931F98BDF87830049009A80393414693
S325000024804A462B46FFF7E6F8206604F11403009315F0800F4FF00D03019304F10E0302902D
S325000024A0A1890396204614BF3A460022FFF756FF15B0BDE8F08300BFF0B593B0044604A8B3
S325000024C01D460E4617460AAA2021FEF7C7FF2A4604A8002104F16405FFF7E4F92A4607A8A5
S325000024E04FF4E161FEF7BAFFBDF8603007A89DF814200093199B39460193069BFFF7E2F81B
S325000025000A2204F11403206601920290A1890093039520463246FFF721FF13B0F0BD00BF5A
S325000025202DE9F04192B0044604A80E4604F1640517460AAA20219846FEF790FF9DF8642097
S3250000254004A87F21FFF7AEF92A4607A84FF4E161FEF784FF9DF81430069800930190BDF820
S3250000256068301B980293039007A839464246BDF86030FFF7CFF8206604F1140300930B23D7
S32500002580019304F10E030290A189039520463246FFF7E4FE12B0BDE8F08100BF38B50446C3
S325000025A00D468CF0D1F80368C3B12046FFF756FA034698B101220561C260226E426194F8F6
S325000025C0741794F875278A4218BF41F08002027619462046BDE83840FFF750B938BD00BFDF
S325000025E02DE9F74388464FF4F361814617461E4614F084FF04460025002859D029464FF49F
S32500002600F36201F01BFE314604F114000622A560C4F80090C4F80480A78101F0BFFD4FF404
S32500002620FA63E3834FF6FF73A576A58323842046FFF7F8F82046FFF79FF808B91E4813E0D7
S3250000264094E8030004F10E0214F026FF002802DA1A4801F017FE206819492246194B19F09C
S3250000266003FB606258B9184801F00CFE2046FFF7D9F82068214614F00BFF002019E020685D
S3250000268012492246124B19F0EFFAA0620028EAD0206810492246104B19F0E6FAE062002847
S325000026A0E1D00021009120460A460B46FFF756F9204603B0BDE8F08358FB080071FB080065
S325000026C0351B00008CFB08009AFB0800E9170000B2FB0800F11A0000C5FB080010B50446E1
S325000026E020B9264801F0CEFD204610BD436A1A68596890688BF040F9A36A1A6859689068BA
S325000027008BF03AF9E36A1A68596890688BF034F9636A1A68596890688BF056F9606A0EF03B
S325000027203FFFA36A1A68596890688BF04DF9A06A0EF036FFE36A1A68596890688BF044F9CF
S32500002740E06A0EF02DFF2046FFF76CF8D4F8701711B1206814F09CFED4F87C1711B120685B
S3250000276014F096FED4F8901711B1206814F090FE2068214614F08CFE012010BD45FB0800B9
S32500002780F8B51546044620B90F4801F07BFD2046F8BD0E4A1068174610B9D4F8806756B17D
S325000027A0D4F88C278A4206DC2A601846D4F8901701F0F4FC01E000232B603B6813B120464E
S325000027C0FFF748F80120F8BD45FB08009407200010B5044620B9074801F054FD204610BD38
S325000027E0054B1B6813B9D0F8800708B1D4F88C0710BD00BF45FB080094072000014B18607A
S32500002800704700BF8C0720003C292DE9F0478EB0814616461C4602D04B2915D071E018463A
S32500002820FFF780F8B36804461BB1052B69D10C2100E00B212046FFF7F1F8002861D0002290
S3250000284000922046134641E0588840BA80B202F0A7FE169F04F11002804603A8103F394662
S32500002860FEF7FAFA00284CD003A806A9FEF746FC002846D09DF819300A3B032B41D8DFE825
S3250000288003F0020B05080121032407E00121052404E00021062401E00021042406F1180A38
S325000028A05046FFF725F8054698B19DF819300A2B02D1FFF713FF0CE0284606A93A46FFF768
S325000028C02BFA284606AA214600230093FFF746F817E09DF819300A2B01D00C2B11D10A4B15
S325000028E01B680BB909480AE0484696F82F1042465346FFF775FE05460028DDD1044801F00D
S32500002900C1FC0EB0BDE8F0878C072000D8FB0800FFFB080010B5044620B9044801F0B2FCB7
S32500002920204610BD4160012010BD00BF45FB080010B5044620B9074801F0A4FC204610BDCD
S32500002940036B23B94FF47A735943890A0184012010BD00BF45FB080010B5044620B9054819
S3250000296001F090FC204610BD036B03B98183012010BD00BF45FB0800F8B50D4617460446D7
S3250000298020B9114801F07EFC2046F8BD066BC6B9D0F8701721B1006814F07AFDC4F87067F2
S325000029A0C4F86C572068294614F0A8FDC4F8700710B9C4F86C0704E03946D4F86C2701F014
S325000029C0EDFB0120F8BD00BF45FB080010B5044620B9084801F056FC204610BDFFF71EF872
S325000029E038B1236B23B92046FFF7B8F9012010BD002010BD45FB080010B5044620B9054819
S32500002A0001F040FC204610BD036B03B9C183012010BD00BF45FB080013B50022044620B9E0
S32500002A20064801F02FFC204605E0009202211346FEF794FF012002B010BD00BF45FB08009E
S32500002A4008B502468BF080FE80E80600012008BD08B58BF079FE0021082201F0EFFB012028
S32500002A6008BD00BF034680689A890844511A9860998170472DE9F04F8DB08146A1F1040801
S32500002A800C4601F17C0A1E469DF85870049258F8045F002D39D0049A2AB3EA7B05F110013F
S32500002AA095F80EB008A801F079FB062205F1080106A801F073FBE87A297A6A7AAB7A0090DE
S32500002AC0287B0190687B0290414801F0DBFB012306AA2D684846019308ABCDF800B02146DD
S32500002AE000F08AF9D5E72FB16B68179AD31AB3F5167FD2D83EB1304605F10801062201F0EC
S32500002B003BFB0028C9D02D68C3E7D045BFD1D4F88080AA46B8F1000F56D0049B0BB1CFB15F
S32500002B2006E067B1D8F80430179AD31A022B06D9D8F80430179AD31A022B0DD80AE0002E17
S32500002B403ED0304608F10801062201F015FB0028E5D035E0002300E00123DBB20593D8F8B2
S32500002B600030BAF1000F02D1C4F8803001E0CAF80030179B08F1100B0622009320465946CD
S32500002B80012300F08DF9059A72B168B998F80E30179A009301230193029208F108024846C3
S32500002BA021465B4600F0B0F840460EF0F9FCBAF1000F02D1D4F88080ACE7DAF80080A9E728
S32500002BC0C246D8F80080A5E70DB0BDE8F08F00BFE70509007FB50DF10F03009304AA05AB41
S32500002BE000F06EFA50B99DF80F30012B06D1049B1878083818BF6FF0000001E04FF0FF30A3
S32500002C0007B05DF804FB00BF8A6830B587B01C461378DB0702D44FF0FF301DE00DF10F03B6
S32500002C2004AA009305AB00F04BFA0028F3D19DF80F30112BEFD105990729ECDD049A95786A
S32500002C40D37843EA0523442BE5D12929E3DD137A022BE0D12432226007B030BD10B586B0B5
S32500002C608C680DF10E0300930DF10D03019304AA05AB00F0DFF910B14FF0FF343AE020463D
S32500002C8002F044FA30B1BDF80E3040F60602934208D117E019482146062201F06DFA0028D7
S32500002CA0F1D0E9E748F2DD629342E5D1059B3F2B0DDD049B9A793A2ADED193F82830882B2A
S32500002CC005D0D9E71C21042218230E2003E04021102230230820059C8C42CDDB049908449C
S32500002CE0194401F049FA04460028C5D10448054901F0C8FA204606B010BD00BF3E5C08009E
S32500002D006AFC08004DFC08002DE9F84F9DF828800E46B8F1040F93461C469DF82C9011D1D6
S32500002D201A785978987841EA0205DB7805431D4359D00A4010401840FF2854D0474603F007
S32500002D401F0A27E0B8F1060F4DD15A7893F80FA01B781343A2781343E2781343227913435B
S32500002D6062791343A2791343E2791343227A1343627A1343A27A1343E27A1343227B1343BF
S32500002D80627B1343A27B13435AEA03032BD010270AF01F0A07F114000EF0F6FB054630B3BF
S32500002DA059460830062201F0F9F90C9B05F1100085F80E806B60EF7321463A4601F0EEF987
S32500002DC0B9F1000F09D00FFA8AFA56F82A302B6046F82A500020BDE8F88FD6F880302B608E
S32500002DE0C6F88050F6E74FF0FF30BDE8F88F6FF01A00BDE8F88F00BF2DE9F74F9DF83060E3
S32500002E009A46042E9DF834300D460192009305D19AF803C0B1460CF01F0B07E0062E35D1BF
S32500002E209AF80FC04FF010090CF01F0B009B13B155F82B4001E0D5F880404FF000081CB312
S32500002E40A27BB2421DD1514604F110004A4601F093F9B0B9019904F10800062201F08CF926
S32500002E60074670B92368B8F1000F07D1009A12B145F82B300DE0C5F880300AE0C8F8003092
S32500002E8007E0A0462468DAE7274605E04FF0FF3702E020460EF084FB384603B0BDE8F08F31
S32500002EA0042AF8B50E46154604D1CA782F4602F01F0207E0062A01D00020F8BDCA7B1027AA
S32500002EC002F01F0213B150F8224006E0D0F8804003E0A37BAB4203D02468002CF9D1EBE7E8
S32500002EE0314604F110003A4601F046F90028F3D1069B20466360F8BD062200F18A03084641
S32500002F00194601F04BB900BF062200F184030846194601F043B900BF06228A3001F03EB9D5
S32500002F200622843001F03AB902312DE9F8438EB2314691469846BDF8205004F017FC074662
S32500002F4030B9194940F24A22184801F09BF927E00221FFF787FDBC6849460622A01D01F070
S32500002F601DF941462046062201F018F99DF824304FEA15286BB1330A04F10E0023736673F4
S32500002F800B49062201F00AF984F814806575162303E00E2384F80C8065730A9A1C4414602C
S32500002FA03846BDE8F88300BF2AFC0800A1FC080018540800F0B585B000250A9EADF80650C5
S32500002FC0B8B12C46475B0235102D3C44FAD100200D5A023010282C44FAD1002103918DF849
S32500002FE00F300B4602A9595A0233082B0C44F9D100E004463346B018C11A012903D933F8E4
S32500003000021B0C44F8E75308D20706D516F813308DF80630BDF806301C44A3B203EB14445D
S3250000302004EB1444E04380B205B0F0BD08460EF0B7BA00BF2DE9F0418D8917460D2D98463E
S325000030408C6803DC4FF0FF30BDE8F081227B637B43EA0223B3F5C06F03DB002604F10C0169
S325000030600CE0152DEEDD154804F10E01062201F083F80028E6D1012604F1140108784B7809
S3250000308043EA0020B0F5014F0AD16219881D904201F10403D6D808794A79194642EA002085
S325000030A0069B02313960611A0D44C8F800501880079B00201E70BDE8F08100BF1854080090
S325000030C0F0B587B01E460DF10E0300930DF10D03174604AA019305ABFFF7ACFF002836D1DB
S325000030E0BDF80E30B3F5006F31D1059D132D2EDD04990A781309042B29D14C8802F00F0296
S3250000310064BAA4B2AC424FEA820201DA059400E01DDC132A059C01D9A24206DD00940E49D3
S3250000312014230E4801F0AEF811E0CB885BBAC3F30D0323B108490A4801F0A4F807E04D7A94
S325000031400C9B1144A21A396032601D7001E04FF0FF3007B0F0BD00BF1AFC0800381909000F
S3250000316084FC080090200EF00FBA00BF10B501290ADD0478437894424FEAC30301D19942FC
S3250000318003DA1844C91AF2E7002010BD38B5438A044603F00303012B0AD1036AB3B1203022
S325000031A000F088F800210422054601F047F803E080680EF0E1F9054645B1A389E289013328
S325000031C09BB29A42A38105D2E38103E0238A002501332382284638BD10B50446084681B1E1
S325000031E0638A03F00303012B04D104F1200000F055F801E00EF0D4F9A3890020013BA38138
S3250000320010BD6FF0010010BD38B505460C4608461422002101F012F8AB682046A360AB89D4
S325000032202946E381EB89082223822B8A638201F0B5F80023E3716B8A002003F00303012B89
S3250000324004BFAB8AA38138BD2DE9F8431668038904469E420F4690461BDB00254FF0240920
S325000032606389AB420FD9206809FB0500438A590706D5721C04D03946013E1437FFF7C4FFCA
S325000032800135ADB2ECE723890020C8F80030BDE8F8836FF00D00BDE8F88300BF38B5054661
S325000032A00C4608460422002100F0C8FF2B6823602C6038BD03680BB11A68026018467047B3
S325000032C02DE9F8430F46904699460446B0B1037ABBB10068B8B1866800233546237295E88A
S325000032E0050039469047B8F1000F02D048463946C047AD68B542F2D1012323720020BDE882
S32500003300F8836FF00F00BDE8F88300BFF8B51646027A05460F464368AAB1D868FFF736FF49
S32500003320044698B100210C2200F088FF286884E8C00010B9A4602C60F8BD8368A360846092
S325000033402C600020F8BD6FF00F00F8BD6FF01A00F8BD00BF38B50C4605468068FFF716FF79
S32500003360206050B100210C2200F068FF236801221A72236800205D6038BD6FF01A0038BD1B
S32500003380036870B593E850001B7A0546E3B17CB1A1688C4205D12146F0680024FFF71CFF8A
S325000033A006E08B68F068A360FFF716FFA468EEE70C222868002100F041FFB0682968FFF739
S325000033C00BFF2C60002070BD6FF00F0070BD00BFF8B51746027A04460D4690E848005AB3BA
S325000033E013B96FF01D0014E09A689342F9D15A688A4224D11A68BA4221D1F0681946FFF74A
S32500003400EBFE00202060F8BD99684A68AA4203D00B46002BF8D10EE00A68BA42F8D1226802
S32500003420F0688A428A6808BF23609A60FFF7D4FE00210846ECE7F8BD6FF00F00F8BD6FF0EB
S325000034401D00F8BD00221346FFF73ABFFFF738BF11B1042902D8704700F04EB8014800F08E
S3250000346011BF00BF1FFB080038B50D46002104460A4600680B4616F04FFC3DB163691A6854
S325000034805968906800232A468AF066FA0523236238BD00BF38B503890D460E2B8CBF4FF40C
S325000034A04042002243F4805304461A43006801212B4616F031FC3DB163691A68596890688E
S325000034C000232A468AF048FA0423236238BD00BFC36910B5052B04460AD8042908D8054A8E
S325000034E052F823309847236AE2699A4218BFE36110BD00BF24540800002110B504460A46EF
S325000035000B46006816F008FC63691A68596890688AF032FA00236362236210BD38B5038982
S3250000352004460D460E2B8CBF4FF44042002243F480531A4301212B46006816F0EDFB636961
S325000035401A685968906800232A468AF005FA0223236238BD0421FFF7BBBF00BF08B50EF070
S3250000356021F80323B0FBF3F202FB1300431C6420584380B208BD00BF30B587B004460021AB
S325000035800A460B46006816F0C7FB2269218B4FF0FF3300930131019389B215682183029560
S325000035A0002503950495127B20680592012216F02BFB0123236207B030BD00BF30B587B08C
S325000035C00446002213460221006816F0A5FB2269218B4FF0FF3300930131019389B2156836
S325000035E021830295157A206803955268049200220592012216F008FB636A013363620323BA
S32500003600236207B030BD00BF034631B1032907D9042902D14189FFF73DBF1846FFF718BF9E
S32500003620704700BF034651B103290BD9042906D1818909B1FFF718BF4189FFF72BBF184616
S32500003640FFF706BF704700BF4B1E032B0AD8DFE803F002020B0B012901D1FFF7AFBF4189BC
S32500003660FFF718BFFFF7F4BE704700BF032908D0042902D0012902D17047FFF79FBFFFF758
S32500003680E7BE70474B1E10B50446032B0BD8DFE803F00E0E020EFFF761FF01462046BDE8B1
S325000036A01040FFF73BBFBDE81040FFF7D1BE10BD4B1E10B50446032B12D8DFE803F0151509
S325000036C00215436ADB0603D1BDE81040FFF754BFFFF744FF01462046BDE81040FFF71EBFBF
S325000036E0BDE81040FFF7B4BE10BD00BF08B58BF03BF8438913B140680DF052FF00F010F8F2
S32500003700002008BD38B505468BF02EF804682C60047B0C70017A1170426800201A6038BDBD
S3250000372008B58BF021F84FF0FF32026003220272024A034642600020588108BD1E54080058
S325000037402DE9F0411D460E46904607468BF00CF804463846FFF7CAFF6800266084F80C8046
S32500003760257260810DF008FF606048B90849094800F088FDFFF7D4FF6FF01A00BDE8F08197
S325000037800699628900F00AFD0020BDE8F08100BFDFFC08006910090070B50E4605468AF00A
S325000037A0DBFF04460021282200F048FD256026818AF0DAFF2061211D206816F015FA00283C
S325000037C002DA0E4800F05EFD20680D4922460D4B18F04AFA0546606148B90B4800F052FDDD
S325000037E020462946282200F029FD284670BD20460021FFF76DFE204670BD00BFB7FC0800FE
S3250000380055350000D3FC08009AFB080038B50446002520B90D4800F035FD204638BD4369F1
S3250000382045601A68596890688AF0A6F863691A68596890688AF0C8F860690DF0B1FE20466E
S325000038402946282200F0FAFC012038BD45FB08004068704710B5044620B9054800F012FDD2
S32500003860204610BD0021FFF733FE012010BD00BF45FB080010B5044620B9054800F002FDAE
S32500003880204610BD0121FFF723FE012010BD00BF45FB080010B5044620B9064800F0F2FCAD
S325000038A0204610BD418182810221FFF711FE012010BD00BF45FB08000C2A14BF042222227A
S325000038C05BBA30B59BB214468A420DD2055B9D420DD005196D886DBAADB20435ADB22C44D9
S325000038E02A44A4B292B2EFE74FF0FF3030BD204630BD00BFEC2910B51DD990F8EC30632B75
S3250000390019D190F8ED30822B15D190F8EE30532B11D190F8EF30632B0DD1F0238B420AD2AA
S32500003920C45CFF2C07D0944208D0C4186478023423449BB2F2E74FF0FF3010BD184610BDD0
S325000039402DE9F04385B01E469DF8343081460C460C9F002B38D00846012311462278FFF736
S32500003960ABFF451C30D023189B88B3F5807F02D100F10C0504E0B3F5407F25D100F108051D
S3250000398004EB050802A84146062200F007FCBDF80A30728831885A40BDF808304B401A43C8
S325000039A0B188BDF80C304B4013439BB263B93B7806228DF8083002AB009209EB0200414639
S325000039C000F046F93B786355002005B0BDE8F0832DE9F04786B01D469DF83C3082460C4659
S325000039E090460E9F002B6AD00B78012B67D1062201F11C06314602A800F0D0FBBDF80A30EB
S32500003A006A8829885A40BDF808304B401A43A988BDF80C304B4013439BB263B93B78062247
S32500003A208DF8083002AB00920AEB0200314600F00FF93B782377414620463D22FFF75AFF36
S32500003A40B0F1FF3F80463AD023189B78012B36D10622C61C04EB060902A8494600F09EFB66
S32500003A60BDF80A306A8829885A40BDF808304B401A43A988BDF80C304B4013439BB2F3B943
S32500003A803B78F0078DF8083009D5052208F102060DF1110002A9A35D8DF8103002E006222A
S32500003AA004A802A900F07AFB062204AB00920AEB0200A11900F0CCF83B7889F800300020F2
S32500003AC006B0BDE8F08700BF2DE9F04385B01F469DF8343081460C460C9D002B38D108462F
S32500003AE0012311462278FFF7E7FE421C30D023189B88B3F5807F02D100F10C0604E0B3F50B
S32500003B00407F25D100F1080604EB060802A84146062200F043FBBDF80A306A8829885A403B
S32500003B20BDF808304B401A43A988BDF80C304B4013439BB263B93B7806228DF8083002ABF9
S32500003B40009209EB0200414600F082F83B78A355002005B0BDE8F0832DE9F04786B01F4666
S32500003B609DF83C3082460C4690460E9D002B6AD10B78022B67D1062201F11C06314602A8F8
S32500003B8000F00CFBBDF80A306A8829885A40BDF808304B401A43A988BDF80C304B40134324
S32500003BA09BB263B93B7806228DF8083002AB00920AEB0200314600F04BF83B78237741464A
S32500003BC020463D22FFF796FEB0F1FF3F80463AD023189B78012B36D10622C61C04EB060958
S32500003BE002A8494600F0DAFABDF80A306A8829885A40BDF808304B401A43A988BDF80C309F
S32500003C004B4013439BB2F3B93B788DF80830F30709D5052208F102060DF1110002A9A35D9A
S32500003C208DF8103002E0062204A802A900F0B6FA062204AB00920AEB0200A11900F008F8AE
S32500003C403B7889F80030002006B0BDE8F08700BF70B50578447814EB05242CD0E44302326C
S32500003C608D1CA4B21144A9420DD015F8026C023515F8032C02EB0622A41A002CDCBF04F1A5
S32500003C80FF34A4B2EFE704999A1C02310B4493420CD012F8025C023212F8031C01EB052162
S32500003CA00C44E10344BF0134A4B2F0E7E443A4B244702312037070BD73B505460E4614463E
S32500003CC0D3B1062205F10801684600F067FABDF8022023786188208851408DF80030BDF836
S32500003CE0002042401143A088BDF8042042400A4392B2EAB92B721BE0C388B3F5007F17D11F
S32500003D00062205F11201684600F048FABDF80230628821885A40BDF800304B401A43A18882
S32500003D20BDF804304B4013439BB20BB93378AB74002002B070BD00BFF0B50446442C08466D
S32500003D40069F11469DF81C601A469DF82050059B18D008D8432C23D1059706960795BDE8A7
S32500003D60F040FFF735BE40F2222C644511D00CF1010C644514D1059706960795BDE8F040D9
S32500003D80FFF7DEBD059706960795BDE8F040FFF7E3BE059706960795BDE8F040FFF794BE5B
S32500003DA00020F0BD2DE9F3418C89164664BA9846A4B240F2C653A4F116020D4692B29A42B8
S32500003DC0089F13D81C4B0E31062218689B8800906846ADF8043000F0CFF910B14FF0FF30DC
S32500003DE026E0AC8A162164BAA4B200E00E21B4F5014F04D1EC89043189B264BAA4B2B8F1F7
S32500003E00000F01D0A8F800106FB148F68E039C4207D026339C4204D01333E11A4B424B4103
S32500003E2000E001233B7016B13480002000E0304602B0BDE8F08100BF38EF0800F0B587B04A
S32500003E400B780546852B0C460C9E9DF8347005D10B7A012B61D101F10A055CE0862B0DD124
S32500003E600B7C032B11BF01F110054D7C023501EBC5052B78012B50D102354CE0872B14D110
S32500003E80002102A8102200F0D9F9102202A805F1080100F071F900283FD0237E012B14BF51
S32500003EA0002504F11A059FB937E0882B07D1182A33D00B7E022B30D101F11A052BE0892BFD
S32500003EC02BD191F82830022B27D101F12A0522E01DB3294602A8062200F060F933787288B8
S32500003EE08DF80830BDF80A3031885A40BDF808304B401A43B188BDF80C304B4013439BB290
S32500003F005BB9062202AB0092A01C2946FFF7A0FE33782B7001E0002FDBD1002007B0F0BDDB
S32500003F2070B586B01B780A9C1B096588042B6DBAADB202D1A5F1430303E0062B07D1A5F2EF
S32500003F4022239BB2012B8CBF0023012300E0002303F0FF06ABB1A38804F1080600965BBADB
S32500003F6002959BB2083B9BB201930B9B03939DF8303004939DF83430059323460E9CA047E0
S32500003F8000E0304606B070BD2DE9F043ADF5097D1F4608AE814688461046002115461022BD
S32500003FA0002400F04BF900211022384600F046F9304600214FF4007200F040F9444505DAC6
S32500003FC019F8043006F814300134F7E701A80AF03FFC4FEA081201A831460AF051FC28463B
S32500003FE001A90AF01FFC01A80AF032FC294601A880220AF045FC384601A90AF013FC0DF503
S32500004000097DBDE8F08300BFF0B5AFB0044602A80F4608AD00211646152200F00FF9214628
S3250000402002A81022002400F0B9F84FF0070C0CFB04F102A800F05AF828550134182CF6D1E2
S32500004040002439460822684600F0A8F829190EA8002202F07BFE69460EA802F075FD3019B8
S3250000406008346946082200F099F8182CE9D12FB0F0BD00BF70B59AB00D4606466846144645
S325000040800AF032FF684631462A460AF03FFF204669460AF0DFFE1AB070BD00BF10F001037C
S325000040A022D00B68C3EB500323F000431F2B08D80120116800FA03F30B4215D10B43136096
S325000040C07047B3F1804F0FD2173B1F2B8EBF00201068D8401060086803440B601368012008
S325000040E043F400031360704700207047082391FBF3F301F00701C218C05C5278C1F108016E
S3250000410002EB002080B2084100F0FE00704700BFF0B585B005460A9E0127B2FBF3FC00AC70
S325000041200B9803FB1C223C44825C3846013704F8012C6246002AF0D10EB1864204DC013C26
S3250000414000AA0DF1FF3309E0301A20443023844202D004F8013BFAE73046F0E79C4209D0E0
S325000041608D4204F1FF3405F101059CBF627805F8012CF3E705B0F0BD002330B5934208D0F6
S32500004180C55CCC5CA54206D303F10103F6D9012030BD002030BD4FF0FF3030BD032A30B5C1
S325000041A004D980EA010313F0030302D0044600231AE04C4204F00304151BA34203D0CA5CD5
S325000041C0C2540133F9E7C41819440022AB1A032B03D98B58A3500432F8E705F0030225F08B
S325000041E003052C442944E2E7934203D0CD5CE5540133F9E730BD00BF8318994230B502D212
S325000042008B18984203D3BDE83040FFF7C7BF81420BD25342541E0519214419442B441AB1F3
S325000042208C5C9C54013AFAE730BD06D90023934203D0CC5CC4540133F9E730BD072A30B596
S3250000424001D9830701D0024416E029B1CCB244EA042444EA044400E00C46034643F8044BBE
S32500004260D51A0544032DF9D8131F02F0030223F0030304331844E6E7904202D000F8011BA5
S32500004280FAE730BD0FB470B5C2B040F2011146AB002401AD53F8042B2846009300F0F2F894
S325000042A00646B44204DA285D013489F0C5FAF8E7304642B0BDE8704004B070470CB407B563
S325000042C004AB53F8042B019300F0DCF803B05DF804EB02B0704700BF0EB403B503AA52F8C7
S325000042E0041B019200F0E4F902B05DF804EB03B0704700BFC9B2024610F8013B8B4203D073
S32500004300002BF8D11846704710467047013910B511F8013F044633B110F8012B1AB19A4230
S3250000432008D3F5D909E0227812B133B1002010BD002BFBD04FF0FF3010BD012010BD00BFD9
S325000043400023CA5CC2540133002AFAD1704700BF0023C25C0AB10133FBE71846704700BF73
S325000043600023F0B5CC5CD51AC7184CB1C65C3EB1934209D0A6420BD303F10103F2D90AE04A
S3250000438015B13B7813B134B10020F0BD002CFBD04FF0FF30F0BD0120F0BD00BF10B502447E
S325000043A004460346934205D011F8010B03F8010B0028F7D118460021D21AFFF73FFF2046A9
S325000043C010BD00BF0022C9B210B5034610F8014B8C4218BF13460CB11A46F6E7184610BD29
S325000043E0F0B5274E047803460130355DDFF890C005F0200505F0FF07002DF3D12B2C01D1BF
S32500004400034605E02D2C08BF034614BF0027012762B91A78302A15D15A7802F0DF02582AC9
S3250000442007BF10220233082201330CE0102A0AD11878302807D1587800F0DF00582802D138
S32500004440023300E00A2200201E46013334781CF8045015F0440F02D17FB140420DE015F07A
S32500004460040F01D0303C03E0AD074CBF573C373C9442F1D202FB0040E6E701B10E60F0BDCE
S325000044805E5408002DE9F74F01394518411E4FF0000A80468D4238BF4FF0FF3504465746DB
S325000044A0DFF808921178002900F0EE80252906D0AC4202F1010298BF21700134F2E75178AE
S325000044C023290ABF4FF0010A0132023211782D2901D0302900D101320021107816460132CB
S325000044E058B319F800C00CF0040C0CF0FF0BBCF1000F09D030380144107819F800004007A6
S3250000450044BF0A204143E8E72E2816D132465F460A205278013682B1DFF890B11BF802C070
S325000045201CF0040F09D0303A1744727819F80220520748BF47433246EBE732786C2A08BF60
S3250000454001363078692850D00AD858286DD001D8502809E0632800F08380642845D089E064
S32500004560732815D00FD8702840F084801A6803F1040B4B494B4B502814BF08461846082331
S325000045800093019068E0752842D078284DD071E0454A03F1040B1B68002B08BF1346581E16
S325000045A007B909B1234613E010F8012F002A68D0AC4204F1010498BF04F8012CF4E710F83A
S325000045C0012F3AB1AB4201F1FF3198BF1A7001330029F4D15C182022A34252D0AB4203F10A
S325000045E0010398BF03F8012CF6E71A6803F1040B002A07DAAC4204F101049CBF2D2304F836
S32500004600013C5242274B009101932046294607E0244A03F1040B00910192204629461A6884
S325000046200A23FFF775FD04442BE0BAF1000F06D02246302002F8020B3078607014461A68E9
S3250000464003F1040B96F800E01648154BBEF1580F08BF03468DE80A00204629461023E0E7B1
S32500004660AC4203F1040B1B6804F1010498BF04F8013C06E0AC4204F1010498BF04F8010C08
S325000046809B465B46721C0DE7AC4295BFC8EB0400C8EB05002170297003B0BDE8F08F00BF9F
S325000046A03C5408004D54080008F408005E54080010B50C466FF0004113462246BDE8104088
S325000046C0FFF7E0BE164B10B51B6823B35A6822B3DC681CB3A168013A5A60D96031B92AB11B
S325000046E021881048C1F30B01FFF7CCFD21686FF3173121600B0E6FF30713E370C1F30B01D8
S325000047000023A36011B90848FFF7BCFDE37843F01003E37002E01C4600E01446204610BDFF
S3250000472080092000F7FC080033FD080000210A2200F0B6BA4260C26001608160704700BF6E
S32500004740002330B5044618468B4207D0E25C1AB1551E01302A40FAE70133F5E730BD00BF4B
S325000047600EB417B505AB044653F8042B03C80193FFF788FE411C02D06368984202DB002382
S32500004780636004E01B1A636023680344236003B0BDE8104003B07047002213B501920F4A37
S325000047A0034612680C46BAB110B109B1884205D1194622460A48FFF765FD0DE012689042AE
S325000047C00AD8914208D800F03FF901A900F05AFA036864F31733036002B010BD8009200091
S325000047E0A8FD080070B5A0F5804503460C460846054E1146054AB5F5C04F98BF3246FFF727
S325000048005DFD204670BD00BFE2FD08003699090010B512F1FF3205D3845C8B5C9C42F8D0E9
S32500004820E01A10BD002010BD38B503460C4641B138B145780846194602352A462C44FFF7E4
S32500004840ADFC204638BD00BF10B50B4648B1012A07DD44780234A24203DBBDE81040FFF7D2
S32500004860E3BF184610BD00BF37B50D4600241022013401A900F014FA2B1903F8010C019B4C
S32500004880581C1B780BB1062CF1D1A31F5842584103B030BD70B50A4600230B4C3A25C65C56
S325000048A003323609A65D02F8036CC65C0133062B02F8015C06F00F06A65D02F8026CEED1FF
S325000048C000234B74084670BDC80009002DE9F341089D019117461E46044608B9002025E032
S325000048E00129FBDD437802339942F7DB05F1020822786378DD2A07D0204601A900F062F965
S3250000490004460028F4D1E9E79845F5DA3946A01C0322FFF731FC0028EED135B13146601D9A
S325000049202A46FFF729FC0028E6D1204602B0BDE8F08100BF012B2DE9F04F87B082460D4647
S3250000494016469B464FF0000841DD002A41D01446474682F80080002D37D00AEB08035AF80D
S3250000496008905968B9F1000F08D1102102A82B461A4A4D46FFF7A2FC02A902E019EA050FCB
S3250000498019D008460191FFF7E3FC25EA090507448146019905B10137BB450FDD204609F170
S325000049A001024C44FFF7FAFC2DB1204602210C4AFFF784FC044408F10808CCE72DB12046F7
S325000049C00221084AFFF77AFC0444A01B02E0404600E0104607B0BDE8F08F00BFE5FD0800CB
S325000049E0F6FD0800151E0900144A38B51368044615460BB35A681B6801889A4206D1104878
S32500004A00C1F30B01BDE83840FFF73CBCC1F30B0189B211B90B48FFF735FC2B68DA68A260AF
S32500004A205A68DC6001325A6023686FF3173323601B0E6FF30713E37038BD00BF8009200076
S32500004A4056FD080088FD080050B1064B1B681A68904204D89B680C2202FB0030704700202E
S32500004A60704700BF80092000018910B5082917D8DFE801F00D050505050505050900032A84
S32500004A800BDD002010BD43899A42FADA05E03BB1002AF6D06FF00E0010BD6FF00D0010BD8B
S32500004AA06FF0160010BD00BF1FB50C4641780378009181780191C278102102922046034AC7
S32500004AC0FFF7FCFB204604B010BD00BFD6FD0800F8B50188044600228A422FD204EB82067C
S32500004AE0F3684BB35842184000F052FAC0F11F0C0CEB421704EB8705E86900F035FAF368B7
S32500004B00B0F1010EDEF1000050EB0E0000FA0CFC83EA0C03F360EB6959421940084600F070
S32500004B2037FAA388C0F11F00013BA380EB6900EB47105940E961F8BD0132CDE74FF0FF3061
S32500004B40F8BD00BF838801F01F0270B5013B4E098380044600EB860306F01F0601200D46B6
S32500004B609040DA69AD0A5040D86100F0FDF904EB8504D0F1010038BF0020E36800FA06F624
S32500004B807340E36070BD00BF83884A0970B5013300EB820401F01F06838002F01F020123B5
S32500004BA0890AE56903FA06F600EB81003543E561C16893401943C16070BD00BFB0F90400D9
S32500004BC0704700BF0A6810B5012A01DC002010BD4478A31C9A42F9DB20446FF001031B1B05
S32500004BE002301344012B0B60F0DD427802329342ECDB10BD10B501290DDD03784478934286
S32500004C0002D1631C8B4207DBA31C18446FF001031B1B1944EFE7002010BD00BF10B51C46D3
S32500004C20FFF7E8FF08B9002010BD4378A342FADB10BD00BFF8B50F460E490024002818BF66
S32500004C40014625460C481646FFF71CFBB5420CDA0A480134795DFFF715FB102C03D108483F
S32500004C600024FFF70FFB0135F0E70548BDE8F840FFF708BBE1C20900FEFD0800F8FD08006E
S32500004C80652A090010B501240368C3F30B3323B118460134FFF7D8FEF6E70C6010BD00BF25
S32500004CA0F0B52B4F0478034601303E5DDFF8A0C006F0200606F0FF05002EF3D12B2C08BFE1
S32500004CC0034605D02D2C08BF034614BF0025012562B91A78302A15D15A7802F0DF02582A15
S32500004CE007BF10220233082201330CE0102A0AD11878302807D1587800F0DF00582802D170
S32500004D00023300E00A2200201F4601333C781CF8046016F0440F02D19DB1404211E016F074
S32500004D20040F01D0303C03E0B6074CBF573C373C9442F1D202FB0044844200D225B12046BE
S32500004D40E2E719B10F60F0BD4FF0FF30F0BD00BF5E540800F0B585B0012B06461C460291C3
S32500004D60039219D900254FF0FF37029B03997BB1B7FBF4F202A803FB02556243009103A92E
S32500004D805242B2FBF4FE04FB1E2200F007F8ECE7B1FBF4F42544356005B0F0BD2DE9F74F89
S32500004DA01D0C9BB2140C92B203FB02F963436A43019329F000464FEA03480C9B28F000474A
S32500004DC04FEA024C4FEAD37B2CF0004A37440BEBD97927F0004609EBD87808EBDC7C564410
S32500004DE00CEBD77726F0004A07EBD67623F00047BA44019F120C06EBDA762AF0004A02EB22
S32500004E00174316F0010F05FB04340CBF4FF0000C4FF0004C04EB56064CEA0A0306600B60E4
S32500004E2003B0BDE8F08F00BF38B515461C4663B1FF2A0AD801B942B9207065701DB12A46B5
S32500004E40A01CFFF7ABF902352C44204638BD00BFFF2A70B5049E1D4606D8941CB44203DC7F
S32500004E60BDE87040FFF7E0BF284670BD2DE9F04117461E460C4600EB0108B442C4EB0805A7
S32500004E8007D3284639463246FFF76AFA20B1013CF3E70020BDE8F0812846BDE8F08100BF12
S32500004EA02DE9F04188B00AB10023137000231C464DF803400433202BFAD1012711F8013B45
S32500004EC008AD5C0903F01F0605EB840407FA06F654F8205C354344F8205C002BEED10168DA
S32500004EE001250C460DF1200811F8013B5E0903F01F0708EB860605FA07F756F8206C37427A
S32500004F0004D0002BEDD12546012610E0202BE8D0F9E74F090DF1200801F01F0C08EB87074E
S32500004F2006FA0CFC57F8207C1CEA070F05D129782B4601350029ECD105E002B1117000221D
S32500004F40013303F8012C03609C4214BF2046002008B0BDE8F08100BF002310B10133400868
S32500004F60FBE7C3F120007047084BC2B282B0995CC0F307229A5C0A44C0F30741000E595CF2
S32500004F80185C0A44104402B0704700BF5E550800FFF7E2BF08B500F021F8034608461946BF
S32500004FA0BDE8084000F00CB890E80C001A600268536070470068704700604060704700BFE3
S32500004FC00B6841600360086003685860704700BF034608461946FFF7F3BF00BF4068704797
S32500004FE008B500F039F828B100210A46BDE80840FFF756BE08BD00BF37B5154600F02CF8AD
S3250000500080B100240BE0002201A9FFF749FEAC4209D00198013403782C2B08BF0130037867
S32500005020002BF0D1002003B030BD00BF13B500F013F870B10024037853B1002201A9FFF7B6
S325000050402FFE0198013403782C2B08BF0130F2E7204602B010BD00BF70B504460D4609B984
S32500005060002070BD0846FFF773F906460028F7D094B1237883B1204629463246FFF77CF827
S3250000508028B9A35D3D2B02D10136A01970BD14F8013B002BFBD1EBE72846BDE870400AF003
S325000050A00DBB00BF036913F4085F0CBF00200120704700BF036901F0070123F007030B4337
S325000050C003617047CB0801F00701012202FA01F1C25C22EA0101C154704700BF038910B5CA
S325000050E001464BB1FFF766FF0446FFF75DFF0B892046013B0B8110BD184610BD024608B5B1
S32500005100FFF766FF13890133138108BD08B504490622FFF731F8D0F1010038BF002008BD16
S32500005120385C080008B504490622FFF725F8D0F1010038BF002008BD445C0800044B1B7860
S32500005140012B02D1002000707047FFF749BF00BF0C082000044B1B78012B02D100200070A1
S325000051607047FFF749BF00BF0C082000044B1B78012B02D1002000707047FFF757BF00BF8E
S325000051800C082000044B1B78012B02D1002000707047FFF761BF00BF0C0820000346014416
S325000051A0074810B58B4208D213F8014B5440E4B250F8244084EA1222F4E7104610BD00BFA2
S325000051C03857080003460144054810B58B4204D013F8014B6240825CF8E7104610BD00BF59
S325000051E0385B0800CB0801F00701C05C084100F0010080F001007047012201F00703C908D5
S3250000520002FA03F3405C1840704700BF2DE9F84333EA230628BF4FF48056174B0C46DDF80C
S3250000522020801968994644B152B1A3899A4207D3D21A238B51F82340F5E72046BDE8F883E6
S325000052400025AEB1A789A168BF1ABE4238BF3746404611443A46B844FEF7A0FF238BD9F8D4
S325000052600020F61B52F823403D440CB10022E8E72846BDE8F88300BFCC072000212928D990
S325000052808389082B0BD1837B1909042901D1C37B19E0062919D11B01C17BDBB211E0812BFC
S325000052A017D1252915D9038A082B12D1837C1909042901D1C37C06E0062906D11B01C17C7D
S325000052C0DBB243EA11139B0800E000231370012070470020704700BF044B1A680B8B52F8A2
S325000052E023300BB11946F9E708467047CC0720002DE9F047A0B089469046014620B102788E
S3250000530012B11948FEF7BEFF002680256C466F46464520D016F00F0A07D120462946134ADB
S325000053203346FEF7CBFF04442D1A002D08DD204629460F4A19F80630FEF7C0FF04442D1AD6
S32500005340BAF10F0F05D10B4869468025FEF79AFF6C460136DCE7BC4203D006486946FEF704
S3250000536091FF20B0BDE8F087EAFD0800EFFD0800F8FD080048700900F8B516468E420546E6
S325000053800F461A462AD30C46FB08F208D11A01291CD9FF210133D7004FEAC30C0CF1FF3C91
S325000053A0934202D2E9540133FAE7644505D821460134284600F018F8F7E7B74205D8394629
S325000053C00137284600F010F8F7E7F8BD21460134284600F009F8B442F8D9F8BD0024FFF705
S325000053E0CBFF2746D0E700BFCB0801F00701012202FA01F1C25C1143C1547047C0F3C2204A
S32500005400072802D0024B185C70470020704700BF6E5C08000A231438B0FBF3F0C0B2704775
S325000054200023064A995C884201D1184670470133062BF7D14FF0FF30704700BF685C080070
S32500005440024608B50846FFF7E5FF101AC0B208BD10B51446FFF7F4FF00EB8400C0B210BD02
S3250000546038B50D4611461446FFF7EAFF281A830708D11423B4FBF3F48008A04228BF4FF054
S32500005480FF3038BD4FF0FF3038BD00BF052802D8024B185C70470020704700BF685C0800DF
S325000054A02DE9F8430E288CBF4FF440484FF00008B1F5C05F48EA010884461FFA88F811D0BE
S325000054C0B1F5005F12D0B1F5205F13D0B1F5805F02D00020BDE8F88348EA000C1FFA8CF06D
S325000054E0BDE8F8830C26114C282706E00626104C502702E002260F4CA0272546A946013507
S32500005500614699F800003A46FFF7AAFF002808DB99F800C048EA0C0848EA002080B2BDE863
S32500005520F8832B1BB342E9DBD3E700BF5C5C0800685C08005A5C080041F2CE23994203D155
S32500005540431E0D2B03D909E0C82802D906E00E2807D00523584300EB510070474FF0FF3005
S32500005560704740F6B4107047F8B5DFF830C006460F46002434F80C5035436FEAC5456FEAC8
S32500005580D545ADB2284600F00BF8874203D00234082CEFD1FF252846F8BD00BF4A5C0800B1
S325000055A000F46053B3F5805F13B5044602D1C0B202B010BDB3F5405FC0F3022205D1074B9B
S325000055C000F00F045021185D03E0FFF717FF0146E0B202B0BDE81040FFF73ABF685C0800B2
S325000055E000F46053B3F5805F10B5044607D0FFF7D7FF40F4805004F440440443A4B2204642
S3250000560010BD00BFF8B50646084617468C46FFF707FF04463846FFF703FF621C054601D12B
S32500005620FF20F8BD431CFBD0604631465022FFF717FF002809DA384631465022FFF710FF54
S325000056400028EDDB23462C461D466FEA04546FEA145444EA051444EA002080B2F8BD00BF69
S3250000566010F4404200F4605306D1B3F5805F20D0B3F5C05F34D124E0B2F5404F30D1B3F5FA
S32500005680405F08D100F00F03052B29D8C0F30313052B20D924E000F44052B2F5805F02D085
S325000056A0B2F5005F1CD1C2B2E02A19D8B3F5805F04D110F4E06F13D100207047B3F5C05F51
S325000056C004D100F4E060B0F5807F08E000F42053B3F5005FF0D100F4E060B0F5407FEBDDA0
S325000056E00120704773B504460D46FFF7B9FF00285ED114F4404307D12F4BE6B22F4A0E2ED8
S325000057008CBF16461E460BE0B3F5404F07D12A4BE6B22B4A0E2E94BF16461E4600E0264E59
S325000057202046FFF73DFF034604F46052B2F5805F07D1009014212846224A3346FEF7BEFDB2
S3250000574020E0B2F5405F1FD0D0121F49B2F5C05F51F820100ED11D4A04F47C541C492846A4
S32500005760B4F5C85F14BF0C4614468DE818001421184A04E0019128461421174A009333462A
S32500005780FEF79CFD284614E0284604F00F02052AC4F3031496BF11490021895C052C8EBF70
S325000057A000220E4A125D8DE8060014210C4AE7E7002002B070BD00BFE1C20900D8000900DB
S325000057C0DB000900DE000900785C0800AB830900A9290900E3000900EA000900685C08005F
S325000057E0F200090038B505460C46FFF77BFF28B920461421024A2B46FEF760FD204638BDC8
S325000058000101090008B500F46053B3F5405F014602D0B3F5205F01D100F034F800F46053F7
S32500005820B3F5005F0DD10849C3B200F4E060B0F5007F32BF043B0433A0F500701843014354
S3250000584089B2084608BD00BF00D8FFFF00F46053B3F5005F12D0B3F5405F03D100F00F00B5
S32500005860FFF714BEB3F5205F0AD1C3B2C0F30220032894BFA3F1080003F10800C0B27047CF
S32500005880FF20704708B500F46053B3F5005F024622D0B3F5405F0AD100F00F00FFF7F6FD7D
S325000058A002F4E06242F46042104382B214E0B3F5205F10D100F4E062C3B2B2F5806F32BF1D
S325000058C0083B0833A2F580621A436FEAC2426FEAD24292B200E0FF22104608BD00F460539D
S325000058E0B3F5405F03D1C0F30310FFF7CFBDB3F5205F0AD1C3B2C0F30220032894BF03F181
S325000059000800A3F10800C0B27047FF20704700BF10B50146FFF7A4FE002859D111F44044A0
S3250000592001F46052CBB20CD1B2F5805F02D1013B0D2B04E0B2F5C05F4AD1033B082B47D83E
S3250000594048E0B4F5404F43D1B2F5405F0ED1254BC1F3031201F00F019A5C5B5C03F11001BC
S325000059608A4237DC1032934232DD33E0B2F5805F09D0B2F5C05F22D0B2F5005F2CD0B2F549
S32500005980205F2CD010BD184C025D022A94BF0021911E8B420FD0DD2A8CBF0022023293427E
S325000059A009D001300C28EFD1A52B13D003F0F303222B0DD10EE00C2290420BD308E00C223A
S325000059C0094900200C5CA342F6D001309042F9D3002010BD012010BD06220249F1E7022223
S325000059E00249EEE7685C08005C5C08005A5C080030B585B003240390029103980299DD229B
S32500005A00FFF7F8F8054648B1092303A9019302AA0094044B00F06EF80028EED0284605B0FC
S32500005A2030BD00BF13FA0800F0B585B015461E4603900291032703980299DD22FFF7DAF8B9
S32500005A400446D0B1022303A9019302AA00970C4B00F050F80028EED061780231052905D940
S32500005A60A379AB4202D1B31C994206D0039B0B440393029B591A0291DCE7204605B0F0BD13
S32500005A8042EF080030B585B003240390029103980299DD22FFF7AEF8054648B1012303A97B
S32500005AA0019302AA0094044B00F024F80028EED0284605B030BD00BF42EF080030B585B0A9
S32500005AC003240390029103980299DD22FFF792F8054648B1042303A9019302AA0094044B84
S32500005AE000F008F80028EED0284605B030BD00BF42EF0800F8B5069D17464278044695423A
S32500005B000E460ADB6378002002331C4433681A1B3B6813443B603460F8BD194602302A4607
S32500005B20FEF72AFB0028EDD125449DF81C30AA789A42E7D10120F8BD30B503290FDD847890
S32500005B40C378057843EA04234478043344EA0524944201D18B4203DD1844C91AEDE7002061
S32500005B6030BD00BF70B50C461146032205461E46FEF702FBA8B9EB78013B042B26D8DFE8EB
S32500005B8003F0070325050B00022307E0042305E0E6B10120208070BDC6B1032323800120CF
S32500005BA070BD28460A490322FEF7E6FA70B96EB1EB780833092B05D00A2B05D0082B06D1F4
S32500005BC00723EBE70823E9E70923E7E7002070BD3EEF080070B50C4616463149032205468F
S32500005BE0FEF7CAFAC0B9EB78062B57D8DFE803F04C0406080B0E110040234CE080234AE00C
S32500005C0044F2400347E04FF4814344E04FF4805341E04FF400433EE0284622490322FEF7E5
S32500005C20ABFA20B9EB78012B39D1402230E028461D490322FEF7A0FA30B9EB787BBB0EB904
S32500005C40102328E0082326E0284618490322FEF793FA60B9EB78012B03D015D3022B03D0F9
S32500005C6070BD4FF4806213E04FF4006313E028460F490322FEF780FA80B9EB78012B06D048
S32500005C8002D3022B06D070BD0120206070BD0222226001E004232360012070BD002070BD5F
S32500005CA046EF080013FA08003EEF08004AEF080042EF080038B503220C461A490546FEF7D6
S32500005CC05BFA18B9EB78022B2AD816E0284616490322FEF751FAEB7818B9012B1CD0206012
S32500005CE018E00B2B14D8DFE803F006080B130D0813131313130F002308E00120206038BD7A
S32500005D00022303E0042301E04FF48073236001E0002038BD012038BD18464FF48072226093
S32500005D2038BD00BF3EEF08004AEF080049F2D0130340181C18BF0120704700BF10F00F0021
S32500005D4018BF0120704700BF20F4804040280ED080280CD010280AD0B0F5807F07D0B0F5FF
S32500005D60805F04D0B0F500435842584170470120704700BF431E012B08D9082806D0B0F1EC
S32500005D80040CDCF1000050EB0C007047012070470138C0B20A2803D8024B33F81000704753
S32500005DA000207047B00109002DE9F04F87B01B4E03AC82468946306871689B46337A119D64
S32500005DC003C4904603A82370129FFEF7C1FA024603A92846FEF7E2F903A8FEF7B9FA0446B2
S32500005DE0514628180622FEF7D9F94946A01D28440622FEF7D3F90023019304F10C034046F5
S32500005E0059462A46009701F083FA109839461022FEF7C4F907B0BDE8F08F00BF1F0109009A
S32500005E202DE9F04FBFB02F4C04AD9046834604F110028A4699464B9E2F462068083454F8A9
S32500005E40041C2B46944203C31D46F6D12068A2881860A3791EACAA80AB715946524606232F
S32500005E60002000F047F8014606222046FEF796F9594652460623012000F03CF80146A01DCB
S32500005E800622FEF78BF9494642462023002000F031F8014604F10C002022FEF77FF920238E
S32500005EA049464246012000F025F8014604F12C002022FEF773F93846FEF74AFA00940AAC8B
S32500005EC04C220346019249993A4602940396489801F0F6F94A9821463246FEF75FF93FB024
S32500005EE0BDE8F08F490109001346014AFFF73ABE46EF080070B500249C420DD00D5D165D75
S32500005F00B54201D10134F7E718B1AE4288BF114602E0AE4238BF1146084670BD2DE9F04364
S32500005F20B9B0254C0746206890469946A288A379029002A88DF80E300E46439DADF80C20AD
S32500005F40FEF706FA024602A918A8FEF727F902A8FEF7FEF9044618A8494620442022FEF7B4
S32500005F601DF9414618AB202204F120001844FEF715F9394618AB062204F140001844FEF715
S32500005F800DF9314618AB062204F14600184404AEFEF704F9409818AA419904F14C0300960A
S32500005FA0019501F01DFA429831462A46FEF7F6F839B0BDE8F08300BF420109002DE9F04344
S32500005FC0BBB017463A4A3B4E814610689846938802903068B288ADF80C30B379049002A8FF
S32500005FE00D46429C8DF81630ADF81420FEF7B0F9024602A91AA8FEF7D1F802A8FEF7A8F975
S3250000600049463AAB2A46461C184400F8805C1AA83044FEF7C3F870193AAB0344C51C414601
S3250000602003F8807C1AAB03443F0A5F703AAB1844224600F87E4C1AA828442544FEF7AEF8A2
S3250000604043991AA8284406AC0622FEF7A7F830231AAA0193AB1D44984599009401F0C0F957
S32500006060214620224698FEF799F804A8FEF770F9024604A91AA8FEF791F804A8FEF768F9CC
S3250000608005461AA8284404F120011022FEF786F822461AA8002305F1100101F0DBF94798CE
S325000060A021461022FEF77AF83BB0BDE8F08300BF280109002E0109002DE9F047BAB0374C74
S325000060C007469A462068A388354C029020689146ADF80C30A288A37906AC049002A88DF8CC
S325000060E016300E46ADF81420FEF732F9024602A94FF020081AA8FEF751F802A8FEF728F9ED
S3250000610005461AA8394628440622FEF747F831461AAB0622A81D1844FEF740F8484605F1EF
S325000061200C0351461AAA0094CDF8048001F058F9214642464398FEF731F804A8FEF708F946
S32500006140024604A91AA8FEF729F804A8FEF700F905461AA8429928441022FEF71FF83946C1
S325000061601AAB062205F110001844FEF717F831461AAB062205F116001844FEF70FF8224696
S325000061801AA8002305F11C0101F064F9449821461022FEF703F83AB0BDE8F0873501090009
S325000061A03B0109002DE9F04F87B01A4E03AC82468946306871689B46337A119D03C4904610
S325000061C003A82370129FFEF7C3F8024603A92846FDF7E4FF03A8FEF7BBF80446514628186D
S325000061E00622FDF7DBFF4946A01D28440622FDF7D5FF284604F10C0142465B46009709F0D2
S325000062004DFE109839461022FDF7C8FF07B0BDE8F08F00BF1F0109002DE9F04FBFB02F4C17
S3250000622004AD9046834604F110028A4699464B9E2F462068083454F8041C2B46944203C3B7
S325000062401D46F6D12068A2881860A3791EACAA80AB715946524606230020FFF74BFE0146B2
S3250000626006222046FDF79AFF5946524606230120FFF740FE0146A01D0622FDF78FFF49460B
S32500006280424620230020FFF735FE014604F10C002022FDF783FF2023494642460120FFF773
S325000062A029FE014604F12C002022FDF777FF3846FEF74EF800940AAC4C220346019249996E
S325000062C03A4602940396489809F046FD4A9821463246FDF763FF3FB0BDE8F08F4901090070
S325000062E02DE9F04FD7B04C4D03ACDDF880A180460F469B46286869682B7A0EAD03C4914623
S32500006300237016AC202351465A460020629EFFF7F1FD01460EA82022FDF740FF3F480EA9F4
S325000063202022FEF7E5FF202351465A460120DFF804A1FFF7DFFD014620222046FDF72EFF43
S32500006340214637482022FEF7D3FF36481EA94022FEF7CEFF20230EA8402106AA01F07AF872
S32500006360202206A93048FEF7C3FF03A8FDF7F0FF024603A90EA8FDF711FF03A8FDF7E8FF35
S3250000638002460EA92948FEF7B3FF03A8FDF7E0FF04460544062341463A460020FFF7AAFDE2
S325000063A0014606222846FDF7F9FE50462946A51D0622FEF79DFF41460EAB1D443A46062345
S325000063C00120FFF797FD014606222846FDF7E6FE504629462EAD0622FEF78AFF49460EAB89
S325000063E0062204F10C0018441234FDF7D7FE22460EA90F48FEF77CFF234606A820210EAA0D
S325000064008DE8600000F0ECFF619829463246FDF7C5FE57B0BDE8F08FA601090060010900EA
S325000064206C010900780109007E01090088010900335B090090010900F0B500F15F050446CF
S3250000644099B00F461646294610226846FDF7A6FE002110222846FDF7F1FE204604AB39461D
S32500006460324600F00DF940B1694604A81022FDF783FED0F1010038BF002019B0F0BD00BFA7
S325000064801346014AFFF76EBB42EF080010B5BDE8104000F001B800BF2DE9F34101F0030199
S325000064A00129044690461D46099F0A9E15D042D390F85D6000F15F0390F85E20002D08BF4D
S325000064C01D4600951020414642EA0622FAF71EF9D0F1010038BF002030E0102204F12D016D
S325000064E03846FDF75BFE414607F110001022FDF755FE38462021324609F068FE08984FF44A
S325000065008071324609F084FE15B1E778237903E094F85D7094F85E3043EA07275F34204626
S325000065203946324609F074FE3DB1284621463A46FDF734FE01E0002000E0012002B0BDE831
S32500006540F08100BF2DE9F34101F00301012904461746099E0A9D01D029D265E01BB190F842
S325000065600380037903E090F85D8090F85E30304604F12D01102243EA0828FDF70FFE394610
S3250000658006F110001022FDF709FE30462A46202109F01CFE08982A464FF4807109F038FE14
S325000065A0414604F15F002A4609F032FE3AE090F85D2090F85E3043EA02239DB20F2D0CD86B
S325000065C0C218DD2102F1600082F85F100021C3F10F021025FDF732FE14E06A0712D0C21841
S325000065E025F00705DD21ADB282F85F105A1C184402F0070200210835C2F108026030ADB257
S32500006600FDF71CFE102004F15F03009339462A46FAF7FEF840B90835ADB284F85E502B0A82
S3250000662084F85D30012000E0002002B0BDE8F081012200F001B800BF7FB51446032503908E
S32500006640029103980299DD22FEF7D4FA064640B1009503A9019402AA034BFFF74BFA002839
S32500006660EFD0304604B070BD46EF08000139002905DB435CFF2B03F101024254F6D07047AB
S3250000668037B50C46057C417C022C41EA052101F1040109D0032C0ED0012C13D100930E303A
S325000066A0102300F0ADFD04E000930E30102309F0F5FB012007E000930E3010230193F9F7A6
S325000066C063FFF6E7002003B030BD00BF2DE9FF4102F10804064604AD006888461F4645F8CC
S325000066E0040D34F8082C72B154F8040C083434F80E3C41468DE88100284600F00BF80028EC
S32500006700EFD0012000E01046039B336004B0BDE8F08100BFF8B50D46D0F800C00646BDF81A
S325000067201C1018461F4600F021F82B880446984207DD21461A460C48FDF7A4FD6FF017007A
S32500006740F8BDACF800200CF10400ACF8027006993A46FDF723FD33680020234433602B8808
S325000067601C1B2C80F8BD00BFC6010900CB0703D5073020F003007047043070472DE9F0410F
S3250000678088B006468846174668460021102200241D46FDF753FD18F8040024F0010308A99B
S325000067A014F0010F0B4404F101040CBF0022082233F8201C00FA02F2102C42EA010223F884
S325000067C0202CE8D1287804AC6978AA7801EB0021002389B242EA0722DFF87CC03DF80370E0
S325000067E079400F0AC9B23CF817703CF811107FBA4F40BFB282EA070119530233102B01D0DC
S325000068003A46EBE7BDF800200023D10B41EA4202E118023B13F10E0FCF8917FA82F292B265
S32500006820CA81F2D130706B787370AB78B370032323F0010208A90A4413F0010F32F8101CF4
S325000068400CBF0022082241FA02F2F2540133102BEED108B0BDE8F081985C0800826A2DE9AC
S32500006860F0410E4612F00301074625D00B4600240133F818032B80F82B4003EB0200C1EBDF
S325000068800000F5DD97F82D8097F82C304FEA084848EA036897F82F30B86248EA030897F8FF
S325000068A02E30D7E90845384648EA032800F030F8E8FB0045C7E90845D7E908454FF0FF32D2
S325000068C004EA020000230F2405EA0301A5FB0445001B61EB05016FF00E044D42CF1704FB3E
S325000068E00757A1FB044524183D4445F10005012D08BF102C02EA040200D30F3A130E337054
S32500006900130C7370130AB370F270BDE8F08100BF7FB5856A0446013DC5F38106B6B92D1161
S32500006920314610226846FDF789FC2B0A8DF80E3010202B0C8DF80F508DF80D302D0E2146DA
S325000069406A4623188DF80C50F9F7CEFEB60006F110032344264499785A78090241EA0241BC
S32500006960DA78307C41EA020343EA006004B070BD10B510220446FDF711FC00230022C4E941
S3250000698008230023A36210BD2DE9F843836A0646884603F003031746002F2ADD18F8011BC1
S325000069A00133F218013F032B82F82B10B26A02F10102B26202DC002FF0D11AE096F82D9037
S325000069C096F82C304FEA094949EA036996F82F30D6E9084549EA030996F82E30304649EAD0
S325000069E00329FFF795FFE9FB00450023C6E90845D2E7BDE8F88300BF2DE9F0438FB08146AC
S32500006A00884617461846294908221C46169EFDF7B3FB054650B1204625490822FDF7ACFBAE
S32500006A20002814BF00256FF000053BE0331202A849468DF800308DF80160FFF799FF414683
S32500006A4002A80622FFF7A0FF394602A80622FFF79BFF694602A80222FFF796FF214602A8CF
S32500006A600822FFF791FF042202A804F10C01FFF78BFFA6F1100202A804F11001FFF784FF3C
S32500006A8002A801A9FFF7EAFE042204F1080001A9FDF772FB28B1179801A90422FDF77EFBCB
S32500006AA000E0012528460FB0BDE8F083A05E0800985E08002DE9F0478EB0864602A8179ECB
S32500006AC0199C89463719714610379A463B0A8DF800309046189D8DF80170FFF749FF4946B6
S32500006AE002A80622FFF750FF414602A80622FFF74BFF694602A80222FFF746FF114902A824
S32500006B000822FFF741FF514602A80422FFF73CFF169902A83246FFF737FF2DB124B1294658
S32500006B2002A82246FFF730FF02A801A9FFF796FE1A9801A90422FDF731FB01200EB0BDE814
S32500006B40F08700BFA05E08004B782DE9F0410E78CA781B0443EA06634C7913430A792404A6
S32500006B608E7844EA0264CA798D7943EA0623144344EA052484EA1316002706F00F3674407B
S32500006B8083EA061684EA164292B2544086EA024282EA940505F033356A4084EA850582EAA4
S32500006BA0152303F0FF135A4085EA03234FEAF37383EA020404F0AA3462405C404FEAF272A4
S32500006BC0614B066802374568103086EA3416654006F03F0C102F05F03F0808F5E0780CF5FE
S32500006BE0C07C53F8288053F82CC088EA0C0CC6F3052808F5807853F828808CEA080CC6F38E
S32500006C000548C6F3056608F1800853F8288053F826608CEA080C8CEA060CC5F3052606F5C8
S32500006C20A07653F826608CEA060CC5F30546C5F3056506F1C00605F1400553F826608CEA7B
S32500006C40060C53F825608CEA060550F8046C82EA050282EA060650F8085C06F03F0C0CF53A
S32500006C60E07C85EA321553F82CC084EA0C0C05F03F0404F5C07453F824408CEA040CC6F3EC
S32500006C80052404F5A07453F824408CEA040CC6F30544C6F3056604F1C00406F1400653F81C
S32500006CA0244053F826608CEA040484EA0604C5F3052606F5807653F8266084EA0604C5F3CE
S32500006CC00546C5F3056506F1800653F8266053F8255084EA060484EA05047FF472AF4FEA77
S32500006CE0740484EA020000F0AA30424044404FEA720284EA122303F0FF135C4082EA032254
S32500006D0084EA920303F033335C4082EA830383EA144080B2434084EA004083EA101202F0DE
S32500006D200F32534080EA0212CA70100E0870100C4870100A1A0E0A711A0C4A711A0A88709D
S32500006D408A71CB71BDE8F081A85E08002DE9F0419EB0904600233E4F3E4DDA5D3D4E013A2F
S32500006D60D41002F007020C5D55F82220144202AA0CBF002401249C540133382BEDD1054690
S32500006D800024354F002108226846FDF757FAC4F10F03B8F1000F08BF2346304AD15C00238E
S32500006DA0A1F11C0C5A181B2BCCBF38201C2082421EA8A8BF0CEB0302024412F8700C10AAC9
S32500006DC0D0540133382BEDD100230620D95D1EAA114411F8392C6AB193FBF0F11EAA0A448A
S32500006DE000FB113156F821C012F8781C41EAAC0102F8781C0133302BE8D19DF802300134D9
S32500006E009DF8002008351B0443EA02639DF80620102C43EA02039DF8042043EA022345F858
S32500006E20083C9DF803309DF801204FEA034343EA02639DF8072043EA02039DF8052043EAA4
S32500006E40022345F8043C9DD11EB0BDE8F08100BFC8660800A866080000670800306708001F
S32500006E602DE9F04F85B01C46A2F58373012B83468A4615460E9EDDF83C90DDF840809DF8FC
S32500006E8044700BD8204610490622FDF769FA28B9204605B0BDE8F04F0AF088B958465146C7
S32500006EA087F0AAFC58B183692946CDF80090CDF80480029722469F693346B84701E04FF00C
S32500006EC0FF3005B0BDE8F08F51F408002DE9F341044615460E4601B12AB93D4B1B68DD0790
S32500006EE071D53C486CE0876B27BBC26B002A55D1002B53D0A1632946206C40F8221001323B
S32500006F009A4201F1340141F8106CF5D1636C00271F60314B22651B68E563214675620097D5
S32500006F201D68606822683346A847E060002842D038464AE08F4231D1C36B93422ED0016DA8
S32500006F40D0F84C804B1E9E003046434506DA626C52F800C00430BCF1FF3F01D1321D02E0B8
S32500006F600133F2E70131414506DA206C104404320668002EF6D10560626C42F82310E26CFF
S32500006F80934208DB12490968CC071CD513491448FDF778F917E06F62184616E00C4B1B6890
S32500006FA0D80710D5009601950C493A46E36B0D48FDF768F907E0064B1B68D90703D50A4849
S32500006FC00649FDF75FF94FF0FF3002B0BDE8F0817807200058F40800B80720000FF40800FD
S32500006FE074F40800A0F40800D3F4080008B5034BC0681B689B68984708BD00BFB8072000B5
S32500007000F7B516461F4687F0F7FB60B18369DC6A64B19DF82830099D0193009531463A4689
S32500007020089BA04703E06FF0010000E0204603B0F0BD00BF38B5054600242B6D9C4208DA64
S325000070402B6C53F8240083695B68984728B90134F3E70020012385F84A3038BDF8B504467F
S325000070601E46C76C0025BD4215DA236C53F8250003EB850C904201D1E26314E048B9CCF840
S325000070800020636C516253F82620236C43F8220009E00135E7E7064B1B68DF0703D50548FF
S325000070A00549FDF7EFF8636C43F82650F8BD00BF78072000ECF408001CF4080000290BDBFF
S325000070C0C36C994208DA436C53F821305A1C03D0026C52F82300704700207047F8B50646C8
S325000070E017460D46F9B1C36B99421ED00124F36C9C4205DA30462146FFF7E0FF854203D1AB
S32500007100F36C9C4202DA0BE00134F0E7094B1B68D9070CD508492A460848FDF7B3F806E02B
S32500007120FC752046F8BD0846F8BD0020F8BD4FF0FF30F8BD7807200042F508002BF40800BD
S325000071400088704773B50446164601B12AB9264B1B68D80744D5254809E0826B5AB9C36B17
S32500007160002B32D1204B1B68D90739D520482149FDF788F834E08A4227D1C36BB34224D0CA
S325000071800025E36C9D4216DA20462946FFF796FF86420ED1636C226C53F82510002342F865
S325000071A02130626C4FF0FF3142F825102846736218E00135E5E70C4B1B68DA0710D50D4999
S325000071C032460D48FDF75EF80AE0074B1B68DB0706D58DE8420009480649E36BFDF752F833
S325000071E04FF0FF3002B070BD7807200058F4080003F5080033F508001AF50800A0F4080066
S325000072002DE9F047C0B0402B8246894617461C46DDF820810DDD26A807F066FE394626A814
S3250000722022466F4607F072FE102426A9684607F011FE002104AE412215AD3046FCF7FEFFAF
S32500007240002141222846FCF7F9FF224639463046FCF7A4FF2246284639460024FCF79EFF4F
S32500007260335D83F0360333552B5D83F05C032B550134402CF4D126A807F036FE314626A8C6
S32500007280224607F043FE4A4626A8514607F03EFE404626A907F0DEFD26A807F025FE2946A2
S325000072A026A8224607F032FE414626A8102207F02DFE404626A907F0CDFD40B0BDE8F087A0
S325000072C02DE9F041A2B08046299E0F469D197F2D1C4617DC23B1114602A81A46FCF75EFFF1
S325000072E0289902A832462044FCF758FF2A9B02AA404600932B9B394601932B4600F070F8CB
S32500007300002001E04FF0FF3022B0BDE8F08100BF2DE9F04FCDB0402983460C469246994644
S32500007320569FDDF85C810DDD30A80AF047FD594630A82246EB460AF069FD202430A9684665
S325000073400AF0B4FC002110AE402220AD3046FCF775FF002140222846FCF770FF2246594638
S325000073603046FCF71BFF2246284659460024FCF715FF335D83F0360333552B5D83F05C03C6
S325000073802B550134402CF4D130A80AF017FD314630A822460AF03AFD4A4630A851460AF03A
S325000073A035FD384630A90AF081FC30A80AF006FD294630A822460AF029FD394630A820228A
S325000073C00AF024FD384630A90AF070FCB8F1000F02D02023C8F800304DB0BDE8F08F00BF32
S325000073E02DE9F04FABB007460DF12A00359D884611461A461C46FCF7D1FE20232AAAEE00E2
S3250000740004F1040922441F35002402F87E6C361202F87D6C02AE95FBF3FBA246349D5C45EF
S3250000742014DA3846013441460AAA23128DF829308DE840044B468DF82840FFF769FF284654
S32500007440203531462022FCF7A9FEE8E72BB0BDE8F08F00BF70B59CB00D46064668461446D9
S325000074600AF0ACFC31462A4668460AF0CFFC204669460AF01BFC1CB070BD00BF08B5024B22
S325000074801B6803B1984708BDC00720004368C288C3F3140303EB521283680132580D400548
S325000074A01044704770B50446194D204600F032F810BBA378013BDBB2A37043BBE07860B13D
S325000074C087F05AF905462046E98900F0CBF828462146BDE8704000F0F9BA204600F01EF8CD
S325000074E0A8B90B4B2046A360218800F0E7F92046BDE870400AF054B820462188E66BA560C7
S3250000750000F0DCF9204634460AF04AF8CDE770BDEFBEADDE0069C0F3801070470069C0F3EC
S3250000752000207047012807D002D3022807D0704700230B803C2305E04FF4007300E0002336
S325000075400B805C23136070472DE9F34107460C4600F0A6F910B900F0A9F93BE0002501AA33
S3250000756020460DF10201ADF8025007F103080195FFF7D8FF019E28F0030840F63B03464481
S32500007580721E9A4226D83046294609F0F9FF044600B32946019AFCF751FE019BA781F61A88
S325000075A0E218C8EB0608013E02EB0803A3606368204662F3140363601B0C66F34F13E3802B
S325000075C000F052F901232080A370BDF802302046236104E0034B00201A6801321A6002B08F
S325000075E0BDE8F081BC07200038B5002105468089FFF7AAFF044620B18068A968AA89FCF751
S32500007600CDFD204638BD00BF2DE9F0410446124D124E134FECB12B68228B53F82280337859
S325000076202BB93B7883B12046FFF728FF0CE087F05BF80368002BF4D000232383214603684B
S325000076404068984718B9ECE72046FFF72BFF4446E0E7BDE8F08100BFCC0720007C072000B7
S32500007660E40720000F4B70B51D7804461E4605B1858A0123A3702046FFF708FF2269CB1C66
S32500007680A1819B0802F40C5222619B00C01AA06004F1140000212822FCF7D0FD337803B140
S325000076A0A58270BDE4072000024B1B780BB1024B18607047E4072000C007200008B5024656
S325000076C087F012F80260416008BD00BF0069C0F3403070478181704710B5044608461146EC
S325000076E0FFF732FF18B163681A6801321A6010BD10B504460846FFF777FF18B163681A68EE
S3250000770001321A6010BD00BF38B504460D4622B1836813B1C06800229847094B18682B46B0
S325000077204BB1DA781AB962681168013911601B8B50F82330F4E72846BDE83840FFF764BF74
S32500007740CC072000084B30B51D680B464BB1DA781AB942681468013414601B8B55F82330EC
S32500007760F4E7084630BD00BFCC07200010B500220C46FFF7B1FF88B9094B1B6873B11A788E
S3250000778062B1DA89944209D8184687F075F808B1044B00E0044B1A6801321A6010BD00BF82
S325000077A090092000C4072000C807200038B50C4620468989FFF78AFF10B1B4F8545000E009
S325000077C0054614480078042806D02046FFF77EFF50B1B4F8540007E02046FFF777FF0028C7
S325000077E0F3D0012BF1D138BD9042C2EB050202DBA4F8542038BD20461144FFF76BFF2046F4
S32500007800FFF764FF28B1B4F8543013B10023A4F8543038BD7D072000084B30B51D680B4652
S325000078204BB1DA781AB942681468013C14601B8B55F82330F4E7084630BD00BFCC0720003C
S32500007840074B13B51C6800F02BF8024600F022F803460448214602B0BDE81040FCF712BDBA
S32500007860D007200052F50800074B10B504461868FDF72EF9054B1B68984203D2044B1B686C
S3250000788043F8204080B210BDD8072000D0072000CC072000014B1868704700BFD407200022
S325000078A0014B1868FDF78AB9D8072000024B1A6801321A60704700BFD4072000044B002064
S325000078C01B6843F82100034B1868FDF75DB900BFCC072000D807200070B5856904461DB10F
S325000078E02B686968984718E0867C013EA37C9D420FDA23895BB1637C13B93346013E00E024
S325000079002B4604EBC3032046DA69196A90470135ECE7637C83F001036374002070BD00BFF6
S3250000792003893BB143689A69426000229A610289013A02811846704770B50446054600261E
S3250000794001230374E37C08359E4205DA6B6B01362046A96B9847F5E70020207470BD00BF49
S3250000796043688B610389416001330381704700BF0A46034903460868194600F075B800BF7F
S3250000798088092000114B10B51968044631B10B7823B10F4B2246186800F066F80D4B1968A2
S325000079A031B10B7823B10A4B2246186800F05CF8094B196841B10B7833B1054B22461868A1
S325000079C0BDE8104000F050B810BD00BF90092000880920008C0920008409200041668266CD
S325000079E00020704738B545898489A54208D08478CC70428901324281FFF7B2FF002038BD6E
S32500007A006FF01C0038BD00BF887C002310B583420BDA01EBC304E469A24204D101EBC30330
S32500007A201C338B6101E00133F1E78869002814BF00206FF0000010BD00208861704700BF61
S32500007A4010B5837C042B07D000EBC3040133E16122628374002010BD4FF0FF3010BD00BFCC
S32500007A6001757047007D70472DE9F84380460C468D8902B1AD10B4F80A90002606EB090347
S32500007A80AB4215DA4046E1896278FFF725FE074680B1204601363946FFF7A4FF0028EDD009
S32500007AA04046394600224FF0FF35FFF72DFE03E0002501E06FF01A05A37C23B1237C13B940
S32500007AC02046FFF709FF2846BDE8F88307B50246FFF746FF137D4BB9937C3BB1137C2BB96D
S32500007AE0104603B05DF804EBFFF7F6BE03B05DF804FB00BF416582650020704708B5436EF1
S32500007B000BB1816E984708BD008870470346906870B5F8B10C254D4308355C195E5926B1C1
S32500007B206568FFF7F1FF688300E05851D068158A6060208928442081D888148A2044D88011
S32500007B4058888842BCBFC9B2598000239360D3601382D38070BD00BF012070472DE9F74361
S32500007B601F46CB8880460D4691460A9E6BB100242B889C4209DA22460134009701964046AA
S32500007B8029464B4600F048F8F2E703B0BDE8F083F8B50C26174606FB01F20C46002108322E
S32500007BA00546FCF74BFB0023BAB22C80AA80A34204DA06FB035101334A82F8E70120F8BD09
S32500007BC00022F0B51346448801250C2605FA03F70F4203D006FB03073F8A3A440133A342D3
S32500007BE0F4DD1046F0BD00BFC38830B593B1428800230C24934203DA04FB0305AD6815B1C7
S32500007C0019B10B6001E00133F4E70C2202FB0303D86830BD184630BD2DE9F74F0C277A4344
S32500007C2000260D4602F10807CC1951F80780DFF8A890B34600900193B8F1000F44D00C9B6F
S32500007C408BB92368B8F81A10B8EB0303D3F1000A5AEB030ABAF1000F13D0D9F8000050F8F6
S32500007C602110216017E040460D990C9B98470028E7D1B8F81A10D9F80030464653F8218070
S32500007C80DAE7D9F8000050F8210010B1FFF73CFF00E050467083019AA8F81AB00098414664
S32500007CA0FFF732FD2289013A2281EA88013AEA80BAF1000F02D0D4F80080BDE7728BD9F8AF
S32500007CC0003053F82280B7E7EB590BB9C4F8048003B0BDE8F08F00BFCC07200003469068D1
S32500007CE070B508B30C254D43D66808355C19585908B1FFF709FF708390685851606808B968
S32500007D00D06860602089158A28442081D888148A2044D88058888842BCBFC9B259800023BA
S32500007D209360D3601382D38070BD00BF10B504460BF03AFB2046BDE810400BF01FBF00BF11
S32500007D4030BF704708B50BF019FF024B01221A6008BD00BF0040301810B504460BF00EFF9A
S32500007D6001462046BDE8104085F09EBD0BF0BCBC0346006A10B1996C02F086BD704700BFF4
S32500007D802DE9F04186B004460D46466812B3114605F08CFF002D49D0D6F8340103A92A4614
S32500007DA068F02AFBD6F8340103A968F03DFB074620461FB1394605F079FFF3E72946012226
S32500007DC000F0F4FC0097204608212A463B4600F08FFF2BE00029DFD1D6F8B8325F59FFB124
S32500007DE0D6F8340103A93A4668F006FBD6F8340103A968F019FB80462046B8F1000F03D023
S32500007E00414605F053FFF1E73946012200F0CEFCCDF80080204608213A46434600F068FF26
S32500007E200435202DD8D1A06801F020FA06B0BDE8F08100BF2DE9F041C7898846BA4241D8F5
S32500007E4013B1BC1AA4B200E01C460026B5B2954212D296421DD004EB050CBC450EDA01698A
S32500007E6001EB0C1CBCF804C01CF4804F02D00135ADB203E00136E9E796420AD023B1013C7D
S32500007E80A4B2002CE1D11DE02C44A4B2BC42DCD318E04FF6FF739C4214D00023934203EBE1
S32500007EA00405ADB20BD2066906EB0516B78847F48047B78028F8135001339BB2EEE700208B
S32500007EC0BDE8F0816FF01A00BDE8F0812DE9F04701F0400A0F465FFA8AFA114616469946AB
S32500007EE01A4653468046FFF7A5FF044670B1002509E0404606EB450101225346FFF79AFFA2
S32500007F00044628B901354D45F3D10CB9002406E02DB14046394632462B4600F003F82046B8
S32500007F20BDE8F0872DE9F04700248046994615464FF6FF76A2464C4512D035F8022BB2424B
S32500007F400CD01201D8F810108B588F1813B1384602F004FCA7F804A025F8026C0134EAE7AA
S32500007F60BDE8F0872DE9F84F0369804603EB011116468D8805F00205ADB275B18C6814B1A5
S32500007F804569254400E025466A8D4FF6FF70824206D003EB02118F6803E02F462C4600E092
S32500007FA000278B889B0607D58F68FC681CB1D8F81450254400E02546B1464FF0000A4FF66F
S32500007FC0FF7BA9F81CB0A9F824B04CB105EB0A0340469988A9F81C1006F0D6F9A9F8240047
S32500007FE00AF1020A09F10209BAF1080FE9D14FF6FF73B380F38047B1D8F8183040463B4481
S325000080005988B18006F0C0F9F0803760B46195F82C3086F82C30BDE8F88F00BF2DE9F04782
S3250000802086B00E46044618B121B147690F4402E0074600E00F46FB895A0732D50025A84665
S32500008040DFF86C90DFF86CA007EB85031B69F3B10293A4230393F36800210593CDF8008077
S325000080600B46CDF80480CDF810802046032201F0F5FD034658B162680B4812681169002D0D
S3250000808014BF4A4652460092084AFCF7FBF80135022DD9D12046314606B0BDE8F04700F0A7
S325000080A089B806B0BDE8F087180209006E0209001202090009020900890712D5D0F84C0649
S325000080C018B122B14369134402E0034600E01346D98921F0100141F02001D9811146FFF71A
S325000080E09DBF704738B5154618B121B144690C4402E0044600E00C46E389580719D503F07D
S325000081003003102B15D105F19C00FDF70BF8002814BF042000200444206920B9A42009F0D6
S3250000812033FA48B120612946A422FCF737F8002038BD6FF02E0038BD6FF01A0038BD00BF77
S3250000814038B5059B1546044618B122B142692A4401E00246FFE70C2902D00D290CD038BD15
S32500008160D3892046294623F0200343F01003D381BDE8384000F01EB862680B49D2F87804B1
S325000081802A4656F015F9034668B16268074812681169074AFCF776F860682A460221BDE8F4
S325000081A03840FFF789BF38BDB98000003E0209008302090010B518B121B144690C4402E0BF
S325000081C0044600E00C46E3895B070BD5206918B109F0E6F900232361606918B109F0E0F93A
S325000081E00023636110BD00BF38B518B121B144690C4402E0044600E00C46E389C3F380057C
S325000082000AB115B138BD1DB938BD43F0040304E0FFF7D0FFE38923F00403E38138BD00BF96
S3250000822018B119B14369194400E00146C889C0F380007047F8B50E46054618B121B14469A6
S325000082400C4402E0044600E00C46E389221D28466FEA434300216FEA5343E3810423FFF7E1
S3250000826061FEFF23628B237603F57F439A421F4606D0284604F11A0200210123FFF752FE16
S32500008280A38BBB4206D0284604F11C0200210123FFF748FEE3895A0703D528463146FFF755
S325000082A089FF2846314600F047F9204600213022BDE8F840FBF7C2BF2DE9F04F8FB00E460A
S325000082C0054618B121B144690C4402E0044600E00C46336D2360FF232373326D84F82C3005
S325000082E06FF03C03C2F3C002E281236200224FF6FF7384F82820A380ADF81C30E380ADF8C2
S325000083001E302381ADF820306381ADF8223023766383A383638545B16B68D3F8BC32B34291
S325000083200CBF4FF01008904600E0A846B37913B948F0200801E048F40268284607AA4146EC
S325000083400423FFF7C3FD0746002840F0EA8081460DF11A0A3AF802BF5FFA89FC4FF6FF73BA
S325000083609B4558D0142209A80021CDF814C0FBF765FFB279ADF824B0CDF82C80DDF814C03A
S3250000838012B948F0040204E0227B624502D148F002020B92327C1AB90B9A42F082020B9281
S325000083A0284609A98DF831C006AA02F0A1F9074680B16B6896F944201B6800905B48196969
S325000083C05B4BFBF75FFF2846002152460123FFF7A9FD20E004EB4902A2F804B00B9AE38921
S325000083E0296912F0020F14BF04220022DB0701EB0B1104D4002A14BF0622022203E0002A9F
S3250000840014BF862282228DE84400002202922846069B05F0D3FF09F10109B9F1040F99D1C7
S325000084206B681A6892F85F20002A7AD0F279002A77D196F8069007AAD3F8BC32B9F1000F40
S3250000844014BF4FF404694FF04009B3420CBF1023002349EA0309284649460223FFF736FD6B
S3250000846000285ED180460DF11A0A3AF802BF08F1040C4FF6FF735FFA8CFC9B454CD01422F1
S3250000848009A80021CDF814C0FBF7D8FEB279ADF824B0CDF82C90DDF814C02AB1227E6245B3
S325000084A005D149F0020201E049F004020B92284609A98DF831C006AA02F01AF98446B8B168
S325000084C06B6896F944201B6800901A481969184BCDF814C0FBF7D6FE2846002152460123CC
S325000084E0FFF720FDDDF814C0002F08BF674613E004EB48022846A2F81AB00B9A2969069B41
S3250000850012F0020F14BF862282228DE8441001EB0B11624605F052FF08F10108B8F1020FA8
S32500008520A3D138460FB0BDE8F08F00BFBA02090092020900DD020900F7B5041E0D4663686B
S3250000854007D041B1D3F8BC2266698A420E4403D15FE0264600E00E461B6893F84430002B56
S3250000856057D1AB79002B54D12B7C002B51D096F82C30FF2B04D0A06806F12C0101F0DAFA8D
S32500008580B6F90E30002B01DA002207E005F170073846FCF7C7FD0028F6D118E06068D0F8C0
S325000085A0B8329B585BB1997949B9197A39B1197C29B19D4203D0D0F8BC12994229D1043279
S325000085C0202AEBD103210091022200231FE03946A06801F08BFAFF28014686F82C000BD1A3
S325000085E063680D481B6895F9442019690B4B03B0BDE8F040FBF746BE3A4648F206036068FF
S3250000860023F0C6FF032102220091134660681EF0F7FF03B0F0BD00BF05030900B40309008E
S325000086207FB50A460C6D064610B145690D4400E005462B689C421DD003B18CB9736801A924
S32500008640D3F8340167F0D8FE736801A9D3F8340167F0EAFE014618B1304605F027FBF3E7AC
S32500008660EA892B682C6022F00102C4F3C0041443EC811C46204604B070BD00BFFFF7DABD19
S3250000868070B58B7904460E46002B51D14368D3F8BC228A421A6805D192F9481011B9818991
S325000086A0090747D492F844202AB963681B6893F948506DB92BE03146D3F86C014EF0C6FF63
S325000086C0C5B22946A06800F071FB0028EDD032E0A06800211922012301F040FA0122134624
S325000086E0A068192101F03AFA63683146D3F880015CF08EFC05462946A06800F057FB90B164
S325000087000122A0682946134601F028FA13E0A068294619222B4601F021FAA06819210122C6
S325000087202B4601F01BFA63691E4496F82C5002E0FF2500E03E25284670BD00BF18B119B14E
S325000087404369194400E001460868704738B50C46054618B119B14069084401E000E008469B
S3250000876000213022FBF76AFD28462146BDE83840FFF7A2BDF8B51746054618B121B1466941
S325000087800E4402E0064600E00E46002406EB44039988631EDBB2012B03D8A86B3A4601F009
S325000087A097FE0134042CF1D10020F8BD2DE9F04F8BB006460C4690467AB10022134600F088
S325000087C0DBF950B1736894F944201B68009066481969664BFBF756FD01E01EB124B1756956
S325000087E0254402E0354600E02546002705EB4703FAB2B3F804904FF6FF73994569D0D6F87A
S3250000880010A005A94FEA09190AEB090B5AF80900039202F05FF8216DE889C1F3C001BBF830
S3250000882004E020F001000143039A89B2E98111F0010F0CBF002080202EF0800E4EEA000136
S32500008840ABF80410297B07989142227C20F00200079007D1A17911B9E16D01B112B140F04F
S3250000886002000790079912B941F0820101E021F080010791079921F4805107912AB9E26DDF
S32500008880012A04BF41F48051079107995AF8090001F0BEFF9BF80C10D9B1A3792BB9237CC5
S325000088A01BB1E36D0BB1D80702D5B8F1000F06D000225AF80900134602F00EFB09E05AF88A
S325000088C0093030468DE808010A212246434604F013FE0137042F89D1B8F1000F10D0304671
S325000088E021463A46012300F047F948B1736894F944201B6800901C4819691C4BFBF7C2FC62
S3250000890000274FF6FF7AEB19B3F81A80D04521D0D6F8109005A94FEA081809EB080B59F850
S32500008920080001F0D7FF9BF80C1029B1002259F80800134602F0D0FA227C079B12B943F00B
S32500008940800301E023F08003079359F80800079901F05EFF0237042FD5D1EB8923F030036A
S32500008960EB810BB0BDE8F08F60030900AA02090010B518B121B143690B4402E0034600E01F
S325000089800B464FF6FF745C8528B121B14468D4F8BC428C4216D0CC88A4B9D1F8804064056F
S325000089A010D44468246894F842401CB1D1F88440042C07D00AB112885A850022BDE81040DB
S325000089C0FFF7F4BE10BD00BF18B119B14369194400E00146887B00F00100704737B5F9B159
S325000089E00A68EAB110B14469144400E00446E38913F0080F0B7902D093B9042501E07BB116
S32500008A000325002300930193294604F075FD032DE38902D143F0080301E023F00803E381F9
S32500008A2003B030BD012A02D0022A02D07047FFF7F7BDFFF781BD00BF70B50446056A19B397
S32500008A404069081820D0032A10D80E7C56B16668D6F8BC628E4205D0CE6D1EB1897909B984
S32500008A605208013200EB4200828806E0111FC9B2012909D800EB4200428A4FF6FF718A4216
S32500008A8002D0216912018D582846194601F022FF284670BDF0B587B00D46044618B121B1EE
S32500008AA043690B4402E0034600E00B469AB10422204629460DEB0203FFF7BEFF9DF81000BE
S32500008AC000283AD1204601AB29460522FFF7B4FF9DF8100031E093F8280070BB95F8443077
S32500008AE0072B09D861685BB2D1F8B81251F8233013B167691F4400E017460026731EDBB2E0
S32500008B00012B0ED90136F6B2042EF7D1204601AB29460022FFF790FF9DF8100087F82800EF
S32500008B200BE0204601AB29463246FFF785FF9DF8100087F828000028E4D007B0F0BD00BF86
S32500008B4070B505460C461E4600F008F80246214628463346BDE87040FFF76EBF0B6D43B17F
S32500008B6038B14369C91804D00AB1087E7047087B7047FF20704700BFF0B589B00E46154651
S32500008B80044680B179B142698A180CD033B12B1FDBB2012B07D8177E157607E0032D02D82A
S32500008BA0177B157302E06FF001003FE02A4603AB20463146FFF740FFBDF80C304FF6FF725D
S32500008BC0934202D0E2899A420BD86268184811680193009596F944200969164BFBF752FBED
S32500008BE023E02269059902EB031341F002019A8842F004029A8001F00BFEAF4215D0FF2F9A
S32500008C0013D0314603AB3A462046FFF715FFBDF80C202369059903EB021321F002019A8812
S32500008C2022F004029A8001F0F3FD002009B0F0BD28030900960309002DE9F8430B1F022B17
S32500008C40074688461646DDF8209044D84568D5F8CC0240B97B6821481B68214A1969BDE854
S32500008C60F843FBF70FBB40F06DFA04460028F1D0D9F8082012F4907206D04388D6F8B0907D
S32500008C8043F00403438001E009F10209B8F1050F08D0B8F1060F07D00AB1332300E032237B
S32500008CA063600CE03123FBE7112363603846314605F00CFA18B1638843F0020363802846A5
S32500008CC0314622464B461DF013FA28462146BDE8F8431EF0D3BFBDE8F88300BFE0030900E4
S32500008CE0C9030900013808288CBF0020012070472DE9F0478CB0044608460E46154698463F
S32500008D00DDF850A0FFF7EEFF00284BD0404607AF394601F0DFFDBDF81C104FF6FF73994267
S32500008D2004D02DB9204605F079FC0546002D39D063681B6893F94830C3B9204631462A4607
S32500008D4043468DE88004FFF777FF002102A81422FBF774FAE06902A9029603940495CDF83D
S32500008D601480CDF818A0FAF76DFB1BE0099B9B06E3D5062EE1D14FF000096368D3F8B832DD
S32500008D8053F8092042B1D37933B18DE88004204606214346FFF750FF09F10409B9F1200F02
S32500008DA0EBD1CAE70CB0BDE8F08700BF8079884294BF002001207047F0B58FB01F464FF60D
S32500008DC0FF73ADF80630036804461B68154693F82430002B00F0B98090F86A30DA0701D4A2
S32500008DE000F044FA94F86A3023F0100384F86A30E379EA7B9A4200F2A880236802AA29883E
S32500008E00D3F84C06FFF7AEF8AA6812F0100F02F020031AD0697BADF8061093B1130504D58D
S32500008E20089BDB6D0BB1FE230CE002F0A002A02A04D1089BDB6D0BB1DE07F4D52B7B022B1D
S32500008E40F1D00B460C4423727FE093B1100508D402F0A002A02A0CD1089BDB6D4BB1D9077F
S32500008E6007D420460121002200F096FDADF806006BE0204602AA29460DF1060300F046FD33
S32500008E80BDF806204FF6FF739A4253D1089A137C0BB9012617E02368D3F8BC129142F8D068
S32500008EA091790029F5D11B6893F842301BB1D2F88430042BEDD0D379002BEAD1D2F8803051
S32500008EC05A05E6D40326314602AA204600F064FD4FF6FF7398420146ADF8060035D02B7B42
S32500008EE0022B27D194F86A3003F04403042B09D1B4F85C20431E33449BB29A428CBF002347
S32500008F0001230DE0721E0244032A08D9B4F85C3004339BB29A4234BF0023012300E0012380
S32500008F2043B1029B20463246103300F0CFFD4FF6FF7308E0AB6803F40263202B05D16A7BA9
S32500008F40BDF806301344ADF80630BDF806303B800FB0F0BD2DE9F0438FB0044615460F465A
S32500008F60002900F08A800E884FF6FF739E4200F08180831993F80880936813F0100903D011
S32500008F8031460122002367E002682988D2F84C0602AAFEF7E7FFAA6812F0200002F400617E
S32500008FA015D029B112F0100318D0089BDB6D93B902F0A003A02B05D1089BDB6D13B113F0D0
S32500008FC001030BD02B7B022B01D1D30605D449B118B9AB1C02E04B4600E000232046314670
S32500008FE0012239E0204602AA314600F033FD002840D0204602AA29460DF1060300F086FC54
S32500009000BDF80620A3889A4234D22946089A029B204600F039FC089A0346117C09B90122CC
S3250000902017E02168D1F8BC529542F8D090790028F5D1096891F8421019B1D2F8841004299C
S32500009040EDD0D1790029EAD1D2F880205105E6D403222046BDF8061000F038FDA3790333D8
S32500009060434507DBB4F85410206801EB4801002222F084F84FF6FF733B800FB0BDE8F083BA
S325000090804FF6FF73994211D072B1137B022B04D00B2B0BD1B0F8680001E0B0F858008842D8
S325000090A094BF00200120704710467047002070472DE9F04F93B01D46838804468B428A468E
S325000090C0039240F2CD80431893F80890B9F1FE0F76D0837903334B45C0F2C280B9F1030F89
S325000090E008D90068A9F10407FFB2394623F04AFA804602E04FF00008FF27236806AA2988F4
S32500009100D3F84C06FEF72EFF20460DF11603294606AA0C9E00F0FAFB2B7B042B02D1AA6825
S32500009120D00202D495F80EB000E09B46B4F854104FEA4909494420681FF046F9A96820F452
S325000091407F700BF0070220F003001043BDF8162089064FEA421202F47C7240EA020080B267
S3250000916082B21ED5317C21B32068D0F8BC12B1421FD0B179E9B9016891F8421019B1D6F899
S325000091808410042915D0F17999B9D6F880104B050FD44FEA8B2322F4E05203F4E0531A4320
S325000091A007E02B7B0B2B04D16A7BD20002F008020243B4F854102068494421F0DFFF02E023
S325000091C00026B046FF272046297B00F001FA0246002840D00399038A8DE822002046514615
S325000091E000F06AF9FF2F814611D020B91E4B48EA03031FFA83F829463246069B204600F054
S3250000920043FB024639462068434623F0C1F9B9F1000F25D12368D3F84C0605F08FF9034648
S3250000922094F86A2020B190071AD442F0020203E0910715D522F0020284F86A20032200924E
S3250000924000214FF4804220688B4214BF13460B461EF0D6F904E0FF2F18BF6FF01609CAD131
S3250000926013B0BDE8F08F00BF0480FFFF37B50446002800F08F800368002B00F08B80D3F807
S325000092804C36002B00F0868090F86A3003F0100303F0FF01002B7DD108224830FAF7CEFF31
S325000092A00122134620463F2100F058FC0122134620463E2100F052FC23681B6893F80C21DD
S325000092C042B193F80B312BB1012220463D21134600F044FC94F851202AB1204694F8501058
S325000092E0012300F03BFC236820461B6893F948504DB100211922012300F030FC0122204662
S325000093001921134608E0294619222B4600F026FC2046192101222B4600F020FCA388002212
S32500009320FF219A4203DAA01801320172F9E7002120680A465B01002520F09CFBA37903339D
S32500009340AB420ADBB4F85410206801EB450101350022EDB221F012FFF0E70025A379AB424D
S3250000936007D9294601352046EDB2002200F0A8FAF4E70323002100934FF480420B46206816
S325000093801EF03EF994F86A3023F0020343F0110384F86A3003B030BD2DE9F7430546002488
S325000093A04FF0140995F870309C4220DA09FB04F7D5F86C8008EB0706B3688BB19B687BB108
S325000093C0284606F10C019847034648B12A6818F807101268074800911169074AFAF752FFD4
S325000093E00021301D10220134FAF728FFDAE703B0BDE8F083070409003904090073B50E4618
S3250000940004461546104600211022FAF717FF731E0A2B40D8DFE803F0060F062020200606D2
S32500009420063F2F00002202238DE80C002046294632461D4B2DE094F86A300022204613F077
S32500009440040F0CBF4FF49C734FF49E738DE80C0029460222154B1CE094F86A300022204664
S3250000946013F0040F0CBF022306238DE80C00294632460F4B0DE094F86A300022204613F057
S32500009480040F0CBF822300238DE80C0029460B22084B00F0B7F86B68002B0CBF6FF01600D3
S325000094A0002002B070BD00BF70670800646708004C670800586708002DE9F04F93B00024F8
S325000094C00AAF8346904699462546A2460791B9F1000F6DD0002C6BD119F0010F61D0009527
S325000094E009AB019402941C983946202201F0E6F900285CD1099BD80705D55A1C099212AAC3
S32500009500134403F8204C1D9AD8F808300292099ACDF800A00492CDF804A0039758465E682F
S32500009520D8F80C10079A2B46B04710F1170F38D000283CD1022D08BF012632D1DBF80030A9
S325000095401B681B6AD3F8D4309E422ADA02238DE848041C9809AB3946202201F0AFF910F1A1
S32500009560170F1BD0E0B9099BD90705D55A1C099212AA134403F8200C1D9AD8F8083002923F
S32500009580099A8DE84004049203975846D3F804C0D8F80C10079A0223E04708B90136CDE787
S325000095A004460135102D4FEA590990D100E00446204613B0BDE8F08F0139C9B20A2902D8B3
S325000095C0024B585C70470020704700BF2E040900F0B5002290F870601427B2420EDA07FBC4
S325000095E002F4C56E2B192C5D8C4205D19C681CB11C790CB11C8A1CB90132EEE70020F0BD58
S325000096001846F0BD38B50C4611461D46FFF7D4FF30B1049B6560A360BDF814302070A38182
S3250000962038BD00BFF8B51F46012F11460446069E9DF81C50099A0A9B02D0022F05D01FE0C9
S32500009640490189B200F020F818E0062B13D1ADB9B0F85E00A0B1B4F860708F4210D90F2E3A
S325000096600EDC03FB0606602000FB0161206889B219F0CEF802E06FF00100F8BD0020F8BDB5
S325000096806FF01600F8BD00BF2DE9F74323F0030805681C460746434628460E46914619F026
S325000096A0ADF8A30716D509EB04020234284612F8023C06EB08018DF8043012F8013C01AADF
S325000096C08DF8053000238DF807308DF80630042319F094F8FB799C4205D228463119002271
S325000096E01B1B20F0C7F903B0BDE8F08338B51D46012D11460446079A089B02D0072D05D055
S3250000970010E0490189B2FFF7BFFF09E0B0F86800884207D949012068103189B219F06EF8BA
S32500009720002038BD6FF0160038BD00BF2DE9F04108A91546023B0446069A9DF81C80C2C9AF
S32500009740062B00F28F80DFE803F06D290C168D8D04006D012046A9B232463B46FFF794FF90
S325000097607DE0B4F85830AB427CD98B686D0113F4086F09D00AE0B4F85830AB4272D98B680F
S325000097806D0113F4086F01D0183500E010352068A9B232463B4619F031F860E094F86A3020
S325000097A003F04403042B06D1B4F85C00A8428CBF002001200BE0032D08D9B4F85C000430AD
S325000097C080B2854234BF0020012000E00120002848D1B8F1000F47D1042B4FF00E0318BFEE
S325000097E0043D5D43B4F85A203B1F2068ADB215443246ADB2294619F00BF8B37A05F10A0142
S32500009800F27A89B2206843EA022221F0B7FC727B05F10C01337B89B2206843EA022221F03B
S32500009820ADFC1CE0062F16D1B8F1000F17D1B4F85E30BBB1B4F86010A94213D90F2A11DC02
S32500009840602101FB053107FB0211206832463B4618F0DEFF03E06FF00100BDE8F08100205B
S32500009860BDE8F0816FF01600BDE8F081012B08B507D15201069B91B2059AFFF705FF002090
S3250000988008BD6FF0160008BDF8B58C1C0746204615461E46FBF746FC30B116B106F1100415
S325000098A00BE005F1700408E03B681B6893F948301BB1AB790BB905F176042046F8BD00BF3D
S325000098C02DE9F041044600680D46437F1646D3B122F058FE074604F148002946FBF78CFCB9
S325000098E020B16FEA47436FEA534301E0C7F30E039BB21A0407D536B1206829463246BDE8D1
S32500009900F04122F045BEBDE8F08100BF30B5D5884FF6FF74A5423CD18C6814F0100F06D04B
S32500009920600736D5497B02EB4102958C31E014F4006F08D014F0600FF2D104F4C070B0F537
S32500009940C07F26D1ECE791690C7C14B30068D0F8BC428C421DD08C79DCB9006890F84200FA
S3250000996018B1D1F88400042813D0C87988B9D1F8801011F480610CD14FF6FF7402EB410038
S32500009980808CA04202D0411A8DB202E001310429F4D11D8030BD00BF2DE9F0410546D2F1C3
S325000099A0010038BF00200E4618B1AC88641AA4B200E004241FFA86FC00218BB2634502D3E6
S325000099C0B14217D127E0B14225D01F19B5F80480BFB2B8450ED92F4495F806803F7A08F1C1
S325000099E00308B84502DB01339BB203E0FE2FFAD00131E2E718B1013CA4B2032C03E01C4458
S32500009A00AB88A4B2A34294BF00230123002BD3D14FF6FF741AE04FF6FF739C42F8D058B949
S32500009A202B681168D3F84C0604F0A4F8AB798342EED90430C0B200E0FE200023B34205D224
S32500009A40EA18013322449BB21072F7E72046BDE8F08100BF936970B51D7CD48845B18C42A2
S32500009A6006D19E7926B90668D6F8BC629E422AD04FF6FF76B44201D0A14222D11DB3006850
S32500009A80D0F8BC429C421ED09C79E4B9006890F8420018B1D3F88400042814D0D87990B988
S32500009AA0D3F8803013F480630DD14FF6FF74D018808CA04201D0814203D10233082BF6D138
S32500009AC001E0002070BD012070BD00BF70B50023FF25934208D0CC188688A4B2A64203D920
S32500009AE0044401332572F4E770BD00BFF8B500F1480705460E460024AB79A34204D9384672
S32500009B002146FBF779FB20B9AB79A34204D8FF240DE00134E4B2EFE70122284621461346B2
S32500009B2000F01CF8284621463246FFF7C9FE2046F8BD00BF38B50C468379097805468B4263
S32500009B400AD90023012200F009F8284621780022FFF7B6FEFF23237038BD00BF0A44F8B5AE
S32500009B60D6B20C4600F148051F46B4420AD22846214617B1FBF738FC01E0FBF7A3FA013428
S32500009B80E4B2F2E7F8BD00BF2DE9F04788B04568DDF8409080460E462846494614461F462F
S32500009BA034F040FE82463CB1032F05D9214607A80422FAF7F3FA01E000230793B72E12D0F9
S32500009BC00CDC2D2E46D1002100910191029403970491CDF81490404603220FE0EB2E11D01F
S32500009BE0EC2E1ED036E0404607AB0021042200930192029103910491CDF814900B4600F036
S32500009C002DF818E0032F22D9D5F84C0651460022FEF7A4FFC4B1079BC21A534253412360E5
S32500009C2018E0032F13D9D5F84C0651469DF81C200023FEF7A1FF70B100F13503352B0AD83D
S32500009C402B68C3F8800006E06FF00100F4E76FF00D00F1E7002008B0BDE8F0872DE9F04F82
S32500009C60B7B0D0F804A00546459950469346DDF80481429F439E34F0D5FD044618B16B697A
S32500009C8000EB030900E08146B8F1030F05D9409902A80422FAF782FA01E000230293ABF13C
S32500009CA00302092A00F2DE81DFE812F028009601DC010A001700C401DC01CB01D001D5017A
S32500009CC0A079002840F0CE81032E40F2D481B9F80E30C3F380033B603DE2A679002E40F0A7
S32500009CE0C181B8F1030F40F2C681029A28460032214618BF0122FEF777FA6BE1A32E40F296
S32500009D006481A4220DA83946FAF748FA9DF8D0309DF83460DA070FD400210DF10C084046F0
S32500009D201422FAF78BFA4FF6FF7334A8ADF80C30FBF7F8F940B11CE034A8FBF7E7F9002857
S32500009D40EAD16FF0140645E1A37973B3BDF8D230B4F87220B4F870105A40BDF8D0304B4066
S32500009D601A43B4F87410BDF8D4304B4013439BB2EBB93246434628462146FEF75DFEBDF8EA
S32500009D800C204FF6FF739A4281469B4605D128463146424604F060FC8146BDF80C305B456B
S32500009DA000F0A8809DF8196002E0994600E08146DAF8003093F85F30002B40D0331FDBB2D9
S32500009DC0012B3CD8BDF80C204FF6FF739A4200F091800E9B484613B10D210FAA02E09DF86F
S32500009DE018101A4601F078F80646002840F0F2800E9B002B00F0EE80309A08A8BDF8C460D9
S32500009E00130C92B243EA0643082100F095FDA37908A90246009348467F2301F0C9F82A9B69
S32500009E2006469B0703D4A379002B00F0D380284621469DF819200123FEF79EFEC3E00E9B29
S32500009E40002B38D1059B9F0603D5032E52D848462EE00DF1D0084046FBF758F90746B8B15F
S32500009E60DAF8340108A9224666F0C6FADAF8340108A966F0D9FA0646284626B1002132469B
S32500009E80FDF77EFFF2E721463246FDF779FFA1E02146284642463B4604F01EFA014600284D
S32500009EA000F096800097284632463B4603F07CFF00F014FE87E02A9B34AA2146284613F046
S32500009EC0400F0CBF00234FF480738DE80801334604F0B0F9BDF80C104FF6FF73994281464B
S32500009EE00BD16B689D481B689D4A19696FF00703FAF7C8F96FF007066CE0299B0B2B1CD122
S32500009F00059B13F0600F18D103F4C073B3F5C07F13D0284604F0E8FB08B1AB691844418815
S32500009F20BDF80C308B4208D00022284604F094FB4946424602F004FE8146299BFBB90E9B7F
S32500009F400D2B0AD003D8052B0CD1012308E0102B05D0202B06D1022302E0032300E004238F
S32500009F6029930CE06A686FF017067E48126800936FF0170311697A4AFAF784F92AE0A379C7
S32500009F8013B9E36D002B79D148460FAA9DF8A4100E9B00F0A1FF0646E0B9299B8DF81830EB
S32500009FA02E9B002B74D0082108A8BDF8C420309B00F0C2FC024608A9009648467F2300F0C9
S32500009FC0F7FF002864D0064604E06FF0010601E06FF01D063046BEE0B8F1030F45D99DF8AE
S32500009FE0082003AB28462146FEF726FDBDF80C204FF6FF739A4205D1284603AABDF8081066
S3250000A00004F02AFBBDF80C204FF6FF739A422FD00123009339463246002300F077FC041E58
S3250000A02006D1384621463246FAF708F9204692E005DA20E0DAF8003093F8CC303B600020F9
S3250000A04089E0A86B00F086FA3860F8E7A86B029900F0CCFA7FE0284621463A46334600F016
S3250000A060A1F878E06FF0160075E06FF0010072E06FF007006FE06FF00D006CE028460DAADB
S3250000A0802146FEF72FF800287FF47EAF0026A1E7059B98062AD52A9A91070BD4A2794AB92B
S3250000A0A0227C3AB1DA0621D59DF8183003F0FD03012B1BD1284608AB21460022FEF740FD77
S3250000A0C02A9B9B0706D49DF82C30D3F1010338BF002300E001234BB1284621469DF81920C3
S3250000A0E00023FEF749FD00287FF46DAF4846414600F0F0FB227C059B12B123F0800501E0DB
S3250000A10043F080052A9A25F4401112F0300F07D0D50648BF41F48011900648BF41F40011B0
S3250000A1209DF818203AB19A0605D5E26D0AB1A2790AB941F00401994202D0484600F068FB3B
S3250000A140BDF80C200D9B9342A0D0384641460222FAF724F83EE737B0BDE8F08F6404090054
S3250000A160590409008D04090001290DD040F2051399420BD0B1F5827F0AD040F2031399422E
S3250000A18008BF032309D104E0002302E0012300E00223034800EB031070470020704700BF4A
S3250000A1A0AC6708002DE9F04F87B017788246012F059114461D4668D1184607F0E5F9064660
S3250000A1C0002865D02A4621464FF00008F9F7E6FF711904912A46204665190021FAF72EF87E
S3250000A1E027700395351D0427F37898453EDA049A2B1D9A4202D26FF017033EE02B786A789B
S3250000A20095F803B043EA0222AB78504643EA0B2B11461FFA8BF9FFF7A7FF48B3D0F808C070
S3250000A220BCF1000F24D083884B45E4D8C3884B45E1D304EB0709039909F1040399421AD31E
S3250000A240E25300914B46504605992A46E047034698B9B9F802300BF1040B5D4408F10108AB
S3250000A26004331F44E3780133E370BDE7002304E06FF0160301E06FF00D03A6420AD03046B1
S3250000A280029307F08DF9029B04E06FF0240301E06FF01A03184607B0BDE8F08F10B503F150
S3250000A2A008021C46029B93420AD30022FEF7F2FB20710423002063806071A071E07110BD1E
S3250000A2C06FF00D0010BD00BF10B586B01C4603F10802089B93420DD3002201ABFEF730FCDE
S3250000A2E09DF8133000200422628023716071A071E07101E06FF00D0006B010BD10B503F108
S3250000A30008021C46029B93420CD304F055F804236380030A20716371030C000EE071A3713B
S3250000A320002010BD6FF00D0010BD00BF10B503F108021C46029B93420AD30022FEF70EFC9D
S3250000A34020710423002063806071A071E07110BD6FF00D0010BD00BFF8B596785378360484
S3250000A36046EA0326137857791E43D378D1E9004546EA036613798C46002043EA072140EAE2
S3250000A380060241EAE673AB4208BFA24210D314F17F0645F100079F4208BF964209D3111B61
S3250000A3A00CF10800FAF728FF003018BF0120F8BD0120F8BD2DE9F04F85B09678537836042A
S3250000A3C046EA03261378D1E900451E43D37814F17F0092F805C0177946EA03664FF00002AB
S3250000A3E047EA0C2342EA060843EAE6798A4645F10001494508BF4045CDE9008959D2B8F13D
S3250000A4007F0849F1FF39494508BF404508D211460AF1080010224446F9F710FF4D4646E0BB
S3250000A42042460AF1080B4B46121B63EB050314F1800645F10007B6EB080667EB0907444609
S3250000A4404D4606EB020856EA07093BD0C6EB0803584619460393FAF7CFFE38B116F1FF36DB
S3250000A46047F1FF37013445F10005ECE74FF000084FF00009B94508BFB0450AD203995846C6
S3250000A4804144FAF7B9FE20B158464146FAF7ACFF03E058464146FAF715FE18F1010849F19F
S3250000A4A00009B9F1000F08BFB8F1800FE2D1CAE90045009E0AF10800311B05B0BDE8F04FA4
S3250000A4C0FAF792BF584600211022F9F7B7FEEEE7F8B5038905468B420E46144634D9436812
S3250000A4E01BB1012B08BF012400E01C46EF6857F82600031C18BF0123A34201D10020F8BDBE
S3250000A50034B90028FAD007F04BF847F82640F5E72B6818201B681B6AD3F8D430584307F067
S3250000A52033F847F8260090B12B6800211B6801221B6AD3F8D4400023A14200F11800DDDAC0
S3250000A54040E906230131F7E76FF00700F8BD6FF01A00F8BD40687047F8B50C46C66809882D
S3250000A560069D56F82160079F6EB9A16818463A4621F48031A160294600F03CF9D0F1010092
S3250000A58038BF0020F8BD182101FB02612A46BDE8F840FFF7E1BE00BF38B5038904468B4220
S3250000A5A020D9C36853F821500DB9002038BD036818221B6800211B6A2846D3F8D4305A4332
S3250000A5C0F9F73CFE236800211B6801221B6AD3F8D4000023814205F11805E6DA45E90623C5
S3250000A5E00131F7E76FF0070038BD00BF4B1C012B01D9012902D14160002070476FF01C00CE
S3250000A600704700BF10B50988C46854F821403CB1182101FB02411A46BDE81040FFF7CABE57
S3250000A62010BD00BF0023064910B55C5CCA18844203D00833902BF8D10022104610BD00BF5B
S3250000A6404068080070B50598069E20B101280CBF0E20002021E00D88ACB214F00C0F0ED1D9
S3250000A660D6B1B08800F00300022815D12DB2002D12DA14F0800F0CBF18201C200DE004F463
S3250000A680407004F0FC04B0F5407F0CBF1E201820882C02D1023000E0182001441960049B3D
S3250000A6A0101A186070BD00BFC268009B12F4004F827C07D0197D41EA02121A75027F5200E0
S3250000A6C05A757047598802F0070221F47F6121F007010A43818B090101F47F610A435A80A5
S3250000A6E0704700BF0069C0F340307047818170472DE9F8430E46904604F014F88146307BF5
S3250000A700FFF790FF0746E8B1282006F03DFF0446D8B1054645F8049B0FCE0FC533682046A2
S3250000A7202B60E36843F4004343F00103E3604FF6FF73A3837B689847054648B1204606F00A
S3250000A7402FFF04E06FF0160501E06FF01A050024C8F800402846BDE8F88300BF73B5046803
S3250000A760002213460646217C2046002500F0B4FB23680B21009401952A46D3F84C062B4666
S3250000A78002F0BAFE3560236A1B680BB120469847204606F005FF002002B070BDF0B585B02A
S3250000A7A006460A9D0C46062D94461F460FD10BB104233B60BCF1030F14D9F36800201A0A33
S3250000A7C0237062701A0C1B0EA270E3700FE0046A646854B100950B9D01959DF830500295AD
S3250000A7E0A04704E06FF00D0001E06FF0160005B0F0BD00BF10B542B1013A845C8B5C9C420D
S3250000A80001D3F8D901E0012010BD002010BD00BF07B50E4AC3680A400D4919400A439A42B1
S3250000A82010D0C2605A4022F0804222F4A0424AB103680022009001920A21D3F84C0613465E
S3250000A84002F05AFE03B05DF804FB00BF8E56304071A9CFBF10B503464FF6FF74C068A14215
S3250000A86020F40270D86006D040F00804DC6012B140F40270D8609C8B99831B68D3F84C0642
S3250000A880FDF776FA204610BD38B505460C4608460C220021F9F7D2FCAB8B2560043523819E
S3250000A8A0656038BD30B585B0012400258DE830000294FFF773FF05B030BD00BF30B59DF8F6
S3250000A8C014500595BDE83040FFF768BF80697047808B704738B50C4668B103685BB1D3F846
S3250000A8E04C3643B1036A33B179B1051D0FCD0FC42B68236038BD44B1204600211422F9F7E3
S3250000A9009DFC4FF6FF732380637338BD30B587B000240594046A646854B101939DF82830DA
S3250000A9200225029305AB0095A04708B9059801E00598404207B030BD0529F8B504460F46AD
S3250000A94016461D460FD900213A46F9F777FC2B0A2670A570360AE3702B0C2D0E66702371F7
S3250000A96065710620F8BD0020F8BD00BF2DE9F04387B0904602680C4612680023117F054602
S3250000A9800593027C21B1C1688E0701D512B103E0002A5CD1002762E0A66805A9A289378829
S3250000A9A020468DE80A00029304AB314607F0FC0CFFF748FE07F07C03082B08D017F00C0F13
S3250000A9C00CD13379D80702D5BCF1B00F06D1059B47F4804737802A7D93423BDBC7F38109C0
S3250000A9E0B9F1000F07D1BCF1B00F04D0E369C84643F00053E3612B6A5F69002F2DD0059B33
S3250000AA0028468DE8080121463246049BB847074628BBEB68190702D5B8F1000F0ED1B9F10C
S3250000AA20000F02D13279D207B4D4DB02B2D4A1896B7D20461944FFF759FE10E0CDF8008068
S3250000AA40284621463246049BFFF72EFE07E06FF02E0704E06FF00D0701E06FF01607384635
S3250000AA6007B0BDE8F08300BF9C4603682DE9F04186B01B680D461B7F002104469046049132
S3250000AA80059113B1C3689F0703D4237C03BB002020E0036A9E695EB1AE6805AB0093012331
S3250000AAA0019304AB0291AA8928463146FFF7CAFD236A9F69002FEAD0059920468DE80211DB
S3250000AAC032462946049BB84710F1170F02D1DEE76FF02E0006B0BDE8F08100BF0022017C75
S3250000AAE0134600F0F9B900BF2DE9F04F89B08F6805AB904600258A8904468DE8280108461D
S3250000AB0004AB0E4639460595FFF79CFDB7F8009009F0FC01882907D1049B13F801AC13F864
S3250000AB20023C43EA0A2A00E0AA46256809F4804B2B681B7F002B00F03F81E368580740F168
S3250000AB403B81BBF1000F07D119F00C0F40F037813A79D20740F1338194F814C0607D059A47
S3250000AB6060448242C0F22E81B8F8100010F0080F0DD094F810C0BCF10B0F08D195F88155F3
S3250000AB802DB1DD0644BF20F00800A8F81000B8F81000050719D519F00C0F16D1B02914D1A0
S3250000ABA0217C01F0FD0101290FD1D8060DD42046049902F03FFA0546002840F08480B8F8B5
S3250000ABC0103023F01803A8F81030E368190703D5B8F810301A0705D4F26948F240031340C9
S3250000ABE06BBBE7E0DD0640F1E48001236FF02F023046FFF777FD70B1B6F8541059B13BB12D
S3250000AC00217C022901D00B2905D1E168880502D46FF0340557E08DF81830236A0792DD68D8
S3250000AC206DB1059B2046009306AB019331463A46049BA847054610F1170F14D101E06FF0F6
S3250000AC40160523681B68D3F8A430D3F814210132C3F814213A79D10715D5D3F8DC21013293
S3250000AC60C3F8DC210FE0B8F8103010F1300F06D010F1320F43F00802A8F8102003D143F0CB
S3250000AC801803A8F81030E368DA021AD419F00C0F02D13B79DB0714D41AF0800F06D023682F
S3250000ACA031465868FAF718FB014600E031462368627D58680223FCF779FDF36943F4004327
S3250000ACC0F361002D63D02268BBF1000F3AD01368D3F8A430D3F8F4100131C3F8F4103979DF
S3250000ACE0C80704D5D3F8BC110131C3F8BC1115F1300F14D006DC15F1350F0AD015F1320FDE
S3250000AD000DD019E015F1180F13D015F10E0F10D012E08DE850001721D2F84C0604E08DE8E0
S3250000AD2050001121D2F84C060022134602F0E4FB4BE0196E013119668DE850001021D2F800
S3250000AD404C06F1E7049B211DCDF800A00193059B02933B46D2F84C06F26A03F0FDF908B11D
S3250000AD60002532E023681B68D3F8A430DA6E0132DA66D3F824210132C3F824213A79D10760
S3250000AD8023D5D3F8EC210132C3F8EC211DE023681B68D3F8A430D3F81C210132C3F81C2105
S3250000ADA03A79D207DCD5D3F8E4210132C3F8E4210BE0012300221BE76FF02E0583E76FF0FF
S3250000ADC0160580E76FF00D057DE7284609B0BDE8F08F00BF0368F0B589B01B684FF0000CF5
S3250000ADE01B7F04460E461546CDF814C0002B62D0C3685F075FD58F6805AB8A89009301238E
S3250000AE00019304AB084602953946FFF71BFCE26812F4007306D0237C022B12BF63466B8AA4
S3250000AE20C3F3C0030022DBB28DF8183007922BB16B8ADD0644BF6FF031030793236A1D6987
S3250000AE40002D46D0059B2046009306AB019331463A46049BA847054688B923681B68D3F8E1
S3250000AE60A430D3F81C210132C3F81C213A78D4072FD5D3F8E4210132C3F8E42129E010F167
S3250000AE80180F10D009DC10F1320F16D1236812218DE85000D3F84C0615E010F1170F17D0F4
S3250000AEA010F10E0F09D123681B68D3F8A4301A6E01321A660DE06FF02E05236810218DE8FC
S3250000AEC05000D3F84C060022134602F015FB00E00025284609B0F0BD2DE9F3411E46036890
S3250000AEE00446D3F84C060D46904603F023F910B96FF0160059E0A2884FF6FF739A42F7D0B2
S3250000AF00237C002E08BF0025AB4204D1236A9D68002D30D138E02846FFF784FB0746002880
S3250000AF20E6D0236AD3F808C0BCF1000F06D0002101238DE80A0020460A46E0472368002255
S3250000AF40009401920A21D3F84C06134602F0D4FA236A1B680BB120469847236825742946BF
S3250000AF60D3F84C0603F056FBA0747B68204698470028CBD019E0002300930123019320469E
S3250000AF8041463246A84768B9236800258DE83000A561D3F84C060A212A462B4602F0ACFA80
S3250000AFA0284602E010F1170FEED002B0BDE8F08137B59DF818502DB9C46814F0400F18BF69
S3250000AFC0002300E00023046AA46824B18DE828000223A04701E06FF0160003B030BD00BF98
S3250000AFE0128812F00C0F08D1C86AA8B1806881050FD440F38070C0B2704702F0FC02882AF1
S3250000B00009D1C268D20206D413F8020C00F00F007047102070470020704700BF10B504461D
S3250000B020406A08B106F0BCFA002020626062E0742075607510BD00BF70B5044608460499F3
S3250000B040059D01299DF8186002D002290DD02DE00BB1E17C1960E37C9A4202D26FF00D001D
S3250000B06070BD616A1A4606311CE00BB106211960052AF3D9E3685B0601D5616A11E00EB1EB
S3250000B080A5B906E023681B681B6AD3F8D4309D420CDA616A2EB9E37C062202FB0535294462
S3250000B0A011440622F9F77AF8002070BD6FF0160070BD00BFF0B5BFB0044615461F46FFF7E9
S3250000B0C08FFF616AE27C0646063102A8D20005F0FBFC449A02A800233A448DE84800E17C85
S3250000B0E0521B2B46F5F798F9002814BF6FF02F0000203FB0F0BD00BF2DE9F04F85B0B2F8B7
S3250000B10000C00446CCF381078A4615461E46DDF83C80D0F82490DFB992F804B01BF0010F4B
S3250000B12016D0D1F82CB0BBF1000F00F0CB80DBF808B01BF4007F07D00E9EBB468DE8400135
S3250000B14000F034FB06465DE01BF0804F00F0BA80237C0D2B00F0B680A3F11102D2B2022AE9
S3250000B16040F2B080F278920604D4053BDBB2012B00F2A5804FB923681B681B6AD3F8D43013
S3250000B18003F1FF3B5FFA8BFB0EE00CF0FC0CBCF1880F11BF4FF0000B16F801BC16F8023C35
S3250000B1A043EA0B2B0BF0070B20460DF1080C6146324600F08FF8E37C0622214612FB0B33D2
S3250000B1C051F8040B4B4401920633CDF800C05A46D0F84C0603F00CF9002839D198F800308D
S3250000B1E013B1D8F804600DE0237C042B01D00F2B68D10E9B20460093514633462A46FFF73A
S3250000B20059FF0646EEB9E368D8030ED417B92B79D9075AD4E37C02A9062212FB0B3B09EBDA
S3250000B2200B001044F8F7BAFF4FE02146062251F8043B00925A46D3F84C0602AB03F0C8F90B
S3250000B24043E016F1330F05D016F1300F14D024E06FF0320623681B68D3F8A430D3F8082141
S3250000B2600132C3F808212A79D2072ED5D3F8D0210132C3F8D02128E023681B68D3F8A430E2
S3250000B280D3F804210132C3F804212A79D70704D5D3F8CC210132C3F8CC2123681B68D3F8DF
S3250000B2A0A430D3F80C210132C3F80C212A79D5070BD5D3F8D4210132C3F8D42105E06FF05B
S3250000B2C00206EAE76FF01606E7E7304605B0BDE8F08F00BF037C053BDBB2012B13780B70BA
S3250000B2E053784B7008D913798B705379CB7093790B71D3794B71704793788B70D37803F0C8
S3250000B3000F03CB70704700BF037C053BDBB2012B0B7813704B7853700FD900239370437C93
S3250000B3209B0143F02003D3708B781371CB7853710B7993714B79D37170478B789370437C38
S3250000B3409B01DBB2D370C97801F00F010B43D370704700BF2DE9F84F0A9E04467F2E0F46E1
S3250000B36015469DF82CB002D006F1010A05E0026800261268126AD2F8D4A0012B07D0022B4E
S3250000B38040F087804FF0060909FB06F950E0E27C666A954206F1060607D025B9304629464D
S3250000B3A0F8F74CFF33E095426FD31FB96FF00100BDE8F88F30463946F8F7DEFE38B3E168C9
S3250000B3C0606A11F040011ABF002107221622F8F735FF2368A188D3F84C0603F085F930B1BA
S3250000B3E04368580503D5E36843F48013E360237C0D2B07D0113BDBB2022B03D9E36843F4FD
S3250000B4008033E36030463946E27CF8F7C7FE0020BDE8F88FE36859060DD5D4F824801DBB09
S3250000B420404629460622F8F709FF013609F106095645EFDBEBE7BBF1000F01D04EBB06E000
S3250000B44023681B681B6AD3F8D4309E4221DA636ABBF1000F01D09846E1E794F81380C8447F
S3250000B460984408F10608DAE7002F9FD0052D05D8404600210622F8F7E1FE00E00625404647
S3250000B48039462A46F8F78AFECFE76FF01700BDE8F88F6FF01600BDE8F88F00BF2DE9F04141
S3250000B4A0BEB015468846C27C416A044602A81E460631D20005F008FB41462A4633462046D7
S3250000B4C0E77CFFF78DFD449A002332440093019002A83946521B2B46F4F7CAFF002814BF32
S3250000B4E06FF0300000203EB0BDE8F0812DE9F14F148805468A4614F00C0F90469B46DDF8DB
S3250000B50028900B9F07D11479E40704D501B0BDE8F04F00F0C3B92B7C6C6A053BDBB2012B23
S3250000B5201BD92378FF2B0ED16378FF2B0BD1A378FF2B08D1E378FF2B05D12379FF2B02D17A
S3250000B5406379FF2B4ED00026A35D0133DBB2A355FBB90136062EF7D11BE0A27863781204F5
S3250000B56042EA032223781A43E37842EA0362214B9A4205D9204600210622F8F75FFE08E087
S3250000B5800026A35D0133DBB2A35513B90136062EF7D128465A462146FFF7B6FEE86802074F
S3250000B5A010D57FB110F4004604D1594607F116002A7D03E0214607F126000622F8F7EEFD93
S3250000B5C0002014E02B7C042B01D00F2B0DD1CDF828902846514642465B4601B0BDE8F04F52
S3250000B5E0FFF75CBF6FF0070001E06FF0160001B0BDE8F08FFCFFFF0F10B5037C0446043BCD
S3250000B6000F2B28D8DFE803F0081818272727272727080D1212120D121023C3740823037597
S3250000B6200FE010230822C37402750AE02023C37408230375102304E01023C37404230375E3
S3250000B64008236375104BE07C2362E36813F0400F07D006300EE00023036243626FF016006B
S3250000B66010BD2368821D06201B681B6AD3F8D43000FB032005F088FF002860620CBF6FF022
S3250000B6801A00002010BD00BFD06808002DE9F04186B00D461C4605F10A0831F8043B0646B0
S3250000B6A00DF10600174623F4605306229BB28DF804301B0A8DF80530F8F770FD414603A8BE
S3250000B6C00622F8F76BFD06220DF1120005F11001F8F764FD337C123BDBB2012B0ED8414634
S3250000B6E038460622F8F75AFD06210E9B01395A5C7B1ADA720029F8D10C2301E00CB10023D5
S3250000B70023600C9801A91422F8F748FD06B0BDE8F08100BF2DE9F041A3F1140405468AB0E5
S3250000B720002605A81427904621461422F8F736FD2846414632463346009401970296FFF7C0
S3250000B740A5FF6A7D109B31469B1A03EB070804EB0800F8F773FD697D11986A6A8DE8030053
S3250000B760EB7C063220464144F4F70EFF20460DEB07013A46F8F712FD30460AB0BDE8F08117
S3250000B78070B5047C049E0D2C059D01D0112C07D1049605F10A040594BDE87040FFF7BABFA0
S3250000B7A06FF0160070BD00BF818170472DE9F04F89B09B46037C04460D2B02910392139E20
S3250000B7C003D0113BDBB2022B02D8637D0A3300E000231299D4F824A0994252DBCA1A0BEB73
S3250000B7E002051BF802204C2A48D16A78023B9A4247D1AB78EA7843EA0222637C9A4243D1C0
S3250000B800214605F104094FF0060851F8043B0022CDF80090CDF80480D3F84C06534602F07B
S3250000B820E7FD002833D133780BB1746831E0667D05F10A07394604A83246F8F7AFFC129ACB
S3250000B84020468DE824000299039A5B46FFF798FF0446F0B9384604A93246F8F78DFC38B186
S3250000B860384604A932466FF02F04F8F797FC10E0504649464246F8F791FC0AE06FF0330472
S3250000B88007E06FF0170404E06FF0070401E06FF03204204609B0BDE8F08F00BF2DE9F74F1F
S3250000B8A01F46037C04460D2B8A469346DDF8308003D0113BDBB2022B04D894F8159009F10E
S3250000B8C00A0901E04FF0000907EB08054C23616A07F80830A9F102036B70637C0026AB701C
S3250000B8E0EE708B5D0133DBB28B5513B90136062EF7D10622281DF8F751FC002105F10A0092
S3250000B900627DF8F79BFCE3681B0701D50D9B93B909EB08063B4600960195204651465A4639
S3250000B920FFF72EFF034638B9CBEB070150463144FFF73AFF00E00023184603B0BDE8F08F74
S3250000B940034680689A89401A11449860998170472DE9F04788B09046C268044650021E4690
S3250000B960DDF8409001D4002066E0B9F1070F3DDD656A08F1060ACDF8009002AF0197284623
S3250000B98041465246FBF738F858BBE368990625D52368657CA188D3F84C0685F0010502F04A
S3250000B9A03DFE236801462A46D3F84C0603ABFDF743F89DF81830044603F0FD03012B0DD1E6
S3250000B9C0059B5A020AD5456A4146CDF800900197284652463346FBF70FF810B96FF0310092
S3250000B9E02AE00130BFD0B9F10B0F09DC23686FF017001B68D3F8A4301A6E01321A661BE075
S3250000BA00707B337B000440EA0360F37B1843B37B40EA032098F80030DB0747BF05F12001F3
S3250000BA2005F1240205F1180105F11C02F8F736FB002898D16FF0320008B0BDE8F08700BFEC
S3250000BA402DE9F04788B01646C2680D46540251D50268476A981ED2F80490109A274B911C0E
S3250000BA607A691B6802327A6112BA07922A8B53F8224014B1A368A28901E023462246039242
S3250000BA8006F1060A52460DF118088DE80B00CDF8108007AB31463846FBF70CF8EB692846AF
S3250000BAA013F0080F0CBF12210A21FFF749FF044631460622F8F772FB0622A01D5146F8F74F
S3250000BAC06DFB2946484682F0B7FE0D490E3840BAA08104F10E000822F8F760FB414604F12A
S3250000BAE016000422F8F75AFB042204F11A0007A9F8F754FB002008B0BDE8F087CC072000B6
S3250000BB0020D40800044A0023C37403754375026243621846704700BFF0680800006900F0B5
S3250000BB20070070478181704710B50446406A08B105F036FD002020626062E07420756075CC
S3250000BB4010BD00BF2DE9F04186B00D460C990746446A481E0D9E9DF83880072800F287805D
S3250000BB60DFE800F004194535358585100BB1202119601F2A02D86FF00D007AE028462146EE
S3250000BB80202270E00BB1102119600F2AF3D928462146102267E00BB106211960052AEAD906
S3250000BBA0B8F1000F04D0002E61D104F158010BE03B681B681B6AD3F8D4309E4257DA0621A8
S3250000BBC001FB064404F15E01284606224BE00BB108201860072ACED90429284608BF04F179
S3250000BBE010014FF0080218BF04F118013BE00BB10E2119600D2ABED9B8F1000F03D02846BA
S3250000BC0004F120011EE094F846309E4203D1284604F13C0116E03B68B988D3F84C0602F0CB
S3250000BC20FDFC03466FF007001BB3062203A902FB064238465E328DE80401224600F04AF84D
S3250000BC40284603A90A22F8F7A9FA05F10A00B8F1000F02D004F15A0104E0062101FB0644DB
S3250000BC6004F160010422F8F799FA002001E06FF0160006B0BDE8F081C96A10B5C868847959
S3250000BC8034B1D1F8EC0028B14968C90602D404E0017C11B91BB1103202E0002BFBD018327A
S3250000BCA091785378090441EA032113781943D37841EA0361029B1960937951791B0443EA55
S3250000BCC001231179D2790B4343EA0262039B1A6010BD00BF2DE9F0411E469DF81C300F4601
S3250000BCE09046069D13B106F1760406E0841D2046F9F718FA08B106F170042B79EA781B0458
S3250000BD0043EA0223AA786D79134338464146224643EA0563BDE8F04109F04EB8F0B585B0BC
S3250000BD20057B04460F4616462DB12A4602A804F10801F8F733FA5A2204A86B1C0544DBB2EB
S3250000BD4005F8082C0022072B06D804A8591C034403F8082CCBB2F6E70822231D94E80300A0
S3250000BD60019300940DEB020309F0BEF9236820463B606368002133601022F8F75FFA05B0AE
S3250000BD80F0BD00BF70B504460E46154600211022F8F754FA2660656070BD00BF2DE9F34102
S3250000BDA0044616460D4600293AD0002A38D0077BD31907F10800032B06D82044F8F7EEF96B
S3250000BDC0237B1E4426732BE0C7F1040704F104083A46F61B20443D4404F10807F8F7DEF9B5
S3250000BDE03B468DE8100194E80300042209F07CF906F0030336F00306237308D02B468DE8A4
S3250000BE00100194E803003246354409F06DF9227B32B13846294602B0BDE8F041F8F7BEB9E1
S3250000BE2002B0BDE8F08100BF2DE9F04FCDB01E4613880746039113F00C0F9146456A00F02F
S3250000BE40D380F278920640F1D280014603F0FC03882B05AC12BF4FF0000816F8018C16F8A6
S3250000BE60023C4FF0060B08BF43EA0828B37808F007080BFB08FA2370337851F8042B637047
S3250000BE803379A3707379E370B3792371F379637105EB0A038DE81008D2F84C065E334246DF
S3250000BEA002F0A6FA002877D1FF2305F1520085F8473021465A46F8F771F9FB6803F0A003C3
S3250000BEC0A02B20D02279E378120442EA0322A3781A43637942EA036205EB0A0360339978BE
S3250000BEE05878090441EA002105EB0A00DB7890F86000014341EA03639A4204DC11D095F8DF
S3250000BF00463043450DD0039A05F148013846D36A0022019200942A46DB68FFF7DBFE85F861
S3250000BF204780579A137813B1506870BB61E095F8473007A894F801E0FF2B237818BF05F11E
S3250000BF404802294608BF05F13C0243EA0E2308F0E1FF102107A80BAA04F038F9569B0BAA91
S3250000BF60397D7018591A04F053F9397D569A7018511A4FF0FF32F9F711F91F4B984201D1B1
S3250000BF80002036E06FF02F001BE010F1330F05D010F1300F15D02CE06FF032003B681B68DC
S3250000BFA0D3F8A430D3F800210132C3F8002199F80420D6071DD5D3F8C8210132C3F8C821D2
S3250000BFC017E03B681B68D3F8A430D3F820210132C3F8202199F80420D5070AD5D3F8E82120
S3250000BFE00132C3F8E82104E06FF0160001E06FF002004DB0BDE8F08FE320BBDE2DE9F04F97
S3250000C0009BB01446249F0646072F89469846259A456A40F3DF80137823B15068002840F014
S3250000C020C2807FE0083F0DF1500B08EB070292F802A092F801E04FEA0A4A4AEA0E2A18F81D
S3250000C04007E092F805C04AEA0E0A92F803E04AEA0E6A92F806E04FEA0E4E4EEA0C2E92F83E
S3250000C06004C0D2794EEA0C0E0DF14C0C4EEA0262CDF800C01192CDF804B02A46FFF7FCFD67
S3250000C080139916A8149ACDF840C0FFF77BFE214616A80C22FFF782FE4846FFF73FFD04229F
S3250000C0A01AA941F8140D16A8FFF778FE414616A83A46FFF773FEDDF840C016A85A4661462D
S3250000C0C0FFF72CFE1399149A514502D1119B9A4228D0E07933681D68A3790090207A0190A7
S3250000C0E0607A0290A07A0390E07A04902078059060780690A0780790E078089020790990C7
S3250000C10060790D920A90119AB0880F920B900C91CDF838A032482969324AF8F7B3F86FF02D
S3250000C120310043E0336808225868494603230624FBF73CFB95F84720F368FF2A08BF95F84C
S3250000C140462013F4803F05F1520307D104FB0250194622465E30F8F721F807E0314651F835
S3250000C160040B0094D0F84C0602F032FA95F84730FF2B2DD085F8463005F148010A2205F15F
S3250000C1803C000024F8F70AF83368009601940A21D3F84C062246234601F0AEF9FF2385F832
S3250000C1A04730204618E010F1320F15D133681B68D3F8A430D3F8F8200132C3F8F82022783C
S3250000C1C0D40709D5D3F8C0210132C3F8C02103E0002001E06FF00D001BB0BDE8F08F00BF27
S3250000C1E01F050900120509002DE9F04F89B09946C36805460F4613F040049246129E9DF850
S3250000C2004C8040F0AC800268A988D2F84C0602F005FA0590002800F09C807F2E02D006F109
S3250000C220010B05E02A68264613681B6AD3F8D4B0B9F1020F6C6A38D0B9F1080F1AD0B9F1CC
S3250000C240010F40F08C80BAF11F0F16D917B96FF00100ECE02B6806221B6800211B6A20467E
S3250000C260D3F8D4305A435E32F7F7E8FF20463946202217E0BAF10F0F0FD8BAF1000F6BD123
S3250000C2802B6806221B6820461B6A5146D3F8D4305A435E32F7F7D2FF64E0002FD7D020469D
S3250000C2A039461022F7F77AFF5CE0B8F1000F04D0002E54D104F158010AE02B681B681B6A72
S3250000C2C0D3F8D4309E424ADA062101FB06415E31062206A8F7F762FFBAF1000F16D106239D
S3250000C2E003FB0643374603F15E0A5F456EDAB8F1000F02D004F1580000E050460021013786
S3250000C30006220AF1060AF7F799FFEEE7002F9ED0BAF1050F9BD94FF0060C0CFB064C334696
S3250000C3200CF15E0C5B4551DAB8F1000F02D004F1580000E06046394606220493CDF80CC099
S3250000C340F7F72CFF049BDDF80CC001330CF1060CE8E76FF007006AE06FF0170067E06FF0A0
S3250000C360160064E001274FF0010804F15803009304F12001CDF8048028462246059BFFF73F
S3250000C380A9FC7FB1062304F13C0103FB0643284622465E33009300230193059BFFF79AFC43
S3250000C3A084F84660B9F1020F0ED1B8F1000F00D157B12B680024009501940A21D3F84C0601
S3250000C3C02246234601F098F8002030E0B8F1000F02D004F1580303E0062303FB06435E3317
S3250000C3E09DF81C709DF81B203F0447EA02279DF81A20D97817431A799DF81D00120442EAA8
S3250000C400012299785B790A4347EA006742EA0363FF1A18BF0127B8F1000F14BFB8464FF0B7
S3250000C420000818BF0027B8F1000FAAD09BE709B0BDE8F08F2DE9F04FCBB0B2F80090064609
S3250000C4408A4619F00C0F1D46559F03D11379D80700F1F580746AA36D591C06D1B4F85C2084
S3250000C46003F580339A4200F0ED800023E11891F858200132D2B281F8582012B90133062BDD
S3250000C480F4D194F8598094F8583053EA082817D1DAF82C3004F15802009204F120010122BB
S3250000C4A0019230462246DB68FFF714FC33680A218DE840014246D3F84C06434601F01CF80D
S3250000C4C094F859302B7094F8593003F05F0343F020036B7094F85830AB70737C9B0143F01E
S3250000C4E02003EB7094F85A302B7194F85B306B7194F85C30AB7194F85D30EB7194F8383076
S3250000C500D4F82CB0C3F10808B8F1000F31DDBBF1000F0CD019F4806F09D0327D5499521A6F
S3250000C5205A449045A8BF9046B8F1000F21DD3268514650680393F8F7CFFE50458146039B5A
S3250000C54002D15498284403E08089D9F808201044424603F130012144F7F720FE94F838305F
S3250000C5604846434484F83830B9F80C104144FFF7D9FAF3681A0734D59FB313F4007105D07D
S3250000C580DBF1010B38BF4FF0000B00E08B461B045FFA8BF109D507F11C0207F1260079B19B
S3250000C5A07B8843F400537B800AE007F1160207F1200029B13B886FEA43436FEA53433B80B5
S3250000C5C00023E118098CD1540233D6180A2B4FEA112106F8011CF4D129460322F7F7DEFD7F
S3250000C5E02BE0549B05A894F8597004F12002984494F85830214643EA072308F08BFC317D47
S3250000C6004FF0FF326818C1EB0801F8F7C7FDC04304A90490042205EB080008F10408F7F767
S3250000C620BDFD102105A809AA03F0D0FD317D09AA6818C1EB080103F0EBFD002004E06FF015
S3250000C640160001E06FF007004BB0BDE8F08F00BF2DE9F0478AB0446A139E0D4692469946A9
S3250000C660E66236B9C668B60503D5082384F838304CE001230DF10C08294604AF2246CDF8FC
S3250000C68000800197234EFFF7F7FA039906A8049AFFF778FB514606A80C22FFF77FFB9DF85B
S3250000C6A050300AA9042206A841F8143DFFF776FB494606A8129AFFF771FB2A8B06A8336833
S3250000C6C053F8225025B1A968AA89FFF767FBF4E73A464146FFF722FB039B84F838501A0A6A
S3250000C6E084F8303084F831201A0C1B0E84F83330049B84F832201A0A84F8343084F835201B
S3250000C7001A0C1B0E84F8362084F8373000200AB0BDE8F087CC072000102310B5C3740823CC
S3250000C7200375042343750C4B04460362036806201B681B6AD3F8D43058435E3004F024FFEE
S3250000C740E3680028606243F48033E3600CBF6FF01A00002010BD00BF1069080010B50446F1
S3250000C760406A08B104F01CFF002020626062E0742075607510BD00BF38B5049D0446022D8C
S3250000C7800846616A0ED0072D1AD0012D23D10BB1E57C1D60E37C9A4228BF1A4617D26FF0F8
S3250000C7A00D0038BD0BB110241C600F2AF7D9059B8BB99DF818300BB1203107E0303105E001
S3250000C7C00BB110241C600F2AE9D910311022F7F7E5FC002038BD6FF0160038BD70B50C46B4
S3250000C7E0064601F13000154600211022F7F726FD2346002236215C20102A03F1020305D0A0
S3250000C80083F82E10023283F82F00F5E7AB7963B92B7C3BB90622B01D05F17601F7F7F8FF7D
S3250000C820002802DB372384F8303070BD2DE9F74F1F4613880446884613F00C0F1646DDF8C7
S3250000C84034B0456A02D11379DB076BD4214605F1300A102207F1020951F8043B0192CDF813
S3250000C86000900022D3F84C06534601F0C1FD00285BD13379D80707D495F83020BB789A42F5
S3250000C88002D06FF02F0052E09BF8003023B1DBF8040000284BD11DE00C9A05F11001284636
S3250000C8A03A44921B334608F041F90028E9D16B6C01336B6433F07C430CD12246D8F82C10AD
S3250000C8C052F8060BF22500930195D0F8D801C96877F014F8504649461022F7F75FFC237C33
S3250000C8E00B2B1BD1E26812F4801219D02368627C0025009582F00102D3F84C06D8F82C1084
S3250000C9002B4601F051FA2B4629462A46FEF7E4FAE368284623F48013E36008E0002006E0AD
S3250000C920104604E06FF0160001E06FF0320003B0BDE8F08F2DE9F0479A46C36816465A06E5
S3250000C94004460F469DF8249053D40368A188D3F84C0601F063FEBAF1010F8046656A03D09C
S3250000C960BAF1020F24D044E0E27C02F110039E4208D02EB9284631464822F7F75FFC35E02D
S3250000C9809E423AD3002F3CD039462846F7F706FCE17C05F1100010223944F7F7FFFB20462C
S3250000C9A02946424600F032F82046294642460BE0089BF3B95EB9204629464246B9F1000F9C
S3250000C9C002D000F023F811E0FFF708FF0EE0C7B10F2E16D9B9F1000F02D005F1200001E072
S3250000C9E005F1300039461022F7F7D8FB0020BDE8F0876FF01600BDE8F0876FF01700BDE8B1
S3250000CA00F0876FF00100BDE8F08700BF70B50C46064601F12000154600211022F7F70EFCE3
S3250000CA202346002236215C20102A03F1020303D099770232D877F7E7AB794BB92B7C53B940
S3250000CA400622B01D05F17601F7F7E2FE002802DA372384F8203070BD2DE9F8431E461388F9
S3250000CA600746144613F00C0FDDF8248002D11379D9074BD47D6A0023E91891F8202001320D
S3250000CA80D2B281F8202012B90133102BF4D1237913F0010311D07B7C05F120091022B01CBC
S3250000CAA03370002373704946F7F778FBFB681A070DD41CE00133102BEDD0E91891F8202080
S3250000CAC00132D2B281F82020002AF3D0E3E7B8F1000F0CD013F4004402D00020BDE8F88338
S3250000CAE0494608F116001022F7F758FBF5E7089A05F1100128463244121B234608F0C0F870
S3250000CB000028EAD06FF03000BDE8F8836FF01600BDE8F883102310B5C3744375074B12227C
S3250000CB20044602750362482004F02EFD002860620CBF6FF01A00002010BD00BF30690800C7
S3250000CB402DE9F0438BB0064680468C4691460FCE6D4664460FC50FCE47460FC596E80300C3
S3250000CB6085E803000FCC0FC70FCC0FC76F4694E8030086E803000FCF66460FC60FCF0FC626
S3250000CB80B8F80430BCF8042095E8030084E80300A8F80420ACF80430BCF81C20B8F81C305C
S3250000CBA0A8F81C20ACF81C30D8F800301B689B6A3C33C8F81830D8F80C3023F48013C8F82E
S3250000CBC00C30DCF80C3043F48013CCF80C30B9F1000F06D04C460CF104050FCD0FC42B68D0
S3250000CBE0236060460BB0BDE8F08300BF10B50446406A08B104F0D4FC002020626062E07486
S3250000CC002075607510BD00BF38B5049D0446012D0846616A02D0022D09D019E00BB1E57C09
S3250000CC201D60E37C9A420ED26FF00D0038BD9DF818506DB1059D5DB90BB1257D1D60237DA7
S3250000CC409A42F1D310311A46F7F7A8FA002038BD6FF0160038BD00BFC3B2C0F30720C21896
S3250000CC60D2B28A4210B521D9FF2804D1022B1FD98A1C934209E0012B08D1012806D90222E9
S3250000CC804C1E94FBF2F2013290420FDD490803220231C3F1FF04914206DB934201D1A04223
S3250000CCA004D00132D2B2F6E7002010BD012010BD012BEBD1E3E700BF2DE9F041C6B01646A1
S3250000CCC04D9A044611781D464C9F19B15068002834D14EE0C268D0F82480D20209D5328867
S3250000CCE068464146C2F30122F9F748FD684610210DE0194603226846F7F750FA41460DF131
S3250000CD000300E27CF7F74AFAE17C6846033105AA03F05CFA217D05AA6818791A03F078FA7E
S3250000CD20217D4FF0FF326818791AF8F737FA124B984208BF00201CD06FF02F0023681B6806
S3250000CD40D3F8A430D3F818210132C3F81821D3F814210132C3F814213279D40709D5D3F8B1
S3250000CD60E0210132C3F8E021D3F8DC210132C3F8DC2146B0BDE8F081E320BBDE012B2DE920
S3250000CD80F041069F044688461646456A02D0022B6ED084E0C27C964207D026B92846314642
S3250000CDA0F7F74CFA61E0964271D3B8F1000F72D0002128222846F7F741FAE27C284641468D
S3250000CDC0F7F7ECF92A460023217D01398B4213DA216808680E69017F11B1B6F85A1604E0A1
S3250000CDE0806A99B2084400EB012189B2023311740232090AD173E7E7294400230B742368B7
S3250000CE00A188D3F84C0601F06FFC18B1C668F26D02BB07E02368A188D3F84C0601F0FEFBB5
S3250000CE20064617E023683146D3F84C061346FBF787FE037C227C07469A420BD1427C637CFB
S3250000CE409A4207D0606A2946E27CF7F795F908B97B7C6374306DE36810F0200023F48003D5
S3250000CE60E36022D043F48003E3600020BDE8F0819DF81C309BB197B9027D964213D805F18F
S3250000CE801000F7F78BF9237D1D44EF73EDE76FF01700BDE8F0816FF00100BDE8F0816FF072
S3250000CEA01600BDE8F0816FF00E00BDE8F08100BF2DE9F047C8B01E46C3680446456AD802D7
S3250000CEC09246DDF84081DDF844910AD50023E9180A7C0132D2B20A74CAB90133042BF6D1C9
S3250000CEE015E0AF7C6B7C3F0447EA03272B7C1F43E17C013727F07F473846FFF7ADFE0028C5
S3250000CF00F6D13B0A2F743F0C6B74AF74E874304605F110010322F7F741F9637C9B01F3700B
S3250000CF20E36819070BD5B9F1000F08D01A043FD4314609F11600227DF7F730F938E0217DEB
S3250000CF404FF0FF327018C1EB0801F8F727F9C04301A90190042206EB080008F10408F7F7BF
S3250000CF601DF9E368DB020BD5BAF8002002A82946C2F301223346F9F701FC102102A80DE09C
S3250000CF80314602A80322F7F709F929460DF10B00E27CF7F703F9E17C02A8033107AA03F0B6
S3250000CFA015F9217D07AA7018C1EB080103F030F9002048B0BDE8F08710B5037C0446013BB7
S3250000CFC0082B32D8DFE803F00531073131310A121A00052300E00D23E37417E0032303742B
S3250000CFE01023C374C36843F480130EE0032303741023C374C36843F4401306E0032303749F
S3250000D0000D23C374C36843F40013E360042323756375074B2820236204F0B6FA00286062A7
S3250000D0200CBF6FF01A00002010BD6FF0010010BD50690800F0B5CDB003681646CA78D3F8D5
S3250000D0404C060D469209D3F8BC1206ABFBF7F4FC9DF82430044603F0FD03012B19D1476A71
S3250000D06001A829460322F7F799F839460DF10700E27CF7F793F8E17C01A80BAA033103F0B1
S3250000D080A5F8217D0BAA6818711A03F0C1F8002001E06FF02F004DB0F0BD00BF2DE9F341A1
S3250000D0A00E884FF6FF78464505460C46ADF8068030D007693601B9192CD08B88DB0729D55D
S3250000D0C0BB593BB3224601F0B1F918B3BE590DF10603A86831462246FBF76EFEBDF80670E4
S3250000D0E0474517D039462246A868FBF7C9FF024639463046FDF7AEFBEB6A304621460133C6
S3250000D100EB62FDF7E7FBA868BDF8061032462346FBF7CEFFBDF806004FF6FF73C01A18BF48
S3250000D120012002B0BDE8F0812DE9F04389B0158807692D0107EB0508044698F80C3089465F
S3250000D140164613B1836A013B8362B3681B072DD5E36A7859013BE362FDF7BAFB324608A9EB
S3250000D16021F8160DA068FBF7F5FE78594FF6FF7100220025FDF76EFBE389AB4216D9338853
S3250000D1802269AB420FD02B01D1180CD08988CF0709D5D05838B103A9FDF79CFB204603A922
S3250000D1A0FFF77CFF10B90135ADB2E5E7002520462A464B4600950321FBF79AFD404629460B
S3250000D1C01022F7F73BF809B0BDE8F0832DE9F04385B0894611884FF6FF7399420446154608
S3250000D1E000F01181D0F810800E0108EB0607127B3B7B33B9002A00F00681836A013383626A
S3250000D20006E02AB9836A013B8362806BFDF760F93B7BFBB12A7B9A421CD0AB681B0719D507
S3250000D220E36A58F80600013BE362FDF751FB2A4604A921F8020DA068FBF78CFE4FF6FF7106
S3250000D24058F806000022FDF705FB58F806002946FDF740FB204639462A4601F0E7F8F0B1A2
S3250000D260A0680DF10E0349462A46FBF7A5FDBDF80E604FF6FF739E4216D031462A46A0686F
S3250000D280FBF7FEFE024631464846FDF7E3FA48462946FDF71FFBE36A0133E36204E0484639
S3250000D2A0FDF716FBADF80E00BDF80E104FF6FF73994204D0A0684A462B46FBF7F9FEAB6872
S3250000D2C0DE0611D52B7B03F0FD03012B3B7B03F0FD0304D1012B07D0636A013303E0012B28
S3250000D2E002D1636A013B6362BB88980630D5D7F80880D8F80C60D8F83020D6F8B0305B8E57
S3250000D30003F44043B3F540414B424B419A4208D0606808F11002314681F09EFD08B18046C2
S3250000D320B8603A7B2B7B934203D02046414601F035F963684146D3F8E00173F0A9FC98F82A
S3250000D3402330DA0605D54046294663F0A5F800E0BE682B7B3B73B379002B32D1D6F88030A3
S3250000D3605B0502D4BB8898072BD52B7B4BB330461AF09EFC012386F860302B7B804613F030
S3250000D380060F0CD06068D0F8BC22B24207D1026892F85D201AB1D6F8B01081F0FDF8606864
S3250000D3A03146012232F03EFAB8F1000F09D130461AF07EFC28B1D6F8C0303046197A1CF03B
S3250000D3C025FCAB6819050BD513F0600F04D103F4C073B3F5C07F03D16068314681F03CF904
S3250000D3E0BB8829885A06A06B5DBF43F04003BB8001260226FDF7D0F800220092204631465F
S3250000D4004B46FBF775FC05B0BDE8F0832DE9F04786B088460446FBF791F9D8F85030824616
S3250000D420984265D04FF00009E3894B455BD926694FEA0915771951D0BB88D8074ED57059BA
S3250000D44000284BD013F0020FBB6808BFDB68434502D0DB79002B41D0D8F850308AEA03038E
S3250000D46019072ED501A9FDF735FA039B1A0713D5E36A7059013BE362FDF72AFAADF80200B9
S3250000D4800DF10201A06801AAFBF764FD70594FF6FF710022FDF7DEF9D8F85030B9887059BA
S3250000D4A013F0080F0CBF0022802221F0800141EA020301A9BB80FDF70DFA204601A9FFF715
S3250000D4C0EDFD3A7B2046D8F8501001F085F8024620B97059397B1346FDF7FEFC09F10109BA
S3250000D4E01FFA89F9A0E7204641460122FBF79AFA06B0BDE8F08700BF2DE9F0439DB0894678
S3250000D50017461D46249EDDF894800446002800F04E810368724A934240F049814368002B9D
S3250000D52000F04581B0F90C30002BC0F2408130460AA9FDF7CFF909F1FF33162B00F23781B0
S3250000D540DFE813F01700390077007F003501350172003501350192008C00980098003501E7
S3250000D560D000A100AF00B800C70035012C0135013201A389DF0540F11A81A06823F440738C
S3250000D580A3810025FBF772FEE389AB4240F20F8122692B01D1180BD08988CE0708D5D05859
S3250000D5A030B114A9FDF796F9204614A9FFF776FD0135ADB2E8E7A78907F48077BFB2002F92
S3250000D5C040F0F580E389BB4224D926693D0173191DD09B88D8071AD57059C0B114A9FDF718
S3250000D5E079F9169B190712D5E36A7059013BE362FDF76EF9ADF83C000FA9A06814AAFBF7B8
S3250000D600A9FC70594FF6FF710022FDF723F90137BFB2D7E7A068FBF729FE00232363A38952
S3250000D62043F48073A381C2E020463946FFF7EEFEBDE0204639460022FBF7B8F8236B013325
S3250000D6400AE0A28902F4007292B21AB920463946FBF7ACF8236B013B2363A8E020460AAAC3
S3250000D6603146FFF761FDA2E020460AAA3146FFF7ADFD9CE08DE84001204649463A462B460E
S3250000D680FAF75EFD93E09DF834302BB92046D8F82C10424600F016FFCDF800802046042119
S3250000D6A003E020460521CDF8008000223346FBF71FFB7CE09DF83430022B05D120460AAB96
S3250000D6C04146324600F0A6FCCDF8008020460621EBE7204639462A4600F086FC67E000BF42
S3250000D6E06D6B730027B1204639460022FBF75EF8002D5CD095F82330DA0603D420462946ED
S3250000D70000F0D4FAEE68002E51D0337C002B4ED1F36D012B4BD163681B6893F842301BB1E8
S3250000D720D6F88430042B42D06B682046314643F000536B600FAB0022FBF77EF99DF84830CD
S3250000D740002B34D0202214A909ABFDF7ABF8024600282CD1134600902946204600F024FB10
S3250000D7609DF8481014AA099BFDF7B6FBF8B1636896F944201B680090297C0E480191697CC3
S3250000D7800291A97C0391E97C0491297D0591697D06911969084BF6F775FD08E02046394683
S3250000D7A00222FBF73FF902E0636B013363631DB0BDE8F083B70509000506090013B50024C1
S3250000D7C000940194022122462346FFF795FE204602B010BD13B50024009401940121224619
S3250000D7E02346FFF789FE204602B010BD70B5044E0E41F40703D4BDE87040FFF77DBE70BD0D
S3250000D800794F57008B682DE9F3411D0704460E4658D40B7CD80716D401F110073846F7F7F3
S3250000D82081FC054678B960680368DB6A012B0CD9336BF16813F1FF333A4618BF012381F047
S3250000D8400BFB054601E024B10025A76937443DB900E027462046F16800220025FBF788F850
S3250000D86079884FF6FF7841450FD035B92046BA1C29460123FAF756FB07E00023009320467E
S3250000D8802A4600F051F9A7F80280B9894FF6FF78414510D03DB9204607F10C02294601235E
S3250000D8A0FAF740FB07E00023009320462A4600F03BF9A7F80C802046314602B0BDE8F0410F
S3250000D8C000F0B8B902B0BDE8F08100BF8B682DE9F04F93B00D461907044600F1218110B1BE
S3250000D8E086692E4400E006462B7CEF68DA0700F1138105F110084046F7F714FC002840F047
S3250000D9000B8160680368DB6A012B40F205812B6B394613F1FF3318BF0123424681F09CFA44
S3250000D920002800F0F980A369324600EB030A53460AF1100153F8040B8B4242F8040BF9D1F5
S3250000D94071884FF6FF78414519D020460DF134092A460123CDF8009000F0E6F83946204660
S3250000D9604A46FBF705F8B189414500F0D9800023009320462A46012300F0D6F8D0E04FF0BC
S3250000D980010820463946FBF71FF84FF6FF73B3737380B3813B6D079013F4807F2B7C14BFC7
S3250000D9A002200120DB07069000F1BA8005F1100B5846F7F7B7FB002840F0B2803B6D002BCF
S3250000D9C000F0AE8097F806900AAA2046B9F1000F14BF4FF400694FF000094946069BFAF743
S3250000D9E075FA0146002840F09B80BDF828300DA814220593F6F722FC059BDBF80000BBF837
S3250000DA000420ADF83430CDF83600ADF83A20B8F1000F02D149F0060203E049F4806242F0D9
S3250000DA2006020F920DA900228DF8412009AA20460593FCF75DFE8446059B30B120460AAA15
S3250000DA404946069BFAF76EFA6AE007982169002814BFA4222422738001EB03118DE8041041
S3250000DA60099B624620460295CDF814C000F0A6FC20460DAA3946FAF77BFF3B6DDDF814C0D4
S3250000DA8013F4807F3BD061460DA81422BDF82A70F6F7D4FBDBF80000BBF80430ADF83470CF
S3250000DAA0CDF83600ADF83A30B8F1000F01D049F48069204649F004034FF0010909AA0F9363
S3250000DAC00DA98DF84190FCF713FE024638B120460DF12A0200214B46FAF724FA0FE0079820
S3250000DAE02169002814BFA0232023B781204600930192029501EB0711099B00F05FFCB8F19E
S3250000DB00000F0DD0534606F1100256F8041B964243F8041BF9D103E04FF00008C24630E7BF
S3250000DB20002013B0BDE8F08F2DE9F04387B006460E9C9046994604B901AC0D013269214633
S3250000DB4057593846FCF7C6FEA168B9F1000F02D041F4806101E021F48061A1603846A168D1
S3250000DB60FCF756FE33691D44C5F8088007B0BDE8F08300BF2DE9F84301F11009CD680446AD
S3250000DB80AB793BB94268126892F948201AB105F1760900E010B1A7690F4400E0074697F850
S3250000DBA00E80B8F1FF0F06D00122A06841461346FBF7D4FF39E02A7C2AB96368D3F8BC225E
S3250000DBC0AA4215D109E0002BF7D120462946FAF757FDFF28064616D1EFE7AA7942B9EA6DD2
S3250000DBE032B92A6DD20720D41B6893F82831E3B1A0684946FBF77AFFFF28064615D03B88B8
S3250000DC0043F001033B8031466068B0461EF0BAFC074B10F4004F08BF0020034331469BB27D
S3250000DC2060684A461EF0B4FCBE734046BDE8F8830480FFFF38B50B46054618B121B184695E
S3250000DC400C4402E0044600E00C46A17BFF2916D0DB68DB7923B1A86801220023FBF77EFFB6
S3250000DC602388D90702D4FF23A37338BDA86804F10E01FBF75FFF238823F00103238038BD52
S3250000DC80FFF7C0BD38B50C46054618B119B18069084401E000E0084600211022F6F7CEFAA2
S3250000DCA028462146BDE83840FFF710BE38B505460C46FFF7A7FD28462146BDE83840FFF79C
S3250000DCC005BE00BF70B588B00C680546A3681E074DD4237CD8074AD404F11000F7F722FAA4
S3250000DCE00246002843D1E66803AB009328461346214600F059F89DF818309BB194F8233094
S3250000DD0003F0100303F0FF0163B9F36D012B09D90A460B46FDF7E0F8B2791AB9284631462A
S3250000DD20FAF744FDBDF80C204FF6FF739A4201D1002218E0F36D002BFAD094F82330990777
S3250000DD40F6D5A86BFCF706FC01280BD06B681B6893F8FA30002BEBD020B9A86B4FF0FF319A
S3250000DD60FCF744FC01222846214600F0E5F808B070BD00BF38B505460C4611B96FF01D0031
S3250000DD8038BD8B681A07F9D40B7CDB07F6D401F11000F7F7C7F90028F0D128462146FFF710
S3250000DDA0E9FEFF28EAD038BD2DE9F04F87B00446109D0E461746994605B901ADB3681A07E5
S3250000DDC000F18680337CDB0700F1828006F11000F7F7A8F900287BD11CB1A36906EB0308E3
S3250000DDE000E0A04619F4907F4FD1B8F802604FF6FF739E426CD0002C6AD0E389B34267D92F
S3250000DE00D4F810A0360129465AF80600FCF762FD6B7BBB4202D15AF806405EE02B7B0B2BC8
S3250000DE2056D1D5F8089019F4801F51D05AF806A0B8F80C60D4F81080360158F80600FCF793
S3250000DE4045FD8346294658F80600FCF743FD2B7B0B2B3DD1BBF1000F04D063681B689B6AED
S3250000DE609B4505DB6B7BBB4232D158F8064034E000210A460B4658F80600FDF72DF8504685
S3250000DE8029F48011FCF7C4FC22E0F1682CB121B16368D3F8BC328B421AD0CB88C3B9D1F83E
S3250000DEA08030580514D463681B6893F842301BB1D1F88430042B0BD019F0200F08D0032F87
S3250000DEC006D820463A462B46FAF7B6FD044604E0246A29462046FCF7FDFC204607B0BDE824
S3250000DEE0F08F00BFF7B507461C460D46D1B1866C7EB1716805F1100006220231F6F73CF931
S3250000DF0038B93768ACB175680FCD0FC42B6823600FE000223846009429461346FFF744FF48
S3250000DF20074606E011462A4603B0BDE8F040FAF707BE384603B0F0BD70B5044615460846AD
S3250000DF4009B3CE68B37923B9337C002B08BF002500E0002514B1A369184400E020464188BA
S3250000DF604FF6FF73994207D034B1E3898B4203D9A06B2A46FCF7ACFA204631462A46BDE832
S3250000DF807040FAF7F7BB70BD2DE9F04385B08F790C469046456827BB4FF00E0901F1700600
S3250000DFA0009601F176030193CDF80890334628461BF048F8284641461AF00EFC4046132174
S3250000DFC062F0E2F92846CDF80090019721463A4633462BF095FD204605B0BDE8F04313F0B0
S3250000DFE08DBF05B0BDE8F08330B518B121B143690B4402E0034600E00B46446825685C6A2C
S3250000E000AB6A9C4205DA8B791BB9BDE83040FFF7BBBF30BDF7B51E469B681746DA02054647
S3250000E0204DD40369318803EB01118C88A30602D58B68DC6804E004F00204A4B224B18C68CC
S3250000E04014B16969214400E021466B680A6A1B68986A821A3C2A08621FDC3C3048623C21D1
S3250000E06094F94420174800911969174BF6F70AF9A37953B9686800B14068E3680122D968E5
S3250000E080002300930431F9F769FD002300932846092122463B46FAF72BFE6B681B68D3F8C7
S3250000E0A0A420D2F8FC300133C2F8FC30B36813F4907F04D0D2F8C4310133C2F8C43103B02C
S3250000E0C0F0BD00BF0F060900520609000B7C6BB110B14369194400E001464368486A1B68DB
S3250000E0E09B6A9842D4BF0020012070471846704713B50C4618B121B143690B4402E00346C0
S3250000E10000E00B46217C99B141685AB10A680921926A1A623C325A62002300932246FAF7E0
S3250000E120E7FD05E00A68596A926A9142C8BF5A6202B010BD0123026C03FA01F1114214BFA3
S3250000E14000200120704700BF0123426C03FA01F101EA0200C0B270472DE9F041D568104651
S3250000E1602A6D8846079F002A59D095F85820002A55D01A88B3F816C002F44073B3F5407FB4
S3250000E1800CBFEC6D446B12F00C0F0FD183689F0545D52B7A002B42D002F0FC02C02A02D171
S3250000E1A00020BDE8F081A02A39D1F9E702F07C06082EF5D11CF00F0F0FD1089B072BEFDD54
S3250000E1C01A4839463246F5F7D7FFB8B1184839463246F5F7D1FF88B1E2E7BDF818302CF087
S3250000E1E00F0C03F00703543330F8133023F00F039BB29C4502D143681E0713D534F0080302
S3250000E2000DD0102C0BD0B4F5806F08D0B4F5006F05D098F80C3013B12B7C002BC0D1012093
S3250000E220BDE8F08183689806BAD5E7E728D408004EEF08002DE9F04389B00446119D0F46C4
S3250000E24016469846DDF8409005B903AD3378D90703D5FB793BB9394608E03046F6F762FF75
S3250000E2600028F6D108E06368D3F8BC12204642462B46FAF7E1FB29E03946204632460123A7
S3250000E28000F02AF8074628B9266A29463046FCF721FB1CE042464B46009520463946FFF72F
S3250000E2A083FD2B884FF6FF729342064603D014B1E2899A420BD820463946FFF7F7FC009529
S3250000E2C02046394642464B46FFF76EFD0646304609B0BDE8F08300BF2DE9F84380460C461E
S3250000E2E0994646681546002A43D01378DA0740D42846F6F717FF00283BD1237A4BB1D4F869
S3250000E300B0305F8E07F44047B7F540435F425F4101E0F36A5F68304621462A463B4680F0F5
S3250000E3209BFD50BBD8F804301B68DB6A012B20D9D7F1010338BF0023304621462A4680F0A0
S3250000E3408BFDD0B9B9F1000F10D0304621462A463B4662F035FE80B9D8F8043008481B68AA
S3250000E36094F944201969074BF5F78CFF0020BDE8F883B9F1000FEFD1F8E7BDE8F88300BFE4
S3250000E38070060900640609004FF6FF7399420ED078B1C2898A420CD902690901501808D03B
S3250000E3A08088C00705D5505818B1FCF791BA084670471846704700BFC089704730B5BDF88C
S3250000E3C00C400A73049A44F480450B6014F0020F059C45F001058D8008BF22468A6000222F
S3250000E3E0039304920A211346BDE83040FFF784B82DE9F0418E680746069D16F4805F1846AC
S3250000E400079C10D1F60304D5B86BBDE8F041FCF7A3B829462246FCF7EDF9D0F1010038BFF0
S3250000E4200020BDE8F0810020BDE8F081838970B5DB0506460D46144601D5002070BD002914
S3250000E440FBD08B88D907F8D52B68002BF5D0002AF3D093681A07F0D4217B0029EDD0FFF763
S3250000E46073FE0028E9D1A37B002BE6D0AA881306E3D4A368D802E0D413F0060FDDD0590685
S3250000E480DBD4900712D5A96808790028D5D0C8790028D2D1897949B9217B0229CDD0D90697
S3250000E4A004D4637B013BDBB2012BC6D8930607D5AB680BB1B269134422889B899A42BCD021
S3250000E4C0012070BD2DE9F04385B00C46002932D09368D0F804801B79CD68DB072BD4AB79D8
S3250000E4E04BB3D1F8EC3033B3EB6D23B34A6812F0200720D14FF0020901F11006224605F1A3
S3250000E50076030093019329463346CDF8089040461AF098FD2046102161F036FF3346CDF890
S3250000E52000900197404629463A462BF0E9FA636843F02003636005B0BDE8F083416870B5BB
S3250000E540D1F8BC32DA6D42B11B7C2BBBB2F1010CDCF1000050EB0C0070BD0C6894F83850CE
S3250000E56015B193F85960AEB9866AC26A964213D11DB1D1F8DC219A5C72B994F839200AB9EF
S3250000E5809B7913B1036B012B06D8406A003018BF012070BD104670BD002070BD013A0F2AE2
S3250000E5A012D8DFE802F0080A080C0C0C080808110E11110C0C0C012307E0022305E00423BB
S3250000E5C003E04FF4807300E000238B63704700BF806BFCF717B800BF132A0BD8DFE802F070
S3250000E5E0180C0F0C1212120C0C0C0A150A121212121212120020704701F001007047C1F3A1
S3250000E60040007047C1F380007047C1F300207047012070478068FAF7CFBF00BF4FF6FF73D2
S3250000E620994210B514D0B0B1C3898B4210D90469090163180ED09A8812F001000BD0605865
S3250000E64048B1900602D59B68D86810BD986810BD002010BD184610BD4FF6FF73994210B502
S3250000E660046A0DD0C3898B420AD900690B01C11806D08988C90703D5C358002B18BF1C46F1
S3250000E68020461146FCF726F9204610BD2DE9F341064614469846056A0F46E9B1E2B1137828
S3250000E6A0DB0709D5304608F040023946FAF756FAFF28034610D005E01046F6F733FD002854
S3250000E6C0F0D1034600220192CDF80080304639462246FFF7AFFD054628460899FCF7FAF8F2
S3250000E6E0284602B0BDE8F0814FF6FF73994210B513D0A8B1C3898B420FD904690901631858
S3250000E7000DD09A8812F001000AD0605840B102F0200080B220B1986810BD002010BD184641
S3250000E72010BD00BF30B10368034A934201D1406870470020704700BF6D6B73008B692DE9BD
S3250000E740F74301F13C061A8A804617070C460CD5836CC2F345121989914206D193E8A00028
S3250000E7600FCF0FC63B6833601EE06369626BD96AD1F80C90002A42D08A6B6368D505DF783E
S3250000E78003D51F7807F0010700E0BF0994F82C30002B3BD1009640463A46FFF705FB94F820
S3250000E7A048300546002B31D0A56328466169A269FCF79AF9064600282FD194F82C303BB943
S3250000E7C0D8F848100B68AB4202D02846FCF75CF8636B13B394F84830FBB194F84C3062680E
S3250000E7E01A44626094F84D201344A268D21AA2602269D31A236163699B89E3600DE00096F9
S3250000E80040461346FFF7D0FA0546CDE7404649463A463346FAF710F9F6E7304603B0BDE8A1
S3250000E820F08300BF70B506460D46084600210A4600F026F80023F118EC5800228C5401326A
S3250000E840042A4FEA1424F9D10433102BF3D170BD094B036003F188334360084B8360A3F113
S3250000E8608833C36000231946C2180133082B1174FAD100238361704701234567FEDCBA98E7
S3250000E880836930B591B00446002B5CD1134610302BB105782B4400F8013B1B0AF8E7B2F57E
S3250000E8A0007F03D1204600F051F84CE04BD8D00802F00702CD5C0DF8035001338342F9D9F2
S3250000E8C00021431C402B03D00DF803100133F9E70123C2F10702372803FA02F210AB034416
S3250000E8E0D2B2C2F1000113F8405C42EA050201EA020203F8402C10D80023E11800AA1A449E
S3250000E9000133097C082B82F83810F6D12046694600F01CF80123A36115E02046694600F041
S3250000E92015F800231A460DF803200133382BFAD10023E11800AA1A440133097C082B82F82D
S3250000E9403810F6D1E2E711B030BD00BF2DE9F04F91B00023CA18CC5C557804EB05249578B7
S3250000E960D27804EB054404EB02624DF803200433402BEFD143688468C168009E026821EA1F
S3250000E980030504EA030132440D431544C768019A4FEA757505EA03013A4424EA05070F438E
S3250000E9A01744029A4FEA776707EA0501224423EA07040C431444039A4FEA745425EA040C6A
S3250000E9C004EA07011A444CEA01011144049A4FEA713127EA010C154401EA04024CEA020235
S3250000E9E02A44059D4FEA727224EA020C2F4402EA01054CEA05053D44069F4FEA756521EADF
S3250000EA00050C3C4405EA02074CEA07072744079C4FEA775722EA070C214407EA05044CEA5A
S3250000EA2004042144DDF820904FEA713125EA010C01EA07044A444CEA04041444099A4FEAF1
S3250000EA40747427EA040C154404EA01024CEA02021544DDF828C04FEA756521EA050805EAF3
S3250000EA600402674448EA02023A440B9F4FEA725224EA0208394402EA050748EA070739443A
S3250000EA80DDF830804FEA713101EA020725EA010A44444AEA070AA2440D9C4FEA7A7A22EA6D
S3250000EAA00A0725440AEA01043C4325440E9F4FEA756521EA050B05EA0A043A444BEA040462
S3250000EAC014440F9A4FEA745404EA050B11442AEA040242EA0B021144DC4A4FEA71313244BC
S3250000EAE0924444EA05020A4042EA0B02049F5244DFF858A34FEA7272BA4441EA040B02EA36
S3250000EB000B0B554401EA040A4BEA0A0A5544DFF83CA34FEAF565CA4442EA010B05EA0B0BD1
S3250000EB20544402EA010A4BEA0A0A5444DFF81CA34FEAF454C24445EA020B04EA0B0B51446D
S3250000EB4005EA020A4BEA0A0A019F5144DFF8FCA24FEAF141BA4444EA050B01EA0B0B524483
S3250000EB6004EA050A4BEA0A0A059F5244DFF8DCA24FEA7272BA4441EA040B02EA0B0B5544CA
S3250000EB8001EA040A4BEA0A0A099F5544DFF8BCA24FEAF565BA4442EA010B05EA0B0B544451
S3250000EBA002EA010A4BEA0A0A0D9F5444DFF89CA24FEAF454BA4445EA020B04EA0B0B514462
S3250000EBC005EA020A4BEA0A0A029F5144DFF87CA24FEAF141BA4444EA050B01EA0B0B524482
S3250000EBE004EA050A4BEA0A0A069F5244DFF85CA24FEA7272BA4441EA040B02EA0B0B5544C9
S3250000EC0001EA040A4BEA0A0A5544DFF840A24FEAF565E24442EA010B05EA0B0B544402EAE0
S3250000EC20010A4BEA0A0A0E9F5444DFF820A24FEAF454BA4445EA020B04EA0B0B514405EA59
S3250000EC40020A4BEA0A0A039F5144DFF800A24FEAF141BA4444EA050B01EA0B0B524404EA7D
S3250000EC60050A4BEA0A0A079F5244DFF8E0A14FEA7272BA4441EA040B02EA0B0B554401EAC7
S3250000EC80040A4BEA0A0A0B9F5544DFF8C0A14FEAF565BA4442EA010B05EA0B0B544402EA4A
S3250000ECA0010A4BEA0A0A0F9F5444DFF8A0A14FEAF454BA4445EA020B04EA0B0B514405EA59
S3250000ECC0020A4BEA0A0A5144DFF884A14FEAF141B24484EA050B8BEA010B52445A44DFF8DD
S3250000ECE070A14FEA7272CA4481EA040989EA02095544049E4D44DFF858914FEAF555B144D8
S3250000ED0082EA010A8AEA050A4C445444DFF840914FEA7454C14485EA020888EA0408494499
S3250000ED20029F4144DFF828814FEA7141B84484EA050989EA010942444A44DFF814814FEA8E
S3250000ED407272E04481EA040C8CEA020C4544069E6544DFF8FCC04FEAF555B44482EA01084D
S3250000ED6088EA050864440E9F4444DFF8E4C04FEA7454BC4485EA020767406144019E3944D5
S3250000ED80334F4FEA7141374484EA050C8CEA010C3A44099E62442E4F4FEA7272374481EA38
S3250000EDA0040C8CEA020C3D44059E6544284F4FEAF555374482EA010888EA05083C440D9E58
S3250000EDC04444234F4FEA7454374485EA020888EA04083944039E41441D4F4FEA714137444B
S3250000EDE084EA050C8CEA010C3A440B9E6244184F4FEA7272374481EA040C8CEA020C3D44BF
S3250000EE00079E6544124F4FEAF555374482EA010C8CEA050C3C440F9E64440D4F4FEA74540D
S3250000EE20374485EA020C39448CEA040C076861443A44026003EB71438668C16826440D4469
S3250000EE4043608660C56011B0BDE8F08F9979825AA1EBD96E30B591B00A684B680E92C2F3B8
S3250000EE60C502372A0C46D4BFC2F13802C2F17802054608461B490F9300F048F8234600220B
S3250000EE80997E0433D87D090441EA0061187D0143587D41EA00214DF802100432382AEFD187
S3250000EEA0694604F1080000F06BF82346002299680432102A03F104034FEA112083F854100D
S3250000EEC083F855004FEA11404FEA116183F8560083F85710EBD1284604F15801F5F75EF9B9
S3250000EEE011B030BD70690800002343600360054B836003F18833C360034B0361A3F188334E
S3250000EF004361704701234567FEDCBA98F0B591B00D460168044601EBC2008842C1F3C503B4
S3250000EF2002D2616801316160616804F10807AE1801EB527120606160B5421FD015F8012B99
S3250000EF40591C402923441A7616D1234600219A7E0433D87D120442EA0062187D0243587D6E
S3250000EF6042EA00224DF8012004314029EFD16946384600F005F800210B46DDE711B0F0BDBB
S3250000EF802DE9F04F8FB00A68D94E456887680368C468164402921E4424EA050207EA0503AD
S3250000EFA013431E444A68D34CC36805EB7666144403921C4427EA060206EA050313438D6822
S3250000EFC01C44CD4B06EB34542B443B44476804EA0602049527EA040515431D44CA68C74BF7
S3250000EFE004EBF535134405923B4405EA040226EA05073A431A440B6905EBB2220693069F23
S3250000F000BF4B3B441E4424EA020702EA05033B4333444E6902EB73630796079FB94E3E44B9
S3250000F020344425EA030703EA02063E4326448C6903EB36560894089FB34C3C44254422EAB3
S3250000F040060706EA03043C432C44CD6906EBF4340195019FAD4D23EA040C3D442A4404EA3E
S3250000F06006054CEA05051544A94F0A6A04EBB52526EA050C0992174405EA04023B444CEAF0
S3250000F08002021A44A34F4B6A05EB726224EA020C0A931F4402EA05033E444CEA0303334458
S3250000F0A08E6A02EB33530B96A6F5244C03EA0206ACF14F0C644425EA030C4CEA060CCF6AFF
S3250000F0C0A444954C03EBFC3C3C44254422EA0C090CEA030449EA04090C97A9448F4C0D6B11
S3250000F0E00CEBB9292C4423EA0906224409EA0C04344314444A6B09EB74640D920D9E884AD0
S3250000F100039F324413442CEA040604EA090232431A448E6B834B04EB32526FEA020833447A
S3250000F12008EA090A9C4402EA04034AEA03036344C96BDFF810A202EBF3336FEA030C8A440A
S3250000F1400CEA040BD14403EA020A4BEA0A0AD144DFF8F4A103EBB929BA44544403EA080869
S3250000F16009EA020A4AEA0808089F4444DFF8DC8109EBF464B844904409EA0C0C04EA0302C9
S3250000F18042EA0C020C9F4244DFF8C4C104EBF252BC4402EA0908634424EA090C48EA0C0C5E
S3250000F1A0029F6344DFF8ACC102EBB343BC4403EA0408E14422EA040C48EA0C0C079FE1448B
S3250000F1C0DFF8948103EB3939B84423EA020C444409EA020848EA0C080B9FA044524C09EBDB
S3250000F1E0F8683C4408EA030C224429EA03044CEA040414444D4A08EBF4540A44134404EAAD
S3250000F200090C28EA09024CEA020C9C44069A484B04EBBC4C134499440CEA080224EA08031B
S3250000F22013430A9F9944434B0CEB39393B4409EA040298442CEA0403134343443E4A09EB2B
S3250000F240F363324403EA0C08144429EA0C0248EA0202059F1444394A03EBF4543A4404EA0B
S3250000F2600908944423EA090248EA0202099F9444334A04EBBC4C3A440CEA0308914424EAFB
S3250000F280030248EA02020D9F4A44DFF8D0800CEB3232B84402EA040943442CEA040849EAA0
S3250000F2A00808049F4344DFF8B88002EBF363B84403EA0C09444422EA0C0849EA0808019F33
S3250000F2C04444DFF8A08003EBF454B84404EA0209C44423EA020849EA0808C444DFF8888035
S3250000F2E004EBBC4CA8440CEA030942443EE000BF78A46AD756B7C7E8DB702024EECEBDC1DE
S3250000F300AF0F7CF52AC68747134630A8019546FDD8988069AFF7448BBED75C892211906B7A
S3250000F320937198FD8E4379A65314440281E6A1D8C8FBD3E7E6CDE121D60737C3870DD5F44B
S3250000F340ED145A452108B44962251EF640B340C0515A5E26AAC7B6E95D102FD605E9E3A928
S3250000F360F8A3EFFCD9026F678A4C2A8D24EA0308079F49EA08084244A7F5B82A8CEA04083B
S3250000F380AAF2BE6A0CEB323288EA02089A44099FC244AC4B02EB3A7A3B4482EA0C0888EA37
S3250000F3A00A081C440C9F4444A74B0AEB74543B448AEA020888EA04089C44C444A34B04EBB3
S3250000F3C03C4C334484EA0A0B8BEA0C0B1A44039F5A449F4B0CEB72223B448CEA040888EA93
S3250000F3E002089A44069FC2449A4B02EB3A7A3B4482EA0C0888EA0A081C44019F4444964B02
S3250000F4000AEB74548AEA02083B4488EA040863440B9F4344DFF894C204EB334384EA0A08C4
S3250000F420BC4488EA030894440D9FC4448B4A03EB7C2C3A4483EA040888EA0C089244029F5E
S3250000F440C244874A0CEB3A7A3A448CEA030888EA0A081444059F4444824A0AEB74543A4416
S3250000F4608AEA0C08134488EA0408089A98447E4B04EB3848134484EA0A0989EA08099C4437
S3250000F480CC440A9B794A08EB7C2C1A4488EA040383EA0C0352441A44754B0CEB32722B4442
S3250000F4A08CEA080989EA02091C444C44714B02EB74540B4482EA0C0989EA04099844049F11
S3250000F4C0C8446D4B04EB384884EA02093B4489EA080963444B44029FDFF8D4C108EB7323AB
S3250000F4E0BC4463EA0409624489EA08094A44019FDFF8C0C103EBB262BC4462EA08075F4000
S3250000F50064443C445D4F02EBB454374464EA0306564047443744DFF8A0C1079E04EB774724
S3250000F520B444634467EA020C8CEA040C6344544E07EBF3232E4463EA04057D4032442A4487
S3250000F540059E504D03EBB262354462EA07065E402C4434440B9E02EBB454A6F5801564EAEF
S3250000F5600306A5F6833556402F443744464D039E04EB7747354467EA020C8CEA040C2B44F7
S3250000F5806344099E414D07EBF323354463EA040C8CEA070C2A4462443D4E03EBB2620E442F
S3250000F5A062EA0701594034440C44089D394902EBB454294464EA03055540394429440D9E87
S3250000F5C0354D04EB7141354461EA020666402B443344069F314D01EBF3233D4463EA0406AD
S3250000F5E04E402A4432442E4D0C9E03EBB262354462EA01075F402C443C442A4D049F02EB09
S3250000F600B4543D4464EA030656402944314407680A9E254D04EB7141354461EA02063A4418
S3250000F6200260664042682B4433440A4402EBF32343608268C36811441C448160C4600FB0AA
S3250000F640BDE8F08F81F6718722619D6D0C38E5FD44EABEA4A9CFDE4B604BBBF6C67E9B28CA
S3250000F660FA27A1EA8530EFD4051D880439D0D4D9E599DBE6F87CA21F6556ACC4A72394AB54
S3250000F680C3595B6592CC0C8FD15D84854F7EA86FE0E62CFE144301A3A111084E827E53F737
S3250000F6A035F23ABDBBD2D72A91D386EB70BCBFBE442229F497FF2A4339A093FC044B1B784A
S3250000F6C0012B02D100200070704700F023B800BF0C082000F8B5044610460F461646F4F737
S3250000F6E037FE0546BC4213D2207880B1204631462A46F4F741FD28B9635D3D2B02D1013550
S3250000F7006019F8BD14F8013B002BFBD1EAE7F8BD0020F8BD70B50646F4F71AFE0D4B054604
S3250000F7201C68A4B10F2DE36802DDE08DA16806E0EA1D34F8120005F1080234F81210184439
S3250000F74019443246FFF7C6FF10B92468E9E7204670BD00BF940920007FB543690446022B88
S3250000F7600D462DDC14225E1E02FB0606026D183642B94030013D8DE858000FC800F080F8FA
S3250000F78001232365236D00965A19B2F5805FC8BFC3F580552A462346206C616C00F048F822
S3250000F7A0236D1D44B5F5805F25650CD1606900232365013002286061CCBF0020012003E023
S3250000F7C04FF0FF3000E0012004B070BD034610B55C69022C08DD282A06DC084603F118015E
S3250000F7E0F4F7DCFC002010BD4FF0FF3010BD00BFF8B5044608460D4617461E46F4F7A8FD70
S3250000F800072802D84FF0FF30F8BD2846F4F7A0FD3F28F7D8204600215422F4F70FFD012372
S3250000F8206361069B25646764A664E3640020F8BD2DE9F04F89B0824603AD8B4691461F46D0
S3250000F840DDF8488000264E4517DA00953846142152465B46002400F021FB18F804302A5DDF
S3250000F860534008F804300134142CF6D13846013629462246F4F792FCE5E709B0BDE8F08FD1
S3250000F8802DE9F0438DB0202BB4BF1E4620260CAD149C3544814603A8884611463246169FCE
S3250000F8A0F4F77CFC231603A805F8243C311D231405F8233C231205F8223C05F8214C4A4633
S3250000F8C04346009700F0EAFA159839461422F4F765FC0DB0BDE8F0830B1A5842584170479C
S3250000F8E00068704700687047807D70474368C288C3F3140303EB521283680132580D400534
S3250000F90010447047008870470069C0F380307047836840685B0DC0F314005B0518447047DF
S3250000F9200069C0F3403070470069C0F340207047006980F40040C0F3C030704703468068A3
S3250000F9409A890844511A986099817047034680689A89401A1144986099817047036923F4AF
S3250000F96080430361704700BF036923F400530361704700BF036923F400730361704700BF64
S3250000F980036943F480430361704700BF036943F400530361704700BF036943F400730361D7
S3250000F9A0704700BF8175704781817047036901F0070123F007030B43036170470369428B41
S3250000F9C01B689A4205D3994207D3914205D2418370479142FBD39942F9D27047836B37B538
S3250000F9E0DA685D680C46AA4209D1C478427883780094007901900748F4F744FC08E00AB92E
S3250000FA009A6800E052689460DA609A7801329A7003B030BD7AF508002DE9FF410C698F68EE
S3250000FA200B8B2468BD88A34234BFC3EB040CC3EB050C9C4284BF05EB0308C4EB080405F137
S3250000FA40FF3898BFC4EB0304F888C4EB0804644528BF6446B2FBF0F6A4B2B4420ED24F7861
S3250000FA608D78CB7809790B488DE842000392029439462A46F4F706FC002007E0BA6800FB81
S3250000FA8003203344AB42A8BF00230B8304B0BDE8F08100BFB3F50800C368F0B584681E8826
S3250000FAA0438BA5889E422CBFC3EB0603C3EB05039BB20B80E3B1866B3AB1E7887678B2FBBB
S3250000FAC0F7F2B24228BF324600E07278934228BF13460B80A368468BE2880C8802FB06336A
S3250000FAE03444AC42A8BF00244483088842430A801846F0BD442908B505D0452905D0044810
S3250000FB00F4F7C0FB01E07EF087FE002008BD00BF3DF60800CB680A691B681268934206D038
S3250000FB204A8B934214D14B8E93B9CB7F83B94B8C23F040024A8403F0200292B21AB1098CD2
S3250000FB4000227DF031BEDB0604D5098C7DF024BE7EF05ABE704700BF30B54589039C1580A0
S3250000FB6042680A60C2695A6042F0004281695A601960049A038913801BB143696360036991
S3250000FB80236030BDF7B514461F468A68002308460D460193ADF80230FFF7BAFE101A07285C
S3250000FBA003DC2048F4F76EFB39E028460821FFF7CDFEAE6828460221FFF7F4FE05233370D9
S3250000FBC00623737094F836305D0718D5019B02A90422B01C23F0F04343F0805341F8043DD1
S3250000FBE0F4F7DCFA94F83730013BDBB284F837302BB994F8363023F0040384F83630606D00
S3250000FC003946F5F7F9FA20B1A36D33F81730ADF802300222B01D0DF10201F4F7BFFA03B00D
S3250000FC20F0BD00BF07F6080070B18268D388B1FBF3F149B10369928818880144914202DB42
S3250000FC4000221A6070471960704700BF10B50346A0B18268D088B1FBF0F179B15869DB6800
S3250000FC6092881C8821449142A6BF00221A60196003220349BDE810407DF086BD10BD00BF6C
S3250000FC80785634122DE9F0410446406C618BF5F7B3FA00284FD0E368678B1B68BB4201D3B0
S3250000FCA0DB1B05E0A268B2F80480C7EB0808434400261FFA83F8B3B243453CD2A368F51914
S3250000FCC09B88206C95FBF3F103FB1151F5F794FA90B1A368606C9B8895FBF3F103FB115112
S3250000FCE0F5F78AFA40B9A3689B8895FBF3F203FB12556583BDE8F081A368206C9B8895FB45
S3250000FD00F3F103FB1151F5F777FA90B1A368606C9B8895FBF3F103FB1151F5F76DFA40B1E9
S3250000FD20A368628B9B88013292FBF3F103FB112363830136BFE7BDE8F08100BF826BD3680C
S3250000FD4043B100219868996019689378D160013B93707047184670472DE9F047ADF52A7D31
S3250000FD601D46B39E074633447F2B0C4600F38F8055B111468AA82A46F4F710FA0022AAAB9C
S3250000FD802B44013503F8802C05EB06088AA82844AAADB29932464544F4F700FA402C08F188
S3250000FDA001084FF0000305F8803C0CDD70A801F01DFE224670A83946142401F0E7FD3946A1
S3250000FDC070A801F031FE394611AF22466846F4F7E5F9C4F1410200A8204400210024F4F793
S3250000FDE02DFA384669464122F4F7D8F95DF8043083F036334DF804303B5983F05C333B518A
S3250000FE000434402CF2D122A801F0F0FD682222A93CA8F4F7C3F9224622A8694601F0B6FD68
S3250000FE2022463CA83946002401F0B0FDB59B03F1130A14239AFBF3FA9946544525DA682214
S3250000FE4022A956A8F4F7AAF968223CA970A8F4F7A5F942468AA956A801F098FDB49B56A8A9
S3250000FE6009FB04370134394601F0DEFD394670A8142201F08BFD394670A801F0D5FD15F810
S3250000FE80803C013305F8803CD7E7002001E04FF0FF300DF52A7DBDE8F08700BF2DE9F041BB
S3250000FEA0D6B0402B80460F4615461C465C9E0CDD3CA801F09BFD22463CA82946142401F03F
S3250000FEC065FD29463CA801F0AFFD294611AD22466846F4F763F9C4F1410200A8204400211B
S3250000FEE00024F4F7ABF9284669464122F4F756F95DF8043083F036334DF804302B5983F0BA
S3250000FF005C332B510434402CF2D122A801F06EFD682222A93CA8F4F741F9694622A8224604
S3250000FF2001F034FD3A4622A8414601F02FFD314622A801F079FD29463CA8224601F026FD34
S3250000FF4031463CA8142201F021FD31463CA801F06BFD56B0BDE8F081002806DA10F5004FCF
S3250000FF6016BF404247F6FF7080B200B2704700BF014447F6FF70814205DC11F5004FB4BFC1
S3250000FF804FF4004088B200B2704700BF002800EB010306DA00290BDA002BC8BF4FF000433D
S3250000FFA006E005D0002903DD002BB8BF6FF00043184670472DE9F34180EA010C90461FFA6E
S3250000FFC08CFCFFF7C9FF07460846FFF7C5FF0646384600F081F80546304600F07DF80446DD
S3250000FFE0691E38460E3500F097F80746214630462C1B00F091F801461CF4004FA8F80040C4
S32500010000384604D102B0BDE8F04100F007B800F005F8404200B202B0BDE8F08110B5C003DE
S32500010020CC030F224000A04205DB214600F0BAF80121FFF7ABFF013A92B2002AF2D1C0F3CD
S325000100400E0010BD2DE9F04105469446984600F053F885401E39C5F34467154E084436F8DD
S325000100601740013783B236F81710C5F34F20091B89B200F02DF801B220B2FFF779FF1BB205
S325000100805942C903FFF782FF014600F035F804460846A4F1100100F059F844F6105100B24B
S325000100A000F008F8ACF80000A8F80040BDE8F081B069080010F5004F02D111F5004F01D041
S325000100C0484301E06FF0004040F3CF30704700BF4843000C704700BF58B100238213B2EBFB
S325000100E0E07F04D1013340009BB200B2F6E798B200E00F2000B2704750B100238217B2EB59
S32500010100E07F03D101339BB24000F7E798B200E01F2000B2704700BF0F2908B50B4605DC4E
S3250001012011F10F0F0BDB002901DC0AE00F2300220146FFF71DFF01329A42F9DB08BD6FF00E
S325000101400E035B42184100B208BD00BF1F2910B50A4605DC11F11F0F0CDB002901DA0BE017
S325000101601F220024944204DA01460134FFF70EFFF8E710BD6FF01E025242104110BD00BF44
S325000101804942FFF7C9BF00BF411A47F6FF70814205DC11F5004FB4BF4FF4004088B200B2AE
S325000101A0704700BF0028C1EB000306DB00290ADA002BB8BF6FF0004305E0002903DD002BA0
S325000101C0C8BF4FF000431846704700BF0023F0B5D3540133B3F5807FFAD100231D461C46BE
S325000101E0165D475D013537443B44DBB2D75C17550134B4F5807FD654B5FBF1F601FB165580
S32500010200EED1002382F8003182F80131F0BD00BF2DE9F04192F8007192F80141002307F109
S32500010220010C8B4214DA0CEB0306F6B2955D2C44E4B212F8048002F806801555965D35446B
S32500010240EDB218B1565DC55C7540C5540133E8E70029ACBF7918391C82F8001182F80141C9
S32500010260BDE8F0812DE9F04F87B0D578046892F800806C4084EA086492F80180D57984EAC5
S32500010280084492F80280977984EA08284468CDF808806C40157992F80F8084EA0564557960
S325000102A0DFF82C9384EA054484EA072703978468D77AC44D7C40177ADFF818A384EA0764AE
S325000102C0577A491084EA0747947A059187EA04240194C468049188EA040492F80C8084EAA0
S325000102E0086492F80D80927B84EA084888EA0228B54C0246DDF80CB02032029F5FFA8BF16B
S325000103003E0E54F8211055F82660019F86EA010C52F8101C8CEA010CC8F3074159F821604F
S325000103208CEA060C019EC6F307215AF82160F9B28CEA060C4FEA1B6654F8211055F826609E
S32500010340DDF808B04E4052F80C1C7140CBF307464FEA176B59F8266055F82BB07140C8F327
S3250001036007265AF826604E405FFA88F154F821108BEA010B52F8081C8BEA0107DDF80CB097
S32500010380CBF30741DDF808B059F821104F40CBF307214FEA186B5AF82110DDF80880794077
S325000103A055F82BB05FFA88F754F8278052F8047C8BEA0808DDF804B088EA0708CBF30747DE
S325000103C0DDF80CB059F8277088EA0708CBF307275FFA86FB5AF8277088EA0708049F013F09
S325000103E004974FEA1C6762D055F8277054F82BB087EA0B0B17688BEA070BC8F3074759F87B
S3250001040027708BEA070BC1F307275AF827708BEA07070297CFB24FEA166B54F8277055F865
S325000104202BB08BEA070B57688BEA070BCCF3074759F827708BEA070BC8F307275AF82770BF
S325000104408BEA070703975FFA88F74FEA116B54F8277055F82BB04FEA18688BEA070B9768A1
S3250001046055F828808BEA070BC6F30747C1F3074159F8277059F821108BEA070BCCF3072718
S325000104805FFA8CFCC6F307265AF8277054F82CC08BEA07070197D76888EA0C0888EA07080C
S325000104A088EA01085AF8261088EA010822E7059A5501464A441952F8277012F82B90455988
S325000104C007F07F4787EA090787EA0500C8F3074552F8255005F47F056840C1F3072552F84C
S325000104E0255005F47F456840D870050E1D70050C5D70050A300E9D7052F82050C8B212F8BD
S32500010500207005F07F4560687D406840CCF3074552F8255005F47F056840C8F3072552F83E
S32500010520255005F47F456840D871050E1D71050C5D71050A080E9D7152F820505FFA88F053
S325000105404FEA186812F8207005F07F45A0687D406840C6F30745C1F3074152F8255052F811
S325000105602110C6F3072605F47F05684001F47F01CCF307255FFA8CFC52F8255005F47F457B
S325000105806840D872050E1D72050C5D72050A52F828009D7212F82C5000F07F40E468684027
S325000105A06040484052F8261001F47F4180EA0102110E1973110C5973110A9973DA7307B0AB
S325000105C0BDE8F08FF06D0800F0790800F07D0800F0710800F07508002DE9F04F89B0D578F4
S325000105E0046897786C40157892F80F8084EA05645578CE4E84EA054484EA0727D57944681A
S3250001060004976C401579977984EA05645579DFF8289384EA054484EA072705978468D77A8B
S32500010620C34D7C40177ADFF814A384EA0764577A491084EA0747947A079187EA0424019435
S32500010640C468069188EA040492F80C8084EA086492F80D8084EA0848947B024688EA04289C
S32500010660049F5FFA88F1DDF814B020323C0E55F8211056F8244084EA010C52F8101C8CEA32
S32500010680010CCBF3074159F821408CEA040C019CC4F307215AF82140F9B2019F8CEA040C08
S325000106A04FEA1B6455F8211056F824404FEA176B4C4052F80C1C6140C7F3074459F8244037
S325000106C06140C8F307245AF824406140059CE7B256F82B4055F827B052F8087C84EA0B0BCC
S325000106E0C8F307448BEA070B59F82440049F8BEA04040394C7F30724DDF80CB05AF82440CE
S325000107004FEA18688BEA0404DDF804B056F828805FFA8BF7DDF810B055F8277088EA070848
S3250001072052F8047C88EA0707CBF30748DDF814B059F8288087EA0808CBF307275AF8277073
S3250001074088EA0708069F5FFA88FB013F06974FEA1C6761D056F8277055F82BB087EA0B0B32
S3250001076017688BEA070BC1F3074759F827708BEA070BC4F307275AF827708BEA070704970F
S325000107805FFA8CF74FEA116B55F8277056F82BB08BEA070B57688BEA070BC4F3074759F891
S325000107A027708BEA070BC8F307275AF827708BEA07070597CFB24FEA146BE4B255F8277070
S325000107C056F82BB055F824408BEA070B9768C1F307218BEA070BC8F307474FEA186859F83C
S325000107E0277056F828808BEA070B88EA0408CCF30727D468CCF3074C88EA040459F82C80AE
S325000108005AF8277084EA08085AF821408BEA0707019788EA040823E7079A5601454A8519EF
S3250001082052F8277012F82B90865907F07F4787EA090787EA0600C1F3074652F8266006F4AC
S325000108407F067040C4F3072652F8266006F47F467040D870060E1E70060C5E70060A080E49
S325000108609E7052F820605FFA8CF012F8207006F07F4668687E407040C4F3074652F826605D
S3250001088006F47F067040C8F3072652F8266006F47F467040D871060E1E71060C5E71060A1E
S325000108A0200EE4B29E7152F82060C8B212F8244012F8207006F07F46A8687E407040C8F31E
S325000108C007464FEA186852F82660C1F3072106F47F067040CCF30726CCF3074C52F8266062
S325000108E052F8211006F47F46704001F47F41D872060E1E72060C5E72060A52F828009E72F0
S3250001090000F07F406040EC68604052F82C4004F47F04604080EA0102110E1973110C5973BB
S32500010920110A9973DA7309B0BDE8F08FF0690800F0890800F08D0800F0810800F085080002
S325000109402DE9F843044600F0BFF88600224604EB00130021751A1032A942A3F1100319DAE7
S3250001096052F8107C04311D6942F8105C1F615D6952F80C7C42F80C5C5F619D6952F8087CEB
S3250001098042F8085C9F61DD6952F8047C42F8045CDF61DFE74FF0010C464A474B4749484D6F
S325000109A0484E844580F2848054F8107F0CF1010C5FFA87F813F828904FEA176852F8299020
S325000109C013F8288051F8288089EA0808C7F30749C7F3072713F8299013F8277055F829908B
S325000109E056F8277088EA090888EA0707276067685FFA87F813F828904FEA176852F829905C
S32500010A0013F8288051F8288089EA0808C7F30749C7F3072713F8299013F8277055F829904A
S32500010A2056F8277088EA090888EA07076760A7685FFA87F813F828904FEA176852F829909B
S32500010A4013F8288051F8288089EA0808C7F30749C7F3072713F8299013F8277055F829900A
S32500010A6056F8277088EA090888EA0707A760E7685FFA87F813F828904FEA176852F82990DB
S32500010A8013F8288051F8288089EA0808C7F30749C7F3072713F8299013F8277055F82990CA
S32500010AA056F8277088EA090888EA0707E76078E7BDE8F883F0790800F08D0800F06D080026
S32500010AC0F0710800F07508002DE9F0414B780C781B0443EA0463CC78802A83EA04038C7892
S32500010AE043EA042303604B790C794FEA034343EA0463CC7983EA04038C7943EA0423436027
S32500010B004B7A0C7A4FEA034343EA0463CC7A83EA04038C7A43EA042383604B7B0C7B4FEAF3
S32500010B20034343EA0463CC7B83EA04038C7B43EA0423C36039D1914B00221E78904FB60068
S32500010B409049C368D55904320468B24285EA0404DDB251F8255005F47F4C4FEA136584EA1F
S32500010B600C0411F825C0C3F3074584EA0C0451F8255005F07F4CC3F3072584EA0C0451F8C9
S32500010B80255005F47F0C456884EA0C04046184EA05048568446184EA050484EA03038461EC
S32500010BA0C36100F0DE801030CBE74B7C0C7C1B0443EA0463CC7CC02A83EA04038C7C43EAED
S32500010BC0042303614B7D0C7D4FEA034343EA0463CC7D83EA04038C7D43EA0423436141D14F
S32500010BE0694B18261B78694C06FB0306654A183E54F8045F43690168B04281EA0501DDB2EF
S32500010C0052F8255005F47F4581EA05014FEA136512F8255081EA0501C3F3074552F825507E
S32500010C2005F07F4581EA0501C3F3072552F8255005F47F0581EA05014568816181EA0501F4
S32500010C408568C16181EA0501C568016281EA0501416200F089800569183069404B40016124
S32500010C604361C5E74B7E0C7E1B0443EA0463CC7EB2F5807F83EA04038C7E43EA0423836171
S32500010C804B7F0C7F4FEA034343EA0463CC7F897F83EA040343EA0123C36168D13C4B0024C5
S32500010CA01D78374EAD00374BC269A75904340168AC4287EA0101D7B253F8277007F47F4C86
S32500010CC04FEA126781EA0C0113F827C0C2F3074781EA0C0153F8277007F07F4CC2F30727EF
S32500010CE081EA0C0153F8277007F47F0C476881EA0C01016281EA07018768416281EA07010B
S32500010D00C768816281EA0701C16233D00F0E203053F8277007F07F4CCFB213F8278050F895
S32500010D20107C8CEA080C8CEA0707C1F3074CC1F3072153F82CC053F821100CF47F0C87EA80
S32500010D400C0701F47F4C87EA0C0150F80C7C0161794050F8087C416179404A408161C2619A
S32500010D60A2E70A20BDE8F0810C20BDE8F0810020BDE8F0810E20BDE8F08100BFA007200061
S32500010D80F0910800F08D0800A2072000EC910800A107200008B57DF0AFFC00207CF0CCFCFF
S32500010DA0BDE808407CF0C0BC7CF0D6BC70B57CF0DBFC064C064625687CF0C6FC28442060AC
S32500010DC030467CF0D9FC206870BD00BFE8072000022970B506D1506800210A22F3F700FBC1
S32500010DE0054600E0082500246120AC4209D0461C0134F6B27CF020FD7B2E14BF30466120ED
S32500010E00F3E70A20BDE870407CF016BD022970B5154605DC18481168BDE87040F3F732BAA3
S32500010E20002150680A46F3F73BFF002104460A46A868F3F735FF0646E86820B100210A4697
S32500010E40F3F72EFF00E0012005469DB1042E03D10A482146226808E0022E03D108482146EE
S32500010E60228802E00748214622783444F3F70AFA013DEAE770BD00BF65F608007CF6080051
S32500010E8088F6080094F60800012908B50EDD506800210A22F3F7A4FA8002002100F0D4F974
S32500010EA00146BDE808400248F3F7ECB908BD00BF24570900024B1868024B196800F028B8AB
S32500010EC0E0072000EC072000024B1868024B196800F030B8E0072000EC07200002F078BC3E
S32500010EE0704700BF70B500F10C040D4600F1480654F8082C3AB154F80C3C15EA030102D0E9
S32500010F0054F8040C90470C34B442F1D170BD00BF70B50D4606467DF0F7FB04467DF0FCFBE2
S32500010F20E16BFFF7DFFF304602F028FE236C6B6270BD00BFF8B504460F467DF0E5FB63694F
S32500010F400646142B06DD204602F018FE3D6A336C1D4000E04125F563204602F00FFE0023E5
S32500010F607B6230462946BDE8F840FFF7BBBF00BF034B1B681B680BB100F028B8704700BF46
S32500010F80F0072000024B1B680BB1586099607047F407200010B5044600F00EF828B92046D8
S32500010FA00021BDE8104000F047B8204600F032F80028F4D110BD00BF034B1B681868D0F11A
S32500010FC0010038BF00207047F007200010B5FFF7F3FF60B900F00CF8044600F01BF80028F5
S32500010FE0F5D020460121BDE8104000F025B810BD074B1B68186850B15A6890424FF00002E3
S3250001100002D11A605A607047C1691960C2617047F007200008B5074B827B1B6842F00102B3
S32500011020827323B15A6812B19968904708BD4FF0FF3008BDF4072000074B00221B68C26156
S325000110401A680AB9586005E019B95A68D06158607047C26118607047F007200000F03EB824
S325000110602DE9F04105680446284602F09FFC00210A460B460746284602F0A2FC00210A46F2
S325000110800B468046284602F077FC0022064602212846134602F070FC646894B1A26872B16B
S325000110A02379E168002B0CBF33463B4603EA01000FD008EA0101884201D02168904724690B
S325000110C0EBE72846214632463346BDE8F04102F053BC0028F1D1F2E7704700BFFFF7C0BFEC
S325000110E0C31C23F003031A1A8A4210B51BD84418E41A24F003040F2C15D90C4A03F1080049
S3250001110011682144083C1160094A1C60116821441160084A11680831116000225A6000F0D6
S325000111200BF8204610BD002010BD00BF08082000F8072000000820001A4AA0F1080138B564
S325000111401468034650F8080C201A1060164A1068083810607DF0E8FA42681AB18A4201D2D2
S325000111601046F9E753F8084C1D19AA4205D1156852682C44083443F8084C43F8042C026854
S3250001118002F1080404448C4208D153F8081C53F8043C0A4443600832026000E04160002032
S325000111A038BD00BFF8072000000820002DE9F04192B0044600282CD068467DF0BDFA9DE8DF
S325000111C02800059FC3EB0508029B039D1349ED1A049B0E68C3EB070C069B079F1049FF1A52
S325000111E0104B09681A68104B27611B6867444544E36126620B443E440020A560A3623544C0
S32500011200D31A2080C4F80CC0626161626560A36101E04FF0FF3012B0BDE8F0810408200010
S325000112200008200008082000F807200008B50420152100F009F80028F9D1024B1A68013A2C
S325000112401A6008BDFC0720002DE9F74F03304FF0010B20F003020BFA01F1B1F5001F34BF87
S325000112608B464FF4001B7DF05FFA394B0021BBF1040F38BF4FF0040BD3F800A00D4689463C
S325000112800B46CBF100040BF1FF3B0194CDF800B044681CB3D4F8008090451DD3DDF804B0E1
S325000112A004F1080707EB080CC2EB0C060BEA0606BE4211D3DDF800B01BEA070F02D0F71BF5
S325000112C0072F09D9C2EB0807574505D26146354667B1BA46814623462046D9E7484633B9B6
S325000112E01C4A18461168013111602EE02346491B8C1A072C09D91E68A918361B083C1E6017
S32500011300AC505C684C60596011461A68521A072A03D85A684260184603E099509818083AD0
S325000113201A600D490830002350F8082C40F8043C0B6813440B6009490A6808320A601A448C
S32500011340074B19688A4288BF1A6003B0BDE8F08F08082000FC072000F807200000082000B5
S3250001136004082000044B1868044B1B68C01A044B1B68C01A704700BF08082000F80720004E
S325000113800008200010B1044B1B68036011B1034B1B680B60704700BFF8072000000820006D
S325000113A030B593B007A8FFF701FF00283CD11F48F2F768FF0A9B0B98099903F2FF340190CA
S325000113C000F2FF3001F2FF32A40A800A00940290920A1748F2F756FF0F980CA91AC9039058
S325000113E000F2FF30019403F2FF3504F2FF3401F2FF32800AAD0AA40A0490920A0095029470
S325000114000C48F2F73FFF089B119903F2FF3001F2FF32800A0090920A0748F2F733FF074B43
S3250001142007481968F2F72EFF13B030BDA0F60800AFF60800DCF6080021F70800FC072000A7
S325000114405AF7080038B50D4660B1046800204CB1A368AB4204D1E36813B1206998470120ED
S325000114602468F4E738BD00BFF8B516461F46B0B1436811EA030512D0046884B163691D421F
S325000114800BD025EA03050EB12046B047E3680BB1206998470FB12046B8472468EDE7F8BD8E
S325000114A00248034900227CF02FB900BFB1F708004D15010070B592B01E4D68467DF03CF925
S325000114C02978D1B90A980B9C241A06D02246F2F7B5FE0A982146FFF703FE17492246174852
S325000114E00124F2F7CFFE164B00221A702C70FFF79DFE2046F6F746FA17E0124B19781E46F4
S3250001150099B90C980D9C241A06D02246F2F796FE0C982146FFF7E4FD08480B492246F2F755
S32500011520B1FE00232B7001233370FFF77FFE12B070BD00BF0C082000466909007EF70800E6
S325000115400D0820000E082000C369090008B5074802217CF069F9064802217CF065F905485F
S325000115600221BDE808407CF05FB900BF75F7080078F708007BF708000021FFF765BE00BFB3
S32500011580FFF762BE0020704738B50546FFF7F4FF044618B100212A46F2F750FE204638BD00
S325000115A0FFF7CABD08B5FFF701FC084A40F61431B0FBF2F302FB130244F2A710504301FB0C
S325000115C01300002808BF6FF0004008BD1DF3010001207BF0C1BF00BF70B5174C0546236864
S325000115E026465B897F2B04D83368134C1B68E3B908E000F027F923685B897F2BF4D94FF0D8
S32500011600FF3018E0284600F08BF810F1160F05D088B11B3006D12368012201E02368022227
S325000116201A7202E00548F2F72DFE2846002100F01DF8002070BD70BD14082000B4F70800D7
S32500011640094B1B68186868B15A6890425A8903D100211960596001E041691960013A5A815B
S3250001166000234361704700BF14082000094B1B681A680AB9586005E019B95A685061586034
S3250001168001E0426118605A8901325A815B6800225A6170471408200010B5094C236873B1FA
S325000116A0C0787DF069F823681B68834207D1054B1B681B7A1BB1BDE8104000F0C3B810BD11
S325000116C0F4072000140820002DE9F843064680690F464568D0F80880FFF762FF0E4B002103
S325000116E018687DF0E1F80446A0B10023D0F81C90C361304600F090F825B120464946424686
S325000117003B46A847054B1B681B7A1BB1BDE8F84300F098B8BDE8F883180820001408200062
S325000117202DE9F04106464768D0F8008000F066F80546002858D02E4B1B6818687DF09CF8B2
S32500011740044688B9FFF70EFEB0F5804F03D8284600F062F81AE0224640464FF4F061F5F786
S32500011760BBFF04460028F2D0BB6C0C2023F00043AB60204B6B61FFF707FF58B9284600F01E
S325000117804BF8404621460122F5F7BEFF6FF01A00BDE8F081F268B6F90A304260326931897D
S325000117A08260B7F85420A861D31AAB811944204600F06CF83189204600F060F8FB7D0021E3
S325000117C0E375A368B6F90A202B617B6C13446B60094B224618687DF057F82846E761FFF78D
S325000117E0D9FB0020BDE8F0816FF01500BDE8F081F4072000C916010018082000054B1B6840
S32500011800186830B1C2691A601A89013A1A810023C36170471008200038B5094B20221C6805
S3250001182000210546F2F70AFD2268238912B96560256002E06268D56165600133238138BD86
S32500011840100820000C4B70B51C6823688BB1FFF7F7FE0646FFF764FF051EF6DA3046012167
S3250001186015F1160F14BF01250225FFF7FFFE257270BD237270BD00BF140820000346806871
S325000118809A890844511A9860998170478181704770B586B004A805A9FFF774FD304B1B68CB
S325000118A0B3B11C78ACB15989DD891A894D433C242C4805F2FF3304FB01549B128DE81800C6
S325000118C004F2FF339B1202932B46F2F7DBFC01E01C462546244B1A68B2B11378A3B15189AB
S325000118E0D3895C204B4300FB0130128903F2FF360444019000F2FF30B6128012029000960E
S325000119001A481D44F2F7BEFC194B1A682AB313781BB35189D3895C204B4300FB0130128937
S3250001192003F2FF360444019000F2FF30B6128012029000960F481D44F2F7A4FC049A05987E
S32500011940511B131801F2FF321B1B03F2FF30920A800A00900848F2F795FC06B070BD00BF49
S3250001196090092000EAF708008C09200017F808008409200049F808007EF80800038AD2B26D
S3250001198001FA03F3C168CA54704700BFF8B504460AB90020F8BD38B331B3036E13B10320DC
S325000119A06066F8BD406E00BB0D468F180126BD42EFD0636E002BECD1A18B4B1C04FA81F1A1
S325000119C09BB2A38315F8012B8A7761690831616121B9A1690131A16101B96666402BE6D1CE
S325000119E0204600F095F8E2E70120F8BD98B10B4A0023026002F188324260094A4361826013
S32500011A00A2F18832C260074A83618383026103664366184670470120704700BF0123456724
S32500011A20FEDCBA98F0E1D2C370B50E46044610B309B3456E05BB036E73B900F01FF82B4643
S32500011A402846E1180133402B4FF000028877F8D101236261A26123660023DA43991002F022
S32500011A60030254F82110D20021FA02F2F2540133142BF2D100E00125284670BD818B802231
S32500011A800BB20131372B034410B5818304469A774FF0000132DDA28B13B23F2B04DC234491
S32500011AA00132A2839977F6E7204600F031F80021A28B13B2372B04DC23440132A283997737
S32500011AC0F6E7A36920461A0E84F856201A0C84F8572084F859301A0A636984F858201A0E6C
S32500011AE084F85A201A0C84F85B201A0A84F85C2084F85D30BDE8104000F00AB8A28B13B20E
S32500011B00372BDEDC23440132A2839977F6E700BF2DE9F04FD3B003460022D97F02F108059C
S32500011B209C7F04320904043341EA04615C7F402A41EA04011C7F41EA04216C462951ECD130
S32500011B40002202AB196A0DF1080B5C6B04334C405BF802100432B2F5807F84EA010459681C
S32500011B6084EA01014FEAF171D963EBD1C36890E800110469876800931E46A2463946634644
S32500011B8042464FF0000901946D4609F1080B09F104095BF80540414D04EBF264254426EA2E
S32500011BA0030B01EA03044BEA0404B9F1500F254455444FEAB30305D0B2460E46194613460E
S32500011BC02A46E1E74FF00009354C4FEAF56A544483EA020A8AEA010AA24402AC4C4409F1B7
S32500011BE00409B9F1500F246D4FEAB2025444344405D00E46194613462A462546E4E700268D
S32500011C00DFF8A4904FEAF46AD1440DF1080AB244043643EA020BDAF8A0A00BEA050BD14460
S32500011C2003EA020A4BEA0A0A502ED14489444FEAB50505D0194613462A4625464C46DFE748
S32500011C400021184E4FEAF96A564485EA040A8AEA020AB24402AE0E4404315029D6F8F060FF
S32500011C604FEAB40456441E4405D013462A4625464C46B146E5E709EB0C033C444360846008
S32500011C80009B019C1D444644224400230660C5600261838353B0BDE8F08F00BF9979825AC9
S32500011CA0A1EBD96ED6C162CADCBC1B8F8B6E70B501F128060C46990813F00303054608D0E8
S32500011CC0022B56F821200CD0032B10D08020394B03E018464FF00042374B013342EA00424D
S32500011CE000E0344B581C1B7842EA032200E0314800784B1C0E2B40EA020246F8212009DD22
S32500011D000F2B04BF0023636620463146012201F099FA002300220E2B03D046F82320013349
S32500011D20F9E7636A20462366236A31466366012201F088FAE36E1C2B03D0202B21D10023D2
S32500011D4011E00023E258110EE954E9180433100C1C2B48704FEA12208870CA70F2D10023FC
S32500011D60A366012070BDE258110EE954E9180433100C202B48704FEA12208870CA70F2D1B8
S32500011D80EDE715D828460023E26EB3EB920FE6D254F8232004300133110E00F8041C110C58
S32500011DA000F8031C110A00F8021C00F8012CEBE7002070BD8A0609008B0609000B490C4AB3
S32500011DC00C4BDFF844C080E80E100B4B03610B4B43610B4B83610B4BC361002303624362AF
S32500011DE083662023C3660120704700BF67E6096A85AE67BB72F36E3C7F520E518C68059B08
S32500011E00ABD9831F19CDE05B3AF54FA5F8B506460C461546002A00F00381026A02EBC503EC
S32500011E20934202D2426A01324262726AB06E02EB557272623362002800F0B080830800F095
S32500011E400302284406F128013F283AD9022A01EB830E51F823000AD0032A0CD0012A02D07B
S32500011E602078013400062278013440EA02402278013440EA022022465F1C12F8014B204396
S32500011E8041F8230073460F2F144610D85078013714780432000440EA046012F8014C204398
S32500011EA012F8024C40EA042043F8040FEBE73046012201F0C7F9B36E403B1D440023B366D2
S32500011EC06CE0B066AE18032E1BD8012A51F8230009D002D3022A0ED010E02078013D4FEA61
S32500011EE000600BD00134012D04F10102247840EA044003D01446227840EA022041F82300CC
S32500011F008EE0860800F0030532B1022A51F8230009D0032A0BD002E020780134000622781B
S32500011F20013440EA02402278013440EA022014F8017B5A1C384341F8230001EB8303B242A3
S32500011F4010D26078013227780434000440EA076014F8017C384314F8027C40EA072043F807
S32500011F60040FECE7002D5BD0022D04EB050306D0032D0BD113F8010CA31C000200E000203B
S32500011F8013F8014C013B40EA044000E0002013F8013C40EA036041F8220041E0AF0907D058
S32500011FA03A46BF01214630463C4401F047F9ED1BB5B3A90806F12800B56605F0030522468C
S32500011FC00B46064693B15778013B92F800C004323F0447EA0C6712F801CC47EA0C0712F882
S32500011FE002CC47EA0C2746F8047BEBE7022D04EB810404EB050208D0032D02D0012D0DD19A
S3250001200008E012F8013CA21C1B0212F8014C013A43EA044312F8012C43EA026340F8213057
S325000120200120F8BD2DE9F04FADB008900020169117921B9312911390179F013F1797013739
S3250001204001F0F980089F0899089ABF6909685268089B089C11979B68E46805910A92089DBD
S32500012060119A089E0898E9492D697669C0690F931594E74F1144E74BE74A1B9C0795109666
S325000120801890074432442B44002C00F07382079E129D119CD5F800C04FEAB61524EA0600AA
S325000120A085EAF625109C85EA76652F4404EA060568400A9E0F9D3844059F0CEB000485EAA7
S325000120C006003840354068404FEAB70585EA773585EAB755DDF84C802844169E159D4644D6
S325000120E02544204477684FEAB51484EAF524394484EA7564CDF870C001EB040C10991D9792
S3250001210021EA0507079905EA01046740059C674400EA04090A9C00EA040189EA0108059974
S3250001212004EA010C88EA0C044FEAB00CDDF83C808CEA703CB8448CEAB05C64443C444FEA94
S32500012140B81CB7688CEAF82C3A448CEA786C9444079A1E9722EA080708EA05027A40624471
S3250001216004EA000A04EA01074FEAB40C8AEA07078CEA743C87EA09018CEAB45C01EB0C07C9
S32500012180DDF828C017449444F1684FEABC1282EAFC2282EA7C620B4413441F910CEA0802BE
S325000121A025EA0C015140194407EA040907EA00024FEAB70389EA020283EA773383EAB75325
S325000121C082EA0A0A0AEB0302059B0A440B44D6F810A09249CDF880A051444FEAB31A8AEAF4
S325000121E0F32A8AEA736A2944514403EA0C0528EA030A8AEA05050D4402EA070A02EA04018E
S325000122004FEAB20B8AEA01018BEA723B8BEAB25B81EA090909EB0B0128442944D6F81490DF
S325000122207F4DCDF884904D444FEAB01989EAF02989EA706945444D4400EA03082CEA000959
S3250001224089EA0808A84401EA020901EA07054FEAB10B89EA05058BEA713B8BEAB15B85EA98
S325000122600A0A0AEB0B0544444544D6F818A0DFF8C481CDF888A0D0444FEAB41A8AEAF42AF1
S325000122808AEA746AE044D04404EA000C23EA040A8AEA0C0CC44405EA010A05EA02084FEAD8
S325000122A0B50B8AEA08088BEA753B8BEAB55B88EA090909EB0B086744E044D6F81C90DFF87E
S325000122C078C1CDF88C90CC444FEAB71989EAF72989EA77699C44CC4407EA040320EA0709DC
S325000122E089EA0303634408EA050908EA010C4FEAB80B89EA0C0C8BEA783B8BEAB85B8CEA0B
S325000123000A0A0AEB0B0C1A449C44D6F820A0454BCDF890A053444FEAB21A8AEAF22A8AEAA5
S32500012320726A0344534402EA070024EA020A8AEA000018440CEA080A0CEA05034FEABC0BF9
S325000123408AEA03038BEA7C3B8BEABC5B83EA090909EB0B0301440344D6F824903248CDF876
S32500012360949048444FEAB11989EAF12989EA71692044484401EA020427EA010989EA040452
S32500012380044403EA0C0903EA08004FEAB30B89EA00008BEA733B8BEAB35B80EA0A0A0AEB74
S325000123A00B0025442044D6F828A0204CCDF898A054444FEAB51A8AEAF52A8AEA756A3C4439
S325000123C0544405EA010722EA050A8AEA0707274400EA030A00EA0C044FEAB00B8AEA0404FE
S325000123E08BEA703B8BEAB05B84EA090909EB0B04B8443C44D6F82C900D4FCDF89C904F44CD
S325000124004FEAB81989EAF82918E000BF91443771982F8A42A5DBB5E9CFFBC0B55BC2563947
S32500012420F111F15998AA07D8015B8312BE853124C37D0C55A4823F92D55E1CAB89EA7869B9
S3250001244017444F4408EA050221EA080989EA02023A4404EA000904EA03074FEAB40B89EA23
S3250001246007078BEA743B8BEAB45B87EA0A0A0AEB0B0794441744D6F830A03B4ACDF8A0A0B8
S3250001248052444FEABC1A8AEAFC2A0A448AEA7C6A52440CEA080125EA0C0A8AEA01011144C9
S325000124A007EA040A07EA00024FEAB70B8AEA02028BEA773B82EA09098BEAB75B09EB0B0283
S325000124C00B440A44D6F834902849CDF8A49049444FEAB31989EAF329294489EA73694944F2
S325000124E003EA0C0528EA030989EA05050D4402EA070902EA04014FEAB20B89EA01018BEA1E
S32500012500723B81EA0A0A8BEAB25B0AEB0B0128442944D6F838A0164DCDF8A8A055444FEA44
S32500012520B01A8AEAF02A45448AEA706A554400EA03082CEA000A8AEA0808A84401EA020A50
S3250001254001EA07054FEAB10B8AEA05058BEA713B85EA09098BEAB15B09EB0B0544444544D2
S32500012560D6F83C8037E300BF745DBE72FEB1DE80A706DC9B139D169E129C2E4420787478B7
S32500012580240444EA0064F0780443B07844EA002407981C944FEAB01585EAF02585EA70653C
S325000125A005EB070C119D25EA0008109D05EA000788EA07000A9D0F9F6044044487EA050079
S325000125C0059F00EA070C0F9805408CEA05004FEAB70585EA773585EAB7552844159D2044DF
S325000125E0254474793779240444EA0764F7794FEAB51C3C43B7798CEAF52C44EA072421448F
S325000126008CEA756C8C4410991D9421EA0507079905EA01046740059C674400EA040B0A9CF5
S3250001262000EA04018BEA0108059904EA010C88EA0C044FEAB00C8CEA703C8CEAB05CDDF89D
S325000126403C806444B8443C44777A96F808C03F0447EA0C6796F80BC04FEAB81947EA0C07BE
S3250001266096F80AC089EAF82947EA0C271E971744079A89EA786907EB090C22EA080708EAEA
S3250001268005027A40624404EA000A04EA01074FEAB40C8AEA07078CEA743C87EA0B018CEA4A
S325000126A0B45C01EB0C07DDF828C017449444727B317B120442EA0162F17B4FEABC190A430F
S325000126C0B17B89EAFC2942EA01221F9289EA7C6925EA0C0113440CEA08024B4451401944E7
S325000126E007EA040907EA00024FEAB70389EA020283EA773383EAB75382EA0A0A0AEB030270
S32500012700059B96F811A00B440A44317C4FEA0A4A4AEA016AF17C4FEAB20B4AEA010AB17C8E
S325000127208BEA723B4AEA012AF849CDF880A051444FEAB31A8AEAF32A8AEA736A294451446C
S3250001274003EA0C0528EA030A8AEA05050D4402EA070A02EA04018AEA01018BEAB25B81EA35
S32500012760090909EB0B0196F8159028442944357D4FEA094949EA0569F57D4FEAB10B49EABC
S325000127800509B57D8BEA713B49EA0529E04DCDF884904D444FEAB01989EAF02989EA7069FF
S325000127A045444D4400EA03082CEA000989EA0808A84401EA020901EA070589EA05058BEA96
S325000127C0B15B85EA0A0A0AEB0B0596F819A04444454496F818804FEA0A4A4AEA086A96F81F
S325000127E01B804FEAB50B4AEA080A96F81A808BEA753B4AEA082ADFF83483CDF888A0D044B6
S325000128004FEAB41A8AEAF42A8AEA746AE044D04404EA000C23EA040A8AEA0C0CC44405EAF6
S32500012820010A05EA02088AEA08088BEAB55B88EA090909EB0B0896F81D906744E04496F861
S325000128401CC04FEA094949EA0C6996F81FC04FEAB80B49EA0C0996F81EC08BEA783B49EAEA
S325000128600C29DFF8CCC2CDF88C90CC444FEAB71989EAF72989EA77699C44CC4407EA0403EF
S3250001288020EA070989EA0303634408EA050908EA010C89EA0C0C8BEAB85B8CEA0A0A0AEB66
S325000128A00B0C96F821A01A449C4496F820304FEA0A4A4AEA036A96F823304FEABC0B4AEA4C
S325000128C0030A96F822308BEA7C3B4AEA032A914BCDF890A053444FEAB21A8AEAF22A8AEA06
S325000128E0726A0344534402EA070024EA020A8AEA000018440CEA080A0CEA05038AEA0303BA
S325000129008BEABC5B83EA090909EB0B0396F825900144034496F824004FEA094949EA0069FB
S3250001292096F827004FEAB30B49EA000996F826008BEA733B49EA00297748CDF89490484441
S325000129404FEAB11989EAF12989EA71692044484401EA020427EA010989EA0404044403EAE7
S325000129600C0903EA080089EA00008BEAB35B80EA0A0A0AEB0B0096F829A02544204496F820
S3250001298028404FEA0A4A4AEA046A96F82B404FEAB00B4AEA040A96F82A408BEA703B4AEA1E
S325000129A0042A5E4CCDF898A054444FEAB51A8AEAF52A8AEA756A3C44544405EA010722EA9A
S325000129C0050A8AEA0707274400EA030A00EA0C048AEA04048BEAB05B84EA090909EB0B0484
S325000129E096F82D90B8443C4496F82C704FEA094949EA076996F82F704FEAB40B49EA070949
S32500012A0096F82E708BEA743B49EA0729444FCDF89C904F444FEAB81989EAF82989EA7869F3
S32500012A2017444F4408EA050221EA080989EA02023A4404EA000904EA030789EA07078BEAB2
S32500012A40B45B87EA0A0A0AEB0B0796F831A09444174496F830204FEA0A4A4AEA026A96F8A9
S32500012A6033204FEAB70B4AEA020A96F832208BEA773B4AEA022A2B4ACDF8A0A052444FEA11
S32500012A80BC1A8AEAFC2A0A448AEA7C6A52440CEA080125EA0C0A8AEA0101114407EA040A93
S32500012AA007EA00028AEA020282EA09098BEAB75B09EB0B0296F835900B440A4496F83410DC
S32500012AC04FEA094949EA016996F837104FEAB20B49EA010996F836108BEA723B49EA01296C
S32500012AE01149CDF8A49049444FEAB31989EAF329294489EA7369494403EA0C0528EA0309F6
S32500012B0089EA05050D4402EA070913E05BC25639F111F15998AA07D8015B8312BE8531244F
S32500012B20C37D0C55745DBE72FEB1DE80A4823F92D55E1CAB02EA040189EA010181EA0A0A09
S32500012B408BEAB25B0AEB0B0196F839A02844294496F838504FEA0A4A4AEA056A96F83B504C
S32500012B604FEAB10B4AEA050A96F83A508BEA713B4AEA052A2D4DCDF8A8A055444FEAB01A57
S32500012B808AEAF02A45448AEA706A554400EA03082CEA000A8AEA0808A84401EA020A01EAC9
S32500012BA007058AEA050585EA09098BEAB15B09EB0B0596F83D904444454496F83C804FEA8F
S32500012BC0094949EA086996F83F8049EA080896F83E9048EA0928164ECDF8AC8046444FEA91
S32500012BE0B41888EAF428664488EA7468464404EA000C23EA040888EA0C0C664482EA010C32
S32500012C000CEA050C8CEA0A0A4FEAB50C8CEA753C8CEAB55CE244F719B244064E0497102722
S32500012C20CDF818A00B96039706E000BFA706DC9B74F19BC118920800DDF80C800DF1B00981
S32500012C4008F1010608F00F0B06F00F0609EB860656F8407C4FEAF71A8AEAB74A08F10E07F9
S32500012C6007F00F0C09EB8C07199757F840CC08F1090707F00F082CAF4FEA7C4907EB880738
S32500012C8009972CAF07EB8B071497099F89EAFC4957F840BC149F89EA9C2C57F8407CBB44E0
S32500012CA056F8407C8AEAD7080BEB0807DDF8108007EB0C0A149F4FEAB81C47F840AC8CEADD
S32500012CC0F82C0B9F20EA08098CEA786C04EA080889EA08083F6CC444BC44DDF81880D444F1
S32500012CE00DF1B00A81EA0507634407EA080701EA050C87EA0C074FEAB80C8CEA783C8CEADA
S32500012D00B85CDDF80C90DDF80CB01A44674409920BF10F021F4409F102030E9702F00F02DB
S32500012D2003F00F030AEB82070AEB8303DDF80CA057F840BC1A970AF10A0253F840CC02F0C1
S32500012D400F02DDF838A02CAF07EB82024FEAFC1956F8407C52F8402C89EABC494FEA7B48DB
S32500012D6088EAFB4889EADC0C3A44624488EA9B273A440B9FDDF8248046F8402C7E6C4FEA76
S32500012D80B81B06448BEAF82B8BEA786BDDF81090324402EB0B06DDF818B024EA080008EA91
S32500012DA009020AEA0B0742400AEA05003244784005EA0B060DF1B00B70404FEABA0686EA80
S32500012DC07A3686EABA56304410440C902CA8DDF80CC002EB010A0CF1030202F00F0200EBFB
S32500012DE08202149852F8401C50F8406C4FEAF11C8CEAB14C03994FEA764801F10B0953F865
S32500012E00401C09F00F0988EAF6480BEB890088EA962650F8400C4FEABA1B0844304452F835
S32500012E20406C8BEAFA2B8CEAD60108440B9943F8400C8B6C099E2344049C8BEA7A6B184426
S32500012E40DDF8308000EB0B030AEA060124EA0A00DDF83890DDF818B04840184408EA0906BB
S32500012E6008EA0B044FEAB803DDF80CC0744083EA78330CF1110183EAB85301F00F016740BA
S32500012E802CAC1F440CF1040300EB050903F00F0307442CA800EB830300EB81010CF10C00E8
S32500012EA053F8408C00F00F0051F8401C04EB80000D9752F8404C50F8400C4FEAF81787EA1A
S32500012EC0B8474FEA714585EAF145204487EAD80485EA912120442CAC0B9D084442F8400CD0
S32500012EE0049FEA6C4FEAB9183A4488EAF92888EA7968104400EB0802DDF8248009EA0A01A4
S32500012F0028EA0900DDF834B0DDF830C048400E9910440BEA0C070DF1B00C0BEA01027A401A
S32500012F2056404FEABB0282EA7B3282EABB521644DDF818B0039A83440644501D039D123276
S32500012F40049600F00F0002F00F0204EB800004EB820205F10D0450F8408C04F00F0452F880
S32500012F60401C0CEB840453F8405C4FEAF81654F8404C86EAB8464FEA714282EAF1422C4400
S32500012F8086EAD80582EA91212C440C4443F8404C0B9EDDF82480336D4FEABB16234486EA95
S32500012FA0FB260BEA090286EA7B662AEA0B04434433442CAE5440DDF810C01C440D990C9BB7
S32500012FC0039D0CEA01080CEA030205F113014FEABC0301F00F0188EA020283EA7C3383EA4E
S32500012FE0BC535740FA180E9B06EB810123442244AC1D51F8405C04F00F044FEA754106EB94
S32500013000840481EAF54154F8407C069119994FEAF71C51F8406C50F8401C8CEAB74C8CEA5B
S32500013020D7070E443E44069F0B9987EA95252E4440F8406C486D4FEAB31C06448CEAF32C71
S32500013040B2448CEA736C0AEB0C0603EA0B0129EA030A8AEA010AB244049D0D9E039F02EAAF
S32500013060050C02EA0601FE1D4FEAB20006F00F068CEA010180EA723081EA080880EAB250C9
S3250001308008EB00010DF1B00808EB8606DDF80C8056F8405C0C984FEAF51787EAB5470697C2
S325000130A008F11407504407F00F0751440DF1B00A0AEB87071A9D57F8407C55F840AC4FEA50
S325000130C0774854F8405C88EAF748CDF82480AA44DDF8188056F8405C88EAD505AA44099D03
S325000130E001EA020885EA97270AEB070544F8405C0B9FDDF80CA0BC6D2BEA00070AF1080A51
S325000131002C444C444FEAB01989EAF02989EA70694C4400EA0305DDF810906F40274401EAD2
S3250001312009054FEAB10488EA050584EA713485EA0C0C84EAB1540CEB04050DF1B00C0D9CA0
S325000131403D443C440AF00F07CDF80CA00CEB8707DDF80C9057F8407C09F10D0C0DF1B0091B
S325000131604FEAF71A0CF00F0C8AEAB74A09EB8C0C8AEAD70A56F8407C5CF840CCBA44149F76
S325000131804FEA7C4957F8407C89EAFC4989EA9C2C5744674446F8407C0B9E4FEAB41CF66DD7
S325000131A08CEAF42C3744BB448CEA746C23EA040704EA00067E40E344B34482EA01062E40D9
S325000131C0049F86EA08084FEAB5065F4486EA753686EAB5560497039FB0440B9E402FD84433
S325000131E006F12006CDF818800B967FF425AD059F46463E44089F3E600A9E35447D60159EC0
S325000132000F9F089D39443244A960EA60079F049A10993A440C442A616C61119A189C104448
S325000132202344129EA861EB614036139D129640351395FEF701BF2DB0BDE8F08F0023FEF762
S32500013240F1BE00BF0123FEF7EDBE00BFEDF74EBB07B5034600F092FC0146184603B05DF859
S3250001326004EB7AF019BB00BF00F1C0500068704737B5154640F63C6291420C4606D800938A
S32500013280002122462B4600F093F800E0002003B030BD00BFD0F8B0300BB198B27047808FDF
S325000132A0704700BF0020704738B5044600F07CF805464FF400612046002200F065FDD0F88E
S325000132C0F020294622F00F0242F00402C0F8F0202046BDE8384000F065BD00BFF8B5856E51
S325000132E00446D0F8986065B1D0F88830103356F82320036E9A4203D1406EA847054600E06A
S3250001330000252046A16D7AF0D7FAE36E074653B1D4F88820103256F82210226E914202D1C4
S32500013320606E294698473846F8BD00BF704700BF4FF0FF30704700BFF8B5856E0446D0F86C
S32500013340986065B1D0F88830103356F82320036E9A4203D1406EA847054600E00025204690
S32500013360A16D7AF0D9FAE36E074653B1D4F88820103256F82210226E914202D1606E2946B0
S3250001338098473846F8BD00BFEDF7CABAEDF7ECBAEDF71EBBEDF73CBBD0F88820D0F89830CB
S325000133A0103253F822007047D0F88800704700BFEDF752BBEDF76CBB10B5D0F88810D0F8F1
S325000133C09840FFF7E9FF0022234604EB8104A34205D0196C0433814208BF0132F7E71046CA
S325000133E010BD00BF0A4640F6120100F0CDBC00BF00207047836973B59A004FF00005044656
S32500013400ADF8065002D44FF0FF354AE04FF400612A46D0F8886000F0B7FC0028F3D062691A
S32500013420222AD8BFC0F86851C0F86451C0F860516269222A03DC1C4AC0F8442105E00122DA
S32500013440C0F84821FF22C0F84C216269222A4FF0000206DCC0F88021C0F87C21C0F87821C5
S3250001346003E0C0F87421C0F870213146204600F099FC20460DF1060100F080FF054678B914
S32500013480BDF806306BB163692046222BD3BF4FF48021064940220A46002300F009F800E034
S325000134A00025284602B070BD0000FBBF40005555F7B51F46836905469B000C4616460AD57F
S325000134C077B10021009128464FF4A0724FF08043FFF76EFF04E000F0C7FB0028F0D122E062
S325000134E06B69222B0ADD220C194B12049A4203D14FF4A272A4B205E044F080444FF4A07286
S3250001350026F080460096284600212346FFF750FFDFB14FF080430093284600214FF4A072EC
S32500013520FFF746FF11E0EB6958070ED5230C084A1B04934209D12846A2B240F6645133464D
S3250001354003B0BDE8F04000F019B903B0F0BD00BF000055552DE9F04F8BB004460992089341
S3250001356000F082F933237722204640F60C4100F005F9002109A800F025FE024609A8012113
S3250001358000F020FE844609A8022100F01BFE034609A80321039300F015FE834608A800211E
S325000135A000F004FE01215FFA80F808A800F0FEFD0221C7B208A800F0F9FD0321C6B208A806
S325000135C000F0F4FD0021C5B214A800F0EFFD824614A8012100F0EAFD069014A8022100F0F1
S325000135E0E5FD079014A8032100F0E0FD814641462046CDF810C0059200F0ACF82046394645
S3250001360000F0A8F82046314600F0A4F82046294600F0A0F8059A2046D1B2424600F07AF9DA
S32500013620DDF810C020463A465FFA8CF100F072F9039B20463246D9B200F06CF920465FFAAC
S325000136408BF12A46112500F065F900955FFA8AF220464FF40071FF2300F0BEFD069B00956C
S325000136602046DAB240F20121FF2300F0B5FD079B00952046DAB240F20221FF23012500F083
S32500013680ABFD02235FFA89F2009320460421FF2300F0A2FD00952046102140F69452072341
S325000136A000F0B4F800952046102140F678522B4600F0ACF80BB0BDE8F08F00BF70B5D0F8AB
S325000136C09850D0F88C4000200346A04209D005EB8006366C8E4202D1934203D0013301307B
S325000136E0F3E7112070BD00BFEDF7DCB9EDF7FCB9F7B50B4C074616461D4600914FF4446231
S3250001370021684FF0FF33FFF753FE0095384621684FF460623346FFF74BFE03B0F0BD00BFE9
S32500013720A009200037B50A4C00914FF4446221684FF0FF330546FFF73BFE00230093284665
S32500013740216840F60462FFF733FE03B030BD00BFA009200070B505460E4600242846214631
S3250001376000F01AF8B04204D1284621460C2200F0D1F80134202CF1D170BD00BF37B500930F
S32500013780044B0D46144619682A462346FFF710FE03B030BDA009200013B501AA002304467F
S325000137A0084669460093019300F03CFD20460099FFF7B8FF019BD84000F00F0002B010BDD7
S325000137C013B540F64844009400F034FD02B010BD094A002313B50093116840F61442044604
S325000137E0FFF7E6FD830105D5204602B0BDE8104000F058BD02B010BDA0092000024844F2B1
S325000138006531F0F73FBD00BF8E0609002DE9F3410B4C17461E4600914FF4446221684FF028
S32500013820FF338046089DFFF7C3FD2168089540463A46334602B0BDE8F041FFF7B9BD00BFD6
S32500013840A0092000C36910B55907044609D500F00BF84FF47F42204640F674511346FFF778
S325000138608DFF002010BD00BF4FF4402238B540F60C4113460446FFF781FF0022134640F62A
S325000138800C4120460A25FFF779FF0022134640F60C412046FFF772FF40F60302204640F62F
S325000138A00C411346FFF76AFF0022204640F60C411346FFF763FF013DF6D12B4640F60C4147
S325000138C040F603022046FFF759FF2A462B4640F60C412046FFF752FF2A462B4640F60C417D
S325000138E02046FFF74BFF2B46204640F60C414FF440224FF44E65FFF741FF294604352046E2
S325000139004FF0FF320023FFF739FFB5F5566FF4D138BD00BF73B50546164601AA002408460B
S3250001392069460094019400F07DFC019B0F2228469A4006FA03F300991340FFF7D9FE02B0C9
S3250001394070BD00BF022B13B50C460BD002B949B1084913B10B681C4003E00B681C4324EAF6
S3250001396003042240009200216C222346FFF720FD02B010BD9C09200037B5446915460A2CAC
S325000139800FDD29B1012905D002290AD1842202E0782200E07C22009300212B46FFF708FD95
S325000139A001E04FF0FF3003B030BD00BF07B50021009160220B46FFF7FBFC03B05DF804FB1D
S325000139C013B50C4602B949B1084913B10B681C4003E00B681C4324EA03042240009200214E
S325000139E070222346FFF7E4FC02B010BD9C09200013B544690B460F2C05DD009200218C2267
S32500013A00FFF7D6FC01E04FF0FF3002B010BD00BF022B13B50C460BD002B949B1084913B15E
S32500013A200B681C4003E00B681C4324EA030422400092002164222346FFF7BAFC02B010BDB7
S32500013A409C092000022B13B50C460BD002B949B1084913B10B681C4003E00B681C4324EA1C
S32500013A60030422400092002168222346FFF7A0FC02B010BD9C09200073B544690E46132CF2
S32500013A80154609DD002100938E420CBF58225C222B46FFF78DFC01E04FF0FF3002B070BD79
S32500013AA013B544690B460F2C05DD009200218822FFF77EFC01E04FF0FF3002B010BD00BFC2
S32500013AC007B5034600F05AF80146184603B05DF804EB79F001BF00BFD0F89430D3F80001BC
S32500013AE0704700BF0020704707B5034600F046F80146184603B05DF804EB79F0F5BE00BFC8
S32500013B00436970B51E2B044611DD836913F080430FD00021D0F8886000F044F9D0F8905114
S32500013B203146204600F03EF905F0010070BD012070BD184670BD00BF07B5034600F01EF8B4
S32500013B400146184603B05DF804EB79F0D5BE00BFECF7D2BF704700BFD0F8983010B5D0F800
S32500013B608C40002003EB8404A34205D01A6C04338A4208BF0130F7E710BD00BF806D704793
S32500013B8037B513460C460546FFF7F8FF01462246284679F0B9FE4FF47A7003B0BDE830401D
S32500013BA079F0BABD704700BF002070470020704708B503490348F0F765FB002008BD00BFBB
S32500013BC0F0060900B606090008B503490348F0F759FB002008BD00BFFB060900B606090018
S32500013BE0704700BF2DE9F743DDF8288004460D4616461F4653B9CDF8288020462946324657
S32500013C003B4603B0BDE8F043FFF7D2BB036A152BF1DD0846114600F0A3FB0028EBD04FF03E
S32500013C2000094FF4C162CDF80090204629460023FFF7BEFB4205F4D4DDE700BF70B5044611
S32500013C401646D0F8985000F0ADF8E36E53B1D4F88800103055F82020206E824202D1606E53
S32500013C603146984770BD00BFC06900F00100704743692DE9F341222B05460E4601DC00204B
S32500013C807FE0FFF7F1FF0028F9D0072EF7D828464FF400610022D5F8888000F075F8044633
